{
  "contractName": "Crowdfunding",
  "abi": [
    {
      "inputs": [
        {
          "internalType": "string",
          "name": "campaignName",
          "type": "string"
        },
        {
          "internalType": "uint256",
          "name": "targetAmountEth",
          "type": "uint256"
        },
        {
          "internalType": "uint256",
          "name": "durationInMin",
          "type": "uint256"
        },
        {
          "internalType": "address payable",
          "name": "beneficiaryAddress",
          "type": "address"
        }
      ],
      "stateMutability": "nonpayable",
      "type": "constructor"
    },
    {
      "anonymous": false,
      "inputs": [
        {
          "indexed": false,
          "internalType": "address",
          "name": "addr",
          "type": "address"
        },
        {
          "indexed": false,
          "internalType": "uint256",
          "name": "totalCollected",
          "type": "uint256"
        },
        {
          "indexed": false,
          "internalType": "bool",
          "name": "succeeded",
          "type": "bool"
        }
      ],
      "name": "CampaignFinished",
      "type": "event"
    },
    {
      "anonymous": false,
      "inputs": [
        {
          "indexed": true,
          "internalType": "address",
          "name": "previousOwner",
          "type": "address"
        },
        {
          "indexed": true,
          "internalType": "address",
          "name": "newOwner",
          "type": "address"
        }
      ],
      "name": "OwnershipTransferred",
      "type": "event"
    },
    {
      "inputs": [
        {
          "internalType": "address",
          "name": "",
          "type": "address"
        }
      ],
      "name": "amounts",
      "outputs": [
        {
          "internalType": "uint256",
          "name": "",
          "type": "uint256"
        }
      ],
      "stateMutability": "view",
      "type": "function",
      "constant": true
    },
    {
      "inputs": [],
      "name": "beneficiary",
      "outputs": [
        {
          "internalType": "address payable",
          "name": "",
          "type": "address"
        }
      ],
      "stateMutability": "view",
      "type": "function",
      "constant": true
    },
    {
      "inputs": [],
      "name": "collected",
      "outputs": [
        {
          "internalType": "bool",
          "name": "",
          "type": "bool"
        }
      ],
      "stateMutability": "view",
      "type": "function",
      "constant": true
    },
    {
      "inputs": [],
      "name": "fundingDeadline",
      "outputs": [
        {
          "internalType": "uint256",
          "name": "",
          "type": "uint256"
        }
      ],
      "stateMutability": "view",
      "type": "function",
      "constant": true
    },
    {
      "inputs": [],
      "name": "name",
      "outputs": [
        {
          "internalType": "string",
          "name": "",
          "type": "string"
        }
      ],
      "stateMutability": "view",
      "type": "function",
      "constant": true
    },
    {
      "inputs": [],
      "name": "owner",
      "outputs": [
        {
          "internalType": "address",
          "name": "",
          "type": "address"
        }
      ],
      "stateMutability": "view",
      "type": "function",
      "constant": true
    },
    {
      "inputs": [],
      "name": "renounceOwnership",
      "outputs": [],
      "stateMutability": "nonpayable",
      "type": "function"
    },
    {
      "inputs": [],
      "name": "state",
      "outputs": [
        {
          "internalType": "enum Crowdfunding.State",
          "name": "",
          "type": "uint8"
        }
      ],
      "stateMutability": "view",
      "type": "function",
      "constant": true
    },
    {
      "inputs": [],
      "name": "targetAmount",
      "outputs": [
        {
          "internalType": "uint256",
          "name": "",
          "type": "uint256"
        }
      ],
      "stateMutability": "view",
      "type": "function",
      "constant": true
    },
    {
      "inputs": [
        {
          "internalType": "address",
          "name": "newOwner",
          "type": "address"
        }
      ],
      "name": "transferOwnership",
      "outputs": [],
      "stateMutability": "nonpayable",
      "type": "function"
    },
    {
      "stateMutability": "payable",
      "type": "receive",
      "payable": true
    },
    {
      "inputs": [],
      "name": "totalCollected",
      "outputs": [
        {
          "internalType": "uint256",
          "name": "",
          "type": "uint256"
        }
      ],
      "stateMutability": "view",
      "type": "function",
      "constant": true
    },
    {
      "inputs": [],
      "name": "finishCrowdfunding",
      "outputs": [],
      "stateMutability": "nonpayable",
      "type": "function"
    },
    {
      "inputs": [],
      "name": "cancelCrowdfunding",
      "outputs": [],
      "stateMutability": "nonpayable",
      "type": "function"
    },
    {
      "inputs": [],
      "name": "collect",
      "outputs": [],
      "stateMutability": "nonpayable",
      "type": "function"
    },
    {
      "inputs": [],
      "name": "withdraw",
      "outputs": [],
      "stateMutability": "nonpayable",
      "type": "function"
    },
    {
      "inputs": [],
      "name": "beforeDeadline",
      "outputs": [
        {
          "internalType": "bool",
          "name": "",
          "type": "bool"
        }
      ],
      "stateMutability": "view",
      "type": "function",
      "constant": true
    }
  ],
  "bytecode": "0x60806040523480156200001157600080fd5b5060405162001e9138038062001e91833981810160405281019062000037919062000753565b620000576200004b6200024260201b60201c565b6200024a60201b60201c565b83600190805190602001906200006f92919062000466565b508273__Utils_________________________________63d8916bb990916040518263ffffffff1660e01b8152600401620000ab9190620007f5565b602060405180830381865af4158015620000c9573d6000803e3d6000fd5b505050506040513d601f19601f82011682018060405250810190620000ef919062000812565b6002819055508173__Utils_________________________________63529b380f90916040518263ffffffff1660e01b8152600401620001309190620007f5565b602060405180830381865af41580156200014e573d6000803e3d6000fd5b505050506040513d601f19601f8201168201806040525081019062000174919062000812565b620001846200030e60201b60201c565b62000190919062000873565b60038190555080600460006101000a81548173ffffffffffffffffffffffffffffffffffffffff021916908373ffffffffffffffffffffffffffffffffffffffff1602179055506000600460146101000a81548160ff021916908360038111156200020057620001ff620008d0565b5b021790555062000238600460009054906101000a900473ffffffffffffffffffffffffffffffffffffffff166200031660201b60201c565b5050505062000a7e565b600033905090565b60008060009054906101000a900473ffffffffffffffffffffffffffffffffffffffff169050816000806101000a81548173ffffffffffffffffffffffffffffffffffffffff021916908373ffffffffffffffffffffffffffffffffffffffff1602179055508173ffffffffffffffffffffffffffffffffffffffff168173ffffffffffffffffffffffffffffffffffffffff167f8be0079c531659141344cd1fd0a4f28419497f9722a3daafe3b4186f6b6457e060405160405180910390a35050565b600042905090565b62000326620003ac60201b60201c565b600073ffffffffffffffffffffffffffffffffffffffff168173ffffffffffffffffffffffffffffffffffffffff160362000398576040517f08c379a00000000000000000000000000000000000000000000000000000000081526004016200038f9062000986565b60405180910390fd5b620003a9816200024a60201b60201c565b50565b620003bc6200024260201b60201c565b73ffffffffffffffffffffffffffffffffffffffff16620003e26200043d60201b60201c565b73ffffffffffffffffffffffffffffffffffffffff16146200043b576040517f08c379a00000000000000000000000000000000000000000000000000000000081526004016200043290620009f8565b60405180910390fd5b565b60008060009054906101000a900473ffffffffffffffffffffffffffffffffffffffff16905090565b828054620004749062000a49565b90600052602060002090601f016020900481019282620004985760008555620004e4565b82601f10620004b357805160ff1916838001178555620004e4565b82800160010185558215620004e4579182015b82811115620004e3578251825591602001919060010190620004c6565b5b509050620004f39190620004f7565b5090565b5b8082111562000512576000816000905550600101620004f8565b5090565b6000604051905090565b600080fd5b600080fd5b600080fd5b600080fd5b6000601f19601f8301169050919050565b7f4e487b7100000000000000000000000000000000000000000000000000000000600052604160045260246000fd5b6200057f8262000534565b810181811067ffffffffffffffff82111715620005a157620005a062000545565b5b80604052505050565b6000620005b662000516565b9050620005c4828262000574565b919050565b600067ffffffffffffffff821115620005e757620005e662000545565b5b620005f28262000534565b9050602081019050919050565b60005b838110156200061f57808201518184015260208101905062000602565b838111156200062f576000848401525b50505050565b60006200064c6200064684620005c9565b620005aa565b9050828152602081018484840111156200066b576200066a6200052f565b5b62000678848285620005ff565b509392505050565b600082601f8301126200069857620006976200052a565b5b8151620006aa84826020860162000635565b91505092915050565b6000819050919050565b620006c881620006b3565b8114620006d457600080fd5b50565b600081519050620006e881620006bd565b92915050565b600073ffffffffffffffffffffffffffffffffffffffff82169050919050565b60006200071b82620006ee565b9050919050565b6200072d816200070e565b81146200073957600080fd5b50565b6000815190506200074d8162000722565b92915050565b6000806000806080858703121562000770576200076f62000520565b5b600085015167ffffffffffffffff81111562000791576200079062000525565b5b6200079f8782880162000680565b9450506020620007b287828801620006d7565b9350506040620007c587828801620006d7565b9250506060620007d8878288016200073c565b91505092959194509250565b620007ef81620006b3565b82525050565b60006020820190506200080c6000830184620007e4565b92915050565b6000602082840312156200082b576200082a62000520565b5b60006200083b84828501620006d7565b91505092915050565b7f4e487b7100000000000000000000000000000000000000000000000000000000600052601160045260246000fd5b60006200088082620006b3565b91506200088d83620006b3565b9250827fffffffffffffffffffffffffffffffffffffffffffffffffffffffffffffffff03821115620008c557620008c462000844565b5b828201905092915050565b7f4e487b7100000000000000000000000000000000000000000000000000000000600052602160045260246000fd5b600082825260208201905092915050565b7f4f776e61626c653a206e6577206f776e657220697320746865207a65726f206160008201527f6464726573730000000000000000000000000000000000000000000000000000602082015250565b60006200096e602683620008ff565b91506200097b8262000910565b604082019050919050565b60006020820190508181036000830152620009a1816200095f565b9050919050565b7f4f776e61626c653a2063616c6c6572206973206e6f7420746865206f776e6572600082015250565b6000620009e0602083620008ff565b9150620009ed82620009a8565b602082019050919050565b6000602082019050818103600083015262000a1381620009d1565b9050919050565b7f4e487b7100000000000000000000000000000000000000000000000000000000600052602260045260246000fd5b6000600282049050600182168062000a6257607f821691505b60208210810362000a785762000a7762000a1a565b5b50919050565b6114038062000a8e6000396000f3fe6080604052600436106100f75760003560e01c80638da5cb5b1161008a578063c19d93fb11610059578063c19d93fb14610409578063e29eb83614610434578063e52253811461045f578063f2fde38b146104765761023e565b80638da5cb5b14610385578063953b8fb8146103b0578063a4fac527146103db578063a84669de146103f25761023e565b806368bc0041116100c657806368bc0041146102ed578063715018a614610318578063796b23bb1461032f57806384bcefd41461035a5761023e565b806306fdde031461024357806338af3eed1461026e5780633ccfd60b1461029957806355a3b2c1146102b05761023e565b3661023e57600080600381111561011157610110610d56565b5b600460149054906101000a900460ff16600381111561013357610132610d56565b5b14610173576040517f08c379a000000000000000000000000000000000000000000000000000000000815260040161016a90610de2565b60405180910390fd5b61017b61049f565b6101ba576040517f08c379a00000000000000000000000000000000000000000000000000000000081526004016101b190610e4e565b60405180910390fd5b34600560003373ffffffffffffffffffffffffffffffffffffffff1673ffffffffffffffffffffffffffffffffffffffff16815260200190815260200160002060008282546102099190610ea7565b9250508190555060025461021b6104b2565b1061023c576001600660006101000a81548160ff0219169083151502179055505b005b600080fd5b34801561024f57600080fd5b506102586104ba565b6040516102659190610f85565b60405180910390f35b34801561027a57600080fd5b50610283610548565b6040516102909190610fe8565b60405180910390f35b3480156102a557600080fd5b506102ae61056e565b005b3480156102bc57600080fd5b506102d760048036038101906102d29190611046565b61073b565b6040516102e49190611082565b60405180910390f35b3480156102f957600080fd5b5061030261049f565b60405161030f91906110b8565b60405180910390f35b34801561032457600080fd5b5061032d610753565b005b34801561033b57600080fd5b50610344610767565b6040516103519190611082565b60405180910390f35b34801561036657600080fd5b5061036f61076d565b60405161037c91906110b8565b60405180910390f35b34801561039157600080fd5b5061039a610780565b6040516103a791906110e2565b60405180910390f35b3480156103bc57600080fd5b506103c56107a9565b6040516103d29190611082565b60405180910390f35b3480156103e757600080fd5b506103f06107af565b005b3480156103fe57600080fd5b506104076108a3565b005b34801561041557600080fd5b5061041e610a25565b60405161042b9190611145565b60405180910390f35b34801561044057600080fd5b506104496104b2565b6040516104569190611082565b60405180910390f35b34801561046b57600080fd5b50610474610a38565b005b34801561048257600080fd5b5061049d60048036038101906104989190611046565b610b71565b005b60006003546104ac610bf4565b10905090565b600047905090565b600180546104c79061118f565b80601f01602080910402602001604051908101604052809291908181526020018280546104f39061118f565b80156105405780601f1061051557610100808354040283529160200191610540565b820191906000526020600020905b81548152906001019060200180831161052357829003601f168201915b505050505081565b600460009054906101000a900473ffffffffffffffffffffffffffffffffffffffff1681565b600180600381111561058357610582610d56565b5b600460149054906101000a900460ff1660038111156105a5576105a4610d56565b5b146105e5576040517f08c379a00000000000000000000000000000000000000000000000000000000081526004016105dc90610de2565b60405180910390fd5b6000600560003373ffffffffffffffffffffffffffffffffffffffff1673ffffffffffffffffffffffffffffffffffffffff1681526020019081526020016000205411610667576040517f08c379a000000000000000000000000000000000000000000000000000000000815260040161065e9061120c565b60405180910390fd5b6000600560003373ffffffffffffffffffffffffffffffffffffffff1673ffffffffffffffffffffffffffffffffffffffff1681526020019081526020016000205490506000600560003373ffffffffffffffffffffffffffffffffffffffff1673ffffffffffffffffffffffffffffffffffffffff168152602001908152602001600020819055503373ffffffffffffffffffffffffffffffffffffffff166108fc829081150290604051600060405180830381858888f19350505050158015610736573d6000803e3d6000fd5b505050565b60056020528060005260406000206000915090505481565b61075b610bfc565b6107656000610c7a565b565b60035481565b600660009054906101000a900460ff1681565b60008060009054906101000a900473ffffffffffffffffffffffffffffffffffffffff16905090565b60025481565b60008060038111156107c4576107c3610d56565b5b600460149054906101000a900460ff1660038111156107e6576107e5610d56565b5b14610826576040517f08c379a000000000000000000000000000000000000000000000000000000000815260040161081d90610de2565b60405180910390fd5b61082e610bfc565b61083661049f565b610875576040517f08c379a000000000000000000000000000000000000000000000000000000000815260040161086c90610e4e565b60405180910390fd5b6001600460146101000a81548160ff0219169083600381111561089b5761089a610d56565b5b021790555050565b60008060038111156108b8576108b7610d56565b5b600460149054906101000a900460ff1660038111156108da576108d9610d56565b5b1461091a576040517f08c379a000000000000000000000000000000000000000000000000000000000815260040161091190610de2565b60405180910390fd5b610922610d3e565b610961576040517f08c379a000000000000000000000000000000000000000000000000000000000815260040161095890611278565b60405180910390fd5b600660009054906101000a900460ff166109a5576001600460146101000a81548160ff0219169083600381111561099b5761099a610d56565b5b02179055506109d1565b6002600460146101000a81548160ff021916908360038111156109cb576109ca610d56565b5b02179055505b7f6fa7e87ebbd87ed4f1c40bba63144f68fd2bb022fb748ab3b61b5411c39bd474306109fb6104b2565b600660009054906101000a900460ff16604051610a1a93929190611298565b60405180910390a150565b600460149054906101000a900460ff1681565b6002806003811115610a4d57610a4c610d56565b5b600460149054906101000a900460ff166003811115610a6f57610a6e610d56565b5b14610aaf576040517f08c379a0000000000000000000000000000000000000000000000000000000008152600401610aa690610de2565b60405180910390fd5b600460009054906101000a900473ffffffffffffffffffffffffffffffffffffffff1673ffffffffffffffffffffffffffffffffffffffff166108fc610af36104b2565b9081150290604051600060405180830381858888f1935050505015610b42576003600460146101000a81548160ff02191690836003811115610b3857610b37610d56565b5b0217905550610b6e565b6001600460146101000a81548160ff02191690836003811115610b6857610b67610d56565b5b02179055505b50565b610b79610bfc565b600073ffffffffffffffffffffffffffffffffffffffff168173ffffffffffffffffffffffffffffffffffffffff1603610be8576040517f08c379a0000000000000000000000000000000000000000000000000000000008152600401610bdf90611341565b60405180910390fd5b610bf181610c7a565b50565b600042905090565b610c04610d4e565b73ffffffffffffffffffffffffffffffffffffffff16610c22610780565b73ffffffffffffffffffffffffffffffffffffffff1614610c78576040517f08c379a0000000000000000000000000000000000000000000000000000000008152600401610c6f906113ad565b60405180910390fd5b565b60008060009054906101000a900473ffffffffffffffffffffffffffffffffffffffff169050816000806101000a81548173ffffffffffffffffffffffffffffffffffffffff021916908373ffffffffffffffffffffffffffffffffffffffff1602179055508173ffffffffffffffffffffffffffffffffffffffff168173ffffffffffffffffffffffffffffffffffffffff167f8be0079c531659141344cd1fd0a4f28419497f9722a3daafe3b4186f6b6457e060405160405180910390a35050565b6000610d4861049f565b15905090565b600033905090565b7f4e487b7100000000000000000000000000000000000000000000000000000000600052602160045260246000fd5b600082825260208201905092915050565b7f496e636f72726563742063726f776466756e64696e6720737461746500000000600082015250565b6000610dcc601c83610d85565b9150610dd782610d96565b602082019050919050565b60006020820190508181036000830152610dfb81610dbf565b9050919050565b7f446561646c696e65206861732070617373656400000000000000000000000000600082015250565b6000610e38601383610d85565b9150610e4382610e02565b602082019050919050565b60006020820190508181036000830152610e6781610e2b565b9050919050565b6000819050919050565b7f4e487b7100000000000000000000000000000000000000000000000000000000600052601160045260246000fd5b6000610eb282610e6e565b9150610ebd83610e6e565b9250827fffffffffffffffffffffffffffffffffffffffffffffffffffffffffffffffff03821115610ef257610ef1610e78565b5b828201905092915050565b600081519050919050565b60005b83811015610f26578082015181840152602081019050610f0b565b83811115610f35576000848401525b50505050565b6000601f19601f8301169050919050565b6000610f5782610efd565b610f618185610d85565b9350610f71818560208601610f08565b610f7a81610f3b565b840191505092915050565b60006020820190508181036000830152610f9f8184610f4c565b905092915050565b600073ffffffffffffffffffffffffffffffffffffffff82169050919050565b6000610fd282610fa7565b9050919050565b610fe281610fc7565b82525050565b6000602082019050610ffd6000830184610fd9565b92915050565b600080fd5b600061101382610fa7565b9050919050565b61102381611008565b811461102e57600080fd5b50565b6000813590506110408161101a565b92915050565b60006020828403121561105c5761105b611003565b5b600061106a84828501611031565b91505092915050565b61107c81610e6e565b82525050565b60006020820190506110976000830184611073565b92915050565b60008115159050919050565b6110b28161109d565b82525050565b60006020820190506110cd60008301846110a9565b92915050565b6110dc81611008565b82525050565b60006020820190506110f760008301846110d3565b92915050565b6004811061110e5761110d610d56565b5b50565b600081905061111f826110fd565b919050565b600061112f82611111565b9050919050565b61113f81611124565b82525050565b600060208201905061115a6000830184611136565b92915050565b7f4e487b7100000000000000000000000000000000000000000000000000000000600052602260045260246000fd5b600060028204905060018216806111a757607f821691505b6020821081036111ba576111b9611160565b5b50919050565b7f4e6f2066756e647320666f72206163636f756e74000000000000000000000000600082015250565b60006111f6601483610d85565b9150611201826111c0565b602082019050919050565b60006020820190508181036000830152611225816111e9565b9050919050565b7f446561646c696e6520686173206e6f7420706173736564000000000000000000600082015250565b6000611262601783610d85565b915061126d8261122c565b602082019050919050565b6000602082019050818103600083015261129181611255565b9050919050565b60006060820190506112ad60008301866110d3565b6112ba6020830185611073565b6112c760408301846110a9565b949350505050565b7f4f776e61626c653a206e6577206f776e657220697320746865207a65726f206160008201527f6464726573730000000000000000000000000000000000000000000000000000602082015250565b600061132b602683610d85565b9150611336826112cf565b604082019050919050565b6000602082019050818103600083015261135a8161131e565b9050919050565b7f4f776e61626c653a2063616c6c6572206973206e6f7420746865206f776e6572600082015250565b6000611397602083610d85565b91506113a282611361565b602082019050919050565b600060208201905081810360008301526113c68161138a565b905091905056fea26469706673582212204307258dec8b731af0bd59e0c7a222b93d4e1c7b9b1d582420338098c86b3d0f64736f6c634300080e0033",
  "immutableReferences": {},
  "source": "// SPDX-License-Identifier: UNLICENSED\r\npragma solidity ^0.8.0;\r\n\r\nimport \"../node_modules/@openzeppelin/contracts/access/Ownable.sol\";\r\nimport \"./Utils.sol\";\r\n\r\ncontract Crowdfunding is Ownable {\r\n\r\n    using Utils for uint;\r\n\r\n    enum State { Ongoing, Failed, Succeded, PaidOut }\r\n\r\n    event CampaignFinished(\r\n        address addr,\r\n        uint totalCollected,\r\n        bool succeeded\r\n    );\r\n\r\n    string public name;\r\n    uint public targetAmount;\r\n    uint public fundingDeadline;\r\n    address payable public beneficiary;\r\n    State public state;\r\n    mapping(address => uint) public amounts;\r\n    bool public collected;\r\n\r\n    modifier inState(State expectedState) {\r\n        require(state == expectedState,  \"Incorrect crowdfunding state\");\r\n        _;\r\n    }\r\n\r\n    constructor(\r\n        string memory campaignName,\r\n        uint targetAmountEth,\r\n        uint durationInMin,\r\n        address payable beneficiaryAddress\r\n    )\r\n    {\r\n        name = campaignName;\r\n        targetAmount = targetAmountEth.etherToWei();\r\n        fundingDeadline = currentTime() + durationInMin.minutesToSeconds();\r\n        beneficiary = beneficiaryAddress;\r\n        state = State.Ongoing;\r\n\r\n        transferOwnership(beneficiary);\r\n    }\r\n\r\n    receive() external payable inState(State.Ongoing) {\r\n        require(beforeDeadline(), \"Deadline has passed\");\r\n        amounts[msg.sender] += msg.value;\r\n\r\n        if (totalCollected() >= targetAmount) {\r\n            collected = true;\r\n        }\r\n    }\r\n\r\n    function totalCollected() public view returns(uint) {\r\n        return address(this).balance;\r\n    }\r\n\r\n    function finishCrowdfunding() public inState(State.Ongoing) {\r\n        require(afterDeadline(), \"Deadline has not passed\");\r\n\r\n        if (!collected) {\r\n            state = State.Failed;\r\n        } else {\r\n            state = State.Succeded;\r\n        }\r\n        emit CampaignFinished(address(this), totalCollected(), collected);\r\n    }\r\n\r\n    function cancelCrowdfunding() public inState(State.Ongoing) onlyOwner() {\r\n        require(beforeDeadline(), \"Deadline has passed\");\r\n\r\n        state = State.Failed;\r\n    }\r\n\r\n    function collect() inState(State.Succeded) public {\r\n        if (beneficiary.send(totalCollected())) {\r\n            state = State.PaidOut;\r\n        } else {\r\n            state = State.Failed;\r\n        }\r\n    }\r\n\r\n    function withdraw() public inState(State.Failed) {\r\n        require(amounts[msg.sender] > 0, \"No funds for account\");\r\n        uint contributed = amounts[msg.sender];\r\n        amounts[msg.sender] = 0;\r\n\r\n        payable(msg.sender).transfer(contributed);\r\n    }\r\n\r\n    function beforeDeadline() public view returns(bool) {\r\n        return currentTime() < fundingDeadline;\r\n    }\r\n\r\n    function afterDeadline() internal view returns(bool) {\r\n        return !beforeDeadline();\r\n    }\r\n\r\n    function currentTime() private view returns(uint) {\r\n        return block.timestamp;\r\n    }\r\n}",
  "sourcePath": "D:\\Ethereum Projects\\DAWithEth\\truffle-project\\contracts\\Crowdfunding.sol",
  "compiler": {
    "name": "solc",
    "version": "0.8.14+commit.80d49f37.Emscripten.clang"
  },
  "schemaVersion": "3.4.11",
  "updatedAt": "2023-02-22T19:44:33.553Z",
  "networkType": "ethereum",
  "devdoc": {
    "kind": "dev",
    "methods": {
      "owner()": {
        "details": "Returns the address of the current owner."
      },
      "renounceOwnership()": {
        "details": "Leaves the contract without owner. It will not be possible to call `onlyOwner` functions anymore. Can only be called by the current owner. NOTE: Renouncing ownership will leave the contract without an owner, thereby removing any functionality that is only available to the owner."
      },
      "transferOwnership(address)": {
        "details": "Transfers ownership of the contract to a new account (`newOwner`). Can only be called by the current owner."
      }
    },
    "version": 1
  },
  "userdoc": {
    "kind": "user",
    "methods": {},
    "version": 1
  }
}