{
  "contractName": "HissedarOnay",
  "abi": [
    {
      "inputs": [
        {
          "internalType": "address",
          "name": "realOwnRelAddress",
          "type": "address"
        },
        {
          "internalType": "address",
          "name": "realEstateAddress",
          "type": "address"
        }
      ],
      "stateMutability": "nonpayable",
      "type": "constructor"
    },
    {
      "anonymous": false,
      "inputs": [
        {
          "indexed": false,
          "internalType": "uint256",
          "name": "onayId",
          "type": "uint256"
        },
        {
          "indexed": false,
          "internalType": "address",
          "name": "ownAdd",
          "type": "address"
        }
      ],
      "name": "onayEklendi",
      "type": "event"
    },
    {
      "inputs": [
        {
          "internalType": "uint256",
          "name": "",
          "type": "uint256"
        },
        {
          "internalType": "uint256",
          "name": "",
          "type": "uint256"
        }
      ],
      "name": "addIdOnayIdListMap",
      "outputs": [
        {
          "internalType": "uint256",
          "name": "",
          "type": "uint256"
        }
      ],
      "stateMutability": "view",
      "type": "function",
      "constant": true
    },
    {
      "inputs": [
        {
          "internalType": "uint256",
          "name": "",
          "type": "uint256"
        }
      ],
      "name": "onayIdMap",
      "outputs": [
        {
          "internalType": "uint256",
          "name": "realEstateId",
          "type": "uint256"
        },
        {
          "internalType": "uint256",
          "name": "fiyat",
          "type": "uint256"
        },
        {
          "internalType": "uint256",
          "name": "hissePay",
          "type": "uint256"
        },
        {
          "internalType": "uint256",
          "name": "hisseOran",
          "type": "uint256"
        },
        {
          "internalType": "address",
          "name": "onayci",
          "type": "address"
        },
        {
          "internalType": "uint256",
          "name": "realEstateAdId",
          "type": "uint256"
        },
        {
          "internalType": "enum NotaryContractBase.OnayDurum",
          "name": "onayDurum",
          "type": "uint8"
        }
      ],
      "stateMutability": "view",
      "type": "function",
      "constant": true
    },
    {
      "inputs": [
        {
          "internalType": "address",
          "name": "",
          "type": "address"
        },
        {
          "internalType": "uint256",
          "name": "",
          "type": "uint256"
        }
      ],
      "name": "ownerOnayIdListMap",
      "outputs": [
        {
          "internalType": "uint256",
          "name": "",
          "type": "uint256"
        }
      ],
      "stateMutability": "view",
      "type": "function",
      "constant": true
    },
    {
      "inputs": [
        {
          "internalType": "uint256",
          "name": "realEstateAdId",
          "type": "uint256"
        },
        {
          "internalType": "uint256",
          "name": "hisseID",
          "type": "uint256"
        },
        {
          "internalType": "uint256",
          "name": "satisFiyati",
          "type": "uint256"
        },
        {
          "internalType": "address",
          "name": "owner",
          "type": "address"
        },
        {
          "internalType": "uint256",
          "name": "realEstatePayda",
          "type": "uint256"
        }
      ],
      "name": "onayaGonder",
      "outputs": [],
      "stateMutability": "nonpayable",
      "type": "function"
    },
    {
      "inputs": [],
      "name": "getOnaylanacakVeri",
      "outputs": [
        {
          "components": [
            {
              "internalType": "uint256",
              "name": "onayID",
              "type": "uint256"
            },
            {
              "components": [
                {
                  "internalType": "uint256",
                  "name": "realEstateId",
                  "type": "uint256"
                },
                {
                  "internalType": "uint256",
                  "name": "fiyat",
                  "type": "uint256"
                },
                {
                  "internalType": "uint256",
                  "name": "hissePay",
                  "type": "uint256"
                },
                {
                  "internalType": "uint256",
                  "name": "hisseOran",
                  "type": "uint256"
                },
                {
                  "internalType": "address",
                  "name": "onayci",
                  "type": "address"
                },
                {
                  "internalType": "uint256",
                  "name": "realEstateAdId",
                  "type": "uint256"
                },
                {
                  "internalType": "enum NotaryContractBase.OnayDurum",
                  "name": "onayDurum",
                  "type": "uint8"
                }
              ],
              "internalType": "struct NotaryContractBase.OnayData",
              "name": "onayData",
              "type": "tuple"
            },
            {
              "components": [
                {
                  "internalType": "uint256",
                  "name": "realEstateId",
                  "type": "uint256"
                },
                {
                  "internalType": "string",
                  "name": "il",
                  "type": "string"
                },
                {
                  "internalType": "string",
                  "name": "ilce",
                  "type": "string"
                },
                {
                  "internalType": "string",
                  "name": "mahalle",
                  "type": "string"
                },
                {
                  "internalType": "string",
                  "name": "cadde",
                  "type": "string"
                },
                {
                  "internalType": "string",
                  "name": "sokak",
                  "type": "string"
                },
                {
                  "internalType": "uint256",
                  "name": "kat",
                  "type": "uint256"
                },
                {
                  "internalType": "string",
                  "name": "daireNo",
                  "type": "string"
                },
                {
                  "internalType": "string",
                  "name": "tasinmazTip",
                  "type": "string"
                },
                {
                  "internalType": "string",
                  "name": "nitelik",
                  "type": "string"
                },
                {
                  "internalType": "string",
                  "name": "ada",
                  "type": "string"
                },
                {
                  "internalType": "string",
                  "name": "parsel",
                  "type": "string"
                },
                {
                  "internalType": "uint256",
                  "name": "payda",
                  "type": "uint256"
                },
                {
                  "internalType": "bool",
                  "name": "registered",
                  "type": "bool"
                }
              ],
              "internalType": "struct NotaryContractBase.RealEstateData",
              "name": "realEstateData",
              "type": "tuple"
            }
          ],
          "internalType": "struct NotaryContractBase.HisseOnayView[]",
          "name": "",
          "type": "tuple[]"
        }
      ],
      "stateMutability": "view",
      "type": "function",
      "constant": true
    },
    {
      "inputs": [
        {
          "internalType": "uint256",
          "name": "onayId",
          "type": "uint256"
        },
        {
          "internalType": "address",
          "name": "onayci",
          "type": "address"
        }
      ],
      "name": "onayVer",
      "outputs": [],
      "stateMutability": "nonpayable",
      "type": "function"
    },
    {
      "inputs": [
        {
          "internalType": "uint256",
          "name": "onayId",
          "type": "uint256"
        },
        {
          "internalType": "address",
          "name": "onayci",
          "type": "address"
        }
      ],
      "name": "reddet",
      "outputs": [],
      "stateMutability": "nonpayable",
      "type": "function"
    },
    {
      "inputs": [
        {
          "internalType": "uint256",
          "name": "realEstateAdId",
          "type": "uint256"
        }
      ],
      "name": "ilanYayinlanabilirmi",
      "outputs": [
        {
          "internalType": "enum NotaryContractBase.State",
          "name": "",
          "type": "uint8"
        }
      ],
      "stateMutability": "view",
      "type": "function",
      "constant": true
    }
  ],
  "bytecode": "0x60806040523480156200001157600080fd5b50604051620020603803806200206083398181016040528101906200003791906200012a565b816000806101000a81548173ffffffffffffffffffffffffffffffffffffffff021916908373ffffffffffffffffffffffffffffffffffffffff16021790555080600160006101000a81548173ffffffffffffffffffffffffffffffffffffffff021916908373ffffffffffffffffffffffffffffffffffffffff160217905550505062000171565b600080fd5b600073ffffffffffffffffffffffffffffffffffffffff82169050919050565b6000620000f282620000c5565b9050919050565b6200010481620000e5565b81146200011057600080fd5b50565b6000815190506200012481620000f9565b92915050565b60008060408385031215620001445762000143620000c0565b5b6000620001548582860162000113565b9250506020620001678582860162000113565b9150509250929050565b611edf80620001816000396000f3fe608060405234801561001057600080fd5b50600436106100885760003560e01c8063a36d32fe1161005b578063a36d32fe1461012d578063a7df842e1461015d578063b2b4f4c414610179578063fe31f6ad1461019557610088565b806343e3b1ef1461008d57806349c7cb87146100bd57806382cbc1c8146100d95780638a63f785146100f7575b600080fd5b6100a760048036038101906100a29190610ea3565b6101c5565b6040516100b49190610ef2565b60405180910390f35b6100d760048036038101906100d29190610f6b565b6101f6565b005b6100e16102dc565b6040516100ee9190611403565b60405180910390f35b610111600480360381019061010c9190611425565b610618565b6040516101249796959493929190611470565b60405180910390f35b61014760048036038101906101429190611425565b610687565b6040516101549190611527565b60405180910390f35b61017760048036038101906101729190610f6b565b6108fa565b005b610193600480360381019061018e9190611542565b6109e1565b005b6101af60048036038101906101aa91906115bd565b610d25565b6040516101bc9190610ef2565b60405180910390f35b600360205281600052604060002081815481106101e157600080fd5b90600052602060002001600091509150505481565b8073ffffffffffffffffffffffffffffffffffffffff166002600084815260200190815260200160002060040160009054906101000a900473ffffffffffffffffffffffffffffffffffffffff1673ffffffffffffffffffffffffffffffffffffffff161461029a576040517f08c379a000000000000000000000000000000000000000000000000000000000815260040161029190611680565b60405180910390fd5b600280600084815260200190815260200160002060060160006101000a81548160ff021916908360038111156102d3576102d2610ff5565b5b02179055505050565b60606000600460003373ffffffffffffffffffffffffffffffffffffffff1673ffffffffffffffffffffffffffffffffffffffff16815260200190815260200160002080548060200260200160405190810160405280929190818152602001828054801561036957602002820191906000526020600020905b815481526020019060010190808311610355575b505050505090506000815167ffffffffffffffff81111561038d5761038c6116a0565b5b6040519080825280602002602001820160405280156103c657816020015b6103b3610d56565b8152602001906001900390816103ab5790505b5090506000805b835181101561060e5760008482815181106103eb576103ea6116cf565b5b602002602001015190506000600260008381526020019081526020016000206040518060e0016040529081600082015481526020016001820154815260200160028201548152602001600382015481526020016004820160009054906101000a900473ffffffffffffffffffffffffffffffffffffffff1673ffffffffffffffffffffffffffffffffffffffff1673ffffffffffffffffffffffffffffffffffffffff168152602001600582015481526020016006820160009054906101000a900460ff1660038111156104c2576104c1610ff5565b5b60038111156104d4576104d3610ff5565b5b8152505090506000600160009054906101000a900473ffffffffffffffffffffffffffffffffffffffff1673ffffffffffffffffffffffffffffffffffffffff16639f8188b383600001516040518263ffffffff1660e01b815260040161053b9190610ef2565b600060405180830381865afa158015610558573d6000803e3d6000fd5b505050506040513d6000823e3d601f19601f820116820180604052508101906105819190611aa6565b905060038081111561059657610595610ff5565b5b8260c0015160038111156105ad576105ac610ff5565b5b036105f8576040518060600160405280848152602001838152602001828152508686806105d990611b1e565b9750815181106105ec576105eb6116cf565b5b60200260200101819052505b505050808061060690611b1e565b9150506103cd565b5081935050505090565b60026020528060005260406000206000915090508060000154908060010154908060020154908060030154908060040160009054906101000a900473ffffffffffffffffffffffffffffffffffffffff16908060050154908060060160009054906101000a900460ff16905087565b600080600360008481526020019081526020016000208054806020026020016040519081016040528092919081815260200182805480156106e757602002820191906000526020600020905b8154815260200190600101908083116106d3575b5050505050905060008060005b83518110156108dd57600060026000868481518110610716576107156116cf565b5b602002602001015181526020019081526020016000206040518060e0016040529081600082015481526020016001820154815260200160028201548152602001600382015481526020016004820160009054906101000a900473ffffffffffffffffffffffffffffffffffffffff1673ffffffffffffffffffffffffffffffffffffffff1673ffffffffffffffffffffffffffffffffffffffff168152602001600582015481526020016006820160009054906101000a900460ff1660038111156107e4576107e3610ff5565b5b60038111156107f6576107f5610ff5565b5b815250509050600160038111156108105761080f610ff5565b5b8160c00151600381111561082757610826610ff5565b5b036108435780606001518461083c9190611b66565b93506108c9565b6002600381111561085757610856610ff5565b5b8160c00151600381111561086e5761086d610ff5565b5b0361088a578060600151836108839190611b66565b92506108c8565b60038081111561089d5761089c610ff5565b5b8160c0015160038111156108b4576108b3610ff5565b5b036108c7576006955050505050506108f5565b5b5b5080806108d590611b1e565b9150506106f4565b508082116108ec5760076108ef565b60015b93505050505b919050565b8073ffffffffffffffffffffffffffffffffffffffff166002600084815260200190815260200160002060040160009054906101000a900473ffffffffffffffffffffffffffffffffffffffff1673ffffffffffffffffffffffffffffffffffffffff161461099e576040517f08c379a000000000000000000000000000000000000000000000000000000000815260040161099590611680565b60405180910390fd5b60016002600084815260200190815260200160002060060160006101000a81548160ff021916908360038111156109d8576109d7610ff5565b5b02179055505050565b60008060009054906101000a900473ffffffffffffffffffffffffffffffffffffffff1673ffffffffffffffffffffffffffffffffffffffff1663b4f21a63866040518263ffffffff1660e01b8152600401610a3d9190610ef2565b600060405180830381865afa158015610a5a573d6000803e3d6000fd5b505050506040513d6000823e3d601f19601f82011682018060405250810190610a839190611d11565b905060005b8151811015610d1c576000828281518110610aa657610aa56116cf565b5b602002602001015190508473ffffffffffffffffffffffffffffffffffffffff16816040015173ffffffffffffffffffffffffffffffffffffffff1614610d08576000428260400151604051602001610b00929190611dc3565b6040516020818303038152906040528051906020012060001c905060008583600001516064610b2f9190611def565b610b399190611e78565b90506040518060e001604052808460200151815260200189815260200184600001518152602001828152602001846040015173ffffffffffffffffffffffffffffffffffffffff1681526020018b8152602001600380811115610b9f57610b9e610ff5565b5b815250600260008481526020019081526020016000206000820151816000015560208201518160010155604082015181600201556060820151816003015560808201518160040160006101000a81548173ffffffffffffffffffffffffffffffffffffffff021916908373ffffffffffffffffffffffffffffffffffffffff16021790555060a0820151816005015560c08201518160060160006101000a81548160ff02191690836003811115610c5957610c58610ff5565b5b021790555090505060046000846040015173ffffffffffffffffffffffffffffffffffffffff1673ffffffffffffffffffffffffffffffffffffffff168152602001908152602001600020829080600181540180825580915050600190039060005260206000200160009091909190915055600360008b815260200190815260200160002082908060018154018082558091505060019003906000526020600020016000909190919091505550505b508080610d1490611b1e565b915050610a88565b50505050505050565b60046020528160005260406000208181548110610d4157600080fd5b90600052602060002001600091509150505481565b604051806060016040528060008152602001610d70610d83565b8152602001610d7d610de8565b81525090565b6040518060e0016040528060008152602001600081526020016000815260200160008152602001600073ffffffffffffffffffffffffffffffffffffffff1681526020016000815260200160006003811115610de257610de1610ff5565b5b81525090565b604051806101c00160405280600081526020016060815260200160608152602001606081526020016060815260200160608152602001600081526020016060815260200160608152602001606081526020016060815260200160608152602001600081526020016000151581525090565b6000604051905090565b600080fd5b600080fd5b6000819050919050565b610e8081610e6d565b8114610e8b57600080fd5b50565b600081359050610e9d81610e77565b92915050565b60008060408385031215610eba57610eb9610e63565b5b6000610ec885828601610e8e565b9250506020610ed985828601610e8e565b9150509250929050565b610eec81610e6d565b82525050565b6000602082019050610f076000830184610ee3565b92915050565b600073ffffffffffffffffffffffffffffffffffffffff82169050919050565b6000610f3882610f0d565b9050919050565b610f4881610f2d565b8114610f5357600080fd5b50565b600081359050610f6581610f3f565b92915050565b60008060408385031215610f8257610f81610e63565b5b6000610f9085828601610e8e565b9250506020610fa185828601610f56565b9150509250929050565b600081519050919050565b600082825260208201905092915050565b6000819050602082019050919050565b610fe081610e6d565b82525050565b610fef81610f2d565b82525050565b7f4e487b7100000000000000000000000000000000000000000000000000000000600052602160045260246000fd5b6004811061103557611034610ff5565b5b50565b600081905061104682611024565b919050565b600061105682611038565b9050919050565b6110668161104b565b82525050565b60e0820160008201516110826000850182610fd7565b5060208201516110956020850182610fd7565b5060408201516110a86040850182610fd7565b5060608201516110bb6060850182610fd7565b5060808201516110ce6080850182610fe6565b5060a08201516110e160a0850182610fd7565b5060c08201516110f460c085018261105d565b50505050565b600081519050919050565b600082825260208201905092915050565b60005b83811015611134578082015181840152602081019050611119565b83811115611143576000848401525b50505050565b6000601f19601f8301169050919050565b6000611165826110fa565b61116f8185611105565b935061117f818560208601611116565b61118881611149565b840191505092915050565b60008115159050919050565b6111a881611193565b82525050565b60006101c0830160008301516111c76000860182610fd7565b50602083015184820360208601526111df828261115a565b915050604083015184820360408601526111f9828261115a565b91505060608301518482036060860152611213828261115a565b9150506080830151848203608086015261122d828261115a565b91505060a083015184820360a0860152611247828261115a565b91505060c083015161125c60c0860182610fd7565b5060e083015184820360e0860152611274828261115a565b915050610100830151848203610100860152611290828261115a565b9150506101208301518482036101208601526112ac828261115a565b9150506101408301518482036101408601526112c8828261115a565b9150506101608301518482036101608601526112e4828261115a565b9150506101808301516112fb610180860182610fd7565b506101a08301516113106101a086018261119f565b508091505092915050565b6000610120830160008301516113346000860182610fd7565b506020830151611347602086018261106c565b50604083015184820361010086015261136082826111ae565b9150508091505092915050565b6000611379838361131b565b905092915050565b6000602082019050919050565b600061139982610fab565b6113a38185610fb6565b9350836020820285016113b585610fc7565b8060005b858110156113f157848403895281516113d2858261136d565b94506113dd83611381565b925060208a019950506001810190506113b9565b50829750879550505050505092915050565b6000602082019050818103600083015261141d818461138e565b905092915050565b60006020828403121561143b5761143a610e63565b5b600061144984828501610e8e565b91505092915050565b61145b81610f2d565b82525050565b61146a8161104b565b82525050565b600060e082019050611485600083018a610ee3565b6114926020830189610ee3565b61149f6040830188610ee3565b6114ac6060830187610ee3565b6114b96080830186611452565b6114c660a0830185610ee3565b6114d360c0830184611461565b98975050505050505050565b600881106114f0576114ef610ff5565b5b50565b6000819050611501826114df565b919050565b6000611511826114f3565b9050919050565b61152181611506565b82525050565b600060208201905061153c6000830184611518565b92915050565b600080600080600060a0868803121561155e5761155d610e63565b5b600061156c88828901610e8e565b955050602061157d88828901610e8e565b945050604061158e88828901610e8e565b935050606061159f88828901610f56565b92505060806115b088828901610e8e565b9150509295509295909350565b600080604083850312156115d4576115d3610e63565b5b60006115e285828601610f56565b92505060206115f385828601610e8e565b9150509250929050565b600082825260208201905092915050565b7f42752069736c656d696e206f6e6179636973692073697a20646567696c73696e60008201527f697a000000000000000000000000000000000000000000000000000000000000602082015250565b600061166a6022836115fd565b91506116758261160e565b604082019050919050565b600060208201905081810360008301526116998161165d565b9050919050565b7f4e487b7100000000000000000000000000000000000000000000000000000000600052604160045260246000fd5b7f4e487b7100000000000000000000000000000000000000000000000000000000600052603260045260246000fd5b600080fd5b61170c82611149565b810181811067ffffffffffffffff8211171561172b5761172a6116a0565b5b80604052505050565b600061173e610e59565b905061174a8282611703565b919050565b600080fd5b60008151905061176381610e77565b92915050565b600080fd5b600080fd5b600067ffffffffffffffff82111561178e5761178d6116a0565b5b61179782611149565b9050602081019050919050565b60006117b76117b284611773565b611734565b9050828152602081018484840111156117d3576117d261176e565b5b6117de848285611116565b509392505050565b600082601f8301126117fb576117fa611769565b5b815161180b8482602086016117a4565b91505092915050565b61181d81611193565b811461182857600080fd5b50565b60008151905061183a81611814565b92915050565b60006101c08284031215611857576118566116fe565b5b6118626101c0611734565b9050600061187284828501611754565b600083015250602082015167ffffffffffffffff8111156118965761189561174f565b5b6118a2848285016117e6565b602083015250604082015167ffffffffffffffff8111156118c6576118c561174f565b5b6118d2848285016117e6565b604083015250606082015167ffffffffffffffff8111156118f6576118f561174f565b5b611902848285016117e6565b606083015250608082015167ffffffffffffffff8111156119265761192561174f565b5b611932848285016117e6565b60808301525060a082015167ffffffffffffffff8111156119565761195561174f565b5b611962848285016117e6565b60a08301525060c061197684828501611754565b60c08301525060e082015167ffffffffffffffff81111561199a5761199961174f565b5b6119a6848285016117e6565b60e08301525061010082015167ffffffffffffffff8111156119cb576119ca61174f565b5b6119d7848285016117e6565b6101008301525061012082015167ffffffffffffffff8111156119fd576119fc61174f565b5b611a09848285016117e6565b6101208301525061014082015167ffffffffffffffff811115611a2f57611a2e61174f565b5b611a3b848285016117e6565b6101408301525061016082015167ffffffffffffffff811115611a6157611a6061174f565b5b611a6d848285016117e6565b61016083015250610180611a8384828501611754565b610180830152506101a0611a998482850161182b565b6101a08301525092915050565b600060208284031215611abc57611abb610e63565b5b600082015167ffffffffffffffff811115611ada57611ad9610e68565b5b611ae684828501611840565b91505092915050565b7f4e487b7100000000000000000000000000000000000000000000000000000000600052601160045260246000fd5b6000611b2982610e6d565b91507fffffffffffffffffffffffffffffffffffffffffffffffffffffffffffffffff8203611b5b57611b5a611aef565b5b600182019050919050565b6000611b7182610e6d565b9150611b7c83610e6d565b9250827fffffffffffffffffffffffffffffffffffffffffffffffffffffffffffffffff03821115611bb157611bb0611aef565b5b828201905092915050565b600067ffffffffffffffff821115611bd757611bd66116a0565b5b602082029050602081019050919050565b600080fd5b600081519050611bfc81610f3f565b92915050565b600060808284031215611c1857611c176116fe565b5b611c226080611734565b90506000611c3284828501611754565b6000830152506020611c4684828501611754565b6020830152506040611c5a84828501611bed565b6040830152506060611c6e8482850161182b565b60608301525092915050565b6000611c8d611c8884611bbc565b611734565b90508083825260208201905060808402830185811115611cb057611caf611be8565b5b835b81811015611cd95780611cc58882611c02565b845260208401935050608081019050611cb2565b5050509392505050565b600082601f830112611cf857611cf7611769565b5b8151611d08848260208601611c7a565b91505092915050565b600060208284031215611d2757611d26610e63565b5b600082015167ffffffffffffffff811115611d4557611d44610e68565b5b611d5184828501611ce3565b91505092915050565b6000819050919050565b611d75611d7082610e6d565b611d5a565b82525050565b60008160601b9050919050565b6000611d9382611d7b565b9050919050565b6000611da582611d88565b9050919050565b611dbd611db882610f2d565b611d9a565b82525050565b6000611dcf8285611d64565b602082019150611ddf8284611dac565b6014820191508190509392505050565b6000611dfa82610e6d565b9150611e0583610e6d565b9250817fffffffffffffffffffffffffffffffffffffffffffffffffffffffffffffffff0483118215151615611e3e57611e3d611aef565b5b828202905092915050565b7f4e487b7100000000000000000000000000000000000000000000000000000000600052601260045260246000fd5b6000611e8382610e6d565b9150611e8e83610e6d565b925082611e9e57611e9d611e49565b5b82820490509291505056fea2646970667358221220fc255fa8f133d2678f91e6d32c38f43bbde2f62f34b24e4508636f025fe607b864736f6c634300080e0033",
  "immutableReferences": {},
  "source": "// SPDX-License-Identifier: UNLICENSED\r\npragma solidity ^0.8.0;\r\n\r\nimport \"./Owner.sol\";\r\nimport \"./RealEstateOwnerRelation.sol\";\r\nimport \"./NotaryContractBase.sol\";\r\nimport \"./RealEstate.sol\";\r\n\r\ncontract HissedarOnay is NotaryContractBase{\r\n\r\n    RealEstateOwnerRelation realEstateOwnerRelation;\r\n    RealEstate realEstate;\r\n\r\n    event onayEklendi(uint onayId, address ownAdd);\r\n\r\n    mapping (uint => OnayData) public onayIdMap;\r\n    mapping (uint => uint[]) public addIdOnayIdListMap;\r\n    mapping (address => uint[]) public ownerOnayIdListMap;\r\n    \r\n    constructor(address realOwnRelAddress, address realEstateAddress)  {        \r\n        realEstateOwnerRelation=RealEstateOwnerRelation(realOwnRelAddress);        \r\n        realEstate=RealEstate(realEstateAddress);\r\n    }\r\n\r\n    function onayaGonder(uint realEstateAdId, uint hisseID, uint satisFiyati, address owner, uint realEstatePayda) public {\r\n        Hisse [] memory hisseList = realEstateOwnerRelation.getAllHissedarsByHisseId(hisseID);\r\n        for (uint y = 0; y < hisseList.length; y++) {\r\n            Hisse memory hisse =  hisseList[y];\r\n            if(hisse.ownerAdd != owner){\r\n                uint onayId = uint256(keccak256(abi.encodePacked(block.timestamp, hisse.ownerAdd)));\r\n                uint hisseOran = 100 * hisse.pay / realEstatePayda;\r\n                onayIdMap[onayId] = OnayData(hisse.realEstateId, satisFiyati, hisse.pay, hisseOran, hisse.ownerAdd, realEstateAdId, OnayDurum.BEKLEMEDE);\r\n                ownerOnayIdListMap[hisse.ownerAdd].push(onayId); \r\n                addIdOnayIdListMap[realEstateAdId].push(onayId);                \r\n            }\r\n        }         \r\n    }\r\n\r\n\r\n    function getOnaylanacakVeri() public view returns(HisseOnayView[] memory) {\r\n        uint[] memory onayIdList = ownerOnayIdListMap[msg.sender];\r\n        HisseOnayView [] memory result = new HisseOnayView[](onayIdList.length);\r\n        uint resultCount = 0;\r\n        for(uint i = 0; i< onayIdList.length; i++){\r\n            uint onayID = onayIdList[i];\r\n            OnayData memory onayData = onayIdMap[onayID];\r\n            RealEstateData memory realEstateData = realEstate.getRealEstateInfo(onayData.realEstateId);\r\n            if(onayData.onayDurum == OnayDurum.BEKLEMEDE){\r\n                 result[resultCount++] = HisseOnayView(onayID, onayData, realEstateData);\r\n            }\r\n        }\r\n        return result;\r\n    }\r\n\r\n    function onayVer(uint onayId, address onayci) public {\r\n        require(onayIdMap[onayId].onayci == onayci, \"Bu islemin onaycisi siz degilsiniz\");\r\n        onayIdMap[onayId].onayDurum = OnayDurum.KABUL;        \r\n    }\r\n\r\n    function reddet(uint onayId, address onayci) public {\r\n        require(onayIdMap[onayId].onayci == onayci, \"Bu islemin onaycisi siz degilsiniz\");\r\n        onayIdMap[onayId].onayDurum = OnayDurum.RED;        \r\n    }\r\n\r\n    function ilanYayinlanabilirmi(uint realEstateAdId) public view returns(State){\r\n        uint[] memory onayIdList  = addIdOnayIdListMap[realEstateAdId];\r\n        uint onayVerenSayisi = 0;\r\n        uint reddedenSayisi = 0;\r\n        for (uint y = 0; y < onayIdList.length; y++) {\r\n            OnayData memory onayData = onayIdMap[onayIdList[y]];\r\n            if(onayData.onayDurum == OnayDurum.KABUL){\r\n                onayVerenSayisi+=onayData.hisseOran;\r\n            }else if(onayData.onayDurum == OnayDurum.RED){\r\n                reddedenSayisi+= onayData.hisseOran;\r\n            }else if(onayData.onayDurum == OnayDurum.BEKLEMEDE){\r\n                return State.HISSEDARLARDAN_ONAY_BEKLIYOR;\r\n            }\r\n        }   \r\n        return onayVerenSayisi > reddedenSayisi ? State.YAYINDA : State.HISSEDARLAR_ARASINDA_MUTABAKAT_SAGLANAMADI;\r\n    }\r\n\r\n\r\n}\r\n",
  "sourcePath": "D:\\Ethereum Projects\\DAWithEth\\truffle-project\\contracts\\HissedarOnay.sol",
  "compiler": {
    "name": "solc",
    "version": "0.8.14+commit.80d49f37.Emscripten.clang"
  },
  "schemaVersion": "3.4.11",
  "updatedAt": "2023-07-17T20:39:16.223Z",
  "networkType": "ethereum",
  "devdoc": {
    "kind": "dev",
    "methods": {},
    "version": 1
  },
  "userdoc": {
    "kind": "user",
    "methods": {},
    "version": 1
  }
}