{
  "contractName": "LandSaleNotice",
  "abi": [
    {
      "inputs": [
        {
          "internalType": "string",
          "name": "gmId",
          "type": "string"
        },
        {
          "internalType": "uint256",
          "name": "rayicPrice",
          "type": "uint256"
        },
        {
          "internalType": "uint256",
          "name": "ilanFiyat",
          "type": "uint256"
        },
        {
          "internalType": "bool",
          "name": "borcDurum",
          "type": "bool"
        }
      ],
      "stateMutability": "nonpayable",
      "type": "constructor"
    },
    {
      "anonymous": false,
      "inputs": [
        {
          "indexed": false,
          "internalType": "address",
          "name": "addr",
          "type": "address"
        },
        {
          "indexed": false,
          "internalType": "string",
          "name": "gmId",
          "type": "string"
        }
      ],
      "name": "ilanYayindanKaldir",
      "type": "event"
    },
    {
      "inputs": [],
      "name": "borcuVarMi",
      "outputs": [
        {
          "internalType": "bool",
          "name": "",
          "type": "bool"
        }
      ],
      "stateMutability": "view",
      "type": "function"
    },
    {
      "inputs": [],
      "name": "fiyat",
      "outputs": [
        {
          "internalType": "uint256",
          "name": "",
          "type": "uint256"
        }
      ],
      "stateMutability": "view",
      "type": "function"
    },
    {
      "inputs": [],
      "name": "gayrimenkulId",
      "outputs": [
        {
          "internalType": "string",
          "name": "",
          "type": "string"
        }
      ],
      "stateMutability": "view",
      "type": "function"
    },
    {
      "inputs": [],
      "name": "rayicBedeli",
      "outputs": [
        {
          "internalType": "uint256",
          "name": "",
          "type": "uint256"
        }
      ],
      "stateMutability": "view",
      "type": "function"
    },
    {
      "inputs": [],
      "name": "state",
      "outputs": [
        {
          "internalType": "enum LandSaleNotice.State",
          "name": "",
          "type": "uint8"
        }
      ],
      "stateMutability": "view",
      "type": "function"
    },
    {
      "inputs": [],
      "name": "yayindanKaldir",
      "outputs": [],
      "stateMutability": "nonpayable",
      "type": "function"
    }
  ],
  "bytecode": "0x60806040523480156200001157600080fd5b5060405162000c7538038062000c758339818101604052810190620000379190620003fe565b80156200007b576040517f08c379a00000000000000000000000000000000000000000000000000000000081526004016200007290620004f0565b60405180910390fd5b82821015620000c1576040517f08c379a0000000000000000000000000000000000000000000000000000000008152600401620000b890620004f0565b60405180910390fd5b60008060006101000a81548160ff02191690836002811115620000e957620000e862000512565b5b021790555083600190805190602001906200010692919062000139565b50816003819055508260028190555080600460006101000a81548160ff02191690831515021790555050505050620005a5565b828054620001479062000570565b90600052602060002090601f0160209004810192826200016b5760008555620001b7565b82601f106200018657805160ff1916838001178555620001b7565b82800160010185558215620001b7579182015b82811115620001b657825182559160200191906001019062000199565b5b509050620001c69190620001ca565b5090565b5b80821115620001e5576000816000905550600101620001cb565b5090565b6000604051905090565b600080fd5b600080fd5b600080fd5b600080fd5b6000601f19601f8301169050919050565b7f4e487b7100000000000000000000000000000000000000000000000000000000600052604160045260246000fd5b620002528262000207565b810181811067ffffffffffffffff8211171562000274576200027362000218565b5b80604052505050565b600062000289620001e9565b905062000297828262000247565b919050565b600067ffffffffffffffff821115620002ba57620002b962000218565b5b620002c58262000207565b9050602081019050919050565b60005b83811015620002f2578082015181840152602081019050620002d5565b8381111562000302576000848401525b50505050565b60006200031f62000319846200029c565b6200027d565b9050828152602081018484840111156200033e576200033d62000202565b5b6200034b848285620002d2565b509392505050565b600082601f8301126200036b576200036a620001fd565b5b81516200037d84826020860162000308565b91505092915050565b6000819050919050565b6200039b8162000386565b8114620003a757600080fd5b50565b600081519050620003bb8162000390565b92915050565b60008115159050919050565b620003d881620003c1565b8114620003e457600080fd5b50565b600081519050620003f881620003cd565b92915050565b600080600080608085870312156200041b576200041a620001f3565b5b600085015167ffffffffffffffff8111156200043c576200043b620001f8565b5b6200044a8782880162000353565b94505060206200045d87828801620003aa565b93505060406200047087828801620003aa565b92505060606200048387828801620003e7565b91505092959194509250565b600082825260208201905092915050565b7f4974206973206e6f7420616c6c6f7765642e0000000000000000000000000000600082015250565b6000620004d86012836200048f565b9150620004e582620004a0565b602082019050919050565b600060208201905081810360008301526200050b81620004c9565b9050919050565b7f4e487b7100000000000000000000000000000000000000000000000000000000600052602160045260246000fd5b7f4e487b7100000000000000000000000000000000000000000000000000000000600052602260045260246000fd5b600060028204905060018216806200058957607f821691505b6020821081036200059f576200059e62000541565b5b50919050565b6106c080620005b56000396000f3fe608060405234801561001057600080fd5b50600436106100625760003560e01c806316d2e0a714610067578063195657d7146100715780635b7b61861461008f578063c19d93fb146100ad578063dba662d8146100cb578063f121904e146100e9575b600080fd5b61006f610107565b005b61007961021d565b60405161008691906102f4565b60405180910390f35b610097610223565b6040516100a491906102f4565b60405180910390f35b6100b5610229565b6040516100c29190610386565b60405180910390f35b6100d361023a565b6040516100e091906103bc565b60405180910390f35b6100f161024d565b6040516100fe9190610470565b60405180910390f35b600080600281111561011c5761011b61030f565b5b60008054906101000a900460ff16600281111561013c5761013b61030f565b5b1461017c576040517f08c379a000000000000000000000000000000000000000000000000000000000815260040161017390610504565b60405180910390fd5b600160028111156101905761018f61030f565b5b60008054906101000a900460ff1660028111156101b0576101af61030f565b5b146101e05760026000806101000a81548160ff021916908360028111156101da576101d961030f565b5b02179055505b7fda0bf91791032953b2c474cf71b21537a47c3918c0d8192021a438d87680531f30600160405161021292919061065a565b60405180910390a150565b60035481565b60025481565b60008054906101000a900460ff1681565b600460009054906101000a900460ff1681565b6001805461025a90610594565b80601f016020809104026020016040519081016040528092919081815260200182805461028690610594565b80156102d35780601f106102a8576101008083540402835291602001916102d3565b820191906000526020600020905b8154815290600101906020018083116102b657829003601f168201915b505050505081565b6000819050919050565b6102ee816102db565b82525050565b600060208201905061030960008301846102e5565b92915050565b7f4e487b7100000000000000000000000000000000000000000000000000000000600052602160045260246000fd5b6003811061034f5761034e61030f565b5b50565b60008190506103608261033e565b919050565b600061037082610352565b9050919050565b61038081610365565b82525050565b600060208201905061039b6000830184610377565b92915050565b60008115159050919050565b6103b6816103a1565b82525050565b60006020820190506103d160008301846103ad565b92915050565b600081519050919050565b600082825260208201905092915050565b60005b838110156104115780820151818401526020810190506103f6565b83811115610420576000848401525b50505050565b6000601f19601f8301169050919050565b6000610442826103d7565b61044c81856103e2565b935061045c8185602086016103f3565b61046581610426565b840191505092915050565b6000602082019050818103600083015261048a8184610437565b905092915050565b7f4f70657261746f6e206973206e6f7420616c6c6f77656420666f72207468697360008201527f206c616e64000000000000000000000000000000000000000000000000000000602082015250565b60006104ee6025836103e2565b91506104f982610492565b604082019050919050565b6000602082019050818103600083015261051d816104e1565b9050919050565b600073ffffffffffffffffffffffffffffffffffffffff82169050919050565b600061054f82610524565b9050919050565b61055f81610544565b82525050565b7f4e487b7100000000000000000000000000000000000000000000000000000000600052602260045260246000fd5b600060028204905060018216806105ac57607f821691505b6020821081036105bf576105be610565565b5b50919050565b60008190508160005260206000209050919050565b600081546105e781610594565b6105f181866103e2565b9450600182166000811461060c576001811461061e57610651565b60ff1983168652602086019350610651565b610627856105c5565b60005b838110156106495781548189015260018201915060208101905061062a565b808801955050505b50505092915050565b600060408201905061066f6000830185610556565b818103602083015261068181846105da565b9050939250505056fea2646970667358221220cf1bedaf1e8c4eb2f694ca60b7f1a83ac2ce929ab64e00c2d7a5a6f5b300dcbe64736f6c634300080e0033",
  "immutableReferences": {},
  "source": "// SPDX-License-Identifier: UNLICENSED\r\npragma solidity ^0.8.0;\r\n\r\ncontract LandSaleNotice {\r\n    enum State {\r\n        YAYINDA,\r\n        ALICI_ICIN_KILITLENDI,\r\n        YAYIN_DISI\r\n    }\r\n\r\n    event ilanYayindanKaldir(address addr, string gmId);\r\n\r\n    State public state;\r\n    string public gayrimenkulId;\r\n    uint256 public rayicBedeli;\r\n    uint256 public fiyat;\r\n    bool public borcuVarMi;\r\n\r\n    modifier inState(State expectedState) {\r\n        require(\r\n            state == expectedState,\r\n            \"Operaton is not allowed for this land\"\r\n        );\r\n        _;\r\n    }\r\n\r\n    constructor(\r\n        string memory gmId,\r\n        uint256 rayicPrice,\r\n        uint256 ilanFiyat,\r\n        bool borcDurum\r\n    ) {\r\n        require(!borcDurum, \"It is not allowed.\");\r\n        require(ilanFiyat >= rayicPrice, \"It is not allowed.\");\r\n        state = State.YAYINDA;\r\n        gayrimenkulId = gmId;\r\n        fiyat = ilanFiyat;\r\n        rayicBedeli = rayicPrice;\r\n        borcuVarMi = borcDurum;\r\n    }\r\n\r\n    function yayindanKaldir() public inState(State.YAYINDA) {\r\n        //require(afterDeadline(), \"Deadline has not passed\");\r\n\r\n        if (state != State.ALICI_ICIN_KILITLENDI) {\r\n            state = State.YAYIN_DISI;\r\n        }\r\n        emit ilanYayindanKaldir(address(this), gayrimenkulId);\r\n    }\r\n}\r\n",
  "sourcePath": "D:\\Ethereum Projects\\DAWithEth\\truffle-project\\contracts\\LandSaleNotice.sol",
  "compiler": {
    "name": "solc",
    "version": "0.8.14+commit.80d49f37.Emscripten.clang"
  },
  "schemaVersion": "3.4.11",
  "updatedAt": "2022-12-28T18:22:48.642Z",
  "devdoc": {
    "kind": "dev",
    "methods": {},
    "version": 1
  },
  "userdoc": {
    "kind": "user",
    "methods": {},
    "version": 1
  }
}