{
  "contractName": "Owner",
  "abi": [
    {
      "inputs": [],
      "stateMutability": "nonpayable",
      "type": "constructor"
    },
    {
      "inputs": [
        {
          "internalType": "address",
          "name": "",
          "type": "address"
        }
      ],
      "name": "ownerMap",
      "outputs": [
        {
          "internalType": "address",
          "name": "ownerAdd",
          "type": "address"
        },
        {
          "internalType": "string",
          "name": "tcknorVkn",
          "type": "string"
        },
        {
          "internalType": "string",
          "name": "fullName",
          "type": "string"
        },
        {
          "internalType": "enum NotaryContractBase.Rol",
          "name": "rol",
          "type": "uint8"
        }
      ],
      "stateMutability": "view",
      "type": "function",
      "constant": true
    },
    {
      "inputs": [
        {
          "internalType": "string",
          "name": "_tcknOrVkn",
          "type": "string"
        },
        {
          "internalType": "string",
          "name": "_fullName",
          "type": "string"
        }
      ],
      "name": "addOwner",
      "outputs": [],
      "stateMutability": "nonpayable",
      "type": "function"
    },
    {
      "inputs": [
        {
          "internalType": "string",
          "name": "_tcknOrVkn",
          "type": "string"
        },
        {
          "internalType": "string",
          "name": "_fullName",
          "type": "string"
        }
      ],
      "name": "addAdmin",
      "outputs": [],
      "stateMutability": "nonpayable",
      "type": "function"
    },
    {
      "inputs": [
        {
          "internalType": "address",
          "name": "add",
          "type": "address"
        }
      ],
      "name": "isAdmin",
      "outputs": [
        {
          "internalType": "bool",
          "name": "",
          "type": "bool"
        }
      ],
      "stateMutability": "view",
      "type": "function",
      "constant": true
    }
  ],
  "bytecode": "0x60806040523480156200001157600080fd5b5060405180608001604052803373ffffffffffffffffffffffffffffffffffffffff1681526020016040518060400160405280600981526020017f393939393939393939000000000000000000000000000000000000000000000081525081526020016040518060400160405280600581526020017f41444d494e000000000000000000000000000000000000000000000000000000815250815260200160016002811115620000c657620000c562000278565b5b8152506000803373ffffffffffffffffffffffffffffffffffffffff1673ffffffffffffffffffffffffffffffffffffffff16815260200190815260200160002060008201518160000160006101000a81548173ffffffffffffffffffffffffffffffffffffffff021916908373ffffffffffffffffffffffffffffffffffffffff16021790555060208201518160010190805190602001906200016c929190620001c8565b5060408201518160020190805190602001906200018b929190620001c8565b5060608201518160030160006101000a81548160ff02191690836002811115620001ba57620001b962000278565b5b02179055509050506200030b565b828054620001d690620002d6565b90600052602060002090601f016020900481019282620001fa576000855562000246565b82601f106200021557805160ff191683800117855562000246565b8280016001018555821562000246579182015b828111156200024557825182559160200191906001019062000228565b5b50905062000255919062000259565b5090565b5b80821115620002745760008160009055506001016200025a565b5090565b7f4e487b7100000000000000000000000000000000000000000000000000000000600052602160045260246000fd5b7f4e487b7100000000000000000000000000000000000000000000000000000000600052602260045260246000fd5b60006002820490506001821680620002ef57607f821691505b602082108103620003055762000304620002a7565b5b50919050565b610a84806200031b6000396000f3fe608060405234801561001057600080fd5b506004361061004c5760003560e01c80631f4590411461005157806324d7806c1461006d578063760a81b61461009d578063962cd04b146100d0575b600080fd5b61006b60048036038101906100669190610754565b6100ec565b005b6100876004803603810190610082919061082a565b61022c565b6040516100949190610872565b60405180910390f35b6100b760048036038101906100b2919061082a565b6102ab565b6040516100c7949392919061099b565b60405180910390f35b6100ea60048036038101906100e59190610754565b610418565b005b60405180608001604052803373ffffffffffffffffffffffffffffffffffffffff1681526020018381526020018281526020016001600281111561013357610132610924565b5b8152506000803373ffffffffffffffffffffffffffffffffffffffff1673ffffffffffffffffffffffffffffffffffffffff16815260200190815260200160002060008201518160000160006101000a81548173ffffffffffffffffffffffffffffffffffffffff021916908373ffffffffffffffffffffffffffffffffffffffff16021790555060208201518160010190805190602001906101d7929190610557565b5060408201518160020190805190602001906101f4929190610557565b5060608201518160030160006101000a81548160ff021916908360028111156102205761021f610924565b5b02179055509050505050565b60006001600281111561024257610241610924565b5b6000808473ffffffffffffffffffffffffffffffffffffffff1673ffffffffffffffffffffffffffffffffffffffff16815260200190815260200160002060030160009054906101000a900460ff1660028111156102a3576102a2610924565b5b149050919050565b60006020528060005260406000206000915090508060000160009054906101000a900473ffffffffffffffffffffffffffffffffffffffff16908060010180546102f490610a1d565b80601f016020809104026020016040519081016040528092919081815260200182805461032090610a1d565b801561036d5780601f106103425761010080835404028352916020019161036d565b820191906000526020600020905b81548152906001019060200180831161035057829003601f168201915b50505050509080600201805461038290610a1d565b80601f01602080910402602001604051908101604052809291908181526020018280546103ae90610a1d565b80156103fb5780601f106103d0576101008083540402835291602001916103fb565b820191906000526020600020905b8154815290600101906020018083116103de57829003601f168201915b5050505050908060030160009054906101000a900460ff16905084565b60405180608001604052803373ffffffffffffffffffffffffffffffffffffffff16815260200183815260200182815260200160028081111561045e5761045d610924565b5b8152506000803373ffffffffffffffffffffffffffffffffffffffff1673ffffffffffffffffffffffffffffffffffffffff16815260200190815260200160002060008201518160000160006101000a81548173ffffffffffffffffffffffffffffffffffffffff021916908373ffffffffffffffffffffffffffffffffffffffff1602179055506020820151816001019080519060200190610502929190610557565b50604082015181600201908051906020019061051f929190610557565b5060608201518160030160006101000a81548160ff0219169083600281111561054b5761054a610924565b5b02179055509050505050565b82805461056390610a1d565b90600052602060002090601f01602090048101928261058557600085556105cc565b82601f1061059e57805160ff19168380011785556105cc565b828001600101855582156105cc579182015b828111156105cb5782518255916020019190600101906105b0565b5b5090506105d991906105dd565b5090565b5b808211156105f65760008160009055506001016105de565b5090565b6000604051905090565b600080fd5b600080fd5b600080fd5b600080fd5b6000601f19601f8301169050919050565b7f4e487b7100000000000000000000000000000000000000000000000000000000600052604160045260246000fd5b61066182610618565b810181811067ffffffffffffffff821117156106805761067f610629565b5b80604052505050565b60006106936105fa565b905061069f8282610658565b919050565b600067ffffffffffffffff8211156106bf576106be610629565b5b6106c882610618565b9050602081019050919050565b82818337600083830152505050565b60006106f76106f2846106a4565b610689565b90508281526020810184848401111561071357610712610613565b5b61071e8482856106d5565b509392505050565b600082601f83011261073b5761073a61060e565b5b813561074b8482602086016106e4565b91505092915050565b6000806040838503121561076b5761076a610604565b5b600083013567ffffffffffffffff81111561078957610788610609565b5b61079585828601610726565b925050602083013567ffffffffffffffff8111156107b6576107b5610609565b5b6107c285828601610726565b9150509250929050565b600073ffffffffffffffffffffffffffffffffffffffff82169050919050565b60006107f7826107cc565b9050919050565b610807816107ec565b811461081257600080fd5b50565b600081359050610824816107fe565b92915050565b6000602082840312156108405761083f610604565b5b600061084e84828501610815565b91505092915050565b60008115159050919050565b61086c81610857565b82525050565b60006020820190506108876000830184610863565b92915050565b610896816107ec565b82525050565b600081519050919050565b600082825260208201905092915050565b60005b838110156108d65780820151818401526020810190506108bb565b838111156108e5576000848401525b50505050565b60006108f68261089c565b61090081856108a7565b93506109108185602086016108b8565b61091981610618565b840191505092915050565b7f4e487b7100000000000000000000000000000000000000000000000000000000600052602160045260246000fd5b6003811061096457610963610924565b5b50565b600081905061097582610953565b919050565b600061098582610967565b9050919050565b6109958161097a565b82525050565b60006080820190506109b0600083018761088d565b81810360208301526109c281866108eb565b905081810360408301526109d681856108eb565b90506109e5606083018461098c565b95945050505050565b7f4e487b7100000000000000000000000000000000000000000000000000000000600052602260045260246000fd5b60006002820490506001821680610a3557607f821691505b602082108103610a4857610a476109ee565b5b5091905056fea264697066735822122028a13b2169af9a376d9909444b6b9a7dbab33385ed1d5dbf7c7eacd84c1c792c64736f6c634300080e0033",
  "immutableReferences": {},
  "source": "// SPDX-License-Identifier: UNLICENSED\r\npragma solidity ^0.8.0;\r\n\r\nimport \"./NotaryContractBase.sol\";\r\n\r\ncontract Owner is NotaryContractBase {\r\n\r\n    mapping(address => OwnerInfo) public ownerMap;\r\n        \r\n    constructor() {\r\n        ownerMap[msg.sender] = OwnerInfo(msg.sender, '999999999', 'ADMIN', Rol.ADMIN);\r\n    }\r\n\r\n    function addOwner(string memory _tcknOrVkn, string memory _fullName) public {\r\n         ownerMap[msg.sender] = OwnerInfo(msg.sender, _tcknOrVkn, _fullName, Rol.USER);\r\n    }\r\n\r\n    function addAdmin(string memory _tcknOrVkn, string memory _fullName) public {\r\n         ownerMap[msg.sender] = OwnerInfo(msg.sender, _tcknOrVkn, _fullName, Rol.ADMIN);\r\n    }\r\n\r\n    function isAdmin(address add) public view returns(bool){\r\n      return ownerMap[add].rol == Rol.ADMIN;\r\n    }\r\n  \r\n}\r\n",
  "sourcePath": "D:\\Ethereum Projects\\DAWithEth\\truffle-project\\contracts\\Owner.sol",
  "compiler": {
    "name": "solc",
    "version": "0.8.14+commit.80d49f37.Emscripten.clang"
  },
  "schemaVersion": "3.4.11",
  "updatedAt": "2023-02-07T19:32:24.262Z",
  "networkType": "ethereum",
  "devdoc": {
    "kind": "dev",
    "methods": {},
    "version": 1
  },
  "userdoc": {
    "kind": "user",
    "methods": {},
    "version": 1
  }
}