{
  "contractName": "Proposition",
  "abi": [
    {
      "inputs": [
        {
          "internalType": "address",
          "name": "realEstateSaleAdContractAdd",
          "type": "address"
        }
      ],
      "stateMutability": "nonpayable",
      "type": "constructor"
    },
    {
      "anonymous": false,
      "inputs": [
        {
          "indexed": false,
          "internalType": "uint256",
          "name": "teklifId",
          "type": "uint256"
        },
        {
          "indexed": false,
          "internalType": "uint256",
          "name": "ilanId",
          "type": "uint256"
        },
        {
          "indexed": false,
          "internalType": "address",
          "name": "saticiAdd",
          "type": "address"
        },
        {
          "indexed": false,
          "internalType": "address",
          "name": "aliciAdd",
          "type": "address"
        },
        {
          "indexed": false,
          "internalType": "uint256",
          "name": "fiyat",
          "type": "uint256"
        }
      ],
      "name": "teklifGonderildi",
      "type": "event"
    },
    {
      "anonymous": false,
      "inputs": [
        {
          "indexed": false,
          "internalType": "uint256",
          "name": "teklifId",
          "type": "uint256"
        }
      ],
      "name": "teklifKabulEdildi",
      "type": "event"
    },
    {
      "anonymous": false,
      "inputs": [
        {
          "indexed": false,
          "internalType": "uint256",
          "name": "teklifId",
          "type": "uint256"
        }
      ],
      "name": "teklifReddedildi",
      "type": "event"
    },
    {
      "inputs": [
        {
          "internalType": "uint256",
          "name": "",
          "type": "uint256"
        }
      ],
      "name": "propIdDataMap",
      "outputs": [
        {
          "internalType": "uint256",
          "name": "propId",
          "type": "uint256"
        },
        {
          "internalType": "address",
          "name": "alici",
          "type": "address"
        },
        {
          "internalType": "address",
          "name": "satici",
          "type": "address"
        },
        {
          "internalType": "uint256",
          "name": "fiyat",
          "type": "uint256"
        },
        {
          "internalType": "uint256",
          "name": "ilanId",
          "type": "uint256"
        },
        {
          "internalType": "enum NotaryContractBase.PropState",
          "name": "state",
          "type": "uint8"
        }
      ],
      "stateMutability": "view",
      "type": "function",
      "constant": true
    },
    {
      "inputs": [
        {
          "internalType": "uint256",
          "name": "ilanId",
          "type": "uint256"
        },
        {
          "internalType": "uint256",
          "name": "fiyat",
          "type": "uint256"
        }
      ],
      "name": "teklifGonder",
      "outputs": [],
      "stateMutability": "nonpayable",
      "type": "function"
    },
    {
      "inputs": [
        {
          "internalType": "uint256",
          "name": "propId",
          "type": "uint256"
        }
      ],
      "name": "teklifReddet",
      "outputs": [],
      "stateMutability": "nonpayable",
      "type": "function"
    },
    {
      "inputs": [
        {
          "internalType": "uint256",
          "name": "propId",
          "type": "uint256"
        }
      ],
      "name": "teklifKabulEt",
      "outputs": [],
      "stateMutability": "nonpayable",
      "type": "function"
    },
    {
      "inputs": [
        {
          "internalType": "address",
          "name": "aliciAdd",
          "type": "address"
        }
      ],
      "name": "getGonderilenTeklifler",
      "outputs": [
        {
          "components": [
            {
              "internalType": "uint256",
              "name": "propId",
              "type": "uint256"
            },
            {
              "internalType": "address",
              "name": "alici",
              "type": "address"
            },
            {
              "internalType": "address",
              "name": "satici",
              "type": "address"
            },
            {
              "internalType": "uint256",
              "name": "fiyat",
              "type": "uint256"
            },
            {
              "internalType": "uint256",
              "name": "ilanId",
              "type": "uint256"
            },
            {
              "internalType": "enum NotaryContractBase.PropState",
              "name": "state",
              "type": "uint8"
            }
          ],
          "internalType": "struct NotaryContractBase.PropositionData[]",
          "name": "",
          "type": "tuple[]"
        }
      ],
      "stateMutability": "view",
      "type": "function",
      "constant": true
    },
    {
      "inputs": [
        {
          "internalType": "uint256",
          "name": "ilanId",
          "type": "uint256"
        }
      ],
      "name": "getIlanTeklifList",
      "outputs": [
        {
          "components": [
            {
              "internalType": "uint256",
              "name": "propId",
              "type": "uint256"
            },
            {
              "internalType": "address",
              "name": "alici",
              "type": "address"
            },
            {
              "internalType": "address",
              "name": "satici",
              "type": "address"
            },
            {
              "internalType": "uint256",
              "name": "fiyat",
              "type": "uint256"
            },
            {
              "internalType": "uint256",
              "name": "ilanId",
              "type": "uint256"
            },
            {
              "internalType": "enum NotaryContractBase.PropState",
              "name": "state",
              "type": "uint8"
            }
          ],
          "internalType": "struct NotaryContractBase.PropositionData[]",
          "name": "",
          "type": "tuple[]"
        }
      ],
      "stateMutability": "view",
      "type": "function",
      "constant": true
    }
  ],
  "bytecode": "0x60806040523480156200001157600080fd5b5060405162001e6938038062001e698339818101604052810190620000379190620000e8565b806000806101000a81548173ffffffffffffffffffffffffffffffffffffffff021916908373ffffffffffffffffffffffffffffffffffffffff160217905550506200011a565b600080fd5b600073ffffffffffffffffffffffffffffffffffffffff82169050919050565b6000620000b08262000083565b9050919050565b620000c281620000a3565b8114620000ce57600080fd5b50565b600081519050620000e281620000b7565b92915050565b6000602082840312156200010157620001006200007e565b5b60006200011184828501620000d1565b91505092915050565b611d3f806200012a6000396000f3fe608060405234801561001057600080fd5b50600436106100625760003560e01c80635f5cde5c14610067578063a3325b8f14610083578063b8c55beb146100b3578063c8c5b1e7146100cf578063dc398663146100ff578063e57a0ce714610134575b600080fd5b610081600480360381019061007c9190611349565b610150565b005b61009d600480360381019061009891906113d4565b6102f6565b6040516100aa91906115c0565b60405180910390f35b6100cd60048036038101906100c891906115e2565b61055c565b005b6100e960048036038101906100e49190611349565b610ad0565b6040516100f691906115c0565b60405180910390f35b61011960048036038101906101149190611349565b610de0565b60405161012b9695949392919061164f565b60405180910390f35b61014e60048036038101906101499190611349565b610e69565b005b3373ffffffffffffffffffffffffffffffffffffffff166001600083815260200190815260200160002060020160009054906101000a900473ffffffffffffffffffffffffffffffffffffffff1673ffffffffffffffffffffffffffffffffffffffff16146101f4576040517f08c379a00000000000000000000000000000000000000000000000000000000081526004016101eb90611733565b60405180910390fd5b6003808111156102075761020661144b565b5b6001600083815260200190815260200160002060050160009054906101000a900460ff16600381111561023d5761023c61144b565b5b1461027d576040517f08c379a0000000000000000000000000000000000000000000000000000000008152600401610274906117c5565b60405180910390fd5b60026001600083815260200190815260200160002060050160006101000a81548160ff021916908360038111156102b7576102b661144b565b5b02179055507f481abdd265f6f4b43d249fabccbb6d8bdff8af4310763723025780c6465e8a60816040516102eb91906117e5565b60405180910390a150565b60606000600260008473ffffffffffffffffffffffffffffffffffffffff1673ffffffffffffffffffffffffffffffffffffffff16815260200190815260200160002080549050905060008167ffffffffffffffff81111561035b5761035a611800565b5b60405190808252806020026020018201604052801561039457816020015b61038161129a565b8152602001906001900390816103795790505b50905060005b828110156105515760016000600260008873ffffffffffffffffffffffffffffffffffffffff1673ffffffffffffffffffffffffffffffffffffffff16815260200190815260200160002083815481106103f7576103f661182f565b5b906000526020600020015481526020019081526020016000206040518060c0016040529081600082015481526020016001820160009054906101000a900473ffffffffffffffffffffffffffffffffffffffff1673ffffffffffffffffffffffffffffffffffffffff1673ffffffffffffffffffffffffffffffffffffffff1681526020016002820160009054906101000a900473ffffffffffffffffffffffffffffffffffffffff1673ffffffffffffffffffffffffffffffffffffffff1673ffffffffffffffffffffffffffffffffffffffff16815260200160038201548152602001600482015481526020016005820160009054906101000a900460ff16600381111561050a5761050961144b565b5b600381111561051c5761051b61144b565b5b815250508282815181106105335761053261182f565b5b602002602001018190525080806105499061188d565b91505061039a565b508092505050919050565b60008060009054906101000a900473ffffffffffffffffffffffffffffffffffffffff1673ffffffffffffffffffffffffffffffffffffffff16638f7df5fe846040518263ffffffff1660e01b81526004016105b891906117e5565b602060405180830381865afa1580156105d5573d6000803e3d6000fd5b505050506040513d601f19601f820116820180604052508101906105f991906118ea565b90503373ffffffffffffffffffffffffffffffffffffffff168173ffffffffffffffffffffffffffffffffffffffff1603610669576040517f08c379a000000000000000000000000000000000000000000000000000000000815260040161066090611989565b60405180910390fd5b60008054906101000a900473ffffffffffffffffffffffffffffffffffffffff1673ffffffffffffffffffffffffffffffffffffffff16633fa020e9846040518263ffffffff1660e01b81526004016106c291906117e5565b602060405180830381865afa1580156106df573d6000803e3d6000fd5b505050506040513d601f19601f8201168201806040525081019061070391906119e1565b610742576040517f08c379a000000000000000000000000000000000000000000000000000000000815260040161073990611a80565b60405180910390fd5b60008054906101000a900473ffffffffffffffffffffffffffffffffffffffff1673ffffffffffffffffffffffffffffffffffffffff1663db77f85e84846040518363ffffffff1660e01b815260040161079d929190611aa0565b602060405180830381865afa1580156107ba573d6000803e3d6000fd5b505050506040513d601f19601f820116820180604052508101906107de91906119e1565b61081d576040517f08c379a000000000000000000000000000000000000000000000000000000000815260040161081490611b3b565b60405180910390fd5b600042905060003390506040518060c001604052808381526020018273ffffffffffffffffffffffffffffffffffffffff1681526020018473ffffffffffffffffffffffffffffffffffffffff16815260200185815260200186815260200160038081111561088f5761088e61144b565b5b815250600160008481526020019081526020016000206000820151816000015560208201518160010160006101000a81548173ffffffffffffffffffffffffffffffffffffffff021916908373ffffffffffffffffffffffffffffffffffffffff16021790555060408201518160020160006101000a81548173ffffffffffffffffffffffffffffffffffffffff021916908373ffffffffffffffffffffffffffffffffffffffff160217905550606082015181600301556080820151816004015560a08201518160050160006101000a81548160ff0219169083600381111561097c5761097b61144b565b5b0217905550905050600260008273ffffffffffffffffffffffffffffffffffffffff1673ffffffffffffffffffffffffffffffffffffffff168152602001908152602001600020829080600181540180825580915050600190039060005260206000200160009091909190915055600360008473ffffffffffffffffffffffffffffffffffffffff1673ffffffffffffffffffffffffffffffffffffffff168152602001908152602001600020829080600181540180825580915050600190039060005260206000200160009091909190915055600460008681526020019081526020016000208290806001815401808255809150506001900390600052602060002001600090919091909150557f18e5fffcffc30455dee2d29c44b8dbdc9d3cdf52a19e79ef5ae53cf9c1d9d85d8286858488604051610ac1959493929190611b5b565b60405180910390a15050505050565b606060008054906101000a900473ffffffffffffffffffffffffffffffffffffffff1673ffffffffffffffffffffffffffffffffffffffff1663af54c710836040518263ffffffff1660e01b8152600401610b2b91906117e5565b602060405180830381865afa158015610b48573d6000803e3d6000fd5b505050506040513d601f19601f82011682018060405250810190610b6c91906119e1565b15610d835760006004600084815260200190815260200160002080549050905060008167ffffffffffffffff811115610ba857610ba7611800565b5b604051908082528060200260200182016040528015610be157816020015b610bce61129a565b815260200190600190039081610bc65790505b50905060005b82811015610d78576000600460008781526020019081526020016000208281548110610c1657610c1561182f565b5b90600052602060002001549050600160008281526020019081526020016000206040518060c0016040529081600082015481526020016001820160009054906101000a900473ffffffffffffffffffffffffffffffffffffffff1673ffffffffffffffffffffffffffffffffffffffff1673ffffffffffffffffffffffffffffffffffffffff1681526020016002820160009054906101000a900473ffffffffffffffffffffffffffffffffffffffff1673ffffffffffffffffffffffffffffffffffffffff1673ffffffffffffffffffffffffffffffffffffffff16815260200160038201548152602001600482015481526020016005820160009054906101000a900460ff166003811115610d3057610d2f61144b565b5b6003811115610d4257610d4161144b565b5b81525050838381518110610d5957610d5861182f565b5b6020026020010181905250508080610d709061188d565b915050610be7565b508092505050610ddb565b600067ffffffffffffffff811115610d9e57610d9d611800565b5b604051908082528060200260200182016040528015610dd757816020015b610dc461129a565b815260200190600190039081610dbc5790505b5090505b919050565b60016020528060005260406000206000915090508060000154908060010160009054906101000a900473ffffffffffffffffffffffffffffffffffffffff16908060020160009054906101000a900473ffffffffffffffffffffffffffffffffffffffff16908060030154908060040154908060050160009054906101000a900460ff16905086565b3373ffffffffffffffffffffffffffffffffffffffff166001600083815260200190815260200160002060020160009054906101000a900473ffffffffffffffffffffffffffffffffffffffff1673ffffffffffffffffffffffffffffffffffffffff1614610f0d576040517f08c379a0000000000000000000000000000000000000000000000000000000008152600401610f0490611c20565b60405180910390fd5b600380811115610f2057610f1f61144b565b5b6001600083815260200190815260200160002060050160009054906101000a900460ff166003811115610f5657610f5561144b565b5b14610f96576040517f08c379a0000000000000000000000000000000000000000000000000000000008152600401610f8d90611cb2565b60405180910390fd5b6000600160008381526020019081526020016000206040518060c0016040529081600082015481526020016001820160009054906101000a900473ffffffffffffffffffffffffffffffffffffffff1673ffffffffffffffffffffffffffffffffffffffff1673ffffffffffffffffffffffffffffffffffffffff1681526020016002820160009054906101000a900473ffffffffffffffffffffffffffffffffffffffff1673ffffffffffffffffffffffffffffffffffffffff1673ffffffffffffffffffffffffffffffffffffffff16815260200160038201548152602001600482015481526020016005820160009054906101000a900460ff1660038111156110a5576110a461144b565b5b60038111156110b7576110b661144b565b5b81525050905060008054906101000a900473ffffffffffffffffffffffffffffffffffffffff1673ffffffffffffffffffffffffffffffffffffffff16634dff90a98260800151836020015184606001516040518463ffffffff1660e01b815260040161112693929190611cd2565b600060405180830381600087803b15801561114057600080fd5b505af1158015611154573d6000803e3d6000fd5b50505050600180600084815260200190815260200160002060050160006101000a81548160ff021916908360038111156111915761119061144b565b5b02179055506111a48160800151836111df565b7f948766f524be4d5b123019a7d5475c34c3e2abb29a6c2e0d00a5ef7ed1d14cb7826040516111d391906117e5565b60405180910390a15050565b60006004600084815260200190815260200160002080549050905060005b8181101561129457600060046000868152602001908152602001600020828154811061122c5761122b61182f565b5b906000526020600020015490508381146112805760026001600083815260200190815260200160002060050160006101000a81548160ff0219169083600381111561127a5761127961144b565b5b02179055505b50808061128c9061188d565b9150506111fd565b50505050565b6040518060c0016040528060008152602001600073ffffffffffffffffffffffffffffffffffffffff168152602001600073ffffffffffffffffffffffffffffffffffffffff1681526020016000815260200160008152602001600060038111156113085761130761144b565b5b81525090565b600080fd5b6000819050919050565b61132681611313565b811461133157600080fd5b50565b6000813590506113438161131d565b92915050565b60006020828403121561135f5761135e61130e565b5b600061136d84828501611334565b91505092915050565b600073ffffffffffffffffffffffffffffffffffffffff82169050919050565b60006113a182611376565b9050919050565b6113b181611396565b81146113bc57600080fd5b50565b6000813590506113ce816113a8565b92915050565b6000602082840312156113ea576113e961130e565b5b60006113f8848285016113bf565b91505092915050565b600081519050919050565b600082825260208201905092915050565b6000819050602082019050919050565b61143681611313565b82525050565b61144581611396565b82525050565b7f4e487b7100000000000000000000000000000000000000000000000000000000600052602160045260246000fd5b6004811061148b5761148a61144b565b5b50565b600081905061149c8261147a565b919050565b60006114ac8261148e565b9050919050565b6114bc816114a1565b82525050565b60c0820160008201516114d8600085018261142d565b5060208201516114eb602085018261143c565b5060408201516114fe604085018261143c565b506060820151611511606085018261142d565b506080820151611524608085018261142d565b5060a082015161153760a08501826114b3565b50505050565b600061154983836114c2565b60c08301905092915050565b6000602082019050919050565b600061156d82611401565b611577818561140c565b93506115828361141d565b8060005b838110156115b357815161159a888261153d565b97506115a583611555565b925050600181019050611586565b5085935050505092915050565b600060208201905081810360008301526115da8184611562565b905092915050565b600080604083850312156115f9576115f861130e565b5b600061160785828601611334565b925050602061161885828601611334565b9150509250929050565b61162b81611313565b82525050565b61163a81611396565b82525050565b611649816114a1565b82525050565b600060c0820190506116646000830189611622565b6116716020830188611631565b61167e6040830187611631565b61168b6060830186611622565b6116986080830185611622565b6116a560a0830184611640565b979650505050505050565b600082825260208201905092915050565b7f42752074656b6c69662073616365646520736174696369207461726166696e6460008201527f616e20726564646564696c697200000000000000000000000000000000000000602082015250565b600061171d602d836116b0565b9150611728826116c1565b604082019050919050565b6000602082019050818103600083015261174c81611710565b9050919050565b7f5361646563652062656b6c656d656465206f6c616e2074656b6c69666c65722060008201527f726564646564696c697200000000000000000000000000000000000000000000602082015250565b60006117af602a836116b0565b91506117ba82611753565b604082019050919050565b600060208201905081810360008301526117de816117a2565b9050919050565b60006020820190506117fa6000830184611622565b92915050565b7f4e487b7100000000000000000000000000000000000000000000000000000000600052604160045260246000fd5b7f4e487b7100000000000000000000000000000000000000000000000000000000600052603260045260246000fd5b7f4e487b7100000000000000000000000000000000000000000000000000000000600052601160045260246000fd5b600061189882611313565b91507fffffffffffffffffffffffffffffffffffffffffffffffffffffffffffffffff82036118ca576118c961185e565b5b600182019050919050565b6000815190506118e4816113a8565b92915050565b600060208284031215611900576118ff61130e565b5b600061190e848285016118d5565b91505092915050565b7f427520696c616e696e2073617469636973692073697a736e697a2074656b6c6960008201527f6620766572656d657a73696e697a000000000000000000000000000000000000602082015250565b6000611973602e836116b0565b915061197e82611917565b604082019050919050565b600060208201905081810360008301526119a281611966565b9050919050565b60008115159050919050565b6119be816119a9565b81146119c957600080fd5b50565b6000815190506119db816119b5565b92915050565b6000602082840312156119f7576119f661130e565b5b6000611a05848285016119cc565b91505092915050565b7f427520696c616e6120647572756d7520796179696e646120646567696c2c207460008201527f656b6c696620766572696c656d657a0000000000000000000000000000000000602082015250565b6000611a6a602f836116b0565b9150611a7582611a0e565b604082019050919050565b60006020820190508181036000830152611a9981611a5d565b9050919050565b6000604082019050611ab56000830185611622565b611ac26020830184611622565b9392505050565b7f54656b6c696620766572696c656e20666979617420726179696320626564656c60008201527f64656e20647573756b206f6c616d617a00000000000000000000000000000000602082015250565b6000611b256030836116b0565b9150611b3082611ac9565b604082019050919050565b60006020820190508181036000830152611b5481611b18565b9050919050565b600060a082019050611b706000830188611622565b611b7d6020830187611622565b611b8a6040830186611631565b611b976060830185611631565b611ba46080830184611622565b9695505050505050565b7f42752074656b6c69662073616365646520736174696369207461726166696e6460008201527f616e206b6162756c206564696c69720000000000000000000000000000000000602082015250565b6000611c0a602f836116b0565b9150611c1582611bae565b604082019050919050565b60006020820190508181036000830152611c3981611bfd565b9050919050565b7f5361646563652062656b6c656d656465206f6c616e2074656b6c69666c65722060008201527f6b6162756c206564696c69720000000000000000000000000000000000000000602082015250565b6000611c9c602c836116b0565b9150611ca782611c40565b604082019050919050565b60006020820190508181036000830152611ccb81611c8f565b9050919050565b6000606082019050611ce76000830186611622565b611cf46020830185611631565b611d016040830184611622565b94935050505056fea2646970667358221220935a5622a32457bcb39e581cb53a0bf8e75fc53d310b0e62f9a818b489c7d53464736f6c634300080e0033",
  "immutableReferences": {},
  "source": "// SPDX-License-Identifier: UNLICENSED\r\npragma solidity ^0.8.0;\r\n\r\nimport \"./RealEstateSaleAd.sol\";\r\nimport \"./NotaryContractBase.sol\";\r\n\r\ncontract Proposition is NotaryContractBase {\r\n\r\n    RealEstateSaleAd realEstateSaleAdContract;\r\n\r\n    mapping(uint => PropositionData) public propIdDataMap;\r\n    mapping(address => uint []) gonderilenTeklifler;\r\n    mapping(address => uint []) alinanTeklifler;\r\n    mapping(uint => uint[]) ilanIdTeklifIdListMap;\r\n\r\n    event teklifGonderildi(uint teklifId, uint ilanId, address saticiAdd, address aliciAdd, uint fiyat);\r\n    event teklifReddedildi(uint teklifId);\r\n    event teklifKabulEdildi(uint teklifId);\r\n\r\n    constructor(address realEstateSaleAdContractAdd)  {\r\n        realEstateSaleAdContract=RealEstateSaleAd(realEstateSaleAdContractAdd);\r\n    }\r\n\r\n    function teklifGonder(uint ilanId, uint fiyat) public {\r\n        address satici = realEstateSaleAdContract.getIlanSatici(ilanId);\r\n        require(satici != msg.sender, \"Bu ilanin saticisi sizsniz teklif veremezsiniz\");\r\n        require(realEstateSaleAdContract.ilanaTeklifVerilebilirMi(ilanId), \"Bu ilana durumu yayinda degil, teklif verilemez\");\r\n        require(realEstateSaleAdContract.teklifFiyatRaicBedeldenDusukMu(ilanId, fiyat),\"Teklif verilen fiyat rayic bedelden dusuk olamaz\");\r\n        uint propId = block.timestamp;        \r\n        address alici = msg.sender;\r\n        propIdDataMap[propId] = PropositionData(propId, alici, satici, fiyat, ilanId, PropState.BEKLEMEDE);\r\n        gonderilenTeklifler[alici].push(propId);\r\n        alinanTeklifler[satici].push(propId);\r\n        ilanIdTeklifIdListMap[ilanId].push(propId);\r\n        emit teklifGonderildi(propId, ilanId, satici, alici, fiyat);\r\n    }\r\n\r\n    function teklifReddet(uint propId) public {\r\n        require(propIdDataMap[propId].satici == msg.sender, \"Bu teklif sacede satici tarafindan reddedilir\");\r\n        require(propIdDataMap[propId].state == PropState.BEKLEMEDE,  \"Sadece beklemede olan teklifler reddedilir\");\r\n        propIdDataMap[propId].state = PropState.RED;\r\n        emit teklifReddedildi(propId);        \r\n        \r\n    }\r\n\r\n    function teklifKabulEt(uint propId) public {\r\n        require(propIdDataMap[propId].satici == msg.sender, \"Bu teklif sacede satici tarafindan kabul edilir\");\r\n        require(propIdDataMap[propId].state == PropState.BEKLEMEDE, \"Sadece beklemede olan teklifler kabul edilir\");\r\n        PropositionData memory prop = propIdDataMap[propId];\r\n        realEstateSaleAdContract.aliciIcinKilitle(prop.ilanId, prop.alici, prop.fiyat);\r\n        propIdDataMap[propId].state = PropState.KABUL;\r\n        denyOtherProps(prop.ilanId, propId);\r\n        emit teklifKabulEdildi(propId);\r\n    }\r\n\r\n    function denyOtherProps(uint ilanId, uint acceptedPropId) private {\r\n        uint propSizeForAd = ilanIdTeklifIdListMap[ilanId].length;\r\n        for(uint i = 0; i< propSizeForAd; i++){\r\n            uint propId = ilanIdTeklifIdListMap[ilanId][i];\r\n            if( propId != acceptedPropId){\r\n                propIdDataMap[propId].state = PropState.RED;    \r\n            }\r\n        }\r\n    }\r\n\r\n    function getGonderilenTeklifler(address aliciAdd) public view returns (PropositionData [] memory){\r\n        uint propSizeOfAlici = gonderilenTeklifler[aliciAdd].length;\r\n        PropositionData [] memory props = new PropositionData[](propSizeOfAlici);\r\n        for(uint i = 0; i< propSizeOfAlici; i++){\r\n            props[i] = propIdDataMap[gonderilenTeklifler[aliciAdd][i]]; \r\n        } \r\n        return props;\r\n    }\r\n\r\n    function getIlanTeklifList(uint ilanId) public view returns (PropositionData [] memory){\r\n        if(realEstateSaleAdContract.isAdYayinda(ilanId)){\r\n            uint teklifSayisi = ilanIdTeklifIdListMap[ilanId].length;\r\n            PropositionData [] memory props = new PropositionData[](teklifSayisi);\r\n            for(uint i = 0; i< teklifSayisi; i++){\r\n                uint propId = ilanIdTeklifIdListMap[ilanId][i];\r\n                props[i] = propIdDataMap[propId];\r\n            }\r\n            return props;\r\n        }else{\r\n            return new PropositionData[](0);        \r\n        }\r\n    }\r\n}",
  "sourcePath": "D:\\Ethereum Projects\\DAWithEth\\truffle-project\\contracts\\Proposition.sol",
  "compiler": {
    "name": "solc",
    "version": "0.8.14+commit.80d49f37.Emscripten.clang"
  },
  "schemaVersion": "3.4.11",
  "updatedAt": "2023-07-17T20:39:16.262Z",
  "networkType": "ethereum",
  "devdoc": {
    "kind": "dev",
    "methods": {},
    "version": 1
  },
  "userdoc": {
    "kind": "user",
    "methods": {},
    "version": 1
  }
}