{
  "contractName": "Proposition",
  "abi": [
    {
      "inputs": [
        {
          "internalType": "address",
          "name": "realEstateSaleAdContractAdd",
          "type": "address"
        }
      ],
      "stateMutability": "nonpayable",
      "type": "constructor"
    },
    {
      "anonymous": false,
      "inputs": [
        {
          "indexed": false,
          "internalType": "uint256",
          "name": "teklifId",
          "type": "uint256"
        },
        {
          "indexed": false,
          "internalType": "uint256",
          "name": "ilanId",
          "type": "uint256"
        },
        {
          "indexed": false,
          "internalType": "address",
          "name": "saticiAdd",
          "type": "address"
        },
        {
          "indexed": false,
          "internalType": "address",
          "name": "aliciAdd",
          "type": "address"
        },
        {
          "indexed": false,
          "internalType": "uint256",
          "name": "fiyat",
          "type": "uint256"
        }
      ],
      "name": "teklifGonderildi",
      "type": "event"
    },
    {
      "anonymous": false,
      "inputs": [
        {
          "indexed": false,
          "internalType": "uint256",
          "name": "teklifId",
          "type": "uint256"
        }
      ],
      "name": "teklifKabulEdildi",
      "type": "event"
    },
    {
      "anonymous": false,
      "inputs": [
        {
          "indexed": false,
          "internalType": "uint256",
          "name": "teklifId",
          "type": "uint256"
        }
      ],
      "name": "teklifReddedildi",
      "type": "event"
    },
    {
      "inputs": [
        {
          "internalType": "uint256",
          "name": "",
          "type": "uint256"
        }
      ],
      "name": "propIdDataMap",
      "outputs": [
        {
          "internalType": "uint256",
          "name": "propId",
          "type": "uint256"
        },
        {
          "internalType": "address",
          "name": "alici",
          "type": "address"
        },
        {
          "internalType": "address",
          "name": "satici",
          "type": "address"
        },
        {
          "internalType": "uint256",
          "name": "fiyat",
          "type": "uint256"
        },
        {
          "internalType": "uint256",
          "name": "ilanId",
          "type": "uint256"
        },
        {
          "internalType": "enum NotaryContractBase.PropState",
          "name": "state",
          "type": "uint8"
        }
      ],
      "stateMutability": "view",
      "type": "function",
      "constant": true
    },
    {
      "inputs": [
        {
          "internalType": "uint256",
          "name": "ilanId",
          "type": "uint256"
        },
        {
          "internalType": "uint256",
          "name": "fiyat",
          "type": "uint256"
        }
      ],
      "name": "teklifGonder",
      "outputs": [],
      "stateMutability": "nonpayable",
      "type": "function"
    },
    {
      "inputs": [
        {
          "internalType": "uint256",
          "name": "propId",
          "type": "uint256"
        }
      ],
      "name": "teklifReddet",
      "outputs": [],
      "stateMutability": "nonpayable",
      "type": "function"
    },
    {
      "inputs": [
        {
          "internalType": "uint256",
          "name": "propId",
          "type": "uint256"
        }
      ],
      "name": "teklifKabulEt",
      "outputs": [],
      "stateMutability": "nonpayable",
      "type": "function"
    },
    {
      "inputs": [
        {
          "internalType": "address",
          "name": "aliciAdd",
          "type": "address"
        }
      ],
      "name": "getGonderilenTeklifler",
      "outputs": [
        {
          "components": [
            {
              "internalType": "uint256",
              "name": "propId",
              "type": "uint256"
            },
            {
              "internalType": "address",
              "name": "alici",
              "type": "address"
            },
            {
              "internalType": "address",
              "name": "satici",
              "type": "address"
            },
            {
              "internalType": "uint256",
              "name": "fiyat",
              "type": "uint256"
            },
            {
              "internalType": "uint256",
              "name": "ilanId",
              "type": "uint256"
            },
            {
              "internalType": "enum NotaryContractBase.PropState",
              "name": "state",
              "type": "uint8"
            }
          ],
          "internalType": "struct NotaryContractBase.PropositionData[]",
          "name": "",
          "type": "tuple[]"
        }
      ],
      "stateMutability": "view",
      "type": "function",
      "constant": true
    },
    {
      "inputs": [
        {
          "internalType": "uint256",
          "name": "ilanId",
          "type": "uint256"
        }
      ],
      "name": "getIlanTeklifList",
      "outputs": [
        {
          "components": [
            {
              "internalType": "uint256",
              "name": "propId",
              "type": "uint256"
            },
            {
              "internalType": "address",
              "name": "alici",
              "type": "address"
            },
            {
              "internalType": "address",
              "name": "satici",
              "type": "address"
            },
            {
              "internalType": "uint256",
              "name": "fiyat",
              "type": "uint256"
            },
            {
              "internalType": "uint256",
              "name": "ilanId",
              "type": "uint256"
            },
            {
              "internalType": "enum NotaryContractBase.PropState",
              "name": "state",
              "type": "uint8"
            }
          ],
          "internalType": "struct NotaryContractBase.PropositionData[]",
          "name": "",
          "type": "tuple[]"
        }
      ],
      "stateMutability": "view",
      "type": "function",
      "constant": true
    }
  ],
  "bytecode": "0x60806040523480156200001157600080fd5b5060405162001bb138038062001bb18339818101604052810190620000379190620000e8565b806000806101000a81548173ffffffffffffffffffffffffffffffffffffffff021916908373ffffffffffffffffffffffffffffffffffffffff160217905550506200011a565b600080fd5b600073ffffffffffffffffffffffffffffffffffffffff82169050919050565b6000620000b08262000083565b9050919050565b620000c281620000a3565b8114620000ce57600080fd5b50565b600081519050620000e281620000b7565b92915050565b6000602082840312156200010157620001006200007e565b5b60006200011184828501620000d1565b91505092915050565b611a87806200012a6000396000f3fe608060405234801561001057600080fd5b50600436106100625760003560e01c80635f5cde5c14610067578063a3325b8f14610083578063b8c55beb146100b3578063c8c5b1e7146100cf578063dc398663146100ff578063e57a0ce714610134575b600080fd5b610081600480360381019061007c9190611172565b610150565b005b61009d600480360381019061009891906111fd565b6102f6565b6040516100aa91906113e9565b60405180910390f35b6100cd60048036038101906100c8919061140b565b61055c565b005b6100e960048036038101906100e49190611172565b6109f5565b6040516100f691906113e9565b60405180910390f35b61011960048036038101906101149190611172565b610c09565b60405161012b96959493929190611478565b60405180910390f35b61014e60048036038101906101499190611172565b610c92565b005b3373ffffffffffffffffffffffffffffffffffffffff166001600083815260200190815260200160002060020160009054906101000a900473ffffffffffffffffffffffffffffffffffffffff1673ffffffffffffffffffffffffffffffffffffffff16146101f4576040517f08c379a00000000000000000000000000000000000000000000000000000000081526004016101eb9061155c565b60405180910390fd5b60038081111561020757610206611274565b5b6001600083815260200190815260200160002060050160009054906101000a900460ff16600381111561023d5761023c611274565b5b1461027d576040517f08c379a0000000000000000000000000000000000000000000000000000000008152600401610274906115ee565b60405180910390fd5b60026001600083815260200190815260200160002060050160006101000a81548160ff021916908360038111156102b7576102b6611274565b5b02179055507f481abdd265f6f4b43d249fabccbb6d8bdff8af4310763723025780c6465e8a60816040516102eb919061160e565b60405180910390a150565b60606000600260008473ffffffffffffffffffffffffffffffffffffffff1673ffffffffffffffffffffffffffffffffffffffff16815260200190815260200160002080549050905060008167ffffffffffffffff81111561035b5761035a611629565b5b60405190808252806020026020018201604052801561039457816020015b6103816110c3565b8152602001906001900390816103795790505b50905060005b828110156105515760016000600260008873ffffffffffffffffffffffffffffffffffffffff1673ffffffffffffffffffffffffffffffffffffffff16815260200190815260200160002083815481106103f7576103f6611658565b5b906000526020600020015481526020019081526020016000206040518060c0016040529081600082015481526020016001820160009054906101000a900473ffffffffffffffffffffffffffffffffffffffff1673ffffffffffffffffffffffffffffffffffffffff1673ffffffffffffffffffffffffffffffffffffffff1681526020016002820160009054906101000a900473ffffffffffffffffffffffffffffffffffffffff1673ffffffffffffffffffffffffffffffffffffffff1673ffffffffffffffffffffffffffffffffffffffff16815260200160038201548152602001600482015481526020016005820160009054906101000a900460ff16600381111561050a57610509611274565b5b600381111561051c5761051b611274565b5b8152505082828151811061053357610532611658565b5b60200260200101819052508080610549906116b6565b91505061039a565b508092505050919050565b60008060009054906101000a900473ffffffffffffffffffffffffffffffffffffffff1673ffffffffffffffffffffffffffffffffffffffff16638f7df5fe846040518263ffffffff1660e01b81526004016105b8919061160e565b602060405180830381865afa1580156105d5573d6000803e3d6000fd5b505050506040513d601f19601f820116820180604052508101906105f99190611713565b90503373ffffffffffffffffffffffffffffffffffffffff168173ffffffffffffffffffffffffffffffffffffffff1603610669576040517f08c379a0000000000000000000000000000000000000000000000000000000008152600401610660906117b2565b60405180910390fd5b60008054906101000a900473ffffffffffffffffffffffffffffffffffffffff1673ffffffffffffffffffffffffffffffffffffffff16633fa020e9846040518263ffffffff1660e01b81526004016106c2919061160e565b602060405180830381865afa1580156106df573d6000803e3d6000fd5b505050506040513d601f19601f82011682018060405250810190610703919061180a565b610742576040517f08c379a000000000000000000000000000000000000000000000000000000000815260040161073990611883565b60405180910390fd5b600042905060003390506040518060c001604052808381526020018273ffffffffffffffffffffffffffffffffffffffff1681526020018473ffffffffffffffffffffffffffffffffffffffff1681526020018581526020018681526020016003808111156107b4576107b3611274565b5b815250600160008481526020019081526020016000206000820151816000015560208201518160010160006101000a81548173ffffffffffffffffffffffffffffffffffffffff021916908373ffffffffffffffffffffffffffffffffffffffff16021790555060408201518160020160006101000a81548173ffffffffffffffffffffffffffffffffffffffff021916908373ffffffffffffffffffffffffffffffffffffffff160217905550606082015181600301556080820151816004015560a08201518160050160006101000a81548160ff021916908360038111156108a1576108a0611274565b5b0217905550905050600260008273ffffffffffffffffffffffffffffffffffffffff1673ffffffffffffffffffffffffffffffffffffffff168152602001908152602001600020829080600181540180825580915050600190039060005260206000200160009091909190915055600360008473ffffffffffffffffffffffffffffffffffffffff1673ffffffffffffffffffffffffffffffffffffffff168152602001908152602001600020829080600181540180825580915050600190039060005260206000200160009091909190915055600460008681526020019081526020016000208290806001815401808255809150506001900390600052602060002001600090919091909150557f18e5fffcffc30455dee2d29c44b8dbdc9d3cdf52a19e79ef5ae53cf9c1d9d85d82868584886040516109e69594939291906118a3565b60405180910390a15050505050565b606060006004600084815260200190815260200160002080549050905060008167ffffffffffffffff811115610a2e57610a2d611629565b5b604051908082528060200260200182016040528015610a6757816020015b610a546110c3565b815260200190600190039081610a4c5790505b50905060005b82811015610bfe576000600460008781526020019081526020016000208281548110610a9c57610a9b611658565b5b90600052602060002001549050600160008281526020019081526020016000206040518060c0016040529081600082015481526020016001820160009054906101000a900473ffffffffffffffffffffffffffffffffffffffff1673ffffffffffffffffffffffffffffffffffffffff1673ffffffffffffffffffffffffffffffffffffffff1681526020016002820160009054906101000a900473ffffffffffffffffffffffffffffffffffffffff1673ffffffffffffffffffffffffffffffffffffffff1673ffffffffffffffffffffffffffffffffffffffff16815260200160038201548152602001600482015481526020016005820160009054906101000a900460ff166003811115610bb657610bb5611274565b5b6003811115610bc857610bc7611274565b5b81525050838381518110610bdf57610bde611658565b5b6020026020010181905250508080610bf6906116b6565b915050610a6d565b508092505050919050565b60016020528060005260406000206000915090508060000154908060010160009054906101000a900473ffffffffffffffffffffffffffffffffffffffff16908060020160009054906101000a900473ffffffffffffffffffffffffffffffffffffffff16908060030154908060040154908060050160009054906101000a900460ff16905086565b3373ffffffffffffffffffffffffffffffffffffffff166001600083815260200190815260200160002060020160009054906101000a900473ffffffffffffffffffffffffffffffffffffffff1673ffffffffffffffffffffffffffffffffffffffff1614610d36576040517f08c379a0000000000000000000000000000000000000000000000000000000008152600401610d2d90611968565b60405180910390fd5b600380811115610d4957610d48611274565b5b6001600083815260200190815260200160002060050160009054906101000a900460ff166003811115610d7f57610d7e611274565b5b14610dbf576040517f08c379a0000000000000000000000000000000000000000000000000000000008152600401610db6906119fa565b60405180910390fd5b6000600160008381526020019081526020016000206040518060c0016040529081600082015481526020016001820160009054906101000a900473ffffffffffffffffffffffffffffffffffffffff1673ffffffffffffffffffffffffffffffffffffffff1673ffffffffffffffffffffffffffffffffffffffff1681526020016002820160009054906101000a900473ffffffffffffffffffffffffffffffffffffffff1673ffffffffffffffffffffffffffffffffffffffff1673ffffffffffffffffffffffffffffffffffffffff16815260200160038201548152602001600482015481526020016005820160009054906101000a900460ff166003811115610ece57610ecd611274565b5b6003811115610ee057610edf611274565b5b81525050905060008054906101000a900473ffffffffffffffffffffffffffffffffffffffff1673ffffffffffffffffffffffffffffffffffffffff16634dff90a98260800151836020015184606001516040518463ffffffff1660e01b8152600401610f4f93929190611a1a565b600060405180830381600087803b158015610f6957600080fd5b505af1158015610f7d573d6000803e3d6000fd5b50505050600180600084815260200190815260200160002060050160006101000a81548160ff02191690836003811115610fba57610fb9611274565b5b0217905550610fcd816080015183611008565b7f948766f524be4d5b123019a7d5475c34c3e2abb29a6c2e0d00a5ef7ed1d14cb782604051610ffc919061160e565b60405180910390a15050565b60006004600084815260200190815260200160002080549050905060005b818110156110bd57600060046000868152602001908152602001600020828154811061105557611054611658565b5b906000526020600020015490508381146110a95760026001600083815260200190815260200160002060050160006101000a81548160ff021916908360038111156110a3576110a2611274565b5b02179055505b5080806110b5906116b6565b915050611026565b50505050565b6040518060c0016040528060008152602001600073ffffffffffffffffffffffffffffffffffffffff168152602001600073ffffffffffffffffffffffffffffffffffffffff16815260200160008152602001600081526020016000600381111561113157611130611274565b5b81525090565b600080fd5b6000819050919050565b61114f8161113c565b811461115a57600080fd5b50565b60008135905061116c81611146565b92915050565b60006020828403121561118857611187611137565b5b60006111968482850161115d565b91505092915050565b600073ffffffffffffffffffffffffffffffffffffffff82169050919050565b60006111ca8261119f565b9050919050565b6111da816111bf565b81146111e557600080fd5b50565b6000813590506111f7816111d1565b92915050565b60006020828403121561121357611212611137565b5b6000611221848285016111e8565b91505092915050565b600081519050919050565b600082825260208201905092915050565b6000819050602082019050919050565b61125f8161113c565b82525050565b61126e816111bf565b82525050565b7f4e487b7100000000000000000000000000000000000000000000000000000000600052602160045260246000fd5b600481106112b4576112b3611274565b5b50565b60008190506112c5826112a3565b919050565b60006112d5826112b7565b9050919050565b6112e5816112ca565b82525050565b60c0820160008201516113016000850182611256565b5060208201516113146020850182611265565b5060408201516113276040850182611265565b50606082015161133a6060850182611256565b50608082015161134d6080850182611256565b5060a082015161136060a08501826112dc565b50505050565b600061137283836112eb565b60c08301905092915050565b6000602082019050919050565b60006113968261122a565b6113a08185611235565b93506113ab83611246565b8060005b838110156113dc5781516113c38882611366565b97506113ce8361137e565b9250506001810190506113af565b5085935050505092915050565b60006020820190508181036000830152611403818461138b565b905092915050565b6000806040838503121561142257611421611137565b5b60006114308582860161115d565b92505060206114418582860161115d565b9150509250929050565b6114548161113c565b82525050565b611463816111bf565b82525050565b611472816112ca565b82525050565b600060c08201905061148d600083018961144b565b61149a602083018861145a565b6114a7604083018761145a565b6114b4606083018661144b565b6114c1608083018561144b565b6114ce60a0830184611469565b979650505050505050565b600082825260208201905092915050565b7f42752074656b6c69662073616365646520736174696369207461726166696e6460008201527f616e20726564646564696c697200000000000000000000000000000000000000602082015250565b6000611546602d836114d9565b9150611551826114ea565b604082019050919050565b6000602082019050818103600083015261157581611539565b9050919050565b7f5361646563652062656b6c656d656465206f6c616e2074656b6c69666c65722060008201527f726564646564696c697200000000000000000000000000000000000000000000602082015250565b60006115d8602a836114d9565b91506115e38261157c565b604082019050919050565b60006020820190508181036000830152611607816115cb565b9050919050565b6000602082019050611623600083018461144b565b92915050565b7f4e487b7100000000000000000000000000000000000000000000000000000000600052604160045260246000fd5b7f4e487b7100000000000000000000000000000000000000000000000000000000600052603260045260246000fd5b7f4e487b7100000000000000000000000000000000000000000000000000000000600052601160045260246000fd5b60006116c18261113c565b91507fffffffffffffffffffffffffffffffffffffffffffffffffffffffffffffffff82036116f3576116f2611687565b5b600182019050919050565b60008151905061170d816111d1565b92915050565b60006020828403121561172957611728611137565b5b6000611737848285016116fe565b91505092915050565b7f427520696c616e696e2073617469636973692073697a736e697a2074656b6c6960008201527f6620766572656d657a73696e697a000000000000000000000000000000000000602082015250565b600061179c602e836114d9565b91506117a782611740565b604082019050919050565b600060208201905081810360008301526117cb8161178f565b9050919050565b60008115159050919050565b6117e7816117d2565b81146117f257600080fd5b50565b600081519050611804816117de565b92915050565b6000602082840312156118205761181f611137565b5b600061182e848285016117f5565b91505092915050565b7f427520696c616e612074656b6c696620766572696c656d657a00000000000000600082015250565b600061186d6019836114d9565b915061187882611837565b602082019050919050565b6000602082019050818103600083015261189c81611860565b9050919050565b600060a0820190506118b8600083018861144b565b6118c5602083018761144b565b6118d2604083018661145a565b6118df606083018561145a565b6118ec608083018461144b565b9695505050505050565b7f42752074656b6c69662073616365646520736174696369207461726166696e6460008201527f616e206b6162756c206564696c69720000000000000000000000000000000000602082015250565b6000611952602f836114d9565b915061195d826118f6565b604082019050919050565b6000602082019050818103600083015261198181611945565b9050919050565b7f5361646563652062656b6c656d656465206f6c616e2074656b6c69666c65722060008201527f6b6162756c206564696c69720000000000000000000000000000000000000000602082015250565b60006119e4602c836114d9565b91506119ef82611988565b604082019050919050565b60006020820190508181036000830152611a13816119d7565b9050919050565b6000606082019050611a2f600083018661144b565b611a3c602083018561145a565b611a49604083018461144b565b94935050505056fea2646970667358221220fd4680b66195ddc332953c4264ed0616ef76a3948804415c6cdc5baafc02a0cf64736f6c634300080e0033",
  "immutableReferences": {},
  "source": "// SPDX-License-Identifier: UNLICENSED\r\npragma solidity ^0.8.0;\r\n\r\nimport \"./RealEstateSaleAd.sol\";\r\nimport \"./NotaryContractBase.sol\";\r\n\r\ncontract Proposition is NotaryContractBase {\r\n\r\n    RealEstateSaleAd realEstateSaleAdContract;\r\n\r\n    mapping(uint => PropositionData) public propIdDataMap;\r\n    mapping(address => uint []) gonderilenTeklifler;\r\n    mapping(address => uint []) alinanTeklifler;\r\n    mapping(uint => uint[]) ilanIdTeklifIdListMap;\r\n\r\n    event teklifGonderildi(uint teklifId, uint ilanId, address saticiAdd, address aliciAdd, uint fiyat);\r\n    event teklifReddedildi(uint teklifId);\r\n    event teklifKabulEdildi(uint teklifId);\r\n\r\n    constructor(address realEstateSaleAdContractAdd)  {\r\n        realEstateSaleAdContract=RealEstateSaleAd(realEstateSaleAdContractAdd);\r\n    }\r\n\r\n    function teklifGonder(uint ilanId, uint fiyat) public {\r\n        address satici = realEstateSaleAdContract.getIlanSatici(ilanId);\r\n        require(satici != msg.sender, \"Bu ilanin saticisi sizsniz teklif veremezsiniz\");\r\n        require(realEstateSaleAdContract.ilanaTeklifVerilebilirMi(ilanId), \"Bu ilana teklif verilemez\");\r\n        uint propId = block.timestamp;        \r\n        address alici = msg.sender;\r\n        propIdDataMap[propId] = PropositionData(propId, alici, satici, fiyat, ilanId, PropState.BEKLEMEDE);\r\n        gonderilenTeklifler[alici].push(propId);\r\n        alinanTeklifler[satici].push(propId);\r\n        ilanIdTeklifIdListMap[ilanId].push(propId);\r\n        emit teklifGonderildi(propId, ilanId, satici, alici, fiyat);\r\n    }\r\n\r\n    function teklifReddet(uint propId) public {\r\n        require(propIdDataMap[propId].satici == msg.sender, \"Bu teklif sacede satici tarafindan reddedilir\");\r\n        require(propIdDataMap[propId].state == PropState.BEKLEMEDE,  \"Sadece beklemede olan teklifler reddedilir\");\r\n        propIdDataMap[propId].state = PropState.RED;\r\n        emit teklifReddedildi(propId);        \r\n        \r\n    }\r\n\r\n    function teklifKabulEt(uint propId) public {\r\n        require(propIdDataMap[propId].satici == msg.sender, \"Bu teklif sacede satici tarafindan kabul edilir\");\r\n        require(propIdDataMap[propId].state == PropState.BEKLEMEDE, \"Sadece beklemede olan teklifler kabul edilir\");\r\n        PropositionData memory prop = propIdDataMap[propId];\r\n        realEstateSaleAdContract.aliciIcinKilitle(prop.ilanId, prop.alici, prop.fiyat);\r\n        propIdDataMap[propId].state = PropState.KABUL;\r\n        denyOtherProps(prop.ilanId, propId);\r\n        emit teklifKabulEdildi(propId);\r\n        \r\n\r\n    }\r\n\r\n    function denyOtherProps(uint ilanId, uint acceptedPropId) private {\r\n        uint propSizeForAd = ilanIdTeklifIdListMap[ilanId].length;\r\n        for(uint i = 0; i< propSizeForAd; i++){\r\n            uint propId = ilanIdTeklifIdListMap[ilanId][i];\r\n            if( propId != acceptedPropId){\r\n                propIdDataMap[propId].state = PropState.RED;    \r\n            }\r\n        }\r\n    }\r\n\r\n    function getGonderilenTeklifler(address aliciAdd) public view returns (PropositionData [] memory){\r\n        uint propSizeOfAlici = gonderilenTeklifler[aliciAdd].length;\r\n        PropositionData [] memory props = new PropositionData[](propSizeOfAlici);\r\n        for(uint i = 0; i< propSizeOfAlici; i++){\r\n            props[i] = propIdDataMap[gonderilenTeklifler[aliciAdd][i]]; \r\n        } \r\n        return props;\r\n    }\r\n\r\n    function getIlanTeklifList(uint ilanId) public view returns (PropositionData [] memory){\r\n        uint teklifSayisi = ilanIdTeklifIdListMap[ilanId].length;\r\n        PropositionData [] memory props = new PropositionData[](teklifSayisi);\r\n        for(uint i = 0; i< teklifSayisi; i++){\r\n            uint propId = ilanIdTeklifIdListMap[ilanId][i];\r\n            props[i] = propIdDataMap[propId];\r\n        }\r\n        return props;\r\n    }\r\n\r\n\r\n}",
  "sourcePath": "D:\\Ethereum Projects\\DAWithEth\\truffle-project\\contracts\\Proposition.sol",
  "compiler": {
    "name": "solc",
    "version": "0.8.14+commit.80d49f37.Emscripten.clang"
  },
  "schemaVersion": "3.4.11",
  "updatedAt": "2023-01-15T11:09:11.947Z",
  "networkType": "ethereum",
  "devdoc": {
    "kind": "dev",
    "methods": {},
    "version": 1
  },
  "userdoc": {
    "kind": "user",
    "methods": {},
    "version": 1
  }
}