{
  "contractName": "Proposition",
  "abi": [
    {
      "inputs": [
        {
          "internalType": "address",
          "name": "realEstateSaleAdContractAdd",
          "type": "address"
        }
      ],
      "stateMutability": "nonpayable",
      "type": "constructor"
    },
    {
      "anonymous": false,
      "inputs": [
        {
          "indexed": false,
          "internalType": "uint256",
          "name": "teklifId",
          "type": "uint256"
        },
        {
          "indexed": false,
          "internalType": "uint256",
          "name": "ilanId",
          "type": "uint256"
        },
        {
          "indexed": false,
          "internalType": "address",
          "name": "saticiAdd",
          "type": "address"
        },
        {
          "indexed": false,
          "internalType": "address",
          "name": "aliciAdd",
          "type": "address"
        },
        {
          "indexed": false,
          "internalType": "uint256",
          "name": "fiyat",
          "type": "uint256"
        }
      ],
      "name": "teklifGonderildi",
      "type": "event"
    },
    {
      "anonymous": false,
      "inputs": [
        {
          "indexed": false,
          "internalType": "uint256",
          "name": "teklifId",
          "type": "uint256"
        }
      ],
      "name": "teklifKabulEdildi",
      "type": "event"
    },
    {
      "anonymous": false,
      "inputs": [
        {
          "indexed": false,
          "internalType": "uint256",
          "name": "teklifId",
          "type": "uint256"
        }
      ],
      "name": "teklifReddedildi",
      "type": "event"
    },
    {
      "inputs": [
        {
          "internalType": "uint256",
          "name": "",
          "type": "uint256"
        }
      ],
      "name": "propIdDataMap",
      "outputs": [
        {
          "internalType": "address",
          "name": "alici",
          "type": "address"
        },
        {
          "internalType": "address",
          "name": "satici",
          "type": "address"
        },
        {
          "internalType": "uint256",
          "name": "fiyat",
          "type": "uint256"
        },
        {
          "internalType": "uint256",
          "name": "ilanId",
          "type": "uint256"
        },
        {
          "internalType": "enum NotaryContractBase.PropState",
          "name": "state",
          "type": "uint8"
        }
      ],
      "stateMutability": "view",
      "type": "function",
      "constant": true
    },
    {
      "inputs": [
        {
          "internalType": "uint256",
          "name": "ilanId",
          "type": "uint256"
        },
        {
          "internalType": "uint256",
          "name": "fiyat",
          "type": "uint256"
        }
      ],
      "name": "teklifGonder",
      "outputs": [],
      "stateMutability": "nonpayable",
      "type": "function"
    },
    {
      "inputs": [
        {
          "internalType": "uint256",
          "name": "propId",
          "type": "uint256"
        }
      ],
      "name": "teklifReddet",
      "outputs": [],
      "stateMutability": "nonpayable",
      "type": "function"
    },
    {
      "inputs": [
        {
          "internalType": "uint256",
          "name": "propId",
          "type": "uint256"
        }
      ],
      "name": "teklifKabulEt",
      "outputs": [],
      "stateMutability": "nonpayable",
      "type": "function"
    },
    {
      "inputs": [
        {
          "internalType": "address",
          "name": "aliciAdd",
          "type": "address"
        }
      ],
      "name": "getGonderilenTeklifler",
      "outputs": [
        {
          "components": [
            {
              "internalType": "address",
              "name": "alici",
              "type": "address"
            },
            {
              "internalType": "address",
              "name": "satici",
              "type": "address"
            },
            {
              "internalType": "uint256",
              "name": "fiyat",
              "type": "uint256"
            },
            {
              "internalType": "uint256",
              "name": "ilanId",
              "type": "uint256"
            },
            {
              "internalType": "enum NotaryContractBase.PropState",
              "name": "state",
              "type": "uint8"
            }
          ],
          "internalType": "struct NotaryContractBase.PropositionData[]",
          "name": "",
          "type": "tuple[]"
        }
      ],
      "stateMutability": "view",
      "type": "function",
      "constant": true
    }
  ],
  "bytecode": "0x60806040523480156200001157600080fd5b506040516200190e3803806200190e8339818101604052810190620000379190620000e8565b806000806101000a81548173ffffffffffffffffffffffffffffffffffffffff021916908373ffffffffffffffffffffffffffffffffffffffff160217905550506200011a565b600080fd5b600073ffffffffffffffffffffffffffffffffffffffff82169050919050565b6000620000b08262000083565b9050919050565b620000c281620000a3565b8114620000ce57600080fd5b50565b600081519050620000e281620000b7565b92915050565b6000602082840312156200010157620001006200007e565b5b60006200011184828501620000d1565b91505092915050565b6117e4806200012a6000396000f3fe608060405234801561001057600080fd5b50600436106100575760003560e01c80635f5cde5c1461005c578063a3325b8f14610078578063b8c55beb146100a8578063dc398663146100c4578063e57a0ce7146100f8575b600080fd5b61007660048036038101906100719190610ef0565b610114565b005b610092600480360381019061008d9190610f7b565b6102b9565b60405161009f9190611154565b60405180910390f35b6100c260048036038101906100bd9190611176565b610515565b005b6100de60048036038101906100d99190610ef0565b61099e565b6040516100ef9594939291906111e3565b60405180910390f35b610112600480360381019061010d9190610ef0565b610a21565b005b3373ffffffffffffffffffffffffffffffffffffffff166002600083815260200190815260200160002060010160009054906101000a900473ffffffffffffffffffffffffffffffffffffffff1673ffffffffffffffffffffffffffffffffffffffff16146101b8576040517f08c379a00000000000000000000000000000000000000000000000000000000081526004016101af906112b9565b60405180910390fd5b6003808111156101cb576101ca610ff2565b5b6002600083815260200190815260200160002060040160009054906101000a900460ff16600381111561020157610200610ff2565b5b14610241576040517f08c379a00000000000000000000000000000000000000000000000000000000081526004016102389061134b565b60405180910390fd5b600280600083815260200190815260200160002060040160006101000a81548160ff0219169083600381111561027a57610279610ff2565b5b02179055507f481abdd265f6f4b43d249fabccbb6d8bdff8af4310763723025780c6465e8a60816040516102ae919061136b565b60405180910390a150565b60606000600360008473ffffffffffffffffffffffffffffffffffffffff1673ffffffffffffffffffffffffffffffffffffffff16815260200190815260200160002080549050905060008167ffffffffffffffff81111561031e5761031d611386565b5b60405190808252806020026020018201604052801561035757816020015b610344610e48565b81526020019060019003908161033c5790505b50905060005b8281101561050a5760026000600360008873ffffffffffffffffffffffffffffffffffffffff1673ffffffffffffffffffffffffffffffffffffffff16815260200190815260200160002083815481106103ba576103b96113b5565b5b906000526020600020015481526020019081526020016000206040518060a00160405290816000820160009054906101000a900473ffffffffffffffffffffffffffffffffffffffff1673ffffffffffffffffffffffffffffffffffffffff1673ffffffffffffffffffffffffffffffffffffffff1681526020016001820160009054906101000a900473ffffffffffffffffffffffffffffffffffffffff1673ffffffffffffffffffffffffffffffffffffffff1673ffffffffffffffffffffffffffffffffffffffff16815260200160028201548152602001600382015481526020016004820160009054906101000a900460ff1660038111156104c3576104c2610ff2565b5b60038111156104d5576104d4610ff2565b5b815250508282815181106104ec576104eb6113b5565b5b6020026020010181905250808061050290611413565b91505061035d565b508092505050919050565b60008060009054906101000a900473ffffffffffffffffffffffffffffffffffffffff1673ffffffffffffffffffffffffffffffffffffffff16638f7df5fe846040518263ffffffff1660e01b8152600401610571919061136b565b602060405180830381865afa15801561058e573d6000803e3d6000fd5b505050506040513d601f19601f820116820180604052508101906105b29190611470565b90503373ffffffffffffffffffffffffffffffffffffffff168173ffffffffffffffffffffffffffffffffffffffff1603610622576040517f08c379a00000000000000000000000000000000000000000000000000000000081526004016106199061150f565b60405180910390fd5b60008054906101000a900473ffffffffffffffffffffffffffffffffffffffff1673ffffffffffffffffffffffffffffffffffffffff16633fa020e9846040518263ffffffff1660e01b815260040161067b919061136b565b602060405180830381865afa158015610698573d6000803e3d6000fd5b505050506040513d601f19601f820116820180604052508101906106bc9190611567565b6106fb576040517f08c379a00000000000000000000000000000000000000000000000000000000081526004016106f2906115e0565b60405180910390fd5b600042905060003390506040518060a001604052808273ffffffffffffffffffffffffffffffffffffffff1681526020018473ffffffffffffffffffffffffffffffffffffffff16815260200185815260200186815260200160038081111561076757610766610ff2565b5b8152506002600084815260200190815260200160002060008201518160000160006101000a81548173ffffffffffffffffffffffffffffffffffffffff021916908373ffffffffffffffffffffffffffffffffffffffff16021790555060208201518160010160006101000a81548173ffffffffffffffffffffffffffffffffffffffff021916908373ffffffffffffffffffffffffffffffffffffffff160217905550604082015181600201556060820151816003015560808201518160040160006101000a81548160ff0219169083600381111561084a57610849610ff2565b5b0217905550905050600360008273ffffffffffffffffffffffffffffffffffffffff1673ffffffffffffffffffffffffffffffffffffffff168152602001908152602001600020829080600181540180825580915050600190039060005260206000200160009091909190915055600460008473ffffffffffffffffffffffffffffffffffffffff1673ffffffffffffffffffffffffffffffffffffffff168152602001908152602001600020829080600181540180825580915050600190039060005260206000200160009091909190915055600560008681526020019081526020016000208290806001815401808255809150506001900390600052602060002001600090919091909150557f18e5fffcffc30455dee2d29c44b8dbdc9d3cdf52a19e79ef5ae53cf9c1d9d85d828685848860405161098f959493929190611600565b60405180910390a15050505050565b60026020528060005260406000206000915090508060000160009054906101000a900473ffffffffffffffffffffffffffffffffffffffff16908060010160009054906101000a900473ffffffffffffffffffffffffffffffffffffffff16908060020154908060030154908060040160009054906101000a900460ff16905085565b3373ffffffffffffffffffffffffffffffffffffffff166002600083815260200190815260200160002060010160009054906101000a900473ffffffffffffffffffffffffffffffffffffffff1673ffffffffffffffffffffffffffffffffffffffff1614610ac5576040517f08c379a0000000000000000000000000000000000000000000000000000000008152600401610abc906116c5565b60405180910390fd5b600380811115610ad857610ad7610ff2565b5b6002600083815260200190815260200160002060040160009054906101000a900460ff166003811115610b0e57610b0d610ff2565b5b14610b4e576040517f08c379a0000000000000000000000000000000000000000000000000000000008152600401610b4590611757565b60405180910390fd5b6000600260008381526020019081526020016000206040518060a00160405290816000820160009054906101000a900473ffffffffffffffffffffffffffffffffffffffff1673ffffffffffffffffffffffffffffffffffffffff1673ffffffffffffffffffffffffffffffffffffffff1681526020016001820160009054906101000a900473ffffffffffffffffffffffffffffffffffffffff1673ffffffffffffffffffffffffffffffffffffffff1673ffffffffffffffffffffffffffffffffffffffff16815260200160028201548152602001600382015481526020016004820160009054906101000a900460ff166003811115610c5357610c52610ff2565b5b6003811115610c6557610c64610ff2565b5b81525050905060008054906101000a900473ffffffffffffffffffffffffffffffffffffffff1673ffffffffffffffffffffffffffffffffffffffff16634dff90a98260600151836000015184604001516040518463ffffffff1660e01b8152600401610cd493929190611777565b600060405180830381600087803b158015610cee57600080fd5b505af1158015610d02573d6000803e3d6000fd5b5050505060016002600084815260200190815260200160002060040160006101000a81548160ff02191690836003811115610d4057610d3f610ff2565b5b0217905550610d53816060015183610d8e565b7f948766f524be4d5b123019a7d5475c34c3e2abb29a6c2e0d00a5ef7ed1d14cb782604051610d82919061136b565b60405180910390a15050565b60006005600084815260200190815260200160002080549050905060005b81811015610e42576000600560008681526020019081526020016000208281548110610ddb57610dda6113b5565b5b90600052602060002001549050838114610e2e57600280600083815260200190815260200160002060040160006101000a81548160ff02191690836003811115610e2857610e27610ff2565b5b02179055505b508080610e3a90611413565b915050610dac565b50505050565b6040518060a00160405280600073ffffffffffffffffffffffffffffffffffffffff168152602001600073ffffffffffffffffffffffffffffffffffffffff168152602001600081526020016000815260200160006003811115610eaf57610eae610ff2565b5b81525090565b600080fd5b6000819050919050565b610ecd81610eba565b8114610ed857600080fd5b50565b600081359050610eea81610ec4565b92915050565b600060208284031215610f0657610f05610eb5565b5b6000610f1484828501610edb565b91505092915050565b600073ffffffffffffffffffffffffffffffffffffffff82169050919050565b6000610f4882610f1d565b9050919050565b610f5881610f3d565b8114610f6357600080fd5b50565b600081359050610f7581610f4f565b92915050565b600060208284031215610f9157610f90610eb5565b5b6000610f9f84828501610f66565b91505092915050565b600081519050919050565b600082825260208201905092915050565b6000819050602082019050919050565b610fdd81610f3d565b82525050565b610fec81610eba565b82525050565b7f4e487b7100000000000000000000000000000000000000000000000000000000600052602160045260246000fd5b6004811061103257611031610ff2565b5b50565b600081905061104382611021565b919050565b600061105382611035565b9050919050565b61106381611048565b82525050565b60a08201600082015161107f6000850182610fd4565b5060208201516110926020850182610fd4565b5060408201516110a56040850182610fe3565b5060608201516110b86060850182610fe3565b5060808201516110cb608085018261105a565b50505050565b60006110dd8383611069565b60a08301905092915050565b6000602082019050919050565b600061110182610fa8565b61110b8185610fb3565b935061111683610fc4565b8060005b8381101561114757815161112e88826110d1565b9750611139836110e9565b92505060018101905061111a565b5085935050505092915050565b6000602082019050818103600083015261116e81846110f6565b905092915050565b6000806040838503121561118d5761118c610eb5565b5b600061119b85828601610edb565b92505060206111ac85828601610edb565b9150509250929050565b6111bf81610f3d565b82525050565b6111ce81610eba565b82525050565b6111dd81611048565b82525050565b600060a0820190506111f860008301886111b6565b61120560208301876111b6565b61121260408301866111c5565b61121f60608301856111c5565b61122c60808301846111d4565b9695505050505050565b600082825260208201905092915050565b7f42752074656b6c69662073616365646520736174696369207461726166696e6460008201527f616e20726564646564696c697200000000000000000000000000000000000000602082015250565b60006112a3602d83611236565b91506112ae82611247565b604082019050919050565b600060208201905081810360008301526112d281611296565b9050919050565b7f5361646563652062656b6c656d656465206f6c616e2074656b6c69666c65722060008201527f726564646564696c697200000000000000000000000000000000000000000000602082015250565b6000611335602a83611236565b9150611340826112d9565b604082019050919050565b6000602082019050818103600083015261136481611328565b9050919050565b600060208201905061138060008301846111c5565b92915050565b7f4e487b7100000000000000000000000000000000000000000000000000000000600052604160045260246000fd5b7f4e487b7100000000000000000000000000000000000000000000000000000000600052603260045260246000fd5b7f4e487b7100000000000000000000000000000000000000000000000000000000600052601160045260246000fd5b600061141e82610eba565b91507fffffffffffffffffffffffffffffffffffffffffffffffffffffffffffffffff82036114505761144f6113e4565b5b600182019050919050565b60008151905061146a81610f4f565b92915050565b60006020828403121561148657611485610eb5565b5b60006114948482850161145b565b91505092915050565b7f427520696c616e696e2073617469636973692073697a736e697a2074656b6c6960008201527f6620766572656d657a73696e697a000000000000000000000000000000000000602082015250565b60006114f9602e83611236565b91506115048261149d565b604082019050919050565b60006020820190508181036000830152611528816114ec565b9050919050565b60008115159050919050565b6115448161152f565b811461154f57600080fd5b50565b6000815190506115618161153b565b92915050565b60006020828403121561157d5761157c610eb5565b5b600061158b84828501611552565b91505092915050565b7f427520696c616e612074656b6c696620766572696c656d657a00000000000000600082015250565b60006115ca601983611236565b91506115d582611594565b602082019050919050565b600060208201905081810360008301526115f9816115bd565b9050919050565b600060a08201905061161560008301886111c5565b61162260208301876111c5565b61162f60408301866111b6565b61163c60608301856111b6565b61164960808301846111c5565b9695505050505050565b7f42752074656b6c69662073616365646520736174696369207461726166696e6460008201527f616e206b6162756c206564696c69720000000000000000000000000000000000602082015250565b60006116af602f83611236565b91506116ba82611653565b604082019050919050565b600060208201905081810360008301526116de816116a2565b9050919050565b7f5361646563652062656b6c656d656465206f6c616e2074656b6c69666c65722060008201527f6b6162756c206564696c69720000000000000000000000000000000000000000602082015250565b6000611741602c83611236565b915061174c826116e5565b604082019050919050565b6000602082019050818103600083015261177081611734565b9050919050565b600060608201905061178c60008301866111c5565b61179960208301856111b6565b6117a660408301846111c5565b94935050505056fea2646970667358221220f9716db3204519e7fabbf0c6efe734ee3db57301816c7df03fd4e39572a8fba264736f6c634300080e0033",
  "immutableReferences": {},
  "source": "// SPDX-License-Identifier: UNLICENSED\r\npragma solidity ^0.8.0;\r\n\r\nimport \"./Owner.sol\";\r\nimport \"./RealEstateSaleAd.sol\";\r\nimport \"./NotaryContractBase.sol\";\r\n\r\ncontract Proposition is NotaryContractBase {\r\n\r\n    RealEstateSaleAd realEstateSaleAdContract;\r\n    Owner ownerContract;\r\n\r\n    mapping(uint => PropositionData) public propIdDataMap;\r\n    mapping(address => uint []) gonderilenTeklifler;\r\n    mapping(address => uint []) alinanTeklifler;\r\n    mapping(uint => uint[]) ilanIdTeklifIdListMap;\r\n\r\n    event teklifGonderildi(uint teklifId, uint ilanId, address saticiAdd, address aliciAdd, uint fiyat);\r\n    event teklifReddedildi(uint teklifId);\r\n    event teklifKabulEdildi(uint teklifId);\r\n\r\n    constructor(address realEstateSaleAdContractAdd)  {\r\n        //ownerContract=Owner(ownerContractAdd);\r\n        realEstateSaleAdContract=RealEstateSaleAd(realEstateSaleAdContractAdd);\r\n    }\r\n\r\n    function teklifGonder(uint ilanId, uint fiyat) public {\r\n        address satici = realEstateSaleAdContract.getIlanSatici(ilanId);\r\n        require(satici != msg.sender, \"Bu ilanin saticisi sizsniz teklif veremezsiniz\");\r\n        require(realEstateSaleAdContract.ilanaTeklifVerilebilirMi(ilanId), \"Bu ilana teklif verilemez\");\r\n        uint propId = block.timestamp;        \r\n        address alici = msg.sender;\r\n        propIdDataMap[propId] = PropositionData(alici, satici, fiyat, ilanId, PropState.BEKLEMEDE);\r\n        gonderilenTeklifler[alici].push(propId);\r\n        alinanTeklifler[satici].push(propId);\r\n        ilanIdTeklifIdListMap[ilanId].push(propId);\r\n        emit teklifGonderildi(propId, ilanId, satici, alici, fiyat);\r\n    }\r\n\r\n    function teklifReddet(uint propId) public {\r\n        require(propIdDataMap[propId].satici == msg.sender, \"Bu teklif sacede satici tarafindan reddedilir\");\r\n        require(propIdDataMap[propId].state == PropState.BEKLEMEDE,  \"Sadece beklemede olan teklifler reddedilir\");\r\n        propIdDataMap[propId].state = PropState.RED;\r\n        emit teklifReddedildi(propId);        \r\n        \r\n    }\r\n\r\n    function teklifKabulEt(uint propId) public {\r\n        require(propIdDataMap[propId].satici == msg.sender, \"Bu teklif sacede satici tarafindan kabul edilir\");\r\n        require(propIdDataMap[propId].state == PropState.BEKLEMEDE, \"Sadece beklemede olan teklifler kabul edilir\");\r\n        PropositionData memory prop = propIdDataMap[propId];\r\n        realEstateSaleAdContract.aliciIcinKilitle(prop.ilanId, prop.alici, prop.fiyat);\r\n        propIdDataMap[propId].state = PropState.KABUL;\r\n        denyOtherProps(prop.ilanId, propId);\r\n        emit teklifKabulEdildi(propId);\r\n        \r\n\r\n    }\r\n\r\n    function denyOtherProps(uint ilanId, uint acceptedPropId) private {\r\n        uint propSizeForAd = ilanIdTeklifIdListMap[ilanId].length;\r\n        for(uint i = 0; i< propSizeForAd; i++){\r\n            uint propId = ilanIdTeklifIdListMap[ilanId][i];\r\n            if( propId != acceptedPropId){\r\n                propIdDataMap[propId].state = PropState.RED;    \r\n            }\r\n        }\r\n    }\r\n\r\n    function getGonderilenTeklifler(address aliciAdd) public view returns (PropositionData [] memory){\r\n        uint propSizeOfAlici = gonderilenTeklifler[aliciAdd].length;\r\n        PropositionData [] memory props = new PropositionData[](propSizeOfAlici);\r\n        for(uint i = 0; i< propSizeOfAlici; i++){\r\n            props[i] = propIdDataMap[gonderilenTeklifler[aliciAdd][i]]; \r\n        } \r\n        return props;\r\n    }\r\n\r\n\r\n\r\n}",
  "sourcePath": "D:\\Ethereum Projects\\DAWithEth\\truffle-project\\contracts\\Proposition.sol",
  "compiler": {
    "name": "solc",
    "version": "0.8.14+commit.80d49f37.Emscripten.clang"
  },
  "schemaVersion": "3.4.11",
  "updatedAt": "2023-01-09T20:03:17.736Z",
  "networkType": "ethereum",
  "devdoc": {
    "kind": "dev",
    "methods": {},
    "version": 1
  },
  "userdoc": {
    "kind": "user",
    "methods": {},
    "version": 1
  }
}