{
  "contractName": "RealEstateSaleAd",
  "abi": [
    {
      "inputs": [
        {
          "internalType": "address",
          "name": "ownerContractAdd",
          "type": "address"
        },
        {
          "internalType": "address",
          "name": "realOwnRelAddress",
          "type": "address"
        },
        {
          "internalType": "address",
          "name": "realEstateAddress",
          "type": "address"
        }
      ],
      "stateMutability": "nonpayable",
      "type": "constructor"
    },
    {
      "anonymous": false,
      "inputs": [
        {
          "indexed": false,
          "internalType": "uint256",
          "name": "ilanId",
          "type": "uint256"
        },
        {
          "indexed": false,
          "internalType": "address",
          "name": "saticiId",
          "type": "address"
        },
        {
          "indexed": false,
          "internalType": "address",
          "name": "aliciId",
          "type": "address"
        }
      ],
      "name": "aliciIcinKilitlendi",
      "type": "event"
    },
    {
      "anonymous": false,
      "inputs": [
        {
          "indexed": false,
          "internalType": "address",
          "name": "alici",
          "type": "address"
        },
        {
          "indexed": false,
          "internalType": "uint256",
          "name": "ilanId",
          "type": "uint256"
        },
        {
          "indexed": false,
          "internalType": "uint256",
          "name": "miktar",
          "type": "uint256"
        }
      ],
      "name": "alicisistemHesabinaParaAktardi",
      "type": "event"
    },
    {
      "anonymous": false,
      "inputs": [
        {
          "indexed": false,
          "internalType": "uint256",
          "name": "ilanId",
          "type": "uint256"
        },
        {
          "indexed": false,
          "internalType": "uint256",
          "name": "yeniSatisFiyat",
          "type": "uint256"
        },
        {
          "indexed": false,
          "internalType": "address",
          "name": "saticiId",
          "type": "address"
        }
      ],
      "name": "fiyatDegistir",
      "type": "event"
    },
    {
      "anonymous": false,
      "inputs": [
        {
          "indexed": false,
          "internalType": "uint256",
          "name": "hisseId",
          "type": "uint256"
        },
        {
          "indexed": false,
          "internalType": "address",
          "name": "saticiId",
          "type": "address"
        },
        {
          "indexed": false,
          "internalType": "uint256",
          "name": "ilanId",
          "type": "uint256"
        },
        {
          "indexed": false,
          "internalType": "uint256",
          "name": "fiyat",
          "type": "uint256"
        }
      ],
      "name": "ilanOlusturuldu",
      "type": "event"
    },
    {
      "anonymous": false,
      "inputs": [
        {
          "indexed": false,
          "internalType": "address",
          "name": "saticiId",
          "type": "address"
        },
        {
          "indexed": false,
          "internalType": "uint256",
          "name": "ilanId",
          "type": "uint256"
        }
      ],
      "name": "ilanYayindanKaldirildi",
      "type": "event"
    },
    {
      "anonymous": false,
      "inputs": [
        {
          "indexed": false,
          "internalType": "uint256",
          "name": "ilanId",
          "type": "uint256"
        }
      ],
      "name": "kilitKaldirildiWithAliciOnayi",
      "type": "event"
    },
    {
      "anonymous": false,
      "inputs": [
        {
          "indexed": false,
          "internalType": "uint256",
          "name": "ilanId",
          "type": "uint256"
        }
      ],
      "name": "kilitKaldirildiWithSaticiOnayi",
      "type": "event"
    },
    {
      "inputs": [
        {
          "internalType": "uint256",
          "name": "",
          "type": "uint256"
        }
      ],
      "name": "adIdLUT",
      "outputs": [
        {
          "internalType": "uint256",
          "name": "",
          "type": "uint256"
        }
      ],
      "stateMutability": "view",
      "type": "function",
      "constant": true
    },
    {
      "inputs": [
        {
          "internalType": "uint256",
          "name": "",
          "type": "uint256"
        }
      ],
      "name": "adIdMap",
      "outputs": [
        {
          "internalType": "uint256",
          "name": "hisseId",
          "type": "uint256"
        },
        {
          "internalType": "address",
          "name": "satici",
          "type": "address"
        },
        {
          "internalType": "address",
          "name": "alici",
          "type": "address"
        },
        {
          "internalType": "enum NotaryContractBase.State",
          "name": "state",
          "type": "uint8"
        },
        {
          "internalType": "uint256",
          "name": "rayicBedeli",
          "type": "uint256"
        },
        {
          "internalType": "uint256",
          "name": "fiyat",
          "type": "uint256"
        },
        {
          "internalType": "bool",
          "name": "borcuVarMi",
          "type": "bool"
        },
        {
          "internalType": "uint256",
          "name": "adIdLUTIndex",
          "type": "uint256"
        },
        {
          "internalType": "bool",
          "name": "aliciParaTransferi",
          "type": "bool"
        },
        {
          "internalType": "bool",
          "name": "saticiParaTransferi",
          "type": "bool"
        }
      ],
      "stateMutability": "view",
      "type": "function",
      "constant": true
    },
    {
      "inputs": [
        {
          "internalType": "uint256",
          "name": "",
          "type": "uint256"
        }
      ],
      "name": "hisseIdAdIdMap",
      "outputs": [
        {
          "internalType": "uint256",
          "name": "",
          "type": "uint256"
        }
      ],
      "stateMutability": "view",
      "type": "function",
      "constant": true
    },
    {
      "inputs": [
        {
          "internalType": "address",
          "name": "",
          "type": "address"
        },
        {
          "internalType": "uint256",
          "name": "",
          "type": "uint256"
        }
      ],
      "name": "ownerAdIdListMap",
      "outputs": [
        {
          "internalType": "uint256",
          "name": "",
          "type": "uint256"
        }
      ],
      "stateMutability": "view",
      "type": "function",
      "constant": true
    },
    {
      "inputs": [
        {
          "internalType": "uint256",
          "name": "hisseId",
          "type": "uint256"
        },
        {
          "internalType": "uint256",
          "name": "rayicBedeli",
          "type": "uint256"
        },
        {
          "internalType": "uint256",
          "name": "satisFiyat",
          "type": "uint256"
        },
        {
          "internalType": "bool",
          "name": "borcuVarMi",
          "type": "bool"
        }
      ],
      "name": "ilanOlustur",
      "outputs": [],
      "stateMutability": "nonpayable",
      "type": "function"
    },
    {
      "inputs": [
        {
          "internalType": "uint256",
          "name": "ilanId",
          "type": "uint256"
        }
      ],
      "name": "ilanYayindanKaldir",
      "outputs": [],
      "stateMutability": "nonpayable",
      "type": "function"
    },
    {
      "inputs": [
        {
          "internalType": "uint256",
          "name": "ilanId",
          "type": "uint256"
        },
        {
          "internalType": "address",
          "name": "aliciAdd",
          "type": "address"
        },
        {
          "internalType": "uint256",
          "name": "fiyat",
          "type": "uint256"
        }
      ],
      "name": "aliciIcinKilitle",
      "outputs": [],
      "stateMutability": "nonpayable",
      "type": "function"
    },
    {
      "inputs": [
        {
          "internalType": "uint256",
          "name": "ilanId",
          "type": "uint256"
        },
        {
          "internalType": "uint256",
          "name": "newfiyat",
          "type": "uint256"
        }
      ],
      "name": "changeSatisFiyat",
      "outputs": [],
      "stateMutability": "nonpayable",
      "type": "function"
    },
    {
      "inputs": [
        {
          "internalType": "uint256",
          "name": "ilanId",
          "type": "uint256"
        }
      ],
      "name": "kilitKaldirWithAliciOnayi",
      "outputs": [],
      "stateMutability": "nonpayable",
      "type": "function"
    },
    {
      "inputs": [
        {
          "internalType": "uint256",
          "name": "ilanId",
          "type": "uint256"
        }
      ],
      "name": "kilitKaldirWithSaticiOnayi",
      "outputs": [],
      "stateMutability": "nonpayable",
      "type": "function"
    },
    {
      "inputs": [
        {
          "internalType": "address",
          "name": "ownAdd",
          "type": "address"
        }
      ],
      "name": "getUserAds",
      "outputs": [
        {
          "components": [
            {
              "internalType": "uint256",
              "name": "hisseId",
              "type": "uint256"
            },
            {
              "internalType": "address",
              "name": "satici",
              "type": "address"
            },
            {
              "internalType": "address",
              "name": "alici",
              "type": "address"
            },
            {
              "internalType": "enum NotaryContractBase.State",
              "name": "state",
              "type": "uint8"
            },
            {
              "internalType": "uint256",
              "name": "rayicBedeli",
              "type": "uint256"
            },
            {
              "internalType": "uint256",
              "name": "fiyat",
              "type": "uint256"
            },
            {
              "internalType": "bool",
              "name": "borcuVarMi",
              "type": "bool"
            },
            {
              "internalType": "uint256",
              "name": "adIdLUTIndex",
              "type": "uint256"
            },
            {
              "internalType": "bool",
              "name": "aliciParaTransferi",
              "type": "bool"
            },
            {
              "internalType": "bool",
              "name": "saticiParaTransferi",
              "type": "bool"
            }
          ],
          "internalType": "struct NotaryContractBase.Advertisement[]",
          "name": "",
          "type": "tuple[]"
        }
      ],
      "stateMutability": "view",
      "type": "function",
      "constant": true
    },
    {
      "inputs": [
        {
          "internalType": "uint256",
          "name": "ilanId",
          "type": "uint256"
        }
      ],
      "name": "ilanaTeklifVerilebilirMi",
      "outputs": [
        {
          "internalType": "bool",
          "name": "",
          "type": "bool"
        }
      ],
      "stateMutability": "view",
      "type": "function",
      "constant": true
    },
    {
      "inputs": [
        {
          "internalType": "uint256",
          "name": "ilanId",
          "type": "uint256"
        }
      ],
      "name": "getIlanSatici",
      "outputs": [
        {
          "internalType": "address",
          "name": "",
          "type": "address"
        }
      ],
      "stateMutability": "view",
      "type": "function",
      "constant": true
    },
    {
      "inputs": [
        {
          "internalType": "uint256",
          "name": "ilanId",
          "type": "uint256"
        }
      ],
      "name": "alicidanParaAlindi",
      "outputs": [],
      "stateMutability": "nonpayable",
      "type": "function"
    },
    {
      "inputs": [
        {
          "internalType": "uint256",
          "name": "ilanId",
          "type": "uint256"
        }
      ],
      "name": "saticidanTapuHarciAlindi",
      "outputs": [],
      "stateMutability": "nonpayable",
      "type": "function"
    },
    {
      "inputs": [],
      "name": "getAliciIcinKitlenenIlanlar",
      "outputs": [
        {
          "components": [
            {
              "internalType": "uint256",
              "name": "ilanId",
              "type": "uint256"
            },
            {
              "components": [
                {
                  "internalType": "uint256",
                  "name": "hisseId",
                  "type": "uint256"
                },
                {
                  "internalType": "address",
                  "name": "satici",
                  "type": "address"
                },
                {
                  "internalType": "address",
                  "name": "alici",
                  "type": "address"
                },
                {
                  "internalType": "enum NotaryContractBase.State",
                  "name": "state",
                  "type": "uint8"
                },
                {
                  "internalType": "uint256",
                  "name": "rayicBedeli",
                  "type": "uint256"
                },
                {
                  "internalType": "uint256",
                  "name": "fiyat",
                  "type": "uint256"
                },
                {
                  "internalType": "bool",
                  "name": "borcuVarMi",
                  "type": "bool"
                },
                {
                  "internalType": "uint256",
                  "name": "adIdLUTIndex",
                  "type": "uint256"
                },
                {
                  "internalType": "bool",
                  "name": "aliciParaTransferi",
                  "type": "bool"
                },
                {
                  "internalType": "bool",
                  "name": "saticiParaTransferi",
                  "type": "bool"
                }
              ],
              "internalType": "struct NotaryContractBase.Advertisement",
              "name": "ad",
              "type": "tuple"
            }
          ],
          "internalType": "struct NotaryContractBase.AdDto[]",
          "name": "",
          "type": "tuple[]"
        }
      ],
      "stateMutability": "view",
      "type": "function",
      "constant": true
    },
    {
      "inputs": [
        {
          "internalType": "address",
          "name": "ownAdd",
          "type": "address"
        }
      ],
      "name": "getUserAssets",
      "outputs": [
        {
          "components": [
            {
              "internalType": "uint256",
              "name": "hisseId",
              "type": "uint256"
            },
            {
              "components": [
                {
                  "internalType": "uint256",
                  "name": "pay",
                  "type": "uint256"
                },
                {
                  "internalType": "uint256",
                  "name": "realEstateId",
                  "type": "uint256"
                },
                {
                  "internalType": "address",
                  "name": "ownerAdd",
                  "type": "address"
                },
                {
                  "internalType": "bool",
                  "name": "registered",
                  "type": "bool"
                }
              ],
              "internalType": "struct NotaryContractBase.Hisse",
              "name": "hisse",
              "type": "tuple"
            },
            {
              "internalType": "uint256",
              "name": "ilanId",
              "type": "uint256"
            },
            {
              "components": [
                {
                  "internalType": "uint256",
                  "name": "hisseId",
                  "type": "uint256"
                },
                {
                  "internalType": "address",
                  "name": "satici",
                  "type": "address"
                },
                {
                  "internalType": "address",
                  "name": "alici",
                  "type": "address"
                },
                {
                  "internalType": "enum NotaryContractBase.State",
                  "name": "state",
                  "type": "uint8"
                },
                {
                  "internalType": "uint256",
                  "name": "rayicBedeli",
                  "type": "uint256"
                },
                {
                  "internalType": "uint256",
                  "name": "fiyat",
                  "type": "uint256"
                },
                {
                  "internalType": "bool",
                  "name": "borcuVarMi",
                  "type": "bool"
                },
                {
                  "internalType": "uint256",
                  "name": "adIdLUTIndex",
                  "type": "uint256"
                },
                {
                  "internalType": "bool",
                  "name": "aliciParaTransferi",
                  "type": "bool"
                },
                {
                  "internalType": "bool",
                  "name": "saticiParaTransferi",
                  "type": "bool"
                }
              ],
              "internalType": "struct NotaryContractBase.Advertisement",
              "name": "ad",
              "type": "tuple"
            },
            {
              "components": [
                {
                  "internalType": "uint256",
                  "name": "realEstateId",
                  "type": "uint256"
                },
                {
                  "internalType": "string",
                  "name": "mahalle",
                  "type": "string"
                },
                {
                  "internalType": "uint256",
                  "name": "payda",
                  "type": "uint256"
                },
                {
                  "internalType": "bool",
                  "name": "registered",
                  "type": "bool"
                }
              ],
              "internalType": "struct NotaryContractBase.RealEstateData",
              "name": "realEstateData",
              "type": "tuple"
            }
          ],
          "internalType": "struct NotaryContractBase.HisseAdData[]",
          "name": "",
          "type": "tuple[]"
        }
      ],
      "stateMutability": "view",
      "type": "function",
      "constant": true
    },
    {
      "inputs": [],
      "name": "getAllAds",
      "outputs": [
        {
          "components": [
            {
              "internalType": "uint256",
              "name": "hisseId",
              "type": "uint256"
            },
            {
              "components": [
                {
                  "internalType": "uint256",
                  "name": "pay",
                  "type": "uint256"
                },
                {
                  "internalType": "uint256",
                  "name": "realEstateId",
                  "type": "uint256"
                },
                {
                  "internalType": "address",
                  "name": "ownerAdd",
                  "type": "address"
                },
                {
                  "internalType": "bool",
                  "name": "registered",
                  "type": "bool"
                }
              ],
              "internalType": "struct NotaryContractBase.Hisse",
              "name": "hisse",
              "type": "tuple"
            },
            {
              "internalType": "uint256",
              "name": "ilanId",
              "type": "uint256"
            },
            {
              "components": [
                {
                  "internalType": "uint256",
                  "name": "hisseId",
                  "type": "uint256"
                },
                {
                  "internalType": "address",
                  "name": "satici",
                  "type": "address"
                },
                {
                  "internalType": "address",
                  "name": "alici",
                  "type": "address"
                },
                {
                  "internalType": "enum NotaryContractBase.State",
                  "name": "state",
                  "type": "uint8"
                },
                {
                  "internalType": "uint256",
                  "name": "rayicBedeli",
                  "type": "uint256"
                },
                {
                  "internalType": "uint256",
                  "name": "fiyat",
                  "type": "uint256"
                },
                {
                  "internalType": "bool",
                  "name": "borcuVarMi",
                  "type": "bool"
                },
                {
                  "internalType": "uint256",
                  "name": "adIdLUTIndex",
                  "type": "uint256"
                },
                {
                  "internalType": "bool",
                  "name": "aliciParaTransferi",
                  "type": "bool"
                },
                {
                  "internalType": "bool",
                  "name": "saticiParaTransferi",
                  "type": "bool"
                }
              ],
              "internalType": "struct NotaryContractBase.Advertisement",
              "name": "ad",
              "type": "tuple"
            },
            {
              "components": [
                {
                  "internalType": "uint256",
                  "name": "realEstateId",
                  "type": "uint256"
                },
                {
                  "internalType": "string",
                  "name": "mahalle",
                  "type": "string"
                },
                {
                  "internalType": "uint256",
                  "name": "payda",
                  "type": "uint256"
                },
                {
                  "internalType": "bool",
                  "name": "registered",
                  "type": "bool"
                }
              ],
              "internalType": "struct NotaryContractBase.RealEstateData",
              "name": "realEstateData",
              "type": "tuple"
            }
          ],
          "internalType": "struct NotaryContractBase.HisseAdData[]",
          "name": "",
          "type": "tuple[]"
        }
      ],
      "stateMutability": "view",
      "type": "function",
      "constant": true
    }
  ],
  "bytecode": "0x608060405260006007553480156200001657600080fd5b50604051620047693803806200476983398181016040528101906200003c919062000171565b82600160006101000a81548173ffffffffffffffffffffffffffffffffffffffff021916908373ffffffffffffffffffffffffffffffffffffffff160217905550816000806101000a81548173ffffffffffffffffffffffffffffffffffffffff021916908373ffffffffffffffffffffffffffffffffffffffff16021790555080600260006101000a81548173ffffffffffffffffffffffffffffffffffffffff021916908373ffffffffffffffffffffffffffffffffffffffff160217905550505050620001cd565b600080fd5b600073ffffffffffffffffffffffffffffffffffffffff82169050919050565b600062000139826200010c565b9050919050565b6200014b816200012c565b81146200015757600080fd5b50565b6000815190506200016b8162000140565b92915050565b6000806000606084860312156200018d576200018c62000107565b5b60006200019d868287016200015a565b9350506020620001b0868287016200015a565b9250506040620001c3868287016200015a565b9150509250925092565b61458c80620001dd6000396000f3fe608060405234801561001057600080fd5b50600436106101165760003560e01c80638f7df5fe116100a2578063cca1baa111610071578063cca1baa114610320578063da05ae331461033c578063dc589fad1461036c578063e7f6b3a014610388578063ebed0592146103a457610116565b80638f7df5fe1461027d5780639206e938146102ad578063b79f4423146102e6578063ba1468461461030457610116565b8063407e17d6116100e9578063407e17d6146101c757806349a2c6b0146101e55780634dff90a914610215578063765ff061146102315780638c193ff51461026157610116565b8063157c2a401461011b5780633505d12f14610137578063384154f0146101675780633fa020e914610197575b600080fd5b61013560048036038101906101309190613100565b6103c0565b005b610151600480360381019061014c9190613100565b610571565b60405161015e919061313c565b60405180910390f35b610181600480360381019061017c9190613100565b610589565b60405161018e919061313c565b60405180910390f35b6101b160048036038101906101ac9190613100565b6105a1565b6040516101be9190613172565b60405180910390f35b6101cf6105f5565b6040516101dc919061340f565b60405180910390f35b6101ff60048036038101906101fa919061345d565b610957565b60405161020c919061313c565b60405180910390f35b61022f600480360381019061022a919061349d565b610988565b005b61024b600480360381019061024691906134f0565b610cad565b60405161025891906137a8565b60405180910390f35b61027b60048036038101906102769190613100565b6111b4565b005b61029760048036038101906102929190613100565b61152e565b6040516102a491906137d9565b60405180910390f35b6102c760048036038101906102c29190613100565b61156e565b6040516102dd9a99989796959493929190613803565b60405180910390f35b6102ee611636565b6040516102fb91906137a8565b60405180910390f35b61031e60048036038101906103199190613100565b6119ee565b005b61033a60048036038101906103359190613100565b611b94565b005b610356600480360381019061035191906134f0565b611f0e565b604051610363919061394f565b60405180910390f35b6103866004803603810190610381919061399d565b6123e1565b005b6103a2600480360381019061039d9190613100565b612883565b005b6103be60048036038101906103b99190613a04565b612a2a565b005b3373ffffffffffffffffffffffffffffffffffffffff166003600083815260200190815260200160002060010160009054906101000a900473ffffffffffffffffffffffffffffffffffffffff1673ffffffffffffffffffffffffffffffffffffffff1614610464576040517f08c379a000000000000000000000000000000000000000000000000000000000815260040161045b90613ac7565b60405180910390fd5b6001600581111561047857610477613209565b5b6003600083815260200190815260200160002060020160149054906101000a900460ff1660058111156104ae576104ad613209565b5b146104ee576040517f08c379a00000000000000000000000000000000000000000000000000000000081526004016104e590613b59565b60405180910390fd5b600380600083815260200190815260200160002060020160146101000a81548160ff0219169083600581111561052757610526613209565b5b021790555061053581612d2c565b7f403a6f9792692b3ee502fa20caf6bb8fd6dcf2af50f28f5745b111e6170b05143382604051610566929190613b79565b60405180910390a150565b60046020528060005260406000206000915090505481565b60066020528060005260406000206000915090505481565b6000600160058111156105b7576105b6613209565b5b6003600084815260200190815260200160002060020160149054906101000a900460ff1660058111156105ed576105ec613209565b5b149050919050565b6060600160009054906101000a900473ffffffffffffffffffffffffffffffffffffffff1673ffffffffffffffffffffffffffffffffffffffff166324d7806c336040518263ffffffff1660e01b815260040161065291906137d9565b602060405180830381865afa15801561066f573d6000803e3d6000fd5b505050506040513d601f19601f820116820180604052508101906106939190613bb7565b6106d2576040517f08c379a00000000000000000000000000000000000000000000000000000000081526004016106c990613c30565b60405180910390fd5b600060075467ffffffffffffffff8111156106f0576106ef613c50565b5b60405190808252806020026020018201604052801561072957816020015b610716612f54565b81526020019060019003908161070e5790505b5090506000805b60075481101561094e5760006006600083815260200190815260200160002054905060006003600083815260200190815260200160002060405180610140016040529081600082015481526020016001820160009054906101000a900473ffffffffffffffffffffffffffffffffffffffff1673ffffffffffffffffffffffffffffffffffffffff1673ffffffffffffffffffffffffffffffffffffffff1681526020016002820160009054906101000a900473ffffffffffffffffffffffffffffffffffffffff1673ffffffffffffffffffffffffffffffffffffffff1673ffffffffffffffffffffffffffffffffffffffff1681526020016002820160149054906101000a900460ff16600581111561084e5761084d613209565b5b60058111156108605761085f613209565b5b815260200160038201548152602001600482015481526020016005820160009054906101000a900460ff16151515158152602001600682015481526020016007820160009054906101000a900460ff161515151581526020016007820160019054906101000a900460ff1615151515815250509050600260058111156108e9576108e8613209565b5b81606001516005811115610900576108ff613209565b5b036109395760405180604001604052808381526020018281525085858151811061092d5761092c613c7f565b5b60200260200101819052505b5050808061094690613cdd565b915050610730565b50819250505090565b6005602052816000526040600020818154811061097357600080fd5b90600052602060002001600091509150505481565b60006003600085815260200190815260200160002060405180610140016040529081600082015481526020016001820160009054906101000a900473ffffffffffffffffffffffffffffffffffffffff1673ffffffffffffffffffffffffffffffffffffffff1673ffffffffffffffffffffffffffffffffffffffff1681526020016002820160009054906101000a900473ffffffffffffffffffffffffffffffffffffffff1673ffffffffffffffffffffffffffffffffffffffff1673ffffffffffffffffffffffffffffffffffffffff1681526020016002820160149054906101000a900460ff166005811115610a8457610a83613209565b5b6005811115610a9657610a95613209565b5b815260200160038201548152602001600482015481526020016005820160009054906101000a900460ff16151515158152602001600682015481526020016007820160009054906101000a900460ff161515151581526020016007820160019054906101000a900460ff161515151581525050905060016005811115610b1f57610b1e613209565b5b81606001516005811115610b3657610b35613209565b5b14610b76576040517f08c379a0000000000000000000000000000000000000000000000000000000008152600401610b6d90613b59565b60405180910390fd5b8181608001511115610bbd576040517f08c379a0000000000000000000000000000000000000000000000000000000008152600401610bb490613d97565b60405180910390fd5b60026003600086815260200190815260200160002060020160146101000a81548160ff02191690836005811115610bf757610bf6613209565b5b0217905550826003600086815260200190815260200160002060020160006101000a81548173ffffffffffffffffffffffffffffffffffffffff021916908373ffffffffffffffffffffffffffffffffffffffff1602179055508160036000868152602001908152602001600020600401819055507f1479338b27bb727a6d6bdbb8f7554b67addade705ff18a6a4e9f52b7c26f8caf843385604051610c9f93929190613db7565b60405180910390a150505050565b606060008060009054906101000a900473ffffffffffffffffffffffffffffffffffffffff1673ffffffffffffffffffffffffffffffffffffffff166351fe436a846040518263ffffffff1660e01b8152600401610d0b91906137d9565b602060405180830381865afa158015610d28573d6000803e3d6000fd5b505050506040513d601f19601f82011682018060405250810190610d4c9190613e03565b905060008167ffffffffffffffff811115610d6a57610d69613c50565b5b604051908082528060200260200182016040528015610da357816020015b610d90612f74565b815260200190600190039081610d885790505b5090506000805b838110156111a85760008060009054906101000a900473ffffffffffffffffffffffffffffffffffffffff1673ffffffffffffffffffffffffffffffffffffffff1663794cc53388846040518363ffffffff1660e01b8152600401610e10929190613b79565b602060405180830381865afa158015610e2d573d6000803e3d6000fd5b505050506040513d601f19601f82011682018060405250810190610e519190613e03565b9050600081146111945760008060009054906101000a900473ffffffffffffffffffffffffffffffffffffffff1673ffffffffffffffffffffffffffffffffffffffff1663948c0d8e836040518263ffffffff1660e01b8152600401610eb7919061313c565b608060405180830381865afa158015610ed4573d6000803e3d6000fd5b505050506040513d601f19601f82011682018060405250810190610ef89190613f13565b90506000600260009054906101000a900473ffffffffffffffffffffffffffffffffffffffff1673ffffffffffffffffffffffffffffffffffffffff16639f8188b383602001516040518263ffffffff1660e01b8152600401610f5b919061313c565b600060405180830381865afa158015610f78573d6000803e3d6000fd5b505050506040513d6000823e3d601f19601f82011682018060405250810190610fa1919061407f565b905060006004600085815260200190815260200160002054905060006003600083815260200190815260200160002060405180610140016040529081600082015481526020016001820160009054906101000a900473ffffffffffffffffffffffffffffffffffffffff1673ffffffffffffffffffffffffffffffffffffffff1673ffffffffffffffffffffffffffffffffffffffff1681526020016002820160009054906101000a900473ffffffffffffffffffffffffffffffffffffffff1673ffffffffffffffffffffffffffffffffffffffff1673ffffffffffffffffffffffffffffffffffffffff1681526020016002820160149054906101000a900460ff1660058111156110b7576110b6613209565b5b60058111156110c9576110c8613209565b5b815260200160038201548152602001600482015481526020016005820160009054906101000a900460ff16151515158152602001600682015481526020016007820160009054906101000a900460ff161515151581526020016007820160019054906101000a900460ff16151515158152505090506040518060a001604052808681526020018581526020018381526020018281526020018481525088888061117190613cdd565b99508151811061118457611183613c7f565b5b6020026020010181905250505050505b5080806111a090613cdd565b915050610daa565b50819350505050919050565b600160009054906101000a900473ffffffffffffffffffffffffffffffffffffffff1673ffffffffffffffffffffffffffffffffffffffff166324d7806c336040518263ffffffff1660e01b815260040161120f91906137d9565b602060405180830381865afa15801561122c573d6000803e3d6000fd5b505050506040513d601f19601f820116820180604052508101906112509190613bb7565b61128f576040517f08c379a000000000000000000000000000000000000000000000000000000000815260040161128690613c30565b60405180910390fd5b60016003600083815260200190815260200160002060070160006101000a81548160ff02191690831515021790555060006003600083815260200190815260200160002060405180610140016040529081600082015481526020016001820160009054906101000a900473ffffffffffffffffffffffffffffffffffffffff1673ffffffffffffffffffffffffffffffffffffffff1673ffffffffffffffffffffffffffffffffffffffff1681526020016002820160009054906101000a900473ffffffffffffffffffffffffffffffffffffffff1673ffffffffffffffffffffffffffffffffffffffff1673ffffffffffffffffffffffffffffffffffffffff1681526020016002820160149054906101000a900460ff1660058111156113ba576113b9613209565b5b60058111156113cc576113cb613209565b5b815260200160038201548152602001600482015481526020016005820160009054906101000a900460ff16151515158152602001600682015481526020016007820160009054906101000a900460ff161515151581526020016007820160019054906101000a900460ff16151515158152505090508061012001511561152a5760008054906101000a900473ffffffffffffffffffffffffffffffffffffffff1673ffffffffffffffffffffffffffffffffffffffff166377646798826000015183604001516040518363ffffffff1660e01b81526004016114af9291906140c8565b600060405180830381600087803b1580156114c957600080fd5b505af11580156114dd573d6000803e3d6000fd5b5050505060046003600084815260200190815260200160002060020160146101000a81548160ff0219169083600581111561151b5761151a613209565b5b021790555061152982612d2c565b5b5050565b60006003600083815260200190815260200160002060010160009054906101000a900473ffffffffffffffffffffffffffffffffffffffff169050919050565b60036020528060005260406000206000915090508060000154908060010160009054906101000a900473ffffffffffffffffffffffffffffffffffffffff16908060020160009054906101000a900473ffffffffffffffffffffffffffffffffffffffff16908060020160149054906101000a900460ff16908060030154908060040154908060050160009054906101000a900460ff16908060060154908060070160009054906101000a900460ff16908060070160019054906101000a900460ff1690508a565b6060600060075467ffffffffffffffff81111561165657611655613c50565b5b60405190808252806020026020018201604052801561168f57816020015b61167c612f74565b8152602001906001900390816116745790505b50905060005b6007548110156119e65760006006600083815260200190815260200160002054905060006003600083815260200190815260200160002060405180610140016040529081600082015481526020016001820160009054906101000a900473ffffffffffffffffffffffffffffffffffffffff1673ffffffffffffffffffffffffffffffffffffffff1673ffffffffffffffffffffffffffffffffffffffff1681526020016002820160009054906101000a900473ffffffffffffffffffffffffffffffffffffffff1673ffffffffffffffffffffffffffffffffffffffff1673ffffffffffffffffffffffffffffffffffffffff1681526020016002820160149054906101000a900460ff1660058111156117b3576117b2613209565b5b60058111156117c5576117c4613209565b5b815260200160038201548152602001600482015481526020016005820160009054906101000a900460ff16151515158152602001600682015481526020016007820160009054906101000a900460ff161515151581526020016007820160019054906101000a900460ff161515151581525050905060008060009054906101000a900473ffffffffffffffffffffffffffffffffffffffff1673ffffffffffffffffffffffffffffffffffffffff1663948c0d8e83600001516040518263ffffffff1660e01b815260040161189a919061313c565b608060405180830381865afa1580156118b7573d6000803e3d6000fd5b505050506040513d601f19601f820116820180604052508101906118db9190613f13565b90506000600260009054906101000a900473ffffffffffffffffffffffffffffffffffffffff1673ffffffffffffffffffffffffffffffffffffffff16639f8188b383602001516040518263ffffffff1660e01b815260040161193e919061313c565b600060405180830381865afa15801561195b573d6000803e3d6000fd5b505050506040513d6000823e3d601f19601f82011682018060405250810190611984919061407f565b90506040518060a0016040528084600001518152602001838152602001858152602001848152602001828152508686815181106119c4576119c3613c7f565b5b60200260200101819052505050505080806119de90613cdd565b915050611695565b508091505090565b6003600082815260200190815260200160002060010160009054906101000a900473ffffffffffffffffffffffffffffffffffffffff1673ffffffffffffffffffffffffffffffffffffffff163373ffffffffffffffffffffffffffffffffffffffff1614611a92576040517f08c379a0000000000000000000000000000000000000000000000000000000008152600401611a8990613ac7565b60405180910390fd5b600580811115611aa557611aa4613209565b5b6003600083815260200190815260200160002060020160149054906101000a900460ff166005811115611adb57611ada613209565b5b14611b1b576040517f08c379a0000000000000000000000000000000000000000000000000000000008152600401611b129061413d565b60405180910390fd5b60016003600083815260200190815260200160002060020160146101000a81548160ff02191690836005811115611b5557611b54613209565b5b02179055507f1943ff8fe66129619ad45b43d7666b90f9f10c041d2d491444879220812d647d81604051611b89919061313c565b60405180910390a150565b600160009054906101000a900473ffffffffffffffffffffffffffffffffffffffff1673ffffffffffffffffffffffffffffffffffffffff166324d7806c336040518263ffffffff1660e01b8152600401611bef91906137d9565b602060405180830381865afa158015611c0c573d6000803e3d6000fd5b505050506040513d601f19601f82011682018060405250810190611c309190613bb7565b611c6f576040517f08c379a0000000000000000000000000000000000000000000000000000000008152600401611c6690613c30565b60405180910390fd5b60016003600083815260200190815260200160002060070160016101000a81548160ff02191690831515021790555060006003600083815260200190815260200160002060405180610140016040529081600082015481526020016001820160009054906101000a900473ffffffffffffffffffffffffffffffffffffffff1673ffffffffffffffffffffffffffffffffffffffff1673ffffffffffffffffffffffffffffffffffffffff1681526020016002820160009054906101000a900473ffffffffffffffffffffffffffffffffffffffff1673ffffffffffffffffffffffffffffffffffffffff1673ffffffffffffffffffffffffffffffffffffffff1681526020016002820160149054906101000a900460ff166005811115611d9a57611d99613209565b5b6005811115611dac57611dab613209565b5b815260200160038201548152602001600482015481526020016005820160009054906101000a900460ff16151515158152602001600682015481526020016007820160009054906101000a900460ff161515151581526020016007820160019054906101000a900460ff161515151581525050905080610100015115611f0a5760008054906101000a900473ffffffffffffffffffffffffffffffffffffffff1673ffffffffffffffffffffffffffffffffffffffff166377646798826000015183604001516040518363ffffffff1660e01b8152600401611e8f9291906140c8565b600060405180830381600087803b158015611ea957600080fd5b505af1158015611ebd573d6000803e3d6000fd5b5050505060046003600084815260200190815260200160002060020160146101000a81548160ff02191690836005811115611efb57611efa613209565b5b0217905550611f0982612d2c565b5b5050565b60606000600560008473ffffffffffffffffffffffffffffffffffffffff1673ffffffffffffffffffffffffffffffffffffffff168152602001908152602001600020805480602002602001604051908101604052809291908181526020018280548015611f9b57602002820191906000526020600020905b815481526020019060010190808311611f87575b505050505090506000815167ffffffffffffffff811115611fbf57611fbe613c50565b5b604051908082528060200260200182016040528015611ff857816020015b611fe5612fb5565b815260200190600190039081611fdd5790505b50905060005b82518110156123d6576000600360008584815181106120205761201f613c7f565b5b6020026020010151815260200190815260200160002060405180610140016040529081600082015481526020016001820160009054906101000a900473ffffffffffffffffffffffffffffffffffffffff1673ffffffffffffffffffffffffffffffffffffffff1673ffffffffffffffffffffffffffffffffffffffff1681526020016002820160009054906101000a900473ffffffffffffffffffffffffffffffffffffffff1673ffffffffffffffffffffffffffffffffffffffff1673ffffffffffffffffffffffffffffffffffffffff1681526020016002820160149054906101000a900460ff16600581111561211d5761211c613209565b5b600581111561212f5761212e613209565b5b815260200160038201548152602001600482015481526020016005820160009054906101000a900460ff16151515158152602001600682015481526020016007820160009054906101000a900460ff161515151581526020016007820160019054906101000a900460ff1615151515815250509050600360058111156121b8576121b7613209565b5b816060015160058111156121cf576121ce613209565b5b1415806122055750600460058111156121eb576121ea613209565b5b8160600151600581111561220257612201613209565b5b14155b156123c2576003600085848151811061222157612220613c7f565b5b6020026020010151815260200190815260200160002060405180610140016040529081600082015481526020016001820160009054906101000a900473ffffffffffffffffffffffffffffffffffffffff1673ffffffffffffffffffffffffffffffffffffffff1673ffffffffffffffffffffffffffffffffffffffff1681526020016002820160009054906101000a900473ffffffffffffffffffffffffffffffffffffffff1673ffffffffffffffffffffffffffffffffffffffff1673ffffffffffffffffffffffffffffffffffffffff1681526020016002820160149054906101000a900460ff16600581111561231e5761231d613209565b5b60058111156123305761232f613209565b5b815260200160038201548152602001600482015481526020016005820160009054906101000a900460ff16151515158152602001600682015481526020016007820160009054906101000a900460ff161515151581526020016007820160019054906101000a900460ff1615151515815250508383815181106123b6576123b5613c7f565b5b60200260200101819052505b5080806123ce90613cdd565b915050611ffe565b508092505050919050565b60008054906101000a900473ffffffffffffffffffffffffffffffffffffffff1673ffffffffffffffffffffffffffffffffffffffff166389642c5485336040518363ffffffff1660e01b815260040161243c9291906140c8565b602060405180830381865afa158015612459573d6000803e3d6000fd5b505050506040513d601f19601f8201168201806040525081019061247d9190613bb7565b6124bc576040517f08c379a00000000000000000000000000000000000000000000000000000000081526004016124b3906141cf565b60405180910390fd5b6000600460008681526020019081526020016000205414612512576040517f08c379a000000000000000000000000000000000000000000000000000000000815260040161250990614261565b60405180910390fd5b81831115612555576040517f08c379a000000000000000000000000000000000000000000000000000000000815260040161254c90613d97565b60405180910390fd5b8015612596576040517f08c379a000000000000000000000000000000000000000000000000000000000815260040161258d906142cd565b60405180910390fd5b600042905060006040518061014001604052808781526020013373ffffffffffffffffffffffffffffffffffffffff168152602001600073ffffffffffffffffffffffffffffffffffffffff168152602001600160058111156125fc576125fb613209565b5b81526020018681526020018581526020018415158152602001600754815260200160001515815260200160001515815250905080600360008481526020019081526020016000206000820151816000015560208201518160010160006101000a81548173ffffffffffffffffffffffffffffffffffffffff021916908373ffffffffffffffffffffffffffffffffffffffff16021790555060408201518160020160006101000a81548173ffffffffffffffffffffffffffffffffffffffff021916908373ffffffffffffffffffffffffffffffffffffffff16021790555060608201518160020160146101000a81548160ff0219169083600581111561270657612705613209565b5b02179055506080820151816003015560a0820151816004015560c08201518160050160006101000a81548160ff02191690831515021790555060e082015181600601556101008201518160070160006101000a81548160ff0219169083151502179055506101208201518160070160016101000a81548160ff0219169083151502179055509050508160046000888152602001908152602001600020819055508160066000600754815260200190815260200160002081905550600760008154809291906127d390613cdd565b9190505550600560003373ffffffffffffffffffffffffffffffffffffffff1673ffffffffffffffffffffffffffffffffffffffff1681526020019081526020016000208290806001815401808255809150506001900390600052602060002001600090919091909150557f932bb8e1964b19f151b100006d1433bdf7b9a6d6368ec8d600028f2b193207038633848760405161287394939291906142ed565b60405180910390a1505050505050565b6003600082815260200190815260200160002060020160009054906101000a900473ffffffffffffffffffffffffffffffffffffffff1673ffffffffffffffffffffffffffffffffffffffff163373ffffffffffffffffffffffffffffffffffffffff1614612927576040517f08c379a000000000000000000000000000000000000000000000000000000000815260040161291e906143a4565b60405180910390fd5b6002600581111561293b5761293a613209565b5b6003600083815260200190815260200160002060020160149054906101000a900460ff16600581111561297157612970613209565b5b146129b1576040517f08c379a00000000000000000000000000000000000000000000000000000000081526004016129a890614410565b60405180910390fd5b60056003600083815260200190815260200160002060020160146101000a81548160ff021916908360058111156129eb576129ea613209565b5b02179055507f48ae6fca79163101ea4f5b073efc510017228ac372cd41c1d2b4e8ec683bd82281604051612a1f919061313c565b60405180910390a150565b60006003600084815260200190815260200160002060405180610140016040529081600082015481526020016001820160009054906101000a900473ffffffffffffffffffffffffffffffffffffffff1673ffffffffffffffffffffffffffffffffffffffff1673ffffffffffffffffffffffffffffffffffffffff1681526020016002820160009054906101000a900473ffffffffffffffffffffffffffffffffffffffff1673ffffffffffffffffffffffffffffffffffffffff1673ffffffffffffffffffffffffffffffffffffffff1681526020016002820160149054906101000a900460ff166005811115612b2657612b25613209565b5b6005811115612b3857612b37613209565b5b815260200160038201548152602001600482015481526020016005820160009054906101000a900460ff16151515158152602001600682015481526020016007820160009054906101000a900460ff161515151581526020016007820160019054906101000a900460ff16151515158152505090503373ffffffffffffffffffffffffffffffffffffffff16816020015173ffffffffffffffffffffffffffffffffffffffff1614612c1f576040517f08c379a0000000000000000000000000000000000000000000000000000000008152600401612c16906144a2565b60405180910390fd5b60016005811115612c3357612c32613209565b5b81606001516005811115612c4a57612c49613209565b5b14612c8a576040517f08c379a0000000000000000000000000000000000000000000000000000000008152600401612c8190613b59565b60405180910390fd5b8181608001511115612cd1576040517f08c379a0000000000000000000000000000000000000000000000000000000008152600401612cc890613d97565b60405180910390fd5b8160036000858152602001908152602001600020600401819055507f32f2b6309378457b4dd94fe258595c9b095bcde80654521e246cbc06bf632961838333604051612d1f939291906144c2565b60405180910390a1505050565b60006003600083815260200190815260200160002060405180610140016040529081600082015481526020016001820160009054906101000a900473ffffffffffffffffffffffffffffffffffffffff1673ffffffffffffffffffffffffffffffffffffffff1673ffffffffffffffffffffffffffffffffffffffff1681526020016002820160009054906101000a900473ffffffffffffffffffffffffffffffffffffffff1673ffffffffffffffffffffffffffffffffffffffff1673ffffffffffffffffffffffffffffffffffffffff1681526020016002820160149054906101000a900460ff166005811115612e2857612e27613209565b5b6005811115612e3a57612e39613209565b5b815260200160038201548152602001600482015481526020016005820160009054906101000a900460ff16151515158152602001600682015481526020016007820160009054906101000a900460ff161515151581526020016007820160019054906101000a900460ff1615151515815250509050600060046000836000015181526020019081526020016000208190555060008160e0015190506000600660006001600754612eea91906144f9565b8152602001908152602001600020549050808414612f36578160036000838152602001908152602001600020600601819055508060066000848152602001908152602001600020819055505b60076000815480929190612f499061452d565b919050555050505050565b604051806040016040528060008152602001612f6e612fb5565b81525090565b6040518060a0016040528060008152602001612f8e61304c565b815260200160008152602001612fa2612fb5565b8152602001612faf61308c565b81525090565b60405180610140016040528060008152602001600073ffffffffffffffffffffffffffffffffffffffff168152602001600073ffffffffffffffffffffffffffffffffffffffff1681526020016000600581111561301657613015613209565b5b81526020016000815260200160008152602001600015158152602001600081526020016000151581526020016000151581525090565b60405180608001604052806000815260200160008152602001600073ffffffffffffffffffffffffffffffffffffffff1681526020016000151581525090565b60405180608001604052806000815260200160608152602001600081526020016000151581525090565b6000604051905090565b600080fd5b600080fd5b6000819050919050565b6130dd816130ca565b81146130e857600080fd5b50565b6000813590506130fa816130d4565b92915050565b600060208284031215613116576131156130c0565b5b6000613124848285016130eb565b91505092915050565b613136816130ca565b82525050565b6000602082019050613151600083018461312d565b92915050565b60008115159050919050565b61316c81613157565b82525050565b60006020820190506131876000830184613163565b92915050565b600081519050919050565b600082825260208201905092915050565b6000819050602082019050919050565b6131c2816130ca565b82525050565b600073ffffffffffffffffffffffffffffffffffffffff82169050919050565b60006131f3826131c8565b9050919050565b613203816131e8565b82525050565b7f4e487b7100000000000000000000000000000000000000000000000000000000600052602160045260246000fd5b6006811061324957613248613209565b5b50565b600081905061325a82613238565b919050565b600061326a8261324c565b9050919050565b61327a8161325f565b82525050565b61328981613157565b82525050565b610140820160008201516132a660008501826131b9565b5060208201516132b960208501826131fa565b5060408201516132cc60408501826131fa565b5060608201516132df6060850182613271565b5060808201516132f260808501826131b9565b5060a082015161330560a08501826131b9565b5060c082015161331860c0850182613280565b5060e082015161332b60e08501826131b9565b50610100820151613340610100850182613280565b50610120820151613355610120850182613280565b50505050565b6101608201600082015161337260008501826131b9565b506020820151613385602085018261328f565b50505050565b6000613397838361335b565b6101608301905092915050565b6000602082019050919050565b60006133bc8261318d565b6133c68185613198565b93506133d1836131a9565b8060005b838110156134025781516133e9888261338b565b97506133f4836133a4565b9250506001810190506133d5565b5085935050505092915050565b6000602082019050818103600083015261342981846133b1565b905092915050565b61343a816131e8565b811461344557600080fd5b50565b60008135905061345781613431565b92915050565b60008060408385031215613474576134736130c0565b5b600061348285828601613448565b9250506020613493858286016130eb565b9150509250929050565b6000806000606084860312156134b6576134b56130c0565b5b60006134c4868287016130eb565b93505060206134d586828701613448565b92505060406134e6868287016130eb565b9150509250925092565b600060208284031215613506576135056130c0565b5b600061351484828501613448565b91505092915050565b600081519050919050565b600082825260208201905092915050565b6000819050602082019050919050565b60808201600082015161355f60008501826131b9565b50602082015161357260208501826131b9565b50604082015161358560408501826131fa565b5060608201516135986060850182613280565b50505050565b600081519050919050565b600082825260208201905092915050565b60005b838110156135d85780820151818401526020810190506135bd565b838111156135e7576000848401525b50505050565b6000601f19601f8301169050919050565b60006136098261359e565b61361381856135a9565b93506136238185602086016135ba565b61362c816135ed565b840191505092915050565b600060808301600083015161364f60008601826131b9565b506020830151848203602086015261366782826135fe565b915050604083015161367c60408601826131b9565b50606083015161368f6060860182613280565b508091505092915050565b6000610220830160008301516136b360008601826131b9565b5060208301516136c66020860182613549565b5060408301516136d960a08601826131b9565b5060608301516136ec60c086018261328f565b5060808301518482036102008601526137058282613637565b9150508091505092915050565b600061371e838361369a565b905092915050565b6000602082019050919050565b600061373e8261351d565b6137488185613528565b93508360208202850161375a85613539565b8060005b8581101561379657848403895281516137778582613712565b945061378283613726565b925060208a0199505060018101905061375e565b50829750879550505050505092915050565b600060208201905081810360008301526137c28184613733565b905092915050565b6137d3816131e8565b82525050565b60006020820190506137ee60008301846137ca565b92915050565b6137fd8161325f565b82525050565b600061014082019050613819600083018d61312d565b613826602083018c6137ca565b613833604083018b6137ca565b613840606083018a6137f4565b61384d608083018961312d565b61385a60a083018861312d565b61386760c0830187613163565b61387460e083018661312d565b613882610100830185613163565b613890610120830184613163565b9b9a5050505050505050505050565b600081519050919050565b600082825260208201905092915050565b6000819050602082019050919050565b60006138d7838361328f565b6101408301905092915050565b6000602082019050919050565b60006138fc8261389f565b61390681856138aa565b9350613911836138bb565b8060005b8381101561394257815161392988826138cb565b9750613934836138e4565b925050600181019050613915565b5085935050505092915050565b6000602082019050818103600083015261396981846138f1565b905092915050565b61397a81613157565b811461398557600080fd5b50565b60008135905061399781613971565b92915050565b600080600080608085870312156139b7576139b66130c0565b5b60006139c5878288016130eb565b94505060206139d6878288016130eb565b93505060406139e7878288016130eb565b92505060606139f887828801613988565b91505092959194509250565b60008060408385031215613a1b57613a1a6130c0565b5b6000613a29858286016130eb565b9250506020613a3a858286016130eb565b9150509250929050565b600082825260208201905092915050565b7f42752069736c656d2073616465636520736174696369207461726166696e646160008201527f6e20796170696c69720000000000000000000000000000000000000000000000602082015250565b6000613ab1602983613a44565b9150613abc82613a55565b604082019050919050565b60006020820190508181036000830152613ae081613aa4565b9050919050565b7f53616465636520796179696e6461206f6c616e20696c616e6c6172206963696e60008201527f2062752069736c656d20796170696c6162696c69720000000000000000000000602082015250565b6000613b43603583613a44565b9150613b4e82613ae7565b604082019050919050565b60006020820190508181036000830152613b7281613b36565b9050919050565b6000604082019050613b8e60008301856137ca565b613b9b602083018461312d565b9392505050565b600081519050613bb181613971565b92915050565b600060208284031215613bcd57613bcc6130c0565b5b6000613bdb84828501613ba2565b91505092915050565b7f42752069736c656d69207361646563652061646d696e207961706162696c6972600082015250565b6000613c1a602083613a44565b9150613c2582613be4565b602082019050919050565b60006020820190508181036000830152613c4981613c0d565b9050919050565b7f4e487b7100000000000000000000000000000000000000000000000000000000600052604160045260246000fd5b7f4e487b7100000000000000000000000000000000000000000000000000000000600052603260045260246000fd5b7f4e487b7100000000000000000000000000000000000000000000000000000000600052601160045260246000fd5b6000613ce8826130ca565b91507fffffffffffffffffffffffffffffffffffffffffffffffffffffffffffffffff8203613d1a57613d19613cae565b5b600182019050919050565b7f536174697320666979617420726179696320626564656c64656e20647573756b60008201527f206f6c616d617a00000000000000000000000000000000000000000000000000602082015250565b6000613d81602783613a44565b9150613d8c82613d25565b604082019050919050565b60006020820190508181036000830152613db081613d74565b9050919050565b6000606082019050613dcc600083018661312d565b613dd960208301856137ca565b613de660408301846137ca565b949350505050565b600081519050613dfd816130d4565b92915050565b600060208284031215613e1957613e186130c0565b5b6000613e2784828501613dee565b91505092915050565b600080fd5b613e3e826135ed565b810181811067ffffffffffffffff82111715613e5d57613e5c613c50565b5b80604052505050565b6000613e706130b6565b9050613e7c8282613e35565b919050565b600080fd5b600081519050613e9581613431565b92915050565b600060808284031215613eb157613eb0613e30565b5b613ebb6080613e66565b90506000613ecb84828501613dee565b6000830152506020613edf84828501613dee565b6020830152506040613ef384828501613e86565b6040830152506060613f0784828501613ba2565b60608301525092915050565b600060808284031215613f2957613f286130c0565b5b6000613f3784828501613e9b565b91505092915050565b600080fd5b600080fd5b600067ffffffffffffffff821115613f6557613f64613c50565b5b613f6e826135ed565b9050602081019050919050565b6000613f8e613f8984613f4a565b613e66565b905082815260208101848484011115613faa57613fa9613f45565b5b613fb58482856135ba565b509392505050565b600082601f830112613fd257613fd1613f40565b5b8151613fe2848260208601613f7b565b91505092915050565b60006080828403121561400157614000613e30565b5b61400b6080613e66565b9050600061401b84828501613dee565b600083015250602082015167ffffffffffffffff81111561403f5761403e613e81565b5b61404b84828501613fbd565b602083015250604061405f84828501613dee565b604083015250606061407384828501613ba2565b60608301525092915050565b600060208284031215614095576140946130c0565b5b600082015167ffffffffffffffff8111156140b3576140b26130c5565b5b6140bf84828501613feb565b91505092915050565b60006040820190506140dd600083018561312d565b6140ea60208301846137ca565b9392505050565b7f6f6e63656c696b6c6520616c696369206b696c6974206b616c6469726d616c69600082015250565b6000614127602083613a44565b9150614132826140f1565b602082019050919050565b600060208201905081810360008301526141568161411a565b9050919050565b7f48697373652073616465636520736168696269207461726166696e64616e206960008201527f6c616e206f6c7573747572756c6d616c69000000000000000000000000000000602082015250565b60006141b9603183613a44565b91506141c48261415d565b604082019050919050565b600060208201905081810360008301526141e8816141ac565b9050919050565b7f6164766572746973656d656e7420666f72207265616c2065737461746520616c60008201527f726561647920657869737420696e207468652073797374656d00000000000000602082015250565b600061424b603983613a44565b9150614256826141ef565b604082019050919050565b6000602082019050818103600083015261427a8161423e565b9050919050565b7f47617972696d656e6b756c756e20766572676920626f726375206f6c6d617a00600082015250565b60006142b7601f83613a44565b91506142c282614281565b602082019050919050565b600060208201905081810360008301526142e6816142aa565b9050919050565b6000608082019050614302600083018761312d565b61430f60208301866137ca565b61431c604083018561312d565b614329606083018461312d565b95945050505050565b7f42752069736c656d2073616465636520616c696369207461726166696e64616e60008201527f20796170696c6972000000000000000000000000000000000000000000000000602082015250565b600061438e602883613a44565b915061439982614332565b604082019050919050565b600060208201905081810360008301526143bd81614381565b9050919050565b7f696c616e20616c696369206963696e206b69746c656e6d656d69730000000000600082015250565b60006143fa601b83613a44565b9150614405826143c4565b602082019050919050565b60006020820190508181036000830152614429816143ed565b9050919050565b7f42752069736c656d692073616465636520736174696369207961706162696c6960008201527f7200000000000000000000000000000000000000000000000000000000000000602082015250565b600061448c602183613a44565b915061449782614430565b604082019050919050565b600060208201905081810360008301526144bb8161447f565b9050919050565b60006060820190506144d7600083018661312d565b6144e4602083018561312d565b6144f160408301846137ca565b949350505050565b6000614504826130ca565b915061450f836130ca565b92508282101561452257614521613cae565b5b828203905092915050565b6000614538826130ca565b91506000820361454b5761454a613cae565b5b60018203905091905056fea2646970667358221220dba97e93b490664969d8399830833b39480f44c67c8c8ce45306c2fa92454cef64736f6c634300080e0033",
  "immutableReferences": {},
  "source": "// SPDX-License-Identifier: UNLICENSED\r\npragma solidity ^0.8.0;\r\n\r\nimport \"./Owner.sol\";\r\nimport \"./RealEstateOwnerRelation.sol\";\r\nimport \"./NotaryContractBase.sol\";\r\nimport \"./RealEstate.sol\";\r\n\r\ncontract RealEstateSaleAd is NotaryContractBase{\r\n\r\n    RealEstateOwnerRelation realEstateOwnerRelation;\r\n    Owner ownerContract;\r\n    RealEstate realEstate;\r\n\r\n    event ilanOlusturuldu(uint hisseId, address saticiId, uint ilanId, uint fiyat);\r\n    event ilanYayindanKaldirildi(address saticiId, uint ilanId);\r\n    event aliciIcinKilitlendi(uint ilanId, address saticiId, address aliciId);    \r\n    event fiyatDegistir(uint ilanId, uint yeniSatisFiyat, address saticiId);\r\n    event kilitKaldirildiWithAliciOnayi(uint ilanId);\r\n    event kilitKaldirildiWithSaticiOnayi(uint ilanId);\r\n    event alicisistemHesabinaParaAktardi(address alici, uint ilanId, uint miktar);\r\n \r\n    mapping (uint => Advertisement) public adIdMap;\r\n    mapping (uint => uint) public hisseIdAdIdMap;\r\n    mapping (address => uint[]) public ownerAdIdListMap;\r\n    mapping (uint => uint) public adIdLUT;\r\n    uint adIdLUTLength = 0;\r\n\r\n    constructor(address ownerContractAdd, address realOwnRelAddress, address realEstateAddress)  {\r\n        ownerContract=Owner(ownerContractAdd);\r\n        realEstateOwnerRelation=RealEstateOwnerRelation(realOwnRelAddress);\r\n        realEstate=RealEstate(realEstateAddress);\r\n    }\r\n\r\n    function ilanOlustur(uint hisseId, uint256 rayicBedeli, uint256 satisFiyat, bool borcuVarMi) public {\r\n        require(realEstateOwnerRelation.hisseSatisaCikabilirMi(hisseId, msg.sender), \"Hisse sadece sahibi tarafindan ilan olusturulmali\");\r\n        require(hisseIdAdIdMap[hisseId] == 0, \"advertisement for real estate already exist in the system\");\r\n        require(rayicBedeli <= satisFiyat, \"Satis fiyat rayic bedelden dusuk olamaz\");\r\n        require(!borcuVarMi, \"Gayrimenkulun vergi borcu olmaz\");\r\n\r\n        uint ilanId = block.timestamp;\r\n        Advertisement memory ad = Advertisement(hisseId, msg.sender, address(0), State.YAYINDA, rayicBedeli, satisFiyat, borcuVarMi, adIdLUTLength, false, false);\r\n        adIdMap[ilanId] = ad;\r\n        hisseIdAdIdMap[hisseId] = ilanId;\r\n        adIdLUT[adIdLUTLength] = ilanId;\r\n        adIdLUTLength++;\r\n        ownerAdIdListMap[msg.sender].push(ilanId);\r\n        emit ilanOlusturuldu(hisseId, msg.sender, ilanId, satisFiyat);\r\n    }\r\n\r\n    function ilanYayindanKaldir(uint ilanId) public {\r\n        require(adIdMap[ilanId].satici == msg.sender, \"Bu islem sadece satici tarafindan yapilir\");\r\n        require(adIdMap[ilanId].state == State.YAYINDA, \"Sadece yayinda olan ilanlar icin bu islem yapilabilir\");\r\n        adIdMap[ilanId].state = State.YAYINDAN_KALDIRILDI;        \r\n        updateLUT(ilanId);\r\n        emit ilanYayindanKaldirildi(msg.sender, ilanId);\r\n    }\r\n    \r\n    function updateLUT(uint ilanId) private {\r\n        Advertisement memory yayindanKaldirildiAd = adIdMap[ilanId];\r\n        hisseIdAdIdMap[yayindanKaldirildiAd.hisseId] = 0;\r\n        uint yayindanKaldirilanItemIndex = yayindanKaldirildiAd.adIdLUTIndex;\r\n        uint lastAdInLUT = adIdLUT[adIdLUTLength -1];\r\n        if(ilanId != lastAdInLUT){\r\n            adIdMap[lastAdInLUT].adIdLUTIndex = yayindanKaldirilanItemIndex;\r\n            adIdLUT[yayindanKaldirilanItemIndex] = lastAdInLUT;              \r\n        }\r\n        adIdLUTLength--;\r\n    }\r\n\r\n    function aliciIcinKilitle(uint ilanId, address aliciAdd, uint fiyat) public {\r\n        Advertisement memory ad =  adIdMap[ilanId];\r\n        //require(ad.satici == msg.sender, \"Bu islemi sadece satici yapabilir\");\r\n        require(ad.state == State.YAYINDA, \"Sadece yayinda olan ilanlar icin bu islem yapilabilir\");\r\n        require(ad.rayicBedeli <= fiyat, \"Satis fiyat rayic bedelden dusuk olamaz\");\r\n        adIdMap[ilanId].state = State.ALICI_ICIN_KILITLENDI;\r\n        adIdMap[ilanId].alici = aliciAdd;\r\n        adIdMap[ilanId].fiyat = fiyat;\r\n\r\n        emit aliciIcinKilitlendi(ilanId, msg.sender, aliciAdd);    \r\n    }\r\n\r\n    function changeSatisFiyat(uint ilanId, uint newfiyat) public {\r\n        Advertisement memory ad =  adIdMap[ilanId];\r\n        require(ad.satici == msg.sender, \"Bu islemi sadece satici yapabilir\");\r\n        require(ad.state == State.YAYINDA, \"Sadece yayinda olan ilanlar icin bu islem yapilabilir\");\r\n        require(ad.rayicBedeli <= newfiyat, \"Satis fiyat rayic bedelden dusuk olamaz\");\r\n        adIdMap[ilanId].fiyat = newfiyat;\r\n        emit fiyatDegistir(ilanId, newfiyat, msg.sender);\r\n    }\r\n\r\n    function kilitKaldirWithAliciOnayi(uint ilanId) public {\r\n        require(msg.sender == adIdMap[ilanId].alici, \"Bu islem sadece alici tarafindan yapilir\");\r\n        require(adIdMap[ilanId].state == State.ALICI_ICIN_KILITLENDI, \"ilan alici icin kitlenmemis\");\r\n        adIdMap[ilanId].state = State.ALICI_ONAYI_ILE_KILIT_KALDIRMA;\r\n        emit kilitKaldirildiWithAliciOnayi(ilanId);\r\n    }\r\n\r\n    function kilitKaldirWithSaticiOnayi(uint ilanId) public {\r\n        require(msg.sender == adIdMap[ilanId].satici, \"Bu islem sadece satici tarafindan yapilir\");\r\n        require(adIdMap[ilanId].state == State.ALICI_ONAYI_ILE_KILIT_KALDIRMA, \"oncelikle alici kilit kaldirmali\");\r\n        adIdMap[ilanId].state = State.YAYINDA;\r\n        emit kilitKaldirildiWithSaticiOnayi(ilanId);\r\n    }\r\n\r\n    function getUserAds(address ownAdd) public view returns(Advertisement [] memory){\r\n        //sadece kullanici yapabilsin kendi ilanlarini grebilsin\r\n        uint[] memory ownAdIds = ownerAdIdListMap[ownAdd];\r\n        Advertisement [] memory ads = new Advertisement[](ownAdIds.length);        \r\n        for(uint i = 0; i< ownAdIds.length; i++){\r\n            Advertisement memory ad = adIdMap[ownAdIds[i]];\r\n            if(ad.state != State.YAYINDAN_KALDIRILDI || ad.state != State.DEVIR_ISLEMI_TAMAMLANDI){\r\n                ads[i] = adIdMap[ownAdIds[i]];\r\n            }\r\n        }\r\n        return ads;\r\n    }   \r\n\r\n    function ilanaTeklifVerilebilirMi(uint ilanId) public view returns(bool){\r\n        return adIdMap[ilanId].state == State.YAYINDA;\r\n    }\r\n\r\n    function getIlanSatici(uint ilanId) public view returns(address){\r\n        return adIdMap[ilanId].satici;\r\n    }\r\n\r\n    function alicidanParaAlindi(uint ilanId) public {\r\n        require(ownerContract.isAdmin(msg.sender), \"Bu islemi sadece admin yapabilir\");\r\n        adIdMap[ilanId].aliciParaTransferi = true;\r\n        Advertisement memory advertisement = adIdMap[ilanId];\r\n        if(advertisement.saticiParaTransferi){\r\n            realEstateOwnerRelation.changeOwnerShip(advertisement.hisseId, advertisement.alici);\r\n            adIdMap[ilanId].state = State.DEVIR_ISLEMI_TAMAMLANDI;\r\n            updateLUT(ilanId);\r\n        }\r\n    }\r\n\r\n    function saticidanTapuHarciAlindi(uint ilanId) public {\r\n        require(ownerContract.isAdmin(msg.sender), \"Bu islemi sadece admin yapabilir\");\r\n        adIdMap[ilanId].saticiParaTransferi = true;\r\n        Advertisement memory advertisement = adIdMap[ilanId];\r\n        if(advertisement.aliciParaTransferi){\r\n            realEstateOwnerRelation.changeOwnerShip(advertisement.hisseId, advertisement.alici);\r\n            adIdMap[ilanId].state = State.DEVIR_ISLEMI_TAMAMLANDI;\r\n            updateLUT(ilanId);\r\n        }\r\n    }\r\n\r\n    function getAliciIcinKitlenenIlanlar() public view returns(AdDto[] memory) {\r\n        require(ownerContract.isAdmin(msg.sender), \"Bu islemi sadece admin yapabilir\");\r\n        AdDto [] memory result = new AdDto[]( adIdLUTLength);\r\n        uint resultCount = 0;\r\n        for(uint i; i< adIdLUTLength; i++){\r\n            uint ilanId =adIdLUT[i];\r\n            Advertisement memory ad =  adIdMap[ilanId]; \r\n            if(ad.state == State.ALICI_ICIN_KILITLENDI){\r\n                result[resultCount] =AdDto(ilanId, ad);\r\n            }\r\n        }\r\n        return result;\r\n    }\r\n\r\n    function getUserAssets(address ownAdd) public view returns(HisseAdData[] memory){\r\n        uint hisseIdsLength = realEstateOwnerRelation.getOwnerHisseLength(ownAdd);\r\n        HisseAdData [] memory result = new HisseAdData[](hisseIdsLength);\r\n        uint resultCount = 0;\r\n        for(uint i = 0; i< hisseIdsLength; i++){\r\n            uint hisseId = realEstateOwnerRelation.getOwnerHisseId(ownAdd, i);\r\n           if(hisseId != 0 ){\r\n                Hisse memory hisse = realEstateOwnerRelation.getHisse(hisseId);\r\n                RealEstateData memory realEstateData = realEstate.getRealEstateInfo(hisse.realEstateId);\r\n                uint ilanId = hisseIdAdIdMap[hisseId];\r\n                Advertisement memory advertisement = adIdMap[ilanId];\r\n                result[resultCount++] = HisseAdData(hisseId, hisse, ilanId, advertisement, realEstateData);\r\n\r\n            }\r\n        }\r\n        return result;\r\n    }\r\n\r\n    function getAllAds() public view returns(HisseAdData [] memory){\r\n        HisseAdData [] memory result = new HisseAdData[](adIdLUTLength);\r\n        for(uint i = 0; i< adIdLUTLength; i++){\r\n            uint ilanId = adIdLUT[i];\r\n            Advertisement memory ad = adIdMap[ilanId];\r\n            Hisse memory hisse = realEstateOwnerRelation.getHisse(ad.hisseId);\r\n            RealEstateData memory realEstateData = realEstate.getRealEstateInfo(hisse.realEstateId);\r\n            result[i] = HisseAdData(ad.hisseId, hisse, ilanId, ad, realEstateData);\r\n        }\r\n        return result;\r\n    }\r\n\r\n}\r\n",
  "sourcePath": "D:\\Ethereum Projects\\DAWithEth\\truffle-project\\contracts\\RealEstateSaleAd.sol",
  "compiler": {
    "name": "solc",
    "version": "0.8.14+commit.80d49f37.Emscripten.clang"
  },
  "schemaVersion": "3.4.11",
  "updatedAt": "2023-01-14T14:19:43.020Z",
  "networkType": "ethereum",
  "devdoc": {
    "kind": "dev",
    "methods": {},
    "version": 1
  },
  "userdoc": {
    "kind": "user",
    "methods": {},
    "version": 1
  }
}