{
  "contractName": "RealEstateSaleAd",
  "abi": [
    {
      "inputs": [
        {
          "internalType": "address",
          "name": "ownerContractAdd",
          "type": "address"
        },
        {
          "internalType": "address",
          "name": "realOwnRelAddress",
          "type": "address"
        },
        {
          "internalType": "address",
          "name": "realEstateAddress",
          "type": "address"
        }
      ],
      "stateMutability": "nonpayable",
      "type": "constructor"
    },
    {
      "anonymous": false,
      "inputs": [
        {
          "indexed": false,
          "internalType": "uint256",
          "name": "ilanId",
          "type": "uint256"
        },
        {
          "indexed": false,
          "internalType": "address",
          "name": "saticiId",
          "type": "address"
        },
        {
          "indexed": false,
          "internalType": "address",
          "name": "aliciId",
          "type": "address"
        }
      ],
      "name": "aliciIcinKilitlendi",
      "type": "event"
    },
    {
      "anonymous": false,
      "inputs": [
        {
          "indexed": false,
          "internalType": "address",
          "name": "alici",
          "type": "address"
        },
        {
          "indexed": false,
          "internalType": "uint256",
          "name": "ilanId",
          "type": "uint256"
        },
        {
          "indexed": false,
          "internalType": "uint256",
          "name": "miktar",
          "type": "uint256"
        }
      ],
      "name": "alicisistemHesabinaParaAktardi",
      "type": "event"
    },
    {
      "anonymous": false,
      "inputs": [
        {
          "indexed": false,
          "internalType": "uint256",
          "name": "ilanId",
          "type": "uint256"
        },
        {
          "indexed": false,
          "internalType": "uint256",
          "name": "yeniSatisFiyat",
          "type": "uint256"
        },
        {
          "indexed": false,
          "internalType": "address",
          "name": "saticiId",
          "type": "address"
        }
      ],
      "name": "fiyatDegistir",
      "type": "event"
    },
    {
      "anonymous": false,
      "inputs": [
        {
          "indexed": false,
          "internalType": "uint256",
          "name": "hisseId",
          "type": "uint256"
        },
        {
          "indexed": false,
          "internalType": "address",
          "name": "saticiId",
          "type": "address"
        },
        {
          "indexed": false,
          "internalType": "uint256",
          "name": "ilanId",
          "type": "uint256"
        },
        {
          "indexed": false,
          "internalType": "uint256",
          "name": "fiyat",
          "type": "uint256"
        }
      ],
      "name": "ilanOlusturuldu",
      "type": "event"
    },
    {
      "anonymous": false,
      "inputs": [
        {
          "indexed": false,
          "internalType": "address",
          "name": "saticiId",
          "type": "address"
        },
        {
          "indexed": false,
          "internalType": "uint256",
          "name": "ilanId",
          "type": "uint256"
        }
      ],
      "name": "ilanYayindanKaldirildi",
      "type": "event"
    },
    {
      "anonymous": false,
      "inputs": [
        {
          "indexed": false,
          "internalType": "uint256",
          "name": "ilanId",
          "type": "uint256"
        }
      ],
      "name": "kilitKaldirildiWithAliciOnayi",
      "type": "event"
    },
    {
      "anonymous": false,
      "inputs": [
        {
          "indexed": false,
          "internalType": "uint256",
          "name": "ilanId",
          "type": "uint256"
        }
      ],
      "name": "kilitKaldirildiWithSaticiOnayi",
      "type": "event"
    },
    {
      "inputs": [
        {
          "internalType": "uint256",
          "name": "",
          "type": "uint256"
        }
      ],
      "name": "adIdLUT",
      "outputs": [
        {
          "internalType": "uint256",
          "name": "",
          "type": "uint256"
        }
      ],
      "stateMutability": "view",
      "type": "function",
      "constant": true
    },
    {
      "inputs": [
        {
          "internalType": "uint256",
          "name": "",
          "type": "uint256"
        }
      ],
      "name": "adIdMap",
      "outputs": [
        {
          "internalType": "uint256",
          "name": "hisseId",
          "type": "uint256"
        },
        {
          "internalType": "address",
          "name": "satici",
          "type": "address"
        },
        {
          "internalType": "address",
          "name": "alici",
          "type": "address"
        },
        {
          "internalType": "enum NotaryContractBase.State",
          "name": "state",
          "type": "uint8"
        },
        {
          "internalType": "uint256",
          "name": "rayicBedeli",
          "type": "uint256"
        },
        {
          "internalType": "uint256",
          "name": "fiyat",
          "type": "uint256"
        },
        {
          "internalType": "bool",
          "name": "borcuVarMi",
          "type": "bool"
        },
        {
          "internalType": "uint256",
          "name": "adIdLUTIndex",
          "type": "uint256"
        },
        {
          "internalType": "bool",
          "name": "aliciParaTransferi",
          "type": "bool"
        },
        {
          "internalType": "bool",
          "name": "saticiParaTransferi",
          "type": "bool"
        }
      ],
      "stateMutability": "view",
      "type": "function",
      "constant": true
    },
    {
      "inputs": [
        {
          "internalType": "uint256",
          "name": "",
          "type": "uint256"
        }
      ],
      "name": "hisseIdAdIdMap",
      "outputs": [
        {
          "internalType": "uint256",
          "name": "",
          "type": "uint256"
        }
      ],
      "stateMutability": "view",
      "type": "function",
      "constant": true
    },
    {
      "inputs": [
        {
          "internalType": "address",
          "name": "",
          "type": "address"
        },
        {
          "internalType": "uint256",
          "name": "",
          "type": "uint256"
        }
      ],
      "name": "ownerAdIdListMap",
      "outputs": [
        {
          "internalType": "uint256",
          "name": "",
          "type": "uint256"
        }
      ],
      "stateMutability": "view",
      "type": "function",
      "constant": true
    },
    {
      "inputs": [
        {
          "internalType": "uint256",
          "name": "hisseId",
          "type": "uint256"
        },
        {
          "internalType": "uint256",
          "name": "rayicBedeli",
          "type": "uint256"
        },
        {
          "internalType": "uint256",
          "name": "satisFiyat",
          "type": "uint256"
        },
        {
          "internalType": "bool",
          "name": "borcuVarMi",
          "type": "bool"
        }
      ],
      "name": "ilanOlustur",
      "outputs": [],
      "stateMutability": "nonpayable",
      "type": "function"
    },
    {
      "inputs": [
        {
          "internalType": "uint256",
          "name": "ilanId",
          "type": "uint256"
        }
      ],
      "name": "ilanYayindanKaldir",
      "outputs": [],
      "stateMutability": "nonpayable",
      "type": "function"
    },
    {
      "inputs": [
        {
          "internalType": "uint256",
          "name": "ilanId",
          "type": "uint256"
        },
        {
          "internalType": "address",
          "name": "aliciAdd",
          "type": "address"
        },
        {
          "internalType": "uint256",
          "name": "fiyat",
          "type": "uint256"
        }
      ],
      "name": "aliciIcinKilitle",
      "outputs": [],
      "stateMutability": "nonpayable",
      "type": "function"
    },
    {
      "inputs": [
        {
          "internalType": "uint256",
          "name": "ilanId",
          "type": "uint256"
        },
        {
          "internalType": "uint256",
          "name": "newfiyat",
          "type": "uint256"
        }
      ],
      "name": "changeSatisFiyat",
      "outputs": [],
      "stateMutability": "nonpayable",
      "type": "function"
    },
    {
      "inputs": [
        {
          "internalType": "uint256",
          "name": "ilanId",
          "type": "uint256"
        }
      ],
      "name": "kilitKaldirWithAliciOnayi",
      "outputs": [],
      "stateMutability": "nonpayable",
      "type": "function"
    },
    {
      "inputs": [
        {
          "internalType": "uint256",
          "name": "ilanId",
          "type": "uint256"
        }
      ],
      "name": "kilitKaldirWithSaticiOnayi",
      "outputs": [],
      "stateMutability": "nonpayable",
      "type": "function"
    },
    {
      "inputs": [
        {
          "internalType": "address",
          "name": "ownAdd",
          "type": "address"
        }
      ],
      "name": "getUserAds",
      "outputs": [
        {
          "components": [
            {
              "internalType": "uint256",
              "name": "hisseId",
              "type": "uint256"
            },
            {
              "internalType": "address",
              "name": "satici",
              "type": "address"
            },
            {
              "internalType": "address",
              "name": "alici",
              "type": "address"
            },
            {
              "internalType": "enum NotaryContractBase.State",
              "name": "state",
              "type": "uint8"
            },
            {
              "internalType": "uint256",
              "name": "rayicBedeli",
              "type": "uint256"
            },
            {
              "internalType": "uint256",
              "name": "fiyat",
              "type": "uint256"
            },
            {
              "internalType": "bool",
              "name": "borcuVarMi",
              "type": "bool"
            },
            {
              "internalType": "uint256",
              "name": "adIdLUTIndex",
              "type": "uint256"
            },
            {
              "internalType": "bool",
              "name": "aliciParaTransferi",
              "type": "bool"
            },
            {
              "internalType": "bool",
              "name": "saticiParaTransferi",
              "type": "bool"
            }
          ],
          "internalType": "struct NotaryContractBase.Advertisement[]",
          "name": "",
          "type": "tuple[]"
        }
      ],
      "stateMutability": "view",
      "type": "function",
      "constant": true
    },
    {
      "inputs": [
        {
          "internalType": "uint256",
          "name": "ilanId",
          "type": "uint256"
        }
      ],
      "name": "ilanaTeklifVerilebilirMi",
      "outputs": [
        {
          "internalType": "bool",
          "name": "",
          "type": "bool"
        }
      ],
      "stateMutability": "view",
      "type": "function",
      "constant": true
    },
    {
      "inputs": [
        {
          "internalType": "uint256",
          "name": "ilanId",
          "type": "uint256"
        }
      ],
      "name": "getIlanSatici",
      "outputs": [
        {
          "internalType": "address",
          "name": "",
          "type": "address"
        }
      ],
      "stateMutability": "view",
      "type": "function",
      "constant": true
    },
    {
      "inputs": [
        {
          "internalType": "uint256",
          "name": "ilanId",
          "type": "uint256"
        }
      ],
      "name": "alicidanParaAlindi",
      "outputs": [],
      "stateMutability": "nonpayable",
      "type": "function"
    },
    {
      "inputs": [
        {
          "internalType": "uint256",
          "name": "ilanId",
          "type": "uint256"
        }
      ],
      "name": "saticidanTapuHarciAlindi",
      "outputs": [],
      "stateMutability": "nonpayable",
      "type": "function"
    },
    {
      "inputs": [],
      "name": "getAliciIcinKitlenenIlanlar",
      "outputs": [
        {
          "components": [
            {
              "internalType": "uint256",
              "name": "ilanId",
              "type": "uint256"
            },
            {
              "components": [
                {
                  "internalType": "uint256",
                  "name": "hisseId",
                  "type": "uint256"
                },
                {
                  "internalType": "address",
                  "name": "satici",
                  "type": "address"
                },
                {
                  "internalType": "address",
                  "name": "alici",
                  "type": "address"
                },
                {
                  "internalType": "enum NotaryContractBase.State",
                  "name": "state",
                  "type": "uint8"
                },
                {
                  "internalType": "uint256",
                  "name": "rayicBedeli",
                  "type": "uint256"
                },
                {
                  "internalType": "uint256",
                  "name": "fiyat",
                  "type": "uint256"
                },
                {
                  "internalType": "bool",
                  "name": "borcuVarMi",
                  "type": "bool"
                },
                {
                  "internalType": "uint256",
                  "name": "adIdLUTIndex",
                  "type": "uint256"
                },
                {
                  "internalType": "bool",
                  "name": "aliciParaTransferi",
                  "type": "bool"
                },
                {
                  "internalType": "bool",
                  "name": "saticiParaTransferi",
                  "type": "bool"
                }
              ],
              "internalType": "struct NotaryContractBase.Advertisement",
              "name": "ad",
              "type": "tuple"
            }
          ],
          "internalType": "struct NotaryContractBase.AdDto[]",
          "name": "",
          "type": "tuple[]"
        }
      ],
      "stateMutability": "view",
      "type": "function",
      "constant": true
    },
    {
      "inputs": [
        {
          "internalType": "address",
          "name": "ownAdd",
          "type": "address"
        }
      ],
      "name": "getUserAssets",
      "outputs": [
        {
          "components": [
            {
              "internalType": "uint256",
              "name": "hisseId",
              "type": "uint256"
            },
            {
              "components": [
                {
                  "internalType": "uint256",
                  "name": "pay",
                  "type": "uint256"
                },
                {
                  "internalType": "uint256",
                  "name": "realEstateId",
                  "type": "uint256"
                },
                {
                  "internalType": "address",
                  "name": "ownerAdd",
                  "type": "address"
                },
                {
                  "internalType": "bool",
                  "name": "registered",
                  "type": "bool"
                }
              ],
              "internalType": "struct NotaryContractBase.Hisse",
              "name": "hisse",
              "type": "tuple"
            },
            {
              "internalType": "uint256",
              "name": "ilanId",
              "type": "uint256"
            },
            {
              "components": [
                {
                  "internalType": "uint256",
                  "name": "hisseId",
                  "type": "uint256"
                },
                {
                  "internalType": "address",
                  "name": "satici",
                  "type": "address"
                },
                {
                  "internalType": "address",
                  "name": "alici",
                  "type": "address"
                },
                {
                  "internalType": "enum NotaryContractBase.State",
                  "name": "state",
                  "type": "uint8"
                },
                {
                  "internalType": "uint256",
                  "name": "rayicBedeli",
                  "type": "uint256"
                },
                {
                  "internalType": "uint256",
                  "name": "fiyat",
                  "type": "uint256"
                },
                {
                  "internalType": "bool",
                  "name": "borcuVarMi",
                  "type": "bool"
                },
                {
                  "internalType": "uint256",
                  "name": "adIdLUTIndex",
                  "type": "uint256"
                },
                {
                  "internalType": "bool",
                  "name": "aliciParaTransferi",
                  "type": "bool"
                },
                {
                  "internalType": "bool",
                  "name": "saticiParaTransferi",
                  "type": "bool"
                }
              ],
              "internalType": "struct NotaryContractBase.Advertisement",
              "name": "ad",
              "type": "tuple"
            },
            {
              "components": [
                {
                  "internalType": "uint256",
                  "name": "realEstateId",
                  "type": "uint256"
                },
                {
                  "internalType": "string",
                  "name": "mahalle",
                  "type": "string"
                },
                {
                  "internalType": "uint256",
                  "name": "payda",
                  "type": "uint256"
                },
                {
                  "internalType": "bool",
                  "name": "registered",
                  "type": "bool"
                }
              ],
              "internalType": "struct NotaryContractBase.RealEstateData",
              "name": "realEstateData",
              "type": "tuple"
            }
          ],
          "internalType": "struct NotaryContractBase.HisseAdData[]",
          "name": "",
          "type": "tuple[]"
        }
      ],
      "stateMutability": "view",
      "type": "function",
      "constant": true
    },
    {
      "inputs": [],
      "name": "getAllAds",
      "outputs": [
        {
          "components": [
            {
              "internalType": "uint256",
              "name": "hisseId",
              "type": "uint256"
            },
            {
              "components": [
                {
                  "internalType": "uint256",
                  "name": "pay",
                  "type": "uint256"
                },
                {
                  "internalType": "uint256",
                  "name": "realEstateId",
                  "type": "uint256"
                },
                {
                  "internalType": "address",
                  "name": "ownerAdd",
                  "type": "address"
                },
                {
                  "internalType": "bool",
                  "name": "registered",
                  "type": "bool"
                }
              ],
              "internalType": "struct NotaryContractBase.Hisse",
              "name": "hisse",
              "type": "tuple"
            },
            {
              "internalType": "uint256",
              "name": "ilanId",
              "type": "uint256"
            },
            {
              "components": [
                {
                  "internalType": "uint256",
                  "name": "hisseId",
                  "type": "uint256"
                },
                {
                  "internalType": "address",
                  "name": "satici",
                  "type": "address"
                },
                {
                  "internalType": "address",
                  "name": "alici",
                  "type": "address"
                },
                {
                  "internalType": "enum NotaryContractBase.State",
                  "name": "state",
                  "type": "uint8"
                },
                {
                  "internalType": "uint256",
                  "name": "rayicBedeli",
                  "type": "uint256"
                },
                {
                  "internalType": "uint256",
                  "name": "fiyat",
                  "type": "uint256"
                },
                {
                  "internalType": "bool",
                  "name": "borcuVarMi",
                  "type": "bool"
                },
                {
                  "internalType": "uint256",
                  "name": "adIdLUTIndex",
                  "type": "uint256"
                },
                {
                  "internalType": "bool",
                  "name": "aliciParaTransferi",
                  "type": "bool"
                },
                {
                  "internalType": "bool",
                  "name": "saticiParaTransferi",
                  "type": "bool"
                }
              ],
              "internalType": "struct NotaryContractBase.Advertisement",
              "name": "ad",
              "type": "tuple"
            },
            {
              "components": [
                {
                  "internalType": "uint256",
                  "name": "realEstateId",
                  "type": "uint256"
                },
                {
                  "internalType": "string",
                  "name": "mahalle",
                  "type": "string"
                },
                {
                  "internalType": "uint256",
                  "name": "payda",
                  "type": "uint256"
                },
                {
                  "internalType": "bool",
                  "name": "registered",
                  "type": "bool"
                }
              ],
              "internalType": "struct NotaryContractBase.RealEstateData",
              "name": "realEstateData",
              "type": "tuple"
            }
          ],
          "internalType": "struct NotaryContractBase.HisseAdData[]",
          "name": "",
          "type": "tuple[]"
        }
      ],
      "stateMutability": "view",
      "type": "function",
      "constant": true
    },
    {
      "inputs": [
        {
          "internalType": "uint256",
          "name": "ilanId",
          "type": "uint256"
        }
      ],
      "name": "getHisseAdDataById",
      "outputs": [
        {
          "components": [
            {
              "internalType": "uint256",
              "name": "hisseId",
              "type": "uint256"
            },
            {
              "components": [
                {
                  "internalType": "uint256",
                  "name": "pay",
                  "type": "uint256"
                },
                {
                  "internalType": "uint256",
                  "name": "realEstateId",
                  "type": "uint256"
                },
                {
                  "internalType": "address",
                  "name": "ownerAdd",
                  "type": "address"
                },
                {
                  "internalType": "bool",
                  "name": "registered",
                  "type": "bool"
                }
              ],
              "internalType": "struct NotaryContractBase.Hisse",
              "name": "hisse",
              "type": "tuple"
            },
            {
              "internalType": "uint256",
              "name": "ilanId",
              "type": "uint256"
            },
            {
              "components": [
                {
                  "internalType": "uint256",
                  "name": "hisseId",
                  "type": "uint256"
                },
                {
                  "internalType": "address",
                  "name": "satici",
                  "type": "address"
                },
                {
                  "internalType": "address",
                  "name": "alici",
                  "type": "address"
                },
                {
                  "internalType": "enum NotaryContractBase.State",
                  "name": "state",
                  "type": "uint8"
                },
                {
                  "internalType": "uint256",
                  "name": "rayicBedeli",
                  "type": "uint256"
                },
                {
                  "internalType": "uint256",
                  "name": "fiyat",
                  "type": "uint256"
                },
                {
                  "internalType": "bool",
                  "name": "borcuVarMi",
                  "type": "bool"
                },
                {
                  "internalType": "uint256",
                  "name": "adIdLUTIndex",
                  "type": "uint256"
                },
                {
                  "internalType": "bool",
                  "name": "aliciParaTransferi",
                  "type": "bool"
                },
                {
                  "internalType": "bool",
                  "name": "saticiParaTransferi",
                  "type": "bool"
                }
              ],
              "internalType": "struct NotaryContractBase.Advertisement",
              "name": "ad",
              "type": "tuple"
            },
            {
              "components": [
                {
                  "internalType": "uint256",
                  "name": "realEstateId",
                  "type": "uint256"
                },
                {
                  "internalType": "string",
                  "name": "mahalle",
                  "type": "string"
                },
                {
                  "internalType": "uint256",
                  "name": "payda",
                  "type": "uint256"
                },
                {
                  "internalType": "bool",
                  "name": "registered",
                  "type": "bool"
                }
              ],
              "internalType": "struct NotaryContractBase.RealEstateData",
              "name": "realEstateData",
              "type": "tuple"
            }
          ],
          "internalType": "struct NotaryContractBase.HisseAdData",
          "name": "",
          "type": "tuple"
        }
      ],
      "stateMutability": "view",
      "type": "function",
      "constant": true
    }
  ],
  "bytecode": "0x608060405260006007553480156200001657600080fd5b5060405162004b4a38038062004b4a83398181016040528101906200003c919062000171565b82600160006101000a81548173ffffffffffffffffffffffffffffffffffffffff021916908373ffffffffffffffffffffffffffffffffffffffff160217905550816000806101000a81548173ffffffffffffffffffffffffffffffffffffffff021916908373ffffffffffffffffffffffffffffffffffffffff16021790555080600260006101000a81548173ffffffffffffffffffffffffffffffffffffffff021916908373ffffffffffffffffffffffffffffffffffffffff160217905550505050620001cd565b600080fd5b600073ffffffffffffffffffffffffffffffffffffffff82169050919050565b600062000139826200010c565b9050919050565b6200014b816200012c565b81146200015757600080fd5b50565b6000815190506200016b8162000140565b92915050565b6000806000606084860312156200018d576200018c62000107565b5b60006200019d868287016200015a565b9350506020620001b0868287016200015a565b9250506040620001c3868287016200015a565b9150509250925092565b61496d80620001dd6000396000f3fe608060405234801561001057600080fd5b50600436106101215760003560e01c80638c193ff5116100ad578063cca1baa111610071578063cca1baa11461035b578063da05ae3314610377578063dc589fad146103a7578063e7f6b3a0146103c3578063ebed0592146103df57610121565b80638c193ff51461029c5780638f7df5fe146102b85780639206e938146102e8578063b79f442314610321578063ba1468461461033f57610121565b8063407e17d6116100f4578063407e17d6146101d257806349a2c6b0146101f05780634dff90a9146102205780635e1fac6c1461023c578063765ff0611461026c57610121565b8063157c2a40146101265780633505d12f14610142578063384154f0146101725780633fa020e9146101a2575b600080fd5b610140600480360381019061013b9190613447565b6103fb565b005b61015c60048036038101906101579190613447565b6105ac565b6040516101699190613483565b60405180910390f35b61018c60048036038101906101879190613447565b6105c4565b6040516101999190613483565b60405180910390f35b6101bc60048036038101906101b79190613447565b6105dc565b6040516101c991906134b9565b60405180910390f35b6101da610630565b6040516101e79190613756565b60405180910390f35b61020a600480360381019061020591906137a4565b610992565b6040516102179190613483565b60405180910390f35b61023a600480360381019061023591906137e4565b6109c3565b005b61025660048036038101906102519190613447565b610ce8565b6040516102639190613a00565b60405180910390f35b61028660048036038101906102819190613a22565b610ff4565b6040516102939190613b89565b60405180910390f35b6102b660048036038101906102b19190613447565b6114fb565b005b6102d260048036038101906102cd9190613447565b611875565b6040516102df9190613bba565b60405180910390f35b61030260048036038101906102fd9190613447565b6118b5565b6040516103189a99989796959493929190613be4565b60405180910390f35b61032961197d565b6040516103369190613b89565b60405180910390f35b61035960048036038101906103549190613447565b611d35565b005b61037560048036038101906103709190613447565b611edb565b005b610391600480360381019061038c9190613a22565b612255565b60405161039e9190613d30565b60405180910390f35b6103c160048036038101906103bc9190613d7e565b612728565b005b6103dd60048036038101906103d89190613447565b612bca565b005b6103f960048036038101906103f49190613de5565b612d71565b005b3373ffffffffffffffffffffffffffffffffffffffff166003600083815260200190815260200160002060010160009054906101000a900473ffffffffffffffffffffffffffffffffffffffff1673ffffffffffffffffffffffffffffffffffffffff161461049f576040517f08c379a000000000000000000000000000000000000000000000000000000000815260040161049690613ea8565b60405180910390fd5b600160058111156104b3576104b2613550565b5b6003600083815260200190815260200160002060020160149054906101000a900460ff1660058111156104e9576104e8613550565b5b14610529576040517f08c379a000000000000000000000000000000000000000000000000000000000815260040161052090613f3a565b60405180910390fd5b600380600083815260200190815260200160002060020160146101000a81548160ff0219169083600581111561056257610561613550565b5b021790555061057081613073565b7f403a6f9792692b3ee502fa20caf6bb8fd6dcf2af50f28f5745b111e6170b051433826040516105a1929190613f5a565b60405180910390a150565b60046020528060005260406000206000915090505481565b60066020528060005260406000206000915090505481565b6000600160058111156105f2576105f1613550565b5b6003600084815260200190815260200160002060020160149054906101000a900460ff16600581111561062857610627613550565b5b149050919050565b6060600160009054906101000a900473ffffffffffffffffffffffffffffffffffffffff1673ffffffffffffffffffffffffffffffffffffffff166324d7806c336040518263ffffffff1660e01b815260040161068d9190613bba565b602060405180830381865afa1580156106aa573d6000803e3d6000fd5b505050506040513d601f19601f820116820180604052508101906106ce9190613f98565b61070d576040517f08c379a000000000000000000000000000000000000000000000000000000000815260040161070490614011565b60405180910390fd5b600060075467ffffffffffffffff81111561072b5761072a614031565b5b60405190808252806020026020018201604052801561076457816020015b61075161329b565b8152602001906001900390816107495790505b5090506000805b6007548110156109895760006006600083815260200190815260200160002054905060006003600083815260200190815260200160002060405180610140016040529081600082015481526020016001820160009054906101000a900473ffffffffffffffffffffffffffffffffffffffff1673ffffffffffffffffffffffffffffffffffffffff1673ffffffffffffffffffffffffffffffffffffffff1681526020016002820160009054906101000a900473ffffffffffffffffffffffffffffffffffffffff1673ffffffffffffffffffffffffffffffffffffffff1673ffffffffffffffffffffffffffffffffffffffff1681526020016002820160149054906101000a900460ff16600581111561088957610888613550565b5b600581111561089b5761089a613550565b5b815260200160038201548152602001600482015481526020016005820160009054906101000a900460ff16151515158152602001600682015481526020016007820160009054906101000a900460ff161515151581526020016007820160019054906101000a900460ff16151515158152505090506002600581111561092457610923613550565b5b8160600151600581111561093b5761093a613550565b5b036109745760405180604001604052808381526020018281525085858151811061096857610967614060565b5b60200260200101819052505b50508080610981906140be565b91505061076b565b50819250505090565b600560205281600052604060002081815481106109ae57600080fd5b90600052602060002001600091509150505481565b60006003600085815260200190815260200160002060405180610140016040529081600082015481526020016001820160009054906101000a900473ffffffffffffffffffffffffffffffffffffffff1673ffffffffffffffffffffffffffffffffffffffff1673ffffffffffffffffffffffffffffffffffffffff1681526020016002820160009054906101000a900473ffffffffffffffffffffffffffffffffffffffff1673ffffffffffffffffffffffffffffffffffffffff1673ffffffffffffffffffffffffffffffffffffffff1681526020016002820160149054906101000a900460ff166005811115610abf57610abe613550565b5b6005811115610ad157610ad0613550565b5b815260200160038201548152602001600482015481526020016005820160009054906101000a900460ff16151515158152602001600682015481526020016007820160009054906101000a900460ff161515151581526020016007820160019054906101000a900460ff161515151581525050905060016005811115610b5a57610b59613550565b5b81606001516005811115610b7157610b70613550565b5b14610bb1576040517f08c379a0000000000000000000000000000000000000000000000000000000008152600401610ba890613f3a565b60405180910390fd5b8181608001511115610bf8576040517f08c379a0000000000000000000000000000000000000000000000000000000008152600401610bef90614178565b60405180910390fd5b60026003600086815260200190815260200160002060020160146101000a81548160ff02191690836005811115610c3257610c31613550565b5b0217905550826003600086815260200190815260200160002060020160006101000a81548173ffffffffffffffffffffffffffffffffffffffff021916908373ffffffffffffffffffffffffffffffffffffffff1602179055508160036000868152602001908152602001600020600401819055507f1479338b27bb727a6d6bdbb8f7554b67addade705ff18a6a4e9f52b7c26f8caf843385604051610cda93929190614198565b60405180910390a150505050565b610cf06132bb565b60006003600084815260200190815260200160002060405180610140016040529081600082015481526020016001820160009054906101000a900473ffffffffffffffffffffffffffffffffffffffff1673ffffffffffffffffffffffffffffffffffffffff1673ffffffffffffffffffffffffffffffffffffffff1681526020016002820160009054906101000a900473ffffffffffffffffffffffffffffffffffffffff1673ffffffffffffffffffffffffffffffffffffffff1673ffffffffffffffffffffffffffffffffffffffff1681526020016002820160149054906101000a900460ff166005811115610dec57610deb613550565b5b6005811115610dfe57610dfd613550565b5b815260200160038201548152602001600482015481526020016005820160009054906101000a900460ff16151515158152602001600682015481526020016007820160009054906101000a900460ff161515151581526020016007820160019054906101000a900460ff161515151581525050905060008060009054906101000a900473ffffffffffffffffffffffffffffffffffffffff1673ffffffffffffffffffffffffffffffffffffffff1663948c0d8e83600001516040518263ffffffff1660e01b8152600401610ed39190613483565b608060405180830381865afa158015610ef0573d6000803e3d6000fd5b505050506040513d601f19601f82011682018060405250810190610f1491906142c7565b90506000600260009054906101000a900473ffffffffffffffffffffffffffffffffffffffff1673ffffffffffffffffffffffffffffffffffffffff16639f8188b383602001516040518263ffffffff1660e01b8152600401610f779190613483565b600060405180830381865afa158015610f94573d6000803e3d6000fd5b505050506040513d6000823e3d601f19601f82011682018060405250810190610fbd9190614433565b90506040518060a0016040528084600001518152602001838152602001868152602001848152602001828152509350505050919050565b606060008060009054906101000a900473ffffffffffffffffffffffffffffffffffffffff1673ffffffffffffffffffffffffffffffffffffffff166351fe436a846040518263ffffffff1660e01b81526004016110529190613bba565b602060405180830381865afa15801561106f573d6000803e3d6000fd5b505050506040513d601f19601f82011682018060405250810190611093919061447c565b905060008167ffffffffffffffff8111156110b1576110b0614031565b5b6040519080825280602002602001820160405280156110ea57816020015b6110d76132bb565b8152602001906001900390816110cf5790505b5090506000805b838110156114ef5760008060009054906101000a900473ffffffffffffffffffffffffffffffffffffffff1673ffffffffffffffffffffffffffffffffffffffff1663794cc53388846040518363ffffffff1660e01b8152600401611157929190613f5a565b602060405180830381865afa158015611174573d6000803e3d6000fd5b505050506040513d601f19601f82011682018060405250810190611198919061447c565b9050600081146114db5760008060009054906101000a900473ffffffffffffffffffffffffffffffffffffffff1673ffffffffffffffffffffffffffffffffffffffff1663948c0d8e836040518263ffffffff1660e01b81526004016111fe9190613483565b608060405180830381865afa15801561121b573d6000803e3d6000fd5b505050506040513d601f19601f8201168201806040525081019061123f91906142c7565b90506000600260009054906101000a900473ffffffffffffffffffffffffffffffffffffffff1673ffffffffffffffffffffffffffffffffffffffff16639f8188b383602001516040518263ffffffff1660e01b81526004016112a29190613483565b600060405180830381865afa1580156112bf573d6000803e3d6000fd5b505050506040513d6000823e3d601f19601f820116820180604052508101906112e89190614433565b905060006004600085815260200190815260200160002054905060006003600083815260200190815260200160002060405180610140016040529081600082015481526020016001820160009054906101000a900473ffffffffffffffffffffffffffffffffffffffff1673ffffffffffffffffffffffffffffffffffffffff1673ffffffffffffffffffffffffffffffffffffffff1681526020016002820160009054906101000a900473ffffffffffffffffffffffffffffffffffffffff1673ffffffffffffffffffffffffffffffffffffffff1673ffffffffffffffffffffffffffffffffffffffff1681526020016002820160149054906101000a900460ff1660058111156113fe576113fd613550565b5b60058111156114105761140f613550565b5b815260200160038201548152602001600482015481526020016005820160009054906101000a900460ff16151515158152602001600682015481526020016007820160009054906101000a900460ff161515151581526020016007820160019054906101000a900460ff16151515158152505090506040518060a00160405280868152602001858152602001838152602001828152602001848152508888806114b8906140be565b9950815181106114cb576114ca614060565b5b6020026020010181905250505050505b5080806114e7906140be565b9150506110f1565b50819350505050919050565b600160009054906101000a900473ffffffffffffffffffffffffffffffffffffffff1673ffffffffffffffffffffffffffffffffffffffff166324d7806c336040518263ffffffff1660e01b81526004016115569190613bba565b602060405180830381865afa158015611573573d6000803e3d6000fd5b505050506040513d601f19601f820116820180604052508101906115979190613f98565b6115d6576040517f08c379a00000000000000000000000000000000000000000000000000000000081526004016115cd90614011565b60405180910390fd5b60016003600083815260200190815260200160002060070160006101000a81548160ff02191690831515021790555060006003600083815260200190815260200160002060405180610140016040529081600082015481526020016001820160009054906101000a900473ffffffffffffffffffffffffffffffffffffffff1673ffffffffffffffffffffffffffffffffffffffff1673ffffffffffffffffffffffffffffffffffffffff1681526020016002820160009054906101000a900473ffffffffffffffffffffffffffffffffffffffff1673ffffffffffffffffffffffffffffffffffffffff1673ffffffffffffffffffffffffffffffffffffffff1681526020016002820160149054906101000a900460ff16600581111561170157611700613550565b5b600581111561171357611712613550565b5b815260200160038201548152602001600482015481526020016005820160009054906101000a900460ff16151515158152602001600682015481526020016007820160009054906101000a900460ff161515151581526020016007820160019054906101000a900460ff1615151515815250509050806101200151156118715760008054906101000a900473ffffffffffffffffffffffffffffffffffffffff1673ffffffffffffffffffffffffffffffffffffffff166377646798826000015183604001516040518363ffffffff1660e01b81526004016117f69291906144a9565b600060405180830381600087803b15801561181057600080fd5b505af1158015611824573d6000803e3d6000fd5b5050505060046003600084815260200190815260200160002060020160146101000a81548160ff0219169083600581111561186257611861613550565b5b021790555061187082613073565b5b5050565b60006003600083815260200190815260200160002060010160009054906101000a900473ffffffffffffffffffffffffffffffffffffffff169050919050565b60036020528060005260406000206000915090508060000154908060010160009054906101000a900473ffffffffffffffffffffffffffffffffffffffff16908060020160009054906101000a900473ffffffffffffffffffffffffffffffffffffffff16908060020160149054906101000a900460ff16908060030154908060040154908060050160009054906101000a900460ff16908060060154908060070160009054906101000a900460ff16908060070160019054906101000a900460ff1690508a565b6060600060075467ffffffffffffffff81111561199d5761199c614031565b5b6040519080825280602002602001820160405280156119d657816020015b6119c36132bb565b8152602001906001900390816119bb5790505b50905060005b600754811015611d2d5760006006600083815260200190815260200160002054905060006003600083815260200190815260200160002060405180610140016040529081600082015481526020016001820160009054906101000a900473ffffffffffffffffffffffffffffffffffffffff1673ffffffffffffffffffffffffffffffffffffffff1673ffffffffffffffffffffffffffffffffffffffff1681526020016002820160009054906101000a900473ffffffffffffffffffffffffffffffffffffffff1673ffffffffffffffffffffffffffffffffffffffff1673ffffffffffffffffffffffffffffffffffffffff1681526020016002820160149054906101000a900460ff166005811115611afa57611af9613550565b5b6005811115611b0c57611b0b613550565b5b815260200160038201548152602001600482015481526020016005820160009054906101000a900460ff16151515158152602001600682015481526020016007820160009054906101000a900460ff161515151581526020016007820160019054906101000a900460ff161515151581525050905060008060009054906101000a900473ffffffffffffffffffffffffffffffffffffffff1673ffffffffffffffffffffffffffffffffffffffff1663948c0d8e83600001516040518263ffffffff1660e01b8152600401611be19190613483565b608060405180830381865afa158015611bfe573d6000803e3d6000fd5b505050506040513d601f19601f82011682018060405250810190611c2291906142c7565b90506000600260009054906101000a900473ffffffffffffffffffffffffffffffffffffffff1673ffffffffffffffffffffffffffffffffffffffff16639f8188b383602001516040518263ffffffff1660e01b8152600401611c859190613483565b600060405180830381865afa158015611ca2573d6000803e3d6000fd5b505050506040513d6000823e3d601f19601f82011682018060405250810190611ccb9190614433565b90506040518060a001604052808460000151815260200183815260200185815260200184815260200182815250868681518110611d0b57611d0a614060565b5b6020026020010181905250505050508080611d25906140be565b9150506119dc565b508091505090565b6003600082815260200190815260200160002060010160009054906101000a900473ffffffffffffffffffffffffffffffffffffffff1673ffffffffffffffffffffffffffffffffffffffff163373ffffffffffffffffffffffffffffffffffffffff1614611dd9576040517f08c379a0000000000000000000000000000000000000000000000000000000008152600401611dd090613ea8565b60405180910390fd5b600580811115611dec57611deb613550565b5b6003600083815260200190815260200160002060020160149054906101000a900460ff166005811115611e2257611e21613550565b5b14611e62576040517f08c379a0000000000000000000000000000000000000000000000000000000008152600401611e599061451e565b60405180910390fd5b60016003600083815260200190815260200160002060020160146101000a81548160ff02191690836005811115611e9c57611e9b613550565b5b02179055507f1943ff8fe66129619ad45b43d7666b90f9f10c041d2d491444879220812d647d81604051611ed09190613483565b60405180910390a150565b600160009054906101000a900473ffffffffffffffffffffffffffffffffffffffff1673ffffffffffffffffffffffffffffffffffffffff166324d7806c336040518263ffffffff1660e01b8152600401611f369190613bba565b602060405180830381865afa158015611f53573d6000803e3d6000fd5b505050506040513d601f19601f82011682018060405250810190611f779190613f98565b611fb6576040517f08c379a0000000000000000000000000000000000000000000000000000000008152600401611fad90614011565b60405180910390fd5b60016003600083815260200190815260200160002060070160016101000a81548160ff02191690831515021790555060006003600083815260200190815260200160002060405180610140016040529081600082015481526020016001820160009054906101000a900473ffffffffffffffffffffffffffffffffffffffff1673ffffffffffffffffffffffffffffffffffffffff1673ffffffffffffffffffffffffffffffffffffffff1681526020016002820160009054906101000a900473ffffffffffffffffffffffffffffffffffffffff1673ffffffffffffffffffffffffffffffffffffffff1673ffffffffffffffffffffffffffffffffffffffff1681526020016002820160149054906101000a900460ff1660058111156120e1576120e0613550565b5b60058111156120f3576120f2613550565b5b815260200160038201548152602001600482015481526020016005820160009054906101000a900460ff16151515158152602001600682015481526020016007820160009054906101000a900460ff161515151581526020016007820160019054906101000a900460ff1615151515815250509050806101000151156122515760008054906101000a900473ffffffffffffffffffffffffffffffffffffffff1673ffffffffffffffffffffffffffffffffffffffff166377646798826000015183604001516040518363ffffffff1660e01b81526004016121d69291906144a9565b600060405180830381600087803b1580156121f057600080fd5b505af1158015612204573d6000803e3d6000fd5b5050505060046003600084815260200190815260200160002060020160146101000a81548160ff0219169083600581111561224257612241613550565b5b021790555061225082613073565b5b5050565b60606000600560008473ffffffffffffffffffffffffffffffffffffffff1673ffffffffffffffffffffffffffffffffffffffff1681526020019081526020016000208054806020026020016040519081016040528092919081815260200182805480156122e257602002820191906000526020600020905b8154815260200190600101908083116122ce575b505050505090506000815167ffffffffffffffff81111561230657612305614031565b5b60405190808252806020026020018201604052801561233f57816020015b61232c6132fc565b8152602001906001900390816123245790505b50905060005b825181101561271d5760006003600085848151811061236757612366614060565b5b6020026020010151815260200190815260200160002060405180610140016040529081600082015481526020016001820160009054906101000a900473ffffffffffffffffffffffffffffffffffffffff1673ffffffffffffffffffffffffffffffffffffffff1673ffffffffffffffffffffffffffffffffffffffff1681526020016002820160009054906101000a900473ffffffffffffffffffffffffffffffffffffffff1673ffffffffffffffffffffffffffffffffffffffff1673ffffffffffffffffffffffffffffffffffffffff1681526020016002820160149054906101000a900460ff16600581111561246457612463613550565b5b600581111561247657612475613550565b5b815260200160038201548152602001600482015481526020016005820160009054906101000a900460ff16151515158152602001600682015481526020016007820160009054906101000a900460ff161515151581526020016007820160019054906101000a900460ff1615151515815250509050600360058111156124ff576124fe613550565b5b8160600151600581111561251657612515613550565b5b14158061254c57506004600581111561253257612531613550565b5b8160600151600581111561254957612548613550565b5b14155b15612709576003600085848151811061256857612567614060565b5b6020026020010151815260200190815260200160002060405180610140016040529081600082015481526020016001820160009054906101000a900473ffffffffffffffffffffffffffffffffffffffff1673ffffffffffffffffffffffffffffffffffffffff1673ffffffffffffffffffffffffffffffffffffffff1681526020016002820160009054906101000a900473ffffffffffffffffffffffffffffffffffffffff1673ffffffffffffffffffffffffffffffffffffffff1673ffffffffffffffffffffffffffffffffffffffff1681526020016002820160149054906101000a900460ff16600581111561266557612664613550565b5b600581111561267757612676613550565b5b815260200160038201548152602001600482015481526020016005820160009054906101000a900460ff16151515158152602001600682015481526020016007820160009054906101000a900460ff161515151581526020016007820160019054906101000a900460ff1615151515815250508383815181106126fd576126fc614060565b5b60200260200101819052505b508080612715906140be565b915050612345565b508092505050919050565b60008054906101000a900473ffffffffffffffffffffffffffffffffffffffff1673ffffffffffffffffffffffffffffffffffffffff166389642c5485336040518363ffffffff1660e01b81526004016127839291906144a9565b602060405180830381865afa1580156127a0573d6000803e3d6000fd5b505050506040513d601f19601f820116820180604052508101906127c49190613f98565b612803576040517f08c379a00000000000000000000000000000000000000000000000000000000081526004016127fa906145b0565b60405180910390fd5b6000600460008681526020019081526020016000205414612859576040517f08c379a000000000000000000000000000000000000000000000000000000000815260040161285090614642565b60405180910390fd5b8183111561289c576040517f08c379a000000000000000000000000000000000000000000000000000000000815260040161289390614178565b60405180910390fd5b80156128dd576040517f08c379a00000000000000000000000000000000000000000000000000000000081526004016128d4906146ae565b60405180910390fd5b600042905060006040518061014001604052808781526020013373ffffffffffffffffffffffffffffffffffffffff168152602001600073ffffffffffffffffffffffffffffffffffffffff1681526020016001600581111561294357612942613550565b5b81526020018681526020018581526020018415158152602001600754815260200160001515815260200160001515815250905080600360008481526020019081526020016000206000820151816000015560208201518160010160006101000a81548173ffffffffffffffffffffffffffffffffffffffff021916908373ffffffffffffffffffffffffffffffffffffffff16021790555060408201518160020160006101000a81548173ffffffffffffffffffffffffffffffffffffffff021916908373ffffffffffffffffffffffffffffffffffffffff16021790555060608201518160020160146101000a81548160ff02191690836005811115612a4d57612a4c613550565b5b02179055506080820151816003015560a0820151816004015560c08201518160050160006101000a81548160ff02191690831515021790555060e082015181600601556101008201518160070160006101000a81548160ff0219169083151502179055506101208201518160070160016101000a81548160ff021916908315150217905550905050816004600088815260200190815260200160002081905550816006600060075481526020019081526020016000208190555060076000815480929190612b1a906140be565b9190505550600560003373ffffffffffffffffffffffffffffffffffffffff1673ffffffffffffffffffffffffffffffffffffffff1681526020019081526020016000208290806001815401808255809150506001900390600052602060002001600090919091909150557f932bb8e1964b19f151b100006d1433bdf7b9a6d6368ec8d600028f2b1932070386338487604051612bba94939291906146ce565b60405180910390a1505050505050565b6003600082815260200190815260200160002060020160009054906101000a900473ffffffffffffffffffffffffffffffffffffffff1673ffffffffffffffffffffffffffffffffffffffff163373ffffffffffffffffffffffffffffffffffffffff1614612c6e576040517f08c379a0000000000000000000000000000000000000000000000000000000008152600401612c6590614785565b60405180910390fd5b60026005811115612c8257612c81613550565b5b6003600083815260200190815260200160002060020160149054906101000a900460ff166005811115612cb857612cb7613550565b5b14612cf8576040517f08c379a0000000000000000000000000000000000000000000000000000000008152600401612cef906147f1565b60405180910390fd5b60056003600083815260200190815260200160002060020160146101000a81548160ff02191690836005811115612d3257612d31613550565b5b02179055507f48ae6fca79163101ea4f5b073efc510017228ac372cd41c1d2b4e8ec683bd82281604051612d669190613483565b60405180910390a150565b60006003600084815260200190815260200160002060405180610140016040529081600082015481526020016001820160009054906101000a900473ffffffffffffffffffffffffffffffffffffffff1673ffffffffffffffffffffffffffffffffffffffff1673ffffffffffffffffffffffffffffffffffffffff1681526020016002820160009054906101000a900473ffffffffffffffffffffffffffffffffffffffff1673ffffffffffffffffffffffffffffffffffffffff1673ffffffffffffffffffffffffffffffffffffffff1681526020016002820160149054906101000a900460ff166005811115612e6d57612e6c613550565b5b6005811115612e7f57612e7e613550565b5b815260200160038201548152602001600482015481526020016005820160009054906101000a900460ff16151515158152602001600682015481526020016007820160009054906101000a900460ff161515151581526020016007820160019054906101000a900460ff16151515158152505090503373ffffffffffffffffffffffffffffffffffffffff16816020015173ffffffffffffffffffffffffffffffffffffffff1614612f66576040517f08c379a0000000000000000000000000000000000000000000000000000000008152600401612f5d90614883565b60405180910390fd5b60016005811115612f7a57612f79613550565b5b81606001516005811115612f9157612f90613550565b5b14612fd1576040517f08c379a0000000000000000000000000000000000000000000000000000000008152600401612fc890613f3a565b60405180910390fd5b8181608001511115613018576040517f08c379a000000000000000000000000000000000000000000000000000000000815260040161300f90614178565b60405180910390fd5b8160036000858152602001908152602001600020600401819055507f32f2b6309378457b4dd94fe258595c9b095bcde80654521e246cbc06bf632961838333604051613066939291906148a3565b60405180910390a1505050565b60006003600083815260200190815260200160002060405180610140016040529081600082015481526020016001820160009054906101000a900473ffffffffffffffffffffffffffffffffffffffff1673ffffffffffffffffffffffffffffffffffffffff1673ffffffffffffffffffffffffffffffffffffffff1681526020016002820160009054906101000a900473ffffffffffffffffffffffffffffffffffffffff1673ffffffffffffffffffffffffffffffffffffffff1673ffffffffffffffffffffffffffffffffffffffff1681526020016002820160149054906101000a900460ff16600581111561316f5761316e613550565b5b600581111561318157613180613550565b5b815260200160038201548152602001600482015481526020016005820160009054906101000a900460ff16151515158152602001600682015481526020016007820160009054906101000a900460ff161515151581526020016007820160019054906101000a900460ff1615151515815250509050600060046000836000015181526020019081526020016000208190555060008160e001519050600060066000600160075461323191906148da565b815260200190815260200160002054905080841461327d578160036000838152602001908152602001600020600601819055508060066000848152602001908152602001600020819055505b600760008154809291906132909061490e565b919050555050505050565b6040518060400160405280600081526020016132b56132fc565b81525090565b6040518060a00160405280600081526020016132d5613393565b8152602001600081526020016132e96132fc565b81526020016132f66133d3565b81525090565b60405180610140016040528060008152602001600073ffffffffffffffffffffffffffffffffffffffff168152602001600073ffffffffffffffffffffffffffffffffffffffff1681526020016000600581111561335d5761335c613550565b5b81526020016000815260200160008152602001600015158152602001600081526020016000151581526020016000151581525090565b60405180608001604052806000815260200160008152602001600073ffffffffffffffffffffffffffffffffffffffff1681526020016000151581525090565b60405180608001604052806000815260200160608152602001600081526020016000151581525090565b6000604051905090565b600080fd5b600080fd5b6000819050919050565b61342481613411565b811461342f57600080fd5b50565b6000813590506134418161341b565b92915050565b60006020828403121561345d5761345c613407565b5b600061346b84828501613432565b91505092915050565b61347d81613411565b82525050565b60006020820190506134986000830184613474565b92915050565b60008115159050919050565b6134b38161349e565b82525050565b60006020820190506134ce60008301846134aa565b92915050565b600081519050919050565b600082825260208201905092915050565b6000819050602082019050919050565b61350981613411565b82525050565b600073ffffffffffffffffffffffffffffffffffffffff82169050919050565b600061353a8261350f565b9050919050565b61354a8161352f565b82525050565b7f4e487b7100000000000000000000000000000000000000000000000000000000600052602160045260246000fd5b600681106135905761358f613550565b5b50565b60008190506135a18261357f565b919050565b60006135b182613593565b9050919050565b6135c1816135a6565b82525050565b6135d08161349e565b82525050565b610140820160008201516135ed6000850182613500565b5060208201516136006020850182613541565b5060408201516136136040850182613541565b50606082015161362660608501826135b8565b5060808201516136396080850182613500565b5060a082015161364c60a0850182613500565b5060c082015161365f60c08501826135c7565b5060e082015161367260e0850182613500565b506101008201516136876101008501826135c7565b5061012082015161369c6101208501826135c7565b50505050565b610160820160008201516136b96000850182613500565b5060208201516136cc60208501826135d6565b50505050565b60006136de83836136a2565b6101608301905092915050565b6000602082019050919050565b6000613703826134d4565b61370d81856134df565b9350613718836134f0565b8060005b8381101561374957815161373088826136d2565b975061373b836136eb565b92505060018101905061371c565b5085935050505092915050565b6000602082019050818103600083015261377081846136f8565b905092915050565b6137818161352f565b811461378c57600080fd5b50565b60008135905061379e81613778565b92915050565b600080604083850312156137bb576137ba613407565b5b60006137c98582860161378f565b92505060206137da85828601613432565b9150509250929050565b6000806000606084860312156137fd576137fc613407565b5b600061380b86828701613432565b935050602061381c8682870161378f565b925050604061382d86828701613432565b9150509250925092565b60808201600082015161384d6000850182613500565b5060208201516138606020850182613500565b5060408201516138736040850182613541565b50606082015161388660608501826135c7565b50505050565b600081519050919050565b600082825260208201905092915050565b60005b838110156138c65780820151818401526020810190506138ab565b838111156138d5576000848401525b50505050565b6000601f19601f8301169050919050565b60006138f78261388c565b6139018185613897565b93506139118185602086016138a8565b61391a816138db565b840191505092915050565b600060808301600083015161393d6000860182613500565b506020830151848203602086015261395582826138ec565b915050604083015161396a6040860182613500565b50606083015161397d60608601826135c7565b508091505092915050565b6000610220830160008301516139a16000860182613500565b5060208301516139b46020860182613837565b5060408301516139c760a0860182613500565b5060608301516139da60c08601826135d6565b5060808301518482036102008601526139f38282613925565b9150508091505092915050565b60006020820190508181036000830152613a1a8184613988565b905092915050565b600060208284031215613a3857613a37613407565b5b6000613a468482850161378f565b91505092915050565b600081519050919050565b600082825260208201905092915050565b6000819050602082019050919050565b600061022083016000830151613a946000860182613500565b506020830151613aa76020860182613837565b506040830151613aba60a0860182613500565b506060830151613acd60c08601826135d6565b506080830151848203610200860152613ae68282613925565b9150508091505092915050565b6000613aff8383613a7b565b905092915050565b6000602082019050919050565b6000613b1f82613a4f565b613b298185613a5a565b935083602082028501613b3b85613a6b565b8060005b85811015613b775784840389528151613b588582613af3565b9450613b6383613b07565b925060208a01995050600181019050613b3f565b50829750879550505050505092915050565b60006020820190508181036000830152613ba38184613b14565b905092915050565b613bb48161352f565b82525050565b6000602082019050613bcf6000830184613bab565b92915050565b613bde816135a6565b82525050565b600061014082019050613bfa600083018d613474565b613c07602083018c613bab565b613c14604083018b613bab565b613c21606083018a613bd5565b613c2e6080830189613474565b613c3b60a0830188613474565b613c4860c08301876134aa565b613c5560e0830186613474565b613c636101008301856134aa565b613c716101208301846134aa565b9b9a5050505050505050505050565b600081519050919050565b600082825260208201905092915050565b6000819050602082019050919050565b6000613cb883836135d6565b6101408301905092915050565b6000602082019050919050565b6000613cdd82613c80565b613ce78185613c8b565b9350613cf283613c9c565b8060005b83811015613d23578151613d0a8882613cac565b9750613d1583613cc5565b925050600181019050613cf6565b5085935050505092915050565b60006020820190508181036000830152613d4a8184613cd2565b905092915050565b613d5b8161349e565b8114613d6657600080fd5b50565b600081359050613d7881613d52565b92915050565b60008060008060808587031215613d9857613d97613407565b5b6000613da687828801613432565b9450506020613db787828801613432565b9350506040613dc887828801613432565b9250506060613dd987828801613d69565b91505092959194509250565b60008060408385031215613dfc57613dfb613407565b5b6000613e0a85828601613432565b9250506020613e1b85828601613432565b9150509250929050565b600082825260208201905092915050565b7f42752069736c656d2073616465636520736174696369207461726166696e646160008201527f6e20796170696c69720000000000000000000000000000000000000000000000602082015250565b6000613e92602983613e25565b9150613e9d82613e36565b604082019050919050565b60006020820190508181036000830152613ec181613e85565b9050919050565b7f53616465636520796179696e6461206f6c616e20696c616e6c6172206963696e60008201527f2062752069736c656d20796170696c6162696c69720000000000000000000000602082015250565b6000613f24603583613e25565b9150613f2f82613ec8565b604082019050919050565b60006020820190508181036000830152613f5381613f17565b9050919050565b6000604082019050613f6f6000830185613bab565b613f7c6020830184613474565b9392505050565b600081519050613f9281613d52565b92915050565b600060208284031215613fae57613fad613407565b5b6000613fbc84828501613f83565b91505092915050565b7f42752069736c656d69207361646563652061646d696e207961706162696c6972600082015250565b6000613ffb602083613e25565b915061400682613fc5565b602082019050919050565b6000602082019050818103600083015261402a81613fee565b9050919050565b7f4e487b7100000000000000000000000000000000000000000000000000000000600052604160045260246000fd5b7f4e487b7100000000000000000000000000000000000000000000000000000000600052603260045260246000fd5b7f4e487b7100000000000000000000000000000000000000000000000000000000600052601160045260246000fd5b60006140c982613411565b91507fffffffffffffffffffffffffffffffffffffffffffffffffffffffffffffffff82036140fb576140fa61408f565b5b600182019050919050565b7f536174697320666979617420726179696320626564656c64656e20647573756b60008201527f206f6c616d617a00000000000000000000000000000000000000000000000000602082015250565b6000614162602783613e25565b915061416d82614106565b604082019050919050565b6000602082019050818103600083015261419181614155565b9050919050565b60006060820190506141ad6000830186613474565b6141ba6020830185613bab565b6141c76040830184613bab565b949350505050565b600080fd5b6141dd826138db565b810181811067ffffffffffffffff821117156141fc576141fb614031565b5b80604052505050565b600061420f6133fd565b905061421b82826141d4565b919050565b600080fd5b6000815190506142348161341b565b92915050565b60008151905061424981613778565b92915050565b600060808284031215614265576142646141cf565b5b61426f6080614205565b9050600061427f84828501614225565b600083015250602061429384828501614225565b60208301525060406142a78482850161423a565b60408301525060606142bb84828501613f83565b60608301525092915050565b6000608082840312156142dd576142dc613407565b5b60006142eb8482850161424f565b91505092915050565b600080fd5b600080fd5b600067ffffffffffffffff82111561431957614318614031565b5b614322826138db565b9050602081019050919050565b600061434261433d846142fe565b614205565b90508281526020810184848401111561435e5761435d6142f9565b5b6143698482856138a8565b509392505050565b600082601f830112614386576143856142f4565b5b815161439684826020860161432f565b91505092915050565b6000608082840312156143b5576143b46141cf565b5b6143bf6080614205565b905060006143cf84828501614225565b600083015250602082015167ffffffffffffffff8111156143f3576143f2614220565b5b6143ff84828501614371565b602083015250604061441384828501614225565b604083015250606061442784828501613f83565b60608301525092915050565b60006020828403121561444957614448613407565b5b600082015167ffffffffffffffff8111156144675761446661340c565b5b6144738482850161439f565b91505092915050565b60006020828403121561449257614491613407565b5b60006144a084828501614225565b91505092915050565b60006040820190506144be6000830185613474565b6144cb6020830184613bab565b9392505050565b7f6f6e63656c696b6c6520616c696369206b696c6974206b616c6469726d616c69600082015250565b6000614508602083613e25565b9150614513826144d2565b602082019050919050565b60006020820190508181036000830152614537816144fb565b9050919050565b7f48697373652073616465636520736168696269207461726166696e64616e206960008201527f6c616e206f6c7573747572756c6d616c69000000000000000000000000000000602082015250565b600061459a603183613e25565b91506145a58261453e565b604082019050919050565b600060208201905081810360008301526145c98161458d565b9050919050565b7f6164766572746973656d656e7420666f72207265616c2065737461746520616c60008201527f726561647920657869737420696e207468652073797374656d00000000000000602082015250565b600061462c603983613e25565b9150614637826145d0565b604082019050919050565b6000602082019050818103600083015261465b8161461f565b9050919050565b7f47617972696d656e6b756c756e20766572676920626f726375206f6c6d617a00600082015250565b6000614698601f83613e25565b91506146a382614662565b602082019050919050565b600060208201905081810360008301526146c78161468b565b9050919050565b60006080820190506146e36000830187613474565b6146f06020830186613bab565b6146fd6040830185613474565b61470a6060830184613474565b95945050505050565b7f42752069736c656d2073616465636520616c696369207461726166696e64616e60008201527f20796170696c6972000000000000000000000000000000000000000000000000602082015250565b600061476f602883613e25565b915061477a82614713565b604082019050919050565b6000602082019050818103600083015261479e81614762565b9050919050565b7f696c616e20616c696369206963696e206b69746c656e6d656d69730000000000600082015250565b60006147db601b83613e25565b91506147e6826147a5565b602082019050919050565b6000602082019050818103600083015261480a816147ce565b9050919050565b7f42752069736c656d692073616465636520736174696369207961706162696c6960008201527f7200000000000000000000000000000000000000000000000000000000000000602082015250565b600061486d602183613e25565b915061487882614811565b604082019050919050565b6000602082019050818103600083015261489c81614860565b9050919050565b60006060820190506148b86000830186613474565b6148c56020830185613474565b6148d26040830184613bab565b949350505050565b60006148e582613411565b91506148f083613411565b9250828210156149035761490261408f565b5b828203905092915050565b600061491982613411565b91506000820361492c5761492b61408f565b5b60018203905091905056fea2646970667358221220541e8f76451ca50b40e485ff319dfb073a320605dceae9b4c5977bb328c910ba64736f6c634300080e0033",
  "immutableReferences": {},
  "source": "// SPDX-License-Identifier: UNLICENSED\r\npragma solidity ^0.8.0;\r\n\r\nimport \"./Owner.sol\";\r\nimport \"./RealEstateOwnerRelation.sol\";\r\nimport \"./NotaryContractBase.sol\";\r\nimport \"./RealEstate.sol\";\r\n\r\ncontract RealEstateSaleAd is NotaryContractBase{\r\n\r\n    RealEstateOwnerRelation realEstateOwnerRelation;\r\n    Owner ownerContract;\r\n    RealEstate realEstate;\r\n\r\n    event ilanOlusturuldu(uint hisseId, address saticiId, uint ilanId, uint fiyat);\r\n    event ilanYayindanKaldirildi(address saticiId, uint ilanId);\r\n    event aliciIcinKilitlendi(uint ilanId, address saticiId, address aliciId);    \r\n    event fiyatDegistir(uint ilanId, uint yeniSatisFiyat, address saticiId);\r\n    event kilitKaldirildiWithAliciOnayi(uint ilanId);\r\n    event kilitKaldirildiWithSaticiOnayi(uint ilanId);\r\n    event alicisistemHesabinaParaAktardi(address alici, uint ilanId, uint miktar);\r\n \r\n    mapping (uint => Advertisement) public adIdMap;\r\n    mapping (uint => uint) public hisseIdAdIdMap;\r\n    mapping (address => uint[]) public ownerAdIdListMap;\r\n    mapping (uint => uint) public adIdLUT;\r\n    uint adIdLUTLength = 0;\r\n\r\n    constructor(address ownerContractAdd, address realOwnRelAddress, address realEstateAddress)  {\r\n        ownerContract=Owner(ownerContractAdd);\r\n        realEstateOwnerRelation=RealEstateOwnerRelation(realOwnRelAddress);\r\n        realEstate=RealEstate(realEstateAddress);\r\n    }\r\n\r\n    function ilanOlustur(uint hisseId, uint256 rayicBedeli, uint256 satisFiyat, bool borcuVarMi) public {\r\n        require(realEstateOwnerRelation.hisseSatisaCikabilirMi(hisseId, msg.sender), \"Hisse sadece sahibi tarafindan ilan olusturulmali\");\r\n        require(hisseIdAdIdMap[hisseId] == 0, \"advertisement for real estate already exist in the system\");\r\n        require(rayicBedeli <= satisFiyat, \"Satis fiyat rayic bedelden dusuk olamaz\");\r\n        require(!borcuVarMi, \"Gayrimenkulun vergi borcu olmaz\");\r\n\r\n        uint ilanId = block.timestamp;\r\n        Advertisement memory ad = Advertisement(hisseId, msg.sender, address(0), State.YAYINDA, rayicBedeli, satisFiyat, borcuVarMi, adIdLUTLength, false, false);\r\n        adIdMap[ilanId] = ad;\r\n        hisseIdAdIdMap[hisseId] = ilanId;\r\n        adIdLUT[adIdLUTLength] = ilanId;\r\n        adIdLUTLength++;\r\n        ownerAdIdListMap[msg.sender].push(ilanId);\r\n        emit ilanOlusturuldu(hisseId, msg.sender, ilanId, satisFiyat);\r\n    }\r\n\r\n    function ilanYayindanKaldir(uint ilanId) public {\r\n        require(adIdMap[ilanId].satici == msg.sender, \"Bu islem sadece satici tarafindan yapilir\");\r\n        require(adIdMap[ilanId].state == State.YAYINDA, \"Sadece yayinda olan ilanlar icin bu islem yapilabilir\");\r\n        adIdMap[ilanId].state = State.YAYINDAN_KALDIRILDI;        \r\n        updateLUT(ilanId);\r\n        emit ilanYayindanKaldirildi(msg.sender, ilanId);\r\n    }\r\n    \r\n    function updateLUT(uint ilanId) private {\r\n        Advertisement memory yayindanKaldirildiAd = adIdMap[ilanId];\r\n        hisseIdAdIdMap[yayindanKaldirildiAd.hisseId] = 0;\r\n        uint yayindanKaldirilanItemIndex = yayindanKaldirildiAd.adIdLUTIndex;\r\n        uint lastAdInLUT = adIdLUT[adIdLUTLength -1];\r\n        if(ilanId != lastAdInLUT){\r\n            adIdMap[lastAdInLUT].adIdLUTIndex = yayindanKaldirilanItemIndex;\r\n            adIdLUT[yayindanKaldirilanItemIndex] = lastAdInLUT;              \r\n        }\r\n        adIdLUTLength--;\r\n    }\r\n\r\n    function aliciIcinKilitle(uint ilanId, address aliciAdd, uint fiyat) public {\r\n        Advertisement memory ad =  adIdMap[ilanId];\r\n        //require(ad.satici == msg.sender, \"Bu islemi sadece satici yapabilir\");\r\n        require(ad.state == State.YAYINDA, \"Sadece yayinda olan ilanlar icin bu islem yapilabilir\");\r\n        require(ad.rayicBedeli <= fiyat, \"Satis fiyat rayic bedelden dusuk olamaz\");\r\n        adIdMap[ilanId].state = State.ALICI_ICIN_KILITLENDI;\r\n        adIdMap[ilanId].alici = aliciAdd;\r\n        adIdMap[ilanId].fiyat = fiyat;\r\n\r\n        emit aliciIcinKilitlendi(ilanId, msg.sender, aliciAdd);    \r\n    }\r\n\r\n    function changeSatisFiyat(uint ilanId, uint newfiyat) public {\r\n        Advertisement memory ad =  adIdMap[ilanId];\r\n        require(ad.satici == msg.sender, \"Bu islemi sadece satici yapabilir\");\r\n        require(ad.state == State.YAYINDA, \"Sadece yayinda olan ilanlar icin bu islem yapilabilir\");\r\n        require(ad.rayicBedeli <= newfiyat, \"Satis fiyat rayic bedelden dusuk olamaz\");\r\n        adIdMap[ilanId].fiyat = newfiyat;\r\n        emit fiyatDegistir(ilanId, newfiyat, msg.sender);\r\n    }\r\n\r\n    function kilitKaldirWithAliciOnayi(uint ilanId) public {\r\n        require(msg.sender == adIdMap[ilanId].alici, \"Bu islem sadece alici tarafindan yapilir\");\r\n        require(adIdMap[ilanId].state == State.ALICI_ICIN_KILITLENDI, \"ilan alici icin kitlenmemis\");\r\n        adIdMap[ilanId].state = State.ALICI_ONAYI_ILE_KILIT_KALDIRMA;\r\n        emit kilitKaldirildiWithAliciOnayi(ilanId);\r\n    }\r\n\r\n    function kilitKaldirWithSaticiOnayi(uint ilanId) public {\r\n        require(msg.sender == adIdMap[ilanId].satici, \"Bu islem sadece satici tarafindan yapilir\");\r\n        require(adIdMap[ilanId].state == State.ALICI_ONAYI_ILE_KILIT_KALDIRMA, \"oncelikle alici kilit kaldirmali\");\r\n        adIdMap[ilanId].state = State.YAYINDA;\r\n        emit kilitKaldirildiWithSaticiOnayi(ilanId);\r\n    }\r\n\r\n    function getUserAds(address ownAdd) public view returns(Advertisement [] memory){\r\n        //sadece kullanici yapabilsin kendi ilanlarini grebilsin\r\n        uint[] memory ownAdIds = ownerAdIdListMap[ownAdd];\r\n        Advertisement [] memory ads = new Advertisement[](ownAdIds.length);        \r\n        for(uint i = 0; i< ownAdIds.length; i++){\r\n            Advertisement memory ad = adIdMap[ownAdIds[i]];\r\n            if(ad.state != State.YAYINDAN_KALDIRILDI || ad.state != State.DEVIR_ISLEMI_TAMAMLANDI){\r\n                ads[i] = adIdMap[ownAdIds[i]];\r\n            }\r\n        }\r\n        return ads;\r\n    }   \r\n\r\n    function ilanaTeklifVerilebilirMi(uint ilanId) public view returns(bool){\r\n        return adIdMap[ilanId].state == State.YAYINDA;\r\n    }\r\n\r\n    function getIlanSatici(uint ilanId) public view returns(address){\r\n        return adIdMap[ilanId].satici;\r\n    }\r\n\r\n    function alicidanParaAlindi(uint ilanId) public {\r\n        require(ownerContract.isAdmin(msg.sender), \"Bu islemi sadece admin yapabilir\");\r\n        adIdMap[ilanId].aliciParaTransferi = true;\r\n        Advertisement memory advertisement = adIdMap[ilanId];\r\n        if(advertisement.saticiParaTransferi){\r\n            realEstateOwnerRelation.changeOwnerShip(advertisement.hisseId, advertisement.alici);\r\n            adIdMap[ilanId].state = State.DEVIR_ISLEMI_TAMAMLANDI;\r\n            updateLUT(ilanId);\r\n        }\r\n    }\r\n\r\n    function saticidanTapuHarciAlindi(uint ilanId) public {\r\n        require(ownerContract.isAdmin(msg.sender), \"Bu islemi sadece admin yapabilir\");\r\n        adIdMap[ilanId].saticiParaTransferi = true;\r\n        Advertisement memory advertisement = adIdMap[ilanId];\r\n        if(advertisement.aliciParaTransferi){\r\n            realEstateOwnerRelation.changeOwnerShip(advertisement.hisseId, advertisement.alici);\r\n            adIdMap[ilanId].state = State.DEVIR_ISLEMI_TAMAMLANDI;\r\n            updateLUT(ilanId);\r\n        }\r\n    }\r\n\r\n    function getAliciIcinKitlenenIlanlar() public view returns(AdDto[] memory) {\r\n        require(ownerContract.isAdmin(msg.sender), \"Bu islemi sadece admin yapabilir\");\r\n        AdDto [] memory result = new AdDto[]( adIdLUTLength);\r\n        uint resultCount = 0;\r\n        for(uint i; i< adIdLUTLength; i++){\r\n            uint ilanId =adIdLUT[i];\r\n            Advertisement memory ad =  adIdMap[ilanId]; \r\n            if(ad.state == State.ALICI_ICIN_KILITLENDI){\r\n                result[resultCount] =AdDto(ilanId, ad);\r\n            }\r\n        }\r\n        return result;\r\n    }\r\n\r\n    function getUserAssets(address ownAdd) public view returns(HisseAdData[] memory){\r\n        uint hisseIdsLength = realEstateOwnerRelation.getOwnerHisseLength(ownAdd);\r\n        HisseAdData [] memory result = new HisseAdData[](hisseIdsLength);\r\n        uint resultCount = 0;\r\n        for(uint i = 0; i< hisseIdsLength; i++){\r\n            uint hisseId = realEstateOwnerRelation.getOwnerHisseId(ownAdd, i);\r\n           if(hisseId != 0 ){\r\n                Hisse memory hisse = realEstateOwnerRelation.getHisse(hisseId);\r\n                RealEstateData memory realEstateData = realEstate.getRealEstateInfo(hisse.realEstateId);\r\n                uint ilanId = hisseIdAdIdMap[hisseId];\r\n                Advertisement memory advertisement = adIdMap[ilanId];\r\n                result[resultCount++] = HisseAdData(hisseId, hisse, ilanId, advertisement, realEstateData);\r\n\r\n            }\r\n        }\r\n        return result;\r\n    }\r\n\r\n    function getAllAds() public view returns(HisseAdData [] memory){\r\n        HisseAdData [] memory result = new HisseAdData[](adIdLUTLength);\r\n        for(uint i = 0; i< adIdLUTLength; i++){\r\n            uint ilanId = adIdLUT[i];\r\n            Advertisement memory ad = adIdMap[ilanId];\r\n            Hisse memory hisse = realEstateOwnerRelation.getHisse(ad.hisseId);\r\n            RealEstateData memory realEstateData = realEstate.getRealEstateInfo(hisse.realEstateId);\r\n            result[i] = HisseAdData(ad.hisseId, hisse, ilanId, ad, realEstateData);\r\n        }\r\n        return result;\r\n    }\r\n\r\n    function getHisseAdDataById(uint ilanId) public view returns (HisseAdData memory){\r\n            Advertisement memory ad = adIdMap[ilanId];\r\n            Hisse memory hisse = realEstateOwnerRelation.getHisse(ad.hisseId);\r\n            RealEstateData memory realEstateData = realEstate.getRealEstateInfo(hisse.realEstateId);\r\n            return HisseAdData(ad.hisseId, hisse, ilanId, ad, realEstateData);\r\n    }\r\n\r\n}\r\n",
  "sourcePath": "D:\\Ethereum Projects\\DAWithEth\\truffle-project\\contracts\\RealEstateSaleAd.sol",
  "compiler": {
    "name": "solc",
    "version": "0.8.14+commit.80d49f37.Emscripten.clang"
  },
  "schemaVersion": "3.4.11",
  "updatedAt": "2023-01-15T11:09:11.922Z",
  "networkType": "ethereum",
  "devdoc": {
    "kind": "dev",
    "methods": {},
    "version": 1
  },
  "userdoc": {
    "kind": "user",
    "methods": {},
    "version": 1
  }
}