{
  "contractName": "RealEstateOwnerRelation",
  "abi": [
    {
      "inputs": [
        {
          "internalType": "address",
          "name": "realEstateContractAdd",
          "type": "address"
        },
        {
          "internalType": "address",
          "name": "ownerContractAdd",
          "type": "address"
        }
      ],
      "stateMutability": "nonpayable",
      "type": "constructor"
    },
    {
      "anonymous": false,
      "inputs": [
        {
          "indexed": false,
          "internalType": "uint256",
          "name": "realEstateId",
          "type": "uint256"
        },
        {
          "indexed": false,
          "internalType": "uint256",
          "name": "hisseId",
          "type": "uint256"
        },
        {
          "indexed": false,
          "internalType": "address",
          "name": "owner",
          "type": "address"
        }
      ],
      "name": "NewHisseAddedToRealEstate",
      "type": "event"
    },
    {
      "anonymous": false,
      "inputs": [
        {
          "indexed": false,
          "internalType": "uint256",
          "name": "realEstateId",
          "type": "uint256"
        },
        {
          "indexed": false,
          "internalType": "uint256",
          "name": "hisseId",
          "type": "uint256"
        },
        {
          "indexed": false,
          "internalType": "address",
          "name": "owner",
          "type": "address"
        }
      ],
      "name": "NewHisseAndRealEstateAdded",
      "type": "event"
    },
    {
      "anonymous": false,
      "inputs": [
        {
          "indexed": false,
          "internalType": "uint256",
          "name": "realEstateId",
          "type": "uint256"
        },
        {
          "indexed": false,
          "internalType": "uint256",
          "name": "hisseId",
          "type": "uint256"
        },
        {
          "indexed": false,
          "internalType": "address",
          "name": "owner",
          "type": "address"
        }
      ],
      "name": "OwnerHissePayAdded",
      "type": "event"
    },
    {
      "anonymous": false,
      "inputs": [
        {
          "indexed": false,
          "internalType": "uint256",
          "name": "hiseId",
          "type": "uint256"
        },
        {
          "indexed": false,
          "internalType": "address",
          "name": "oldOwner",
          "type": "address"
        },
        {
          "indexed": false,
          "internalType": "address",
          "name": "newOwner",
          "type": "address"
        }
      ],
      "name": "OwnerShipChanged",
      "type": "event"
    },
    {
      "inputs": [
        {
          "internalType": "uint256",
          "name": "",
          "type": "uint256"
        }
      ],
      "name": "hisseIdHisseMap",
      "outputs": [
        {
          "internalType": "uint256",
          "name": "pay",
          "type": "uint256"
        },
        {
          "internalType": "uint256",
          "name": "realEstateId",
          "type": "uint256"
        },
        {
          "internalType": "address",
          "name": "ownerAdd",
          "type": "address"
        },
        {
          "internalType": "bool",
          "name": "registered",
          "type": "bool"
        }
      ],
      "stateMutability": "view",
      "type": "function",
      "constant": true
    },
    {
      "inputs": [
        {
          "internalType": "address",
          "name": "",
          "type": "address"
        },
        {
          "internalType": "uint256",
          "name": "",
          "type": "uint256"
        }
      ],
      "name": "ownerHisseIdMap",
      "outputs": [
        {
          "internalType": "uint256",
          "name": "",
          "type": "uint256"
        }
      ],
      "stateMutability": "view",
      "type": "function",
      "constant": true
    },
    {
      "inputs": [
        {
          "internalType": "uint256",
          "name": "",
          "type": "uint256"
        }
      ],
      "name": "realEstateIdHisseMap",
      "outputs": [
        {
          "internalType": "bool",
          "name": "registered",
          "type": "bool"
        },
        {
          "internalType": "uint256",
          "name": "payda",
          "type": "uint256"
        },
        {
          "internalType": "uint256",
          "name": "toplamHisseMiktar",
          "type": "uint256"
        }
      ],
      "stateMutability": "view",
      "type": "function",
      "constant": true
    },
    {
      "inputs": [
        {
          "internalType": "uint256",
          "name": "realEstateId",
          "type": "uint256"
        }
      ],
      "name": "testOwnerShip",
      "outputs": [],
      "stateMutability": "nonpayable",
      "type": "function"
    },
    {
      "inputs": [
        {
          "internalType": "address",
          "name": "ownAdd",
          "type": "address"
        },
        {
          "internalType": "uint256",
          "name": "realEstateId",
          "type": "uint256"
        },
        {
          "internalType": "uint256",
          "name": "_hisse",
          "type": "uint256"
        }
      ],
      "name": "addOwnerShip",
      "outputs": [],
      "stateMutability": "nonpayable",
      "type": "function"
    },
    {
      "inputs": [
        {
          "internalType": "uint256",
          "name": "hisseId",
          "type": "uint256"
        },
        {
          "internalType": "address",
          "name": "newOwner",
          "type": "address"
        }
      ],
      "name": "changeOwnerShip",
      "outputs": [],
      "stateMutability": "nonpayable",
      "type": "function"
    },
    {
      "inputs": [
        {
          "internalType": "uint256",
          "name": "hisseId",
          "type": "uint256"
        },
        {
          "internalType": "address",
          "name": "ownAdd",
          "type": "address"
        }
      ],
      "name": "hisseSatisaCikabilirMi",
      "outputs": [
        {
          "internalType": "bool",
          "name": "",
          "type": "bool"
        }
      ],
      "stateMutability": "view",
      "type": "function",
      "constant": true
    },
    {
      "inputs": [
        {
          "internalType": "address",
          "name": "ownAdd",
          "type": "address"
        },
        {
          "internalType": "uint256",
          "name": "index",
          "type": "uint256"
        }
      ],
      "name": "getOwnerHisseId",
      "outputs": [
        {
          "internalType": "uint256",
          "name": "",
          "type": "uint256"
        }
      ],
      "stateMutability": "view",
      "type": "function",
      "constant": true
    },
    {
      "inputs": [
        {
          "internalType": "address",
          "name": "ownAdd",
          "type": "address"
        },
        {
          "internalType": "uint256[]",
          "name": "hisseIdList",
          "type": "uint256[]"
        }
      ],
      "name": "getOwnerHisseId",
      "outputs": [
        {
          "internalType": "uint256",
          "name": "",
          "type": "uint256"
        }
      ],
      "stateMutability": "view",
      "type": "function",
      "constant": true
    },
    {
      "inputs": [
        {
          "internalType": "address",
          "name": "ownAdd",
          "type": "address"
        }
      ],
      "name": "getOwnerHisseLength",
      "outputs": [
        {
          "internalType": "uint256",
          "name": "",
          "type": "uint256"
        }
      ],
      "stateMutability": "view",
      "type": "function",
      "constant": true
    },
    {
      "inputs": [
        {
          "internalType": "uint256",
          "name": "hisseId",
          "type": "uint256"
        }
      ],
      "name": "getHisse",
      "outputs": [
        {
          "components": [
            {
              "internalType": "uint256",
              "name": "pay",
              "type": "uint256"
            },
            {
              "internalType": "uint256",
              "name": "realEstateId",
              "type": "uint256"
            },
            {
              "internalType": "address",
              "name": "ownerAdd",
              "type": "address"
            },
            {
              "internalType": "bool",
              "name": "registered",
              "type": "bool"
            }
          ],
          "internalType": "struct NotaryContractBase.Hisse",
          "name": "",
          "type": "tuple"
        }
      ],
      "stateMutability": "view",
      "type": "function",
      "constant": true
    },
    {
      "inputs": [
        {
          "internalType": "address",
          "name": "ownAdd",
          "type": "address"
        }
      ],
      "name": "getHisseInfos",
      "outputs": [
        {
          "components": [
            {
              "internalType": "uint256",
              "name": "pay",
              "type": "uint256"
            },
            {
              "internalType": "uint256",
              "name": "realEstateId",
              "type": "uint256"
            },
            {
              "internalType": "address",
              "name": "ownerAdd",
              "type": "address"
            },
            {
              "internalType": "bool",
              "name": "registered",
              "type": "bool"
            }
          ],
          "internalType": "struct NotaryContractBase.Hisse[]",
          "name": "",
          "type": "tuple[]"
        }
      ],
      "stateMutability": "view",
      "type": "function",
      "constant": true
    }
  ],
  "bytecode": "0x60806040523480156200001157600080fd5b5060405162001e0f38038062001e0f83398181016040528101906200003791906200012a565b806000806101000a81548173ffffffffffffffffffffffffffffffffffffffff021916908373ffffffffffffffffffffffffffffffffffffffff16021790555081600160006101000a81548173ffffffffffffffffffffffffffffffffffffffff021916908373ffffffffffffffffffffffffffffffffffffffff160217905550505062000171565b600080fd5b600073ffffffffffffffffffffffffffffffffffffffff82169050919050565b6000620000f282620000c5565b9050919050565b6200010481620000e5565b81146200011057600080fd5b50565b6000815190506200012481620000f9565b92915050565b60008060408385031215620001445762000143620000c0565b5b6000620001548582860162000113565b9250506020620001678582860162000113565b9150509250929050565b611c8e80620001816000396000f3fe608060405234801561001057600080fd5b50600436106100b45760003560e01c806389642c541161007157806389642c54146101c8578063948c0d8e146101f85780639c3ead7414610228578063a4ddba4e14610258578063af825c9914610274578063d4ad4e9214610290576100b4565b80632a9421fd146100b957806331e0e081146100ec578063505383291461011c57806351fe436a1461014c578063776467981461017c578063794cc53314610198575b600080fd5b6100d360048036038101906100ce91906112c4565b6102c2565b6040516100e3949392919061135c565b60405180910390f35b610106600480360381019061010191906113cd565b61031f565b604051610113919061152b565b60405180910390f35b6101366004803603810190610131919061154d565b610511565b604051610143919061158d565b60405180910390f35b610166600480360381019061016191906113cd565b610542565b604051610173919061158d565b60405180910390f35b610196600480360381019061019191906115a8565b61058e565b005b6101b260048036038101906101ad919061154d565b6108aa565b6040516101bf919061158d565b60405180910390f35b6101e260048036038101906101dd91906115a8565b610910565b6040516101ef91906115e8565b60405180910390f35b610212600480360381019061020d91906112c4565b610a01565b60405161021f9190611658565b60405180910390f35b610242600480360381019061023d91906117cc565b610ab3565b60405161024f919061158d565b60405180910390f35b610272600480360381019061026d9190611828565b610b76565b005b61028e600480360381019061028991906112c4565b61103d565b005b6102aa60048036038101906102a591906112c4565b61104c565b6040516102b99392919061187b565b60405180910390f35b60046020528060005260406000206000915090508060000154908060010154908060020160009054906101000a900473ffffffffffffffffffffffffffffffffffffffff16908060020160149054906101000a900460ff16905084565b60606000600260008473ffffffffffffffffffffffffffffffffffffffff1673ffffffffffffffffffffffffffffffffffffffff1681526020019081526020016000208054806020026020016040519081016040528092919081815260200182805480156103ac57602002820191906000526020600020905b815481526020019060010190808311610398575b505050505090506000815167ffffffffffffffff8111156103d0576103cf611689565b5b60405190808252806020026020018201604052801561040957816020015b6103f66111cb565b8152602001906001900390816103ee5790505b50905060005b8251811015610506576004600084838151811061042f5761042e6118b2565b5b6020026020010151815260200190815260200160002060405180608001604052908160008201548152602001600182015481526020016002820160009054906101000a900473ffffffffffffffffffffffffffffffffffffffff1673ffffffffffffffffffffffffffffffffffffffff1673ffffffffffffffffffffffffffffffffffffffff1681526020016002820160149054906101000a900460ff1615151515815250508282815181106104e8576104e76118b2565b5b602002602001018190525080806104fe90611910565b91505061040f565b508092505050919050565b6002602052816000526040600020818154811061052d57600080fd5b90600052602060002001600091509150505481565b6000600260008373ffffffffffffffffffffffffffffffffffffffff1673ffffffffffffffffffffffffffffffffffffffff168152602001908152602001600020805490509050919050565b60006004600084815260200190815260200160002060405180608001604052908160008201548152602001600182015481526020016002820160009054906101000a900473ffffffffffffffffffffffffffffffffffffffff1673ffffffffffffffffffffffffffffffffffffffff1673ffffffffffffffffffffffffffffffffffffffff1681526020016002820160149054906101000a900460ff16151515158152505090508060600151610679576040517f08c379a0000000000000000000000000000000000000000000000000000000008152600401610670906119b5565b60405180910390fd5b816004600085815260200190815260200160002060020160006101000a81548173ffffffffffffffffffffffffffffffffffffffff021916908373ffffffffffffffffffffffffffffffffffffffff1602179055506000600260003373ffffffffffffffffffffffffffffffffffffffff1673ffffffffffffffffffffffffffffffffffffffff16815260200190815260200160002080548060200260200160405190810160405280929190818152602001828054801561075957602002820191906000526020600020905b815481526020019060010190808311610745575b5050505050905060005b815181101561080257848282815181106107805761077f6118b2565b5b6020026020010151036107ef576000600260003373ffffffffffffffffffffffffffffffffffffffff1673ffffffffffffffffffffffffffffffffffffffff16815260200190815260200160002082815481106107e0576107df6118b2565b5b90600052602060002001819055505b80806107fa90611910565b915050610763565b50600260008473ffffffffffffffffffffffffffffffffffffffff1673ffffffffffffffffffffffffffffffffffffffff1681526020019081526020016000208490806001815401808255809150506001900390600052602060002001600090919091909150557ffc76d50164923258b51ee1079ccd1cf163bdb590fae88254a27a68fc01338db384338560405161089c939291906119d5565b60405180910390a150505050565b6000600260008473ffffffffffffffffffffffffffffffffffffffff1673ffffffffffffffffffffffffffffffffffffffff16815260200190815260200160002082815481106108fd576108fc6118b2565b5b9060005260206000200154905092915050565b6000806004600085815260200190815260200160002060405180608001604052908160008201548152602001600182015481526020016002820160009054906101000a900473ffffffffffffffffffffffffffffffffffffffff1673ffffffffffffffffffffffffffffffffffffffff1673ffffffffffffffffffffffffffffffffffffffff1681526020016002820160149054906101000a900460ff1615151515815250509050806060015180156109f857508273ffffffffffffffffffffffffffffffffffffffff16816040015173ffffffffffffffffffffffffffffffffffffffff16145b91505092915050565b610a096111cb565b6004600083815260200190815260200160002060405180608001604052908160008201548152602001600182015481526020016002820160009054906101000a900473ffffffffffffffffffffffffffffffffffffffff1673ffffffffffffffffffffffffffffffffffffffff1673ffffffffffffffffffffffffffffffffffffffff1681526020016002820160149054906101000a900460ff1615151515815250509050919050565b600080600090505b8251811015610b6a576000838281518110610ad957610ad86118b2565b5b602002602001015190508473ffffffffffffffffffffffffffffffffffffffff166004600083815260200190815260200160002060020160009054906101000a900473ffffffffffffffffffffffffffffffffffffffff1673ffffffffffffffffffffffffffffffffffffffff1603610b56578092505050610b70565b508080610b6290611910565b915050610abb565b50600090505b92915050565b600160009054906101000a900473ffffffffffffffffffffffffffffffffffffffff1673ffffffffffffffffffffffffffffffffffffffff16635a8f6713836040518263ffffffff1660e01b8152600401610bd1919061158d565b602060405180830381865afa158015610bee573d6000803e3d6000fd5b505050506040513d601f19601f82011682018060405250810190610c129190611a38565b610c51576040517f08c379a0000000000000000000000000000000000000000000000000000000008152600401610c4890611ad7565b60405180910390fd5b60006003600084815260200190815260200160002090506000600160009054906101000a900473ffffffffffffffffffffffffffffffffffffffff1673ffffffffffffffffffffffffffffffffffffffff16633c7422df856040518263ffffffff1660e01b8152600401610cc5919061158d565b602060405180830381865afa158015610ce2573d6000803e3d6000fd5b505050506040513d601f19601f82011682018060405250810190610d069190611b0c565b90508160000160009054906101000a900460ff1615610f4d5780838360020154610d309190611b39565b1115610d71576040517f08c379a0000000000000000000000000000000000000000000000000000000008152600401610d6890611c01565b60405180910390fd5b6000610dcf8684600301805480602002602001604051908101604052809291908181526020018280548015610dc557602002820191906000526020600020905b815481526020019060010190808311610db1575b5050505050610ab3565b905060008114610e465783600460008381526020019081526020016000206000016000828254610dff9190611b39565b925050819055507fa535b07ae14ec98ab82ef3c685c41230285069dc563422605395fd18dae8c892858288604051610e3993929190611c21565b60405180910390a1610ebd565b6000610e53858789611083565b9050836003018190806001815401808255809150506001900390600052602060002001600090919091909150557f778bb28ce6a290175f1e03453e3a37af08496ccc1b12ef02a0fe761cdabd810d868289604051610eb393929190611c21565b60405180910390a1505b83836002016000828254610ed19190611b39565b9250508190555082600360008781526020019081526020016000206000820160009054906101000a900460ff168160000160006101000a81548160ff02191690831515021790555060018201548160010155600282015481600201556003820181600301908054610f4392919061120b565b5090505050611036565b80831115610f90576040517f08c379a0000000000000000000000000000000000000000000000000000000008152600401610f8790611c01565b60405180910390fd5b80826001018190555082826002018190555060018260000160006101000a81548160ff0219169083151502179055506000610fcc848688611083565b9050826003018190806001815401808255809150506001900390600052602060002001600090919091909150557f29d7d5587f61e146ad3cfca1aae3910d412e0701ee1b55b46d9d3837f4dc693d85828860405161102c93929190611c21565b60405180910390a1505b5050505050565b61104933826001610b76565b50565b60036020528060005260406000206000915090508060000160009054906101000a900460ff16908060010154908060020154905083565b600080429050600060405180608001604052808781526020018681526020018573ffffffffffffffffffffffffffffffffffffffff1681526020016001151581525090508060046000848152602001908152602001600020600082015181600001556020820151816001015560408201518160020160006101000a81548173ffffffffffffffffffffffffffffffffffffffff021916908373ffffffffffffffffffffffffffffffffffffffff16021790555060608201518160020160146101000a81548160ff021916908315150217905550905050600260008573ffffffffffffffffffffffffffffffffffffffff1673ffffffffffffffffffffffffffffffffffffffff16815260200190815260200160002082908060018154018082558091505060019003906000526020600020016000909190919091505581925050509392505050565b60405180608001604052806000815260200160008152602001600073ffffffffffffffffffffffffffffffffffffffff1681526020016000151581525090565b82805482825590600052602060002090810192821561124c5760005260206000209182015b8281111561124b578254825591600101919060010190611230565b5b509050611259919061125d565b5090565b5b8082111561127657600081600090555060010161125e565b5090565b6000604051905090565b600080fd5b600080fd5b6000819050919050565b6112a18161128e565b81146112ac57600080fd5b50565b6000813590506112be81611298565b92915050565b6000602082840312156112da576112d9611284565b5b60006112e8848285016112af565b91505092915050565b6112fa8161128e565b82525050565b600073ffffffffffffffffffffffffffffffffffffffff82169050919050565b600061132b82611300565b9050919050565b61133b81611320565b82525050565b60008115159050919050565b61135681611341565b82525050565b600060808201905061137160008301876112f1565b61137e60208301866112f1565b61138b6040830185611332565b611398606083018461134d565b95945050505050565b6113aa81611320565b81146113b557600080fd5b50565b6000813590506113c7816113a1565b92915050565b6000602082840312156113e3576113e2611284565b5b60006113f1848285016113b8565b91505092915050565b600081519050919050565b600082825260208201905092915050565b6000819050602082019050919050565b61142f8161128e565b82525050565b61143e81611320565b82525050565b61144d81611341565b82525050565b6080820160008201516114696000850182611426565b50602082015161147c6020850182611426565b50604082015161148f6040850182611435565b5060608201516114a26060850182611444565b50505050565b60006114b48383611453565b60808301905092915050565b6000602082019050919050565b60006114d8826113fa565b6114e28185611405565b93506114ed83611416565b8060005b8381101561151e57815161150588826114a8565b9750611510836114c0565b9250506001810190506114f1565b5085935050505092915050565b6000602082019050818103600083015261154581846114cd565b905092915050565b6000806040838503121561156457611563611284565b5b6000611572858286016113b8565b9250506020611583858286016112af565b9150509250929050565b60006020820190506115a260008301846112f1565b92915050565b600080604083850312156115bf576115be611284565b5b60006115cd858286016112af565b92505060206115de858286016113b8565b9150509250929050565b60006020820190506115fd600083018461134d565b92915050565b6080820160008201516116196000850182611426565b50602082015161162c6020850182611426565b50604082015161163f6040850182611435565b5060608201516116526060850182611444565b50505050565b600060808201905061166d6000830184611603565b92915050565b600080fd5b6000601f19601f8301169050919050565b7f4e487b7100000000000000000000000000000000000000000000000000000000600052604160045260246000fd5b6116c182611678565b810181811067ffffffffffffffff821117156116e0576116df611689565b5b80604052505050565b60006116f361127a565b90506116ff82826116b8565b919050565b600067ffffffffffffffff82111561171f5761171e611689565b5b602082029050602081019050919050565b600080fd5b600061174861174384611704565b6116e9565b9050808382526020820190506020840283018581111561176b5761176a611730565b5b835b81811015611794578061178088826112af565b84526020840193505060208101905061176d565b5050509392505050565b600082601f8301126117b3576117b2611673565b5b81356117c3848260208601611735565b91505092915050565b600080604083850312156117e3576117e2611284565b5b60006117f1858286016113b8565b925050602083013567ffffffffffffffff81111561181257611811611289565b5b61181e8582860161179e565b9150509250929050565b60008060006060848603121561184157611840611284565b5b600061184f868287016113b8565b9350506020611860868287016112af565b9250506040611871868287016112af565b9150509250925092565b6000606082019050611890600083018661134d565b61189d60208301856112f1565b6118aa60408301846112f1565b949350505050565b7f4e487b7100000000000000000000000000000000000000000000000000000000600052603260045260246000fd5b7f4e487b7100000000000000000000000000000000000000000000000000000000600052601160045260246000fd5b600061191b8261128e565b91507fffffffffffffffffffffffffffffffffffffffffffffffffffffffffffffffff820361194d5761194c6118e1565b5b600182019050919050565b600082825260208201905092915050565b7f48697373652062756c756e616d61646900000000000000000000000000000000600082015250565b600061199f601083611958565b91506119aa82611969565b602082019050919050565b600060208201905081810360008301526119ce81611992565b9050919050565b60006060820190506119ea60008301866112f1565b6119f76020830185611332565b611a046040830184611332565b949350505050565b611a1581611341565b8114611a2057600080fd5b50565b600081519050611a3281611a0c565b92915050565b600060208284031215611a4e57611a4d611284565b5b6000611a5c84828501611a23565b91505092915050565b7f5265616c2065737461746520646f6573206e6f7420657869737420696e20746860008201527f652073797374656d000000000000000000000000000000000000000000000000602082015250565b6000611ac1602883611958565b9150611acc82611a65565b604082019050919050565b60006020820190508181036000830152611af081611ab4565b9050919050565b600081519050611b0681611298565b92915050565b600060208284031215611b2257611b21611284565b5b6000611b3084828501611af7565b91505092915050565b6000611b448261128e565b9150611b4f8361128e565b9250827fffffffffffffffffffffffffffffffffffffffffffffffffffffffffffffffff03821115611b8457611b836118e1565b5b828201905092915050565b7f4e6f206d6f7265207368617265686f6c646572732063616e206265206164646560008201527f6420746f20746865207265616c20657374617465000000000000000000000000602082015250565b6000611beb603483611958565b9150611bf682611b8f565b604082019050919050565b60006020820190508181036000830152611c1a81611bde565b9050919050565b6000606082019050611c3660008301866112f1565b611c4360208301856112f1565b611c506040830184611332565b94935050505056fea2646970667358221220cbc70e5fa36c80dcdc3c8b662c2dfb00a5ba9dfc9acd7c1b95401aa73f614afe64736f6c634300080e0033",
  "immutableReferences": {},
  "source": "// SPDX-License-Identifier: UNLICENSED\r\npragma solidity ^0.8.0;\r\n\r\nimport \"./Owner.sol\";\r\nimport \"./RealEstate.sol\";\r\nimport \"./NotaryContractBase.sol\";\r\n\r\ncontract RealEstateOwnerRelation is NotaryContractBase{\r\n    Owner ownerContract;\r\n    RealEstate realEstateContract;\r\n\r\n    mapping(address => uint []) public ownerHisseIdMap;\r\n    \r\n    mapping(uint => RealEstateHisse) public realEstateIdHisseMap;\r\n    mapping(uint => Hisse) public hisseIdHisseMap;\r\n\r\n    event NewHisseAndRealEstateAdded(uint realEstateId, uint hisseId, address owner);\r\n    event OwnerHissePayAdded(uint realEstateId, uint hisseId, address owner);\r\n    event NewHisseAddedToRealEstate(uint realEstateId, uint hisseId, address owner);\r\n    event OwnerShipChanged(uint hiseId, address oldOwner, address newOwner);\r\n    \r\n    constructor(address realEstateContractAdd, address ownerContractAdd)  {\r\n        ownerContract=Owner(ownerContractAdd);\r\n        realEstateContract=RealEstate(realEstateContractAdd);\r\n    }\r\n\r\n    function testOwnerShip(uint realEstateId) public{\r\n        addOwnerShip(msg.sender, realEstateId, 1);        \r\n    }\r\n    \r\n    function addOwnerShip(address ownAdd, uint realEstateId, uint _hisse) public {\r\n        //TODO sadece admin yapabilsin\r\n        //require(ownerContract.isOwnerRegistered(ownAdd), \"Owner does not exist in system\");\r\n        require(realEstateContract.isRealEstateRegisted(realEstateId), \"Real estate does not exist in the system\");   \r\n         \r\n        RealEstateHisse storage realEstateHisse = realEstateIdHisseMap[realEstateId];\r\n        uint payda = realEstateContract.getRealEstatePayda(realEstateId);\r\n        if(realEstateHisse.registered){\r\n            require(realEstateHisse.toplamHisseMiktar + _hisse <= payda, \"No more shareholders can be added to the real estate\");\r\n            uint hisseId = getOwnerHisseId(ownAdd, realEstateHisse.hisseIdList);\r\n            if(hisseId != 0){\r\n                hisseIdHisseMap[hisseId].pay += _hisse;\r\n                emit OwnerHissePayAdded(realEstateId, hisseId, ownAdd);\r\n            }else{\r\n                uint newHisseId=hisseOlustur(_hisse, realEstateId, ownAdd);\r\n                realEstateHisse.hisseIdList.push(newHisseId);\r\n                emit NewHisseAddedToRealEstate(realEstateId, newHisseId, ownAdd);\r\n            }\r\n            realEstateHisse.toplamHisseMiktar += _hisse;\r\n            realEstateIdHisseMap[realEstateId] = realEstateHisse;\r\n        }else{\r\n            require(_hisse <= payda,  \"No more shareholders can be added to the real estate\");\r\n            realEstateHisse.payda = payda;\r\n            realEstateHisse.toplamHisseMiktar= _hisse;\r\n            realEstateHisse.registered =true;\r\n            uint newHisseId=hisseOlustur(_hisse, realEstateId, ownAdd);\r\n            realEstateHisse.hisseIdList.push(newHisseId);\r\n            emit NewHisseAndRealEstateAdded(realEstateId, newHisseId, ownAdd);\r\n        }\r\n        \r\n    }\r\n\r\n    function hisseOlustur(uint _hisse, uint realEstateId, address ownAdd) private returns (uint) {\r\n        uint newHisseId=block.timestamp;\r\n        Hisse memory newHisse = Hisse(_hisse, realEstateId, ownAdd, true);\r\n        hisseIdHisseMap[newHisseId] = newHisse;            \r\n        ownerHisseIdMap[ownAdd].push(newHisseId);   \r\n        return newHisseId;\r\n    }\r\n\r\n    function getOwnerHisseId(address ownAdd, uint[] memory hisseIdList) public view returns(uint) {\r\n        for(uint i = 0; i< hisseIdList.length; i++){\r\n            uint hisseId = hisseIdList[i];\r\n            if(hisseIdHisseMap[hisseId].ownerAdd == ownAdd){\r\n                return hisseId;\r\n            }\r\n        }\r\n        return 0;\r\n    }\r\n\r\n    function changeOwnerShip(uint hisseId, address newOwner) public {\r\n        Hisse memory hisse  = hisseIdHisseMap[hisseId];\r\n        require(hisse.registered, \"Hisse bulunamadi\");\r\n        //islem yapan admin mi\r\n\r\n        hisseIdHisseMap[hisseId].ownerAdd = newOwner;\r\n        \r\n        uint[] memory hisseIdList = ownerHisseIdMap[msg.sender];\r\n        for(uint i = 0; i<hisseIdList.length; i++){\r\n            if(hisseIdList[i] == hisseId){\r\n                ownerHisseIdMap[msg.sender][i] = 0;\r\n            } \r\n        }\r\n        ownerHisseIdMap[newOwner].push(hisseId);\r\n        \r\n        emit OwnerShipChanged(hisseId, msg.sender, newOwner);\r\n    }\r\n\r\n    function hisseSatisaCikabilirMi(uint hisseId, address ownAdd) public view returns(bool){\r\n        Hisse memory hisse  = hisseIdHisseMap[hisseId];\r\n        return hisse.registered && hisse.ownerAdd == ownAdd;\r\n    }\r\n\r\n    function getOwnerHisseId(address ownAdd, uint index) public view returns(uint){\r\n        return ownerHisseIdMap[ownAdd][index];\r\n    }\r\n\r\n    function getOwnerHisseLength(address ownAdd) public view returns(uint){\r\n        return ownerHisseIdMap[ownAdd].length;\r\n    }\r\n\r\n    function getHisse(uint hisseId) public view returns(Hisse memory){\r\n        return hisseIdHisseMap[hisseId];\r\n    }\r\n\r\n    function getHisseInfos(address ownAdd) public view returns (Hisse[] memory){\r\n           uint [] memory hisseIds = ownerHisseIdMap[ownAdd];\r\n           Hisse [] memory result = new Hisse[](hisseIds.length);\r\n           for(uint i = 0; i< hisseIds.length; i++){\r\n               result[i] = hisseIdHisseMap[hisseIds[i]];\r\n           }\r\n           return result;            \r\n    }\r\n\r\n}",
  "sourcePath": "D:\\Ethereum Projects\\DAWithEth\\truffle-project\\contracts\\RealEstateOwnerRelation.sol",
  "compiler": {
    "name": "solc",
    "version": "0.8.14+commit.80d49f37.Emscripten.clang"
  },
  "schemaVersion": "3.4.11",
  "updatedAt": "2023-01-09T20:03:17.709Z",
  "networkType": "ethereum",
  "devdoc": {
    "kind": "dev",
    "methods": {},
    "version": 1
  },
  "userdoc": {
    "kind": "user",
    "methods": {},
    "version": 1
  }
}