{
  "contractName": "RealEstate",
  "abi": [
    {
      "inputs": [
        {
          "internalType": "string",
          "name": "mahalle",
          "type": "string"
        },
        {
          "internalType": "uint256",
          "name": "payda",
          "type": "uint256"
        }
      ],
      "name": "addRealEstate",
      "outputs": [],
      "stateMutability": "nonpayable",
      "type": "function"
    },
    {
      "inputs": [
        {
          "internalType": "uint256",
          "name": "realEstateId",
          "type": "uint256"
        }
      ],
      "name": "isRealEstateRegisted",
      "outputs": [
        {
          "internalType": "bool",
          "name": "",
          "type": "bool"
        }
      ],
      "stateMutability": "view",
      "type": "function",
      "constant": true
    },
    {
      "inputs": [
        {
          "internalType": "uint256",
          "name": "realEstateId",
          "type": "uint256"
        }
      ],
      "name": "getRealEstatePayda",
      "outputs": [
        {
          "internalType": "uint256",
          "name": "",
          "type": "uint256"
        }
      ],
      "stateMutability": "view",
      "type": "function",
      "constant": true
    },
    {
      "inputs": [
        {
          "internalType": "uint256",
          "name": "realEstateId",
          "type": "uint256"
        }
      ],
      "name": "getRealEstateInfo",
      "outputs": [
        {
          "components": [
            {
              "internalType": "uint256",
              "name": "realEstateId",
              "type": "uint256"
            },
            {
              "internalType": "string",
              "name": "mahalle",
              "type": "string"
            },
            {
              "internalType": "uint256",
              "name": "payda",
              "type": "uint256"
            },
            {
              "internalType": "bool",
              "name": "registered",
              "type": "bool"
            }
          ],
          "internalType": "struct NotaryContractBase.RealEstateData",
          "name": "",
          "type": "tuple"
        }
      ],
      "stateMutability": "view",
      "type": "function",
      "constant": true
    },
    {
      "inputs": [
        {
          "internalType": "string",
          "name": "mahalle",
          "type": "string"
        }
      ],
      "name": "getId",
      "outputs": [
        {
          "internalType": "uint256",
          "name": "",
          "type": "uint256"
        }
      ],
      "stateMutability": "pure",
      "type": "function",
      "constant": true
    }
  ],
  "bytecode": "0x608060405234801561001057600080fd5b50610877806100206000396000f3fe608060405234801561001057600080fd5b50600436106100575760003560e01c80633c7422df1461005c5780635a8f67131461008c578063969430e2146100bc5780639f8188b3146100d8578063bee51f3b14610108575b600080fd5b6100766004803603810190610071919061043e565b610138565b604051610083919061047a565b60405180910390f35b6100a660048036038101906100a1919061043e565b610157565b6040516100b391906104b0565b60405180910390f35b6100d660048036038101906100d19190610611565b610183565b005b6100f260048036038101906100ed919061043e565b610221565b6040516100ff9190610776565b60405180910390f35b610122600480360381019061011d9190610798565b61030e565b60405161012f919061047a565b60405180910390f35b6000806000838152602001908152602001600020600201549050919050565b600080600083815260200190815260200160002060030160009054906101000a900460ff169050919050565b6000828051906020012060001c90506040518060800160405280828152602001848152602001838152602001600115158152506000808381526020019081526020016000206000820151816000015560208201518160010190805190602001906101ee929190610327565b506040820151816002015560608201518160030160006101000a81548160ff021916908315150217905550905050505050565b6102296103ad565b6000808381526020019081526020016000206040518060800160405290816000820154815260200160018201805461026090610810565b80601f016020809104026020016040519081016040528092919081815260200182805461028c90610810565b80156102d95780601f106102ae576101008083540402835291602001916102d9565b820191906000526020600020905b8154815290600101906020018083116102bc57829003601f168201915b50505050508152602001600282015481526020016003820160009054906101000a900460ff1615151515815250509050919050565b600080828051906020012060001c905080915050919050565b82805461033390610810565b90600052602060002090601f016020900481019282610355576000855561039c565b82601f1061036e57805160ff191683800117855561039c565b8280016001018555821561039c579182015b8281111561039b578251825591602001919060010190610380565b5b5090506103a991906103d7565b5090565b60405180608001604052806000815260200160608152602001600081526020016000151581525090565b5b808211156103f05760008160009055506001016103d8565b5090565b6000604051905090565b600080fd5b600080fd5b6000819050919050565b61041b81610408565b811461042657600080fd5b50565b60008135905061043881610412565b92915050565b600060208284031215610454576104536103fe565b5b600061046284828501610429565b91505092915050565b61047481610408565b82525050565b600060208201905061048f600083018461046b565b92915050565b60008115159050919050565b6104aa81610495565b82525050565b60006020820190506104c560008301846104a1565b92915050565b600080fd5b600080fd5b6000601f19601f8301169050919050565b7f4e487b7100000000000000000000000000000000000000000000000000000000600052604160045260246000fd5b61051e826104d5565b810181811067ffffffffffffffff8211171561053d5761053c6104e6565b5b80604052505050565b60006105506103f4565b905061055c8282610515565b919050565b600067ffffffffffffffff82111561057c5761057b6104e6565b5b610585826104d5565b9050602081019050919050565b82818337600083830152505050565b60006105b46105af84610561565b610546565b9050828152602081018484840111156105d0576105cf6104d0565b5b6105db848285610592565b509392505050565b600082601f8301126105f8576105f76104cb565b5b81356106088482602086016105a1565b91505092915050565b60008060408385031215610628576106276103fe565b5b600083013567ffffffffffffffff81111561064657610645610403565b5b610652858286016105e3565b925050602061066385828601610429565b9150509250929050565b61067681610408565b82525050565b600081519050919050565b600082825260208201905092915050565b60005b838110156106b657808201518184015260208101905061069b565b838111156106c5576000848401525b50505050565b60006106d68261067c565b6106e08185610687565b93506106f0818560208601610698565b6106f9816104d5565b840191505092915050565b61070d81610495565b82525050565b600060808301600083015161072b600086018261066d565b506020830151848203602086015261074382826106cb565b9150506040830151610758604086018261066d565b50606083015161076b6060860182610704565b508091505092915050565b600060208201905081810360008301526107908184610713565b905092915050565b6000602082840312156107ae576107ad6103fe565b5b600082013567ffffffffffffffff8111156107cc576107cb610403565b5b6107d8848285016105e3565b91505092915050565b7f4e487b7100000000000000000000000000000000000000000000000000000000600052602260045260246000fd5b6000600282049050600182168061082857607f821691505b60208210810361083b5761083a6107e1565b5b5091905056fea26469706673582212202212de40b0ec09530cde869b482600cd4877c5fc546f5cea68c9736103dd642e64736f6c634300080e0033",
  "immutableReferences": {},
  "source": "// SPDX-License-Identifier: UNLICENSED\r\npragma solidity ^0.8.0;\r\n\r\nimport \"./NotaryContractBase.sol\";\r\n\r\ncontract RealEstate is NotaryContractBase {\r\n\r\n    mapping(uint => RealEstateData) realEstateMap; \r\n   \r\n    function addRealEstate(string memory mahalle, uint payda) public{\r\n        uint realEstateId=uint(keccak256(bytes(mahalle))); //TODO bilgilerin daha nceden olmadn kontrol et\r\n        realEstateMap[realEstateId] = RealEstateData(realEstateId, mahalle, payda, true);\r\n    }\r\n\r\n    function isRealEstateRegisted(uint realEstateId) public view returns(bool){\r\n        return realEstateMap[realEstateId].registered;\r\n    }\r\n  \r\n    function getRealEstatePayda(uint realEstateId) public view returns(uint){\r\n        return realEstateMap[realEstateId].payda;\r\n    }\r\n\r\n    function getRealEstateInfo(uint realEstateId) public view returns(RealEstateData memory) {\r\n        return realEstateMap[realEstateId];\r\n    }\r\n\r\n    function getId(string memory mahalle) public pure returns(uint){\r\n        uint realEstateId=uint(keccak256(bytes(mahalle)));\r\n        return realEstateId;\r\n    }\r\n    \r\n}",
  "sourcePath": "D:\\Ethereum Projects\\DAWithEth\\truffle-project\\contracts\\RealEstate.sol",
  "compiler": {
    "name": "solc",
    "version": "0.8.14+commit.80d49f37.Emscripten.clang"
  },
  "schemaVersion": "3.4.11",
  "updatedAt": "2023-01-14T14:19:42.994Z",
  "networkType": "ethereum",
  "devdoc": {
    "kind": "dev",
    "methods": {},
    "version": 1
  },
  "userdoc": {
    "kind": "user",
    "methods": {},
    "version": 1
  }
}