{
  "contractName": "RealEstate",
  "abi": [
    {
      "anonymous": false,
      "inputs": [
        {
          "indexed": false,
          "internalType": "uint256",
          "name": "realEstateId",
          "type": "uint256"
        }
      ],
      "name": "RealEstateAddedToSystem",
      "type": "event"
    },
    {
      "inputs": [
        {
          "components": [
            {
              "internalType": "uint256",
              "name": "realEstateId",
              "type": "uint256"
            },
            {
              "internalType": "string",
              "name": "il",
              "type": "string"
            },
            {
              "internalType": "string",
              "name": "ilce",
              "type": "string"
            },
            {
              "internalType": "string",
              "name": "mahalle",
              "type": "string"
            },
            {
              "internalType": "string",
              "name": "cadde",
              "type": "string"
            },
            {
              "internalType": "string",
              "name": "sokak",
              "type": "string"
            },
            {
              "internalType": "uint256",
              "name": "kat",
              "type": "uint256"
            },
            {
              "internalType": "string",
              "name": "daireNo",
              "type": "string"
            },
            {
              "internalType": "string",
              "name": "tasinmazTip",
              "type": "string"
            },
            {
              "internalType": "string",
              "name": "nitelik",
              "type": "string"
            },
            {
              "internalType": "string",
              "name": "ada",
              "type": "string"
            },
            {
              "internalType": "string",
              "name": "parsel",
              "type": "string"
            },
            {
              "internalType": "uint256",
              "name": "payda",
              "type": "uint256"
            },
            {
              "internalType": "bool",
              "name": "registered",
              "type": "bool"
            }
          ],
          "internalType": "struct NotaryContractBase.RealEstateData",
          "name": "reData",
          "type": "tuple"
        }
      ],
      "name": "addRealEstate",
      "outputs": [],
      "stateMutability": "nonpayable",
      "type": "function"
    },
    {
      "inputs": [],
      "name": "listAllRealestate",
      "outputs": [
        {
          "components": [
            {
              "internalType": "uint256",
              "name": "realEstateId",
              "type": "uint256"
            },
            {
              "internalType": "string",
              "name": "il",
              "type": "string"
            },
            {
              "internalType": "string",
              "name": "ilce",
              "type": "string"
            },
            {
              "internalType": "string",
              "name": "mahalle",
              "type": "string"
            },
            {
              "internalType": "string",
              "name": "cadde",
              "type": "string"
            },
            {
              "internalType": "string",
              "name": "sokak",
              "type": "string"
            },
            {
              "internalType": "uint256",
              "name": "kat",
              "type": "uint256"
            },
            {
              "internalType": "string",
              "name": "daireNo",
              "type": "string"
            },
            {
              "internalType": "string",
              "name": "tasinmazTip",
              "type": "string"
            },
            {
              "internalType": "string",
              "name": "nitelik",
              "type": "string"
            },
            {
              "internalType": "string",
              "name": "ada",
              "type": "string"
            },
            {
              "internalType": "string",
              "name": "parsel",
              "type": "string"
            },
            {
              "internalType": "uint256",
              "name": "payda",
              "type": "uint256"
            },
            {
              "internalType": "bool",
              "name": "registered",
              "type": "bool"
            }
          ],
          "internalType": "struct NotaryContractBase.RealEstateData[]",
          "name": "",
          "type": "tuple[]"
        }
      ],
      "stateMutability": "view",
      "type": "function",
      "constant": true
    },
    {
      "inputs": [],
      "name": "getRealEstateLUT",
      "outputs": [
        {
          "internalType": "uint256[]",
          "name": "",
          "type": "uint256[]"
        }
      ],
      "stateMutability": "view",
      "type": "function",
      "constant": true
    },
    {
      "inputs": [
        {
          "internalType": "uint256",
          "name": "realEstateId",
          "type": "uint256"
        }
      ],
      "name": "isRealEstateRegisted",
      "outputs": [
        {
          "internalType": "bool",
          "name": "",
          "type": "bool"
        }
      ],
      "stateMutability": "view",
      "type": "function",
      "constant": true
    },
    {
      "inputs": [
        {
          "internalType": "uint256",
          "name": "realEstateId",
          "type": "uint256"
        }
      ],
      "name": "getRealEstatePayda",
      "outputs": [
        {
          "internalType": "uint256",
          "name": "",
          "type": "uint256"
        }
      ],
      "stateMutability": "view",
      "type": "function",
      "constant": true
    },
    {
      "inputs": [
        {
          "internalType": "uint256",
          "name": "realEstateId",
          "type": "uint256"
        }
      ],
      "name": "getRealEstateInfo",
      "outputs": [
        {
          "components": [
            {
              "internalType": "uint256",
              "name": "realEstateId",
              "type": "uint256"
            },
            {
              "internalType": "string",
              "name": "il",
              "type": "string"
            },
            {
              "internalType": "string",
              "name": "ilce",
              "type": "string"
            },
            {
              "internalType": "string",
              "name": "mahalle",
              "type": "string"
            },
            {
              "internalType": "string",
              "name": "cadde",
              "type": "string"
            },
            {
              "internalType": "string",
              "name": "sokak",
              "type": "string"
            },
            {
              "internalType": "uint256",
              "name": "kat",
              "type": "uint256"
            },
            {
              "internalType": "string",
              "name": "daireNo",
              "type": "string"
            },
            {
              "internalType": "string",
              "name": "tasinmazTip",
              "type": "string"
            },
            {
              "internalType": "string",
              "name": "nitelik",
              "type": "string"
            },
            {
              "internalType": "string",
              "name": "ada",
              "type": "string"
            },
            {
              "internalType": "string",
              "name": "parsel",
              "type": "string"
            },
            {
              "internalType": "uint256",
              "name": "payda",
              "type": "uint256"
            },
            {
              "internalType": "bool",
              "name": "registered",
              "type": "bool"
            }
          ],
          "internalType": "struct NotaryContractBase.RealEstateData",
          "name": "",
          "type": "tuple"
        }
      ],
      "stateMutability": "view",
      "type": "function",
      "constant": true
    },
    {
      "inputs": [
        {
          "components": [
            {
              "internalType": "uint256",
              "name": "realEstateId",
              "type": "uint256"
            },
            {
              "internalType": "string",
              "name": "il",
              "type": "string"
            },
            {
              "internalType": "string",
              "name": "ilce",
              "type": "string"
            },
            {
              "internalType": "string",
              "name": "mahalle",
              "type": "string"
            },
            {
              "internalType": "string",
              "name": "cadde",
              "type": "string"
            },
            {
              "internalType": "string",
              "name": "sokak",
              "type": "string"
            },
            {
              "internalType": "uint256",
              "name": "kat",
              "type": "uint256"
            },
            {
              "internalType": "string",
              "name": "daireNo",
              "type": "string"
            },
            {
              "internalType": "string",
              "name": "tasinmazTip",
              "type": "string"
            },
            {
              "internalType": "string",
              "name": "nitelik",
              "type": "string"
            },
            {
              "internalType": "string",
              "name": "ada",
              "type": "string"
            },
            {
              "internalType": "string",
              "name": "parsel",
              "type": "string"
            },
            {
              "internalType": "uint256",
              "name": "payda",
              "type": "uint256"
            },
            {
              "internalType": "bool",
              "name": "registered",
              "type": "bool"
            }
          ],
          "internalType": "struct NotaryContractBase.RealEstateData",
          "name": "reData",
          "type": "tuple"
        }
      ],
      "name": "hashRealEstate",
      "outputs": [
        {
          "internalType": "uint256",
          "name": "",
          "type": "uint256"
        }
      ],
      "stateMutability": "pure",
      "type": "function",
      "constant": true
    },
    {
      "inputs": [
        {
          "components": [
            {
              "internalType": "uint256",
              "name": "realEstateId",
              "type": "uint256"
            },
            {
              "internalType": "string",
              "name": "il",
              "type": "string"
            },
            {
              "internalType": "string",
              "name": "ilce",
              "type": "string"
            },
            {
              "internalType": "string",
              "name": "mahalle",
              "type": "string"
            },
            {
              "internalType": "string",
              "name": "cadde",
              "type": "string"
            },
            {
              "internalType": "string",
              "name": "sokak",
              "type": "string"
            },
            {
              "internalType": "uint256",
              "name": "kat",
              "type": "uint256"
            },
            {
              "internalType": "string",
              "name": "daireNo",
              "type": "string"
            },
            {
              "internalType": "string",
              "name": "tasinmazTip",
              "type": "string"
            },
            {
              "internalType": "string",
              "name": "nitelik",
              "type": "string"
            },
            {
              "internalType": "string",
              "name": "ada",
              "type": "string"
            },
            {
              "internalType": "string",
              "name": "parsel",
              "type": "string"
            },
            {
              "internalType": "uint256",
              "name": "payda",
              "type": "uint256"
            },
            {
              "internalType": "bool",
              "name": "registered",
              "type": "bool"
            }
          ],
          "internalType": "struct NotaryContractBase.RealEstateData",
          "name": "reData",
          "type": "tuple"
        }
      ],
      "name": "getId",
      "outputs": [
        {
          "internalType": "uint256",
          "name": "",
          "type": "uint256"
        }
      ],
      "stateMutability": "view",
      "type": "function",
      "constant": true
    }
  ],
  "bytecode": "0x608060405234801561001057600080fd5b50611fd3806100206000396000f3fe608060405234801561001057600080fd5b50600436106100885760003560e01c80635a8f67131161005b5780635a8f6713146101295780639f8188b314610159578063d87e42b214610189578063fcf38353146101b957610088565b806319042c491461008d5780631c0a9b64146100ab5780632bff1fbd146100c95780633c7422df146100f9575b600080fd5b6100956101d5565b6040516100a29190611640565b60405180910390f35b6100b36108a6565b6040516100c09190611711565b60405180910390f35b6100e360048036038101906100de9190611b44565b6108fe565b6040516100f09190611b9c565b60405180910390f35b610113600480360381019061010e9190611bb7565b61097a565b6040516101209190611b9c565b60405180910390f35b610143600480360381019061013e9190611bb7565b610999565b6040516101509190611bf3565b60405180910390f35b610173600480360381019061016e9190611bb7565b6109c5565b6040516101809190611d7b565b60405180910390f35b6101a3600480360381019061019e9190611b44565b610fdf565b6040516101b09190611b9c565b60405180910390f35b6101d360048036038101906101ce9190611b44565b611009565b005b6060600060028054905067ffffffffffffffff8111156101f8576101f761174c565b5b60405190808252806020026020018201604052801561023157816020015b61021e611230565b8152602001906001900390816102165790505b50905060005b60028054905081101561089e576000806002838154811061025b5761025a611d9d565b5b90600052602060002001548152602001908152602001600020604051806101c00160405290816000820154815260200160018201805461029a90611dfb565b80601f01602080910402602001604051908101604052809291908181526020018280546102c690611dfb565b80156103135780601f106102e857610100808354040283529160200191610313565b820191906000526020600020905b8154815290600101906020018083116102f657829003601f168201915b5050505050815260200160028201805461032c90611dfb565b80601f016020809104026020016040519081016040528092919081815260200182805461035890611dfb565b80156103a55780601f1061037a576101008083540402835291602001916103a5565b820191906000526020600020905b81548152906001019060200180831161038857829003601f168201915b505050505081526020016003820180546103be90611dfb565b80601f01602080910402602001604051908101604052809291908181526020018280546103ea90611dfb565b80156104375780601f1061040c57610100808354040283529160200191610437565b820191906000526020600020905b81548152906001019060200180831161041a57829003601f168201915b5050505050815260200160048201805461045090611dfb565b80601f016020809104026020016040519081016040528092919081815260200182805461047c90611dfb565b80156104c95780601f1061049e576101008083540402835291602001916104c9565b820191906000526020600020905b8154815290600101906020018083116104ac57829003601f168201915b505050505081526020016005820180546104e290611dfb565b80601f016020809104026020016040519081016040528092919081815260200182805461050e90611dfb565b801561055b5780601f106105305761010080835404028352916020019161055b565b820191906000526020600020905b81548152906001019060200180831161053e57829003601f168201915b505050505081526020016006820154815260200160078201805461057e90611dfb565b80601f01602080910402602001604051908101604052809291908181526020018280546105aa90611dfb565b80156105f75780601f106105cc576101008083540402835291602001916105f7565b820191906000526020600020905b8154815290600101906020018083116105da57829003601f168201915b5050505050815260200160088201805461061090611dfb565b80601f016020809104026020016040519081016040528092919081815260200182805461063c90611dfb565b80156106895780601f1061065e57610100808354040283529160200191610689565b820191906000526020600020905b81548152906001019060200180831161066c57829003601f168201915b505050505081526020016009820180546106a290611dfb565b80601f01602080910402602001604051908101604052809291908181526020018280546106ce90611dfb565b801561071b5780601f106106f05761010080835404028352916020019161071b565b820191906000526020600020905b8154815290600101906020018083116106fe57829003601f168201915b50505050508152602001600a8201805461073490611dfb565b80601f016020809104026020016040519081016040528092919081815260200182805461076090611dfb565b80156107ad5780601f10610782576101008083540402835291602001916107ad565b820191906000526020600020905b81548152906001019060200180831161079057829003601f168201915b50505050508152602001600b820180546107c690611dfb565b80601f01602080910402602001604051908101604052809291908181526020018280546107f290611dfb565b801561083f5780601f106108145761010080835404028352916020019161083f565b820191906000526020600020905b81548152906001019060200180831161082257829003601f168201915b50505050508152602001600c8201548152602001600d820160009054906101000a900460ff1615151515815250508282815181106108805761087f611d9d565b5b6020026020010181905250808061089690611e5b565b915050610237565b508091505090565b606060028054806020026020016040519081016040528092919081815260200182805480156108f457602002820191906000526020600020905b8154815260200190600101908083116108e0575b5050505050905090565b60008082602001518360400151846060015185608001518660a001518760c001518860e001518961010001518a61012001518b61014001518c61016001516040516020016109569b9a99989796959493929190611f00565b6040516020818303038152906040528051906020012060001c905080915050919050565b6000806000838152602001908152602001600020600c01549050919050565b6000806000838152602001908152602001600020600d0160009054906101000a900460ff169050919050565b6109cd611230565b600080838152602001908152602001600020604051806101c001604052908160008201548152602001600182018054610a0590611dfb565b80601f0160208091040260200160405190810160405280929190818152602001828054610a3190611dfb565b8015610a7e5780601f10610a5357610100808354040283529160200191610a7e565b820191906000526020600020905b815481529060010190602001808311610a6157829003601f168201915b50505050508152602001600282018054610a9790611dfb565b80601f0160208091040260200160405190810160405280929190818152602001828054610ac390611dfb565b8015610b105780601f10610ae557610100808354040283529160200191610b10565b820191906000526020600020905b815481529060010190602001808311610af357829003601f168201915b50505050508152602001600382018054610b2990611dfb565b80601f0160208091040260200160405190810160405280929190818152602001828054610b5590611dfb565b8015610ba25780601f10610b7757610100808354040283529160200191610ba2565b820191906000526020600020905b815481529060010190602001808311610b8557829003601f168201915b50505050508152602001600482018054610bbb90611dfb565b80601f0160208091040260200160405190810160405280929190818152602001828054610be790611dfb565b8015610c345780601f10610c0957610100808354040283529160200191610c34565b820191906000526020600020905b815481529060010190602001808311610c1757829003601f168201915b50505050508152602001600582018054610c4d90611dfb565b80601f0160208091040260200160405190810160405280929190818152602001828054610c7990611dfb565b8015610cc65780601f10610c9b57610100808354040283529160200191610cc6565b820191906000526020600020905b815481529060010190602001808311610ca957829003601f168201915b5050505050815260200160068201548152602001600782018054610ce990611dfb565b80601f0160208091040260200160405190810160405280929190818152602001828054610d1590611dfb565b8015610d625780601f10610d3757610100808354040283529160200191610d62565b820191906000526020600020905b815481529060010190602001808311610d4557829003601f168201915b50505050508152602001600882018054610d7b90611dfb565b80601f0160208091040260200160405190810160405280929190818152602001828054610da790611dfb565b8015610df45780601f10610dc957610100808354040283529160200191610df4565b820191906000526020600020905b815481529060010190602001808311610dd757829003601f168201915b50505050508152602001600982018054610e0d90611dfb565b80601f0160208091040260200160405190810160405280929190818152602001828054610e3990611dfb565b8015610e865780601f10610e5b57610100808354040283529160200191610e86565b820191906000526020600020905b815481529060010190602001808311610e6957829003601f168201915b50505050508152602001600a82018054610e9f90611dfb565b80601f0160208091040260200160405190810160405280929190818152602001828054610ecb90611dfb565b8015610f185780601f10610eed57610100808354040283529160200191610f18565b820191906000526020600020905b815481529060010190602001808311610efb57829003601f168201915b50505050508152602001600b82018054610f3190611dfb565b80601f0160208091040260200160405190810160405280929190818152602001828054610f5d90611dfb565b8015610faa5780601f10610f7f57610100808354040283529160200191610faa565b820191906000526020600020905b815481529060010190602001808311610f8d57829003601f168201915b50505050508152602001600c8201548152602001600d820160009054906101000a900460ff1615151515815250509050919050565b600080610feb836108fe565b90506001600082815260200190815260200160002054915050919050565b6000611014826108fe565b905060004290506001836101a001901515908115158152505081836000018181525050806001600084815260200190815260200160002081905550826000808381526020019081526020016000206000820151816000015560208201518160010190805190602001906110889291906112a1565b5060408201518160020190805190602001906110a59291906112a1565b5060608201518160030190805190602001906110c29291906112a1565b5060808201518160040190805190602001906110df9291906112a1565b5060a08201518160050190805190602001906110fc9291906112a1565b5060c0820151816006015560e08201518160070190805190602001906111239291906112a1565b506101008201518160080190805190602001906111419291906112a1565b5061012082015181600901908051906020019061115f9291906112a1565b5061014082015181600a01908051906020019061117d9291906112a1565b5061016082015181600b01908051906020019061119b9291906112a1565b5061018082015181600c01556101a082015181600d0160006101000a81548160ff02191690831515021790555090505060028190806001815401808255809150506001900390600052602060002001600090919091909150557f32a7577073dfad8d9bbd4b015b681bbd8aa3850e0aa3b900ae08c423cf407a51816040516112239190611b9c565b60405180910390a1505050565b604051806101c00160405280600081526020016060815260200160608152602001606081526020016060815260200160608152602001600081526020016060815260200160608152602001606081526020016060815260200160608152602001600081526020016000151581525090565b8280546112ad90611dfb565b90600052602060002090601f0160209004810192826112cf5760008555611316565b82601f106112e857805160ff1916838001178555611316565b82800160010185558215611316579182015b828111156113155782518255916020019190600101906112fa565b5b5090506113239190611327565b5090565b5b80821115611340576000816000905550600101611328565b5090565b600081519050919050565b600082825260208201905092915050565b6000819050602082019050919050565b6000819050919050565b61138381611370565b82525050565b600081519050919050565b600082825260208201905092915050565b60005b838110156113c35780820151818401526020810190506113a8565b838111156113d2576000848401525b50505050565b6000601f19601f8301169050919050565b60006113f482611389565b6113fe8185611394565b935061140e8185602086016113a5565b611417816113d8565b840191505092915050565b60008115159050919050565b61143781611422565b82525050565b60006101c083016000830151611456600086018261137a565b506020830151848203602086015261146e82826113e9565b9150506040830151848203604086015261148882826113e9565b915050606083015184820360608601526114a282826113e9565b915050608083015184820360808601526114bc82826113e9565b91505060a083015184820360a08601526114d682826113e9565b91505060c08301516114eb60c086018261137a565b5060e083015184820360e086015261150382826113e9565b91505061010083015184820361010086015261151f82826113e9565b91505061012083015184820361012086015261153b82826113e9565b91505061014083015184820361014086015261155782826113e9565b91505061016083015184820361016086015261157382826113e9565b91505061018083015161158a61018086018261137a565b506101a083015161159f6101a086018261142e565b508091505092915050565b60006115b6838361143d565b905092915050565b6000602082019050919050565b60006115d682611344565b6115e0818561134f565b9350836020820285016115f285611360565b8060005b8581101561162e578484038952815161160f85826115aa565b945061161a836115be565b925060208a019950506001810190506115f6565b50829750879550505050505092915050565b6000602082019050818103600083015261165a81846115cb565b905092915050565b600081519050919050565b600082825260208201905092915050565b6000819050602082019050919050565b600061169a838361137a565b60208301905092915050565b6000602082019050919050565b60006116be82611662565b6116c8818561166d565b93506116d38361167e565b8060005b838110156117045781516116eb888261168e565b97506116f6836116a6565b9250506001810190506116d7565b5085935050505092915050565b6000602082019050818103600083015261172b81846116b3565b905092915050565b6000604051905090565b600080fd5b600080fd5b600080fd5b7f4e487b7100000000000000000000000000000000000000000000000000000000600052604160045260246000fd5b611784826113d8565b810181811067ffffffffffffffff821117156117a3576117a261174c565b5b80604052505050565b60006117b6611733565b90506117c2828261177b565b919050565b600080fd5b6117d581611370565b81146117e057600080fd5b50565b6000813590506117f2816117cc565b92915050565b600080fd5b600080fd5b600067ffffffffffffffff82111561181d5761181c61174c565b5b611826826113d8565b9050602081019050919050565b82818337600083830152505050565b600061185561185084611802565b6117ac565b905082815260208101848484011115611871576118706117fd565b5b61187c848285611833565b509392505050565b600082601f830112611899576118986117f8565b5b81356118a9848260208601611842565b91505092915050565b6118bb81611422565b81146118c657600080fd5b50565b6000813590506118d8816118b2565b92915050565b60006101c082840312156118f5576118f4611747565b5b6119006101c06117ac565b90506000611910848285016117e3565b600083015250602082013567ffffffffffffffff811115611934576119336117c7565b5b61194084828501611884565b602083015250604082013567ffffffffffffffff811115611964576119636117c7565b5b61197084828501611884565b604083015250606082013567ffffffffffffffff811115611994576119936117c7565b5b6119a084828501611884565b606083015250608082013567ffffffffffffffff8111156119c4576119c36117c7565b5b6119d084828501611884565b60808301525060a082013567ffffffffffffffff8111156119f4576119f36117c7565b5b611a0084828501611884565b60a08301525060c0611a14848285016117e3565b60c08301525060e082013567ffffffffffffffff811115611a3857611a376117c7565b5b611a4484828501611884565b60e08301525061010082013567ffffffffffffffff811115611a6957611a686117c7565b5b611a7584828501611884565b6101008301525061012082013567ffffffffffffffff811115611a9b57611a9a6117c7565b5b611aa784828501611884565b6101208301525061014082013567ffffffffffffffff811115611acd57611acc6117c7565b5b611ad984828501611884565b6101408301525061016082013567ffffffffffffffff811115611aff57611afe6117c7565b5b611b0b84828501611884565b61016083015250610180611b21848285016117e3565b610180830152506101a0611b37848285016118c9565b6101a08301525092915050565b600060208284031215611b5a57611b5961173d565b5b600082013567ffffffffffffffff811115611b7857611b77611742565b5b611b84848285016118de565b91505092915050565b611b9681611370565b82525050565b6000602082019050611bb16000830184611b8d565b92915050565b600060208284031215611bcd57611bcc61173d565b5b6000611bdb848285016117e3565b91505092915050565b611bed81611422565b82525050565b6000602082019050611c086000830184611be4565b92915050565b60006101c083016000830151611c27600086018261137a565b5060208301518482036020860152611c3f82826113e9565b91505060408301518482036040860152611c5982826113e9565b91505060608301518482036060860152611c7382826113e9565b91505060808301518482036080860152611c8d82826113e9565b91505060a083015184820360a0860152611ca782826113e9565b91505060c0830151611cbc60c086018261137a565b5060e083015184820360e0860152611cd482826113e9565b915050610100830151848203610100860152611cf082826113e9565b915050610120830151848203610120860152611d0c82826113e9565b915050610140830151848203610140860152611d2882826113e9565b915050610160830151848203610160860152611d4482826113e9565b915050610180830151611d5b61018086018261137a565b506101a0830151611d706101a086018261142e565b508091505092915050565b60006020820190508181036000830152611d958184611c0e565b905092915050565b7f4e487b7100000000000000000000000000000000000000000000000000000000600052603260045260246000fd5b7f4e487b7100000000000000000000000000000000000000000000000000000000600052602260045260246000fd5b60006002820490506001821680611e1357607f821691505b602082108103611e2657611e25611dcc565b5b50919050565b7f4e487b7100000000000000000000000000000000000000000000000000000000600052601160045260246000fd5b6000611e6682611370565b91507fffffffffffffffffffffffffffffffffffffffffffffffffffffffffffffffff8203611e9857611e97611e2c565b5b600182019050919050565b600081905092915050565b6000611eb982611389565b611ec38185611ea3565b9350611ed38185602086016113a5565b80840191505092915050565b6000819050919050565b611efa611ef582611370565b611edf565b82525050565b6000611f0c828e611eae565b9150611f18828d611eae565b9150611f24828c611eae565b9150611f30828b611eae565b9150611f3c828a611eae565b9150611f488289611ee9565b602082019150611f588288611eae565b9150611f648287611eae565b9150611f708286611eae565b9150611f7c8285611eae565b9150611f888284611eae565b91508190509c9b50505050505050505050505056fea264697066735822122083ef4fc49251d99a7f1d514e39fad1d9c833931bd49280651bf0025b99cb79f264736f6c634300080e0033",
  "immutableReferences": {},
  "source": "// SPDX-License-Identifier: UNLICENSED\r\npragma solidity ^0.8.0;\r\n\r\nimport \"./NotaryContractBase.sol\";\r\n\r\ncontract RealEstate is NotaryContractBase {\r\n    mapping(uint256 => RealEstateData) realEstateMap;\r\n    mapping(uint256 => uint256) realEstaIDRealEstateHashMap;\r\n    uint[] realEstateLUT;\r\n\r\n    event RealEstateAddedToSystem(uint256 realEstateId);\r\n\r\n    function addRealEstate(RealEstateData memory reData) public {\r\n        uint256 realEstateId = hashRealEstate(reData); //TODO bilgilerin daha nceden olmadn kontrol et\r\n        uint256 blkZamn = block.timestamp;\r\n        reData.registered = true;\r\n        reData.realEstateId = realEstateId;\r\n        realEstaIDRealEstateHashMap[realEstateId] = blkZamn;\r\n        realEstateMap[blkZamn] = reData;\r\n        realEstateLUT.push(blkZamn);\r\n        emit RealEstateAddedToSystem(blkZamn);\r\n    }\r\n\r\n    function listAllRealestate() public view returns(RealEstateData[] memory){\r\n         RealEstateData [] memory result = new RealEstateData[](realEstateLUT.length);\r\n         for (uint i = 0; i < realEstateLUT.length; i++) {\r\n            result[i] = realEstateMap[realEstateLUT[i]];\r\n         }\r\n         return result;\r\n    }\r\n\r\n    function getRealEstateLUT() public view returns(uint[] memory){\r\n        return realEstateLUT;\r\n    }\r\n\r\n    function isRealEstateRegisted(uint256 realEstateId)\r\n        public\r\n        view\r\n        returns (bool)\r\n    {\r\n        return realEstateMap[realEstateId].registered;\r\n    }\r\n\r\n    function getRealEstatePayda(uint256 realEstateId)\r\n        public\r\n        view\r\n        returns (uint256)\r\n    {\r\n        return realEstateMap[realEstateId].payda;\r\n    }\r\n\r\n    function getRealEstateInfo(uint256 realEstateId)\r\n        public\r\n        view\r\n        returns (RealEstateData memory)\r\n    {\r\n        return realEstateMap[realEstateId];\r\n    }\r\n\r\n    function hashRealEstate(RealEstateData memory reData)\r\n        public\r\n        pure\r\n        returns (uint256)\r\n    {\r\n        uint256 realEstateId = uint256(\r\n            keccak256(\r\n                abi.encodePacked(\r\n                    reData.il,\r\n                    reData.ilce,\r\n                    reData.mahalle,\r\n                    reData.cadde,\r\n                    reData.sokak,\r\n                    reData.kat,\r\n                    reData.daireNo,\r\n                    reData.tasinmazTip,\r\n                    reData.nitelik,\r\n                    reData.ada,\r\n                    reData.parsel\r\n                )\r\n            )\r\n        );\r\n\r\n        return realEstateId;\r\n    }\r\n\r\n    function getId(RealEstateData memory reData) public view returns (uint256) {\r\n        uint256 realEstateId = hashRealEstate(reData);\r\n        return realEstaIDRealEstateHashMap[realEstateId];\r\n    }\r\n\r\n}\r\n",
  "sourcePath": "D:\\Ethereum Projects\\DAWithEth\\truffle-project\\contracts\\RealEstate.sol",
  "compiler": {
    "name": "solc",
    "version": "0.8.14+commit.80d49f37.Emscripten.clang"
  },
  "schemaVersion": "3.4.11",
  "updatedAt": "2023-07-17T20:39:16.188Z",
  "networkType": "ethereum",
  "devdoc": {
    "kind": "dev",
    "methods": {},
    "version": 1
  },
  "userdoc": {
    "kind": "user",
    "methods": {},
    "version": 1
  }
}