{
  "contractName": "RealEstateOwnerRelation",
  "abi": [
    {
      "inputs": [
        {
          "internalType": "address",
          "name": "realEstateContractAdd",
          "type": "address"
        },
        {
          "internalType": "address",
          "name": "ownerContractAdd",
          "type": "address"
        }
      ],
      "stateMutability": "nonpayable",
      "type": "constructor"
    },
    {
      "anonymous": false,
      "inputs": [
        {
          "indexed": false,
          "internalType": "uint256",
          "name": "realEstateId",
          "type": "uint256"
        },
        {
          "indexed": false,
          "internalType": "uint256",
          "name": "hisseId",
          "type": "uint256"
        },
        {
          "indexed": false,
          "internalType": "address",
          "name": "owner",
          "type": "address"
        },
        {
          "indexed": false,
          "internalType": "uint256",
          "name": "pay",
          "type": "uint256"
        }
      ],
      "name": "NewHisseAddedToRealEstate",
      "type": "event"
    },
    {
      "anonymous": false,
      "inputs": [
        {
          "indexed": false,
          "internalType": "uint256",
          "name": "realEstateId",
          "type": "uint256"
        },
        {
          "indexed": false,
          "internalType": "uint256",
          "name": "hisseId",
          "type": "uint256"
        },
        {
          "indexed": false,
          "internalType": "address",
          "name": "owner",
          "type": "address"
        },
        {
          "indexed": false,
          "internalType": "uint256",
          "name": "pay",
          "type": "uint256"
        }
      ],
      "name": "NewHisseAndRealEstateAdded",
      "type": "event"
    },
    {
      "anonymous": false,
      "inputs": [
        {
          "indexed": false,
          "internalType": "uint256",
          "name": "realEstateId",
          "type": "uint256"
        },
        {
          "indexed": false,
          "internalType": "uint256",
          "name": "hisseId",
          "type": "uint256"
        },
        {
          "indexed": false,
          "internalType": "address",
          "name": "owner",
          "type": "address"
        }
      ],
      "name": "OwnerAddedToRealEstate",
      "type": "event"
    },
    {
      "anonymous": false,
      "inputs": [
        {
          "indexed": false,
          "internalType": "uint256",
          "name": "realEstateId",
          "type": "uint256"
        },
        {
          "indexed": false,
          "internalType": "uint256",
          "name": "hisseId",
          "type": "uint256"
        },
        {
          "indexed": false,
          "internalType": "address",
          "name": "owner",
          "type": "address"
        }
      ],
      "name": "OwnerHissePayAdded",
      "type": "event"
    },
    {
      "inputs": [
        {
          "internalType": "uint256",
          "name": "",
          "type": "uint256"
        }
      ],
      "name": "hisseIdHisseMap",
      "outputs": [
        {
          "internalType": "uint256",
          "name": "pay",
          "type": "uint256"
        },
        {
          "internalType": "uint256",
          "name": "realEstateId",
          "type": "uint256"
        },
        {
          "internalType": "address",
          "name": "ownerAdd",
          "type": "address"
        },
        {
          "internalType": "bool",
          "name": "registered",
          "type": "bool"
        }
      ],
      "stateMutability": "view",
      "type": "function",
      "constant": true
    },
    {
      "inputs": [
        {
          "internalType": "address",
          "name": "",
          "type": "address"
        },
        {
          "internalType": "uint256",
          "name": "",
          "type": "uint256"
        }
      ],
      "name": "ownerHisseIdMap",
      "outputs": [
        {
          "internalType": "uint256",
          "name": "",
          "type": "uint256"
        }
      ],
      "stateMutability": "view",
      "type": "function",
      "constant": true
    },
    {
      "inputs": [
        {
          "internalType": "uint256",
          "name": "",
          "type": "uint256"
        }
      ],
      "name": "realEstateIdHisseMap",
      "outputs": [
        {
          "internalType": "bool",
          "name": "registered",
          "type": "bool"
        },
        {
          "internalType": "uint256",
          "name": "payda",
          "type": "uint256"
        },
        {
          "internalType": "uint256",
          "name": "toplamHisseMiktar",
          "type": "uint256"
        }
      ],
      "stateMutability": "view",
      "type": "function",
      "constant": true
    },
    {
      "inputs": [
        {
          "internalType": "uint256",
          "name": "realEstateId",
          "type": "uint256"
        },
        {
          "internalType": "address",
          "name": "ownAdd",
          "type": "address"
        }
      ],
      "name": "testOwnerShip",
      "outputs": [],
      "stateMutability": "nonpayable",
      "type": "function"
    },
    {
      "inputs": [
        {
          "internalType": "address",
          "name": "ownAdd",
          "type": "address"
        },
        {
          "internalType": "uint256",
          "name": "realEstateId",
          "type": "uint256"
        },
        {
          "internalType": "uint256",
          "name": "_hisse",
          "type": "uint256"
        }
      ],
      "name": "addOwnerShip",
      "outputs": [],
      "stateMutability": "nonpayable",
      "type": "function"
    },
    {
      "inputs": [
        {
          "internalType": "uint256",
          "name": "hisseId",
          "type": "uint256"
        },
        {
          "internalType": "address",
          "name": "newOwner",
          "type": "address"
        },
        {
          "internalType": "address",
          "name": "oldOwner",
          "type": "address"
        }
      ],
      "name": "changeOwnerShip",
      "outputs": [],
      "stateMutability": "nonpayable",
      "type": "function"
    },
    {
      "inputs": [
        {
          "internalType": "uint256",
          "name": "hisseId",
          "type": "uint256"
        },
        {
          "internalType": "address",
          "name": "ownAdd",
          "type": "address"
        }
      ],
      "name": "hisseSatisaCikabilirMi",
      "outputs": [
        {
          "internalType": "bool",
          "name": "",
          "type": "bool"
        }
      ],
      "stateMutability": "view",
      "type": "function",
      "constant": true
    },
    {
      "inputs": [
        {
          "internalType": "address",
          "name": "ownAdd",
          "type": "address"
        },
        {
          "internalType": "uint256",
          "name": "index",
          "type": "uint256"
        }
      ],
      "name": "getOwnerHisseId",
      "outputs": [
        {
          "internalType": "uint256",
          "name": "",
          "type": "uint256"
        }
      ],
      "stateMutability": "view",
      "type": "function",
      "constant": true
    },
    {
      "inputs": [
        {
          "internalType": "address",
          "name": "ownAdd",
          "type": "address"
        },
        {
          "internalType": "uint256[]",
          "name": "hisseIdList",
          "type": "uint256[]"
        }
      ],
      "name": "getOwnerHisseId",
      "outputs": [
        {
          "internalType": "uint256",
          "name": "",
          "type": "uint256"
        }
      ],
      "stateMutability": "view",
      "type": "function",
      "constant": true
    },
    {
      "inputs": [
        {
          "internalType": "address",
          "name": "ownAdd",
          "type": "address"
        }
      ],
      "name": "getOwnerHisseLength",
      "outputs": [
        {
          "internalType": "uint256",
          "name": "",
          "type": "uint256"
        }
      ],
      "stateMutability": "view",
      "type": "function",
      "constant": true
    },
    {
      "inputs": [
        {
          "internalType": "uint256",
          "name": "hisseId",
          "type": "uint256"
        }
      ],
      "name": "getHisse",
      "outputs": [
        {
          "components": [
            {
              "internalType": "uint256",
              "name": "pay",
              "type": "uint256"
            },
            {
              "internalType": "uint256",
              "name": "realEstateId",
              "type": "uint256"
            },
            {
              "internalType": "address",
              "name": "ownerAdd",
              "type": "address"
            },
            {
              "internalType": "bool",
              "name": "registered",
              "type": "bool"
            }
          ],
          "internalType": "struct NotaryContractBase.Hisse",
          "name": "",
          "type": "tuple"
        }
      ],
      "stateMutability": "view",
      "type": "function",
      "constant": true
    },
    {
      "inputs": [
        {
          "internalType": "uint256",
          "name": "queryHisseId",
          "type": "uint256"
        }
      ],
      "name": "getAllHissedarsByHisseId",
      "outputs": [
        {
          "components": [
            {
              "internalType": "uint256",
              "name": "pay",
              "type": "uint256"
            },
            {
              "internalType": "uint256",
              "name": "realEstateId",
              "type": "uint256"
            },
            {
              "internalType": "address",
              "name": "ownerAdd",
              "type": "address"
            },
            {
              "internalType": "bool",
              "name": "registered",
              "type": "bool"
            }
          ],
          "internalType": "struct NotaryContractBase.Hisse[]",
          "name": "",
          "type": "tuple[]"
        }
      ],
      "stateMutability": "view",
      "type": "function",
      "constant": true
    },
    {
      "inputs": [],
      "name": "getAllRealEstateAndHisse",
      "outputs": [
        {
          "components": [
            {
              "internalType": "uint256",
              "name": "realEstateId",
              "type": "uint256"
            },
            {
              "internalType": "uint256",
              "name": "hisseId",
              "type": "uint256"
            },
            {
              "components": [
                {
                  "internalType": "uint256",
                  "name": "pay",
                  "type": "uint256"
                },
                {
                  "internalType": "uint256",
                  "name": "realEstateId",
                  "type": "uint256"
                },
                {
                  "internalType": "address",
                  "name": "ownerAdd",
                  "type": "address"
                },
                {
                  "internalType": "bool",
                  "name": "registered",
                  "type": "bool"
                }
              ],
              "internalType": "struct NotaryContractBase.Hisse",
              "name": "hisse",
              "type": "tuple"
            },
            {
              "components": [
                {
                  "internalType": "uint256",
                  "name": "realEstateId",
                  "type": "uint256"
                },
                {
                  "internalType": "string",
                  "name": "il",
                  "type": "string"
                },
                {
                  "internalType": "string",
                  "name": "ilce",
                  "type": "string"
                },
                {
                  "internalType": "string",
                  "name": "mahalle",
                  "type": "string"
                },
                {
                  "internalType": "string",
                  "name": "cadde",
                  "type": "string"
                },
                {
                  "internalType": "string",
                  "name": "sokak",
                  "type": "string"
                },
                {
                  "internalType": "uint256",
                  "name": "kat",
                  "type": "uint256"
                },
                {
                  "internalType": "string",
                  "name": "daireNo",
                  "type": "string"
                },
                {
                  "internalType": "string",
                  "name": "tasinmazTip",
                  "type": "string"
                },
                {
                  "internalType": "string",
                  "name": "nitelik",
                  "type": "string"
                },
                {
                  "internalType": "string",
                  "name": "ada",
                  "type": "string"
                },
                {
                  "internalType": "string",
                  "name": "parsel",
                  "type": "string"
                },
                {
                  "internalType": "uint256",
                  "name": "payda",
                  "type": "uint256"
                },
                {
                  "internalType": "bool",
                  "name": "registered",
                  "type": "bool"
                }
              ],
              "internalType": "struct NotaryContractBase.RealEstateData",
              "name": "realEstateData",
              "type": "tuple"
            },
            {
              "internalType": "uint256",
              "name": "toplamEklenenHisseMiktar",
              "type": "uint256"
            }
          ],
          "internalType": "struct NotaryContractBase.HisseView[]",
          "name": "",
          "type": "tuple[]"
        }
      ],
      "stateMutability": "view",
      "type": "function",
      "constant": true
    }
  ],
  "bytecode": "0x60806040523480156200001157600080fd5b5060405162002e3038038062002e3083398181016040528101906200003791906200012a565b806000806101000a81548173ffffffffffffffffffffffffffffffffffffffff021916908373ffffffffffffffffffffffffffffffffffffffff16021790555081600160006101000a81548173ffffffffffffffffffffffffffffffffffffffff021916908373ffffffffffffffffffffffffffffffffffffffff160217905550505062000171565b600080fd5b600073ffffffffffffffffffffffffffffffffffffffff82169050919050565b6000620000f282620000c5565b9050919050565b6200010481620000e5565b81146200011057600080fd5b50565b6000815190506200012481620000f9565b92915050565b60008060408385031215620001445762000143620000c0565b5b6000620001548582860162000113565b9250506020620001678582860162000113565b9150509250929050565b612caf80620001816000396000f3fe608060405234801561001057600080fd5b50600436106100cf5760003560e01c8063794cc5331161008c5780639c3ead74116100665780639c3ead741461024d578063a4ddba4e1461027d578063b4f21a6314610299578063d4ad4e92146102c9576100cf565b8063794cc533146101bd57806389642c54146101ed578063948c0d8e1461021d576100cf565b8063099ac2da146100d4578063121a06bb146100f05780632a9421fd1461010e578063505383291461014157806351fe436a1461017157806359451a7c146101a1575b600080fd5b6100ee60048036038101906100e99190611acc565b6102fb565b005b6100f861030b565b6040516101059190611ed9565b60405180910390f35b61012860048036038101906101239190611efb565b610828565b6040516101389493929190611f55565b60405180910390f35b61015b60048036038101906101569190611f9a565b610885565b6040516101689190611fda565b60405180910390f35b61018b60048036038101906101869190611ff5565b6108b6565b6040516101989190611fda565b60405180910390f35b6101bb60048036038101906101b69190612022565b610902565b005b6101d760048036038101906101d29190611f9a565b610b5d565b6040516101e49190611fda565b60405180910390f35b61020760048036038101906102029190611acc565b610bc3565b6040516102149190612075565b60405180910390f35b61023760048036038101906102329190611efb565b610cb4565b60405161024491906120e5565b60405180910390f35b61026760048036038101906102629190612248565b610d66565b6040516102749190611fda565b60405180910390f35b610297600480360381019061029291906122a4565b610e29565b005b6102b360048036038101906102ae9190611efb565b611469565b6040516102c091906123a6565b60405180910390f35b6102e360048036038101906102de9190611efb565b61174a565b6040516102f2939291906123c8565b60405180910390f35b61030781836003610e29565b5050565b60606000600160009054906101000a900473ffffffffffffffffffffffffffffffffffffffff1673ffffffffffffffffffffffffffffffffffffffff16631c0a9b646040518163ffffffff1660e01b8152600401600060405180830381865afa15801561037c573d6000803e3d6000fd5b505050506040513d6000823e3d601f19601f820116820180604052508101906103a591906124ab565b9050600081516005805490506103bb9190612523565b67ffffffffffffffff8111156103d4576103d3612105565b5b60405190808252806020026020018201604052801561040d57816020015b6103fa6118c9565b8152602001906001900390816103f25790505b5090506000805b835181101561081e57600084828151811061043257610431612579565b5b602002602001015190506000600360008381526020019081526020016000206040518060800160405290816000820160009054906101000a900460ff161515151581526020016001820154815260200160028201548152602001600382018054806020026020016040519081016040528092919081815260200182805480156104da57602002820191906000526020600020905b8154815260200190600101908083116104c6575b50505050508152505090506000600160009054906101000a900473ffffffffffffffffffffffffffffffffffffffff1673ffffffffffffffffffffffffffffffffffffffff16639f8188b3846040518263ffffffff1660e01b81526004016105429190611fda565b600060405180830381865afa15801561055f573d6000803e3d6000fd5b505050506040513d6000823e3d601f19601f8201168201806040525081019061058891906128ea565b90508160000151156107785760005b8260600151518110156106d2576000836060015182815181106105bd576105bc612579565b5b602002602001015190506040518060a001604052808681526020018281526020016004600084815260200190815260200160002060405180608001604052908160008201548152602001600182015481526020016002820160009054906101000a900473ffffffffffffffffffffffffffffffffffffffff1673ffffffffffffffffffffffffffffffffffffffff1673ffffffffffffffffffffffffffffffffffffffff1681526020016002820160149054906101000a900460ff161515151581525050815260200184815260200185604001518152508888806106a090612933565b9950815181106106b3576106b2612579565b5b60200260200101819052505080806106ca90612933565b915050610597565b50816020015182604001511015610773576040518060a001604052808481526020016000815260200160405180608001604052806000815260200160008152602001600073ffffffffffffffffffffffffffffffffffffffff168152602001600015158152508152602001828152602001600081525086868061075490612933565b97508151811061076757610766612579565b5b60200260200101819052505b610808565b6040518060a001604052808481526020016000815260200160405180608001604052806000815260200160008152602001600073ffffffffffffffffffffffffffffffffffffffff16815260200160001515815250815260200182815260200160008152508686806107e990612933565b9750815181106107fc576107fb612579565b5b60200260200101819052505b505050808061081690612933565b915050610414565b5081935050505090565b60046020528060005260406000206000915090508060000154908060010154908060020160009054906101000a900473ffffffffffffffffffffffffffffffffffffffff16908060020160149054906101000a900460ff16905084565b600260205281600052604060002081815481106108a157600080fd5b90600052602060002001600091509150505481565b6000600260008373ffffffffffffffffffffffffffffffffffffffff1673ffffffffffffffffffffffffffffffffffffffff168152602001908152602001600020805490509050919050565b60006004600085815260200190815260200160002060405180608001604052908160008201548152602001600182015481526020016002820160009054906101000a900473ffffffffffffffffffffffffffffffffffffffff1673ffffffffffffffffffffffffffffffffffffffff1673ffffffffffffffffffffffffffffffffffffffff1681526020016002820160149054906101000a900460ff161515151581525050905080606001516109ed576040517f08c379a00000000000000000000000000000000000000000000000000000000081526004016109e4906129d8565b60405180910390fd5b826004600086815260200190815260200160002060020160006101000a81548173ffffffffffffffffffffffffffffffffffffffff021916908373ffffffffffffffffffffffffffffffffffffffff1602179055506000600260008473ffffffffffffffffffffffffffffffffffffffff1673ffffffffffffffffffffffffffffffffffffffff168152602001908152602001600020905060005b8180549050811015610aef5785828281548110610aa857610aa7612579565b5b906000526020600020015403610adc576000828281548110610acd57610acc612579565b5b90600052602060002001819055505b8080610ae790612933565b915050610a88565b50600260008573ffffffffffffffffffffffffffffffffffffffff1673ffffffffffffffffffffffffffffffffffffffff1681526020019081526020016000208590806001815401808255809150506001900390600052602060002001600090919091909150555050505050565b6000600260008473ffffffffffffffffffffffffffffffffffffffff1673ffffffffffffffffffffffffffffffffffffffff1681526020019081526020016000208281548110610bb057610baf612579565b5b9060005260206000200154905092915050565b6000806004600085815260200190815260200160002060405180608001604052908160008201548152602001600182015481526020016002820160009054906101000a900473ffffffffffffffffffffffffffffffffffffffff1673ffffffffffffffffffffffffffffffffffffffff1673ffffffffffffffffffffffffffffffffffffffff1681526020016002820160149054906101000a900460ff161515151581525050905080606001518015610cab57508273ffffffffffffffffffffffffffffffffffffffff16816040015173ffffffffffffffffffffffffffffffffffffffff16145b91505092915050565b610cbc611904565b6004600083815260200190815260200160002060405180608001604052908160008201548152602001600182015481526020016002820160009054906101000a900473ffffffffffffffffffffffffffffffffffffffff1673ffffffffffffffffffffffffffffffffffffffff1673ffffffffffffffffffffffffffffffffffffffff1681526020016002820160149054906101000a900460ff1615151515815250509050919050565b600080600090505b8251811015610e1d576000838281518110610d8c57610d8b612579565b5b602002602001015190508473ffffffffffffffffffffffffffffffffffffffff166004600083815260200190815260200160002060020160009054906101000a900473ffffffffffffffffffffffffffffffffffffffff1673ffffffffffffffffffffffffffffffffffffffff1603610e09578092505050610e23565b508080610e1590612933565b915050610d6e565b50600090505b92915050565b60008054906101000a900473ffffffffffffffffffffffffffffffffffffffff1673ffffffffffffffffffffffffffffffffffffffff166324d7806c336040518263ffffffff1660e01b8152600401610e8291906129f8565b602060405180830381865afa158015610e9f573d6000803e3d6000fd5b505050506040513d601f19601f82011682018060405250810190610ec39190612a13565b610f02576040517f08c379a0000000000000000000000000000000000000000000000000000000008152600401610ef990612a8c565b60405180910390fd5b600160009054906101000a900473ffffffffffffffffffffffffffffffffffffffff1673ffffffffffffffffffffffffffffffffffffffff16635a8f6713836040518263ffffffff1660e01b8152600401610f5d9190611fda565b602060405180830381865afa158015610f7a573d6000803e3d6000fd5b505050506040513d601f19601f82011682018060405250810190610f9e9190612a13565b610fdd576040517f08c379a0000000000000000000000000000000000000000000000000000000008152600401610fd490612b1e565b60405180910390fd5b60006003600084815260200190815260200160002090506000600160009054906101000a900473ffffffffffffffffffffffffffffffffffffffff1673ffffffffffffffffffffffffffffffffffffffff16633c7422df856040518263ffffffff1660e01b81526004016110519190611fda565b602060405180830381865afa15801561106e573d6000803e3d6000fd5b505050506040513d601f19601f820116820180604052508101906110929190612b3e565b90508160000160009054906101000a900460ff161561130457808383600201546110bc9190612523565b11156110fd576040517f08c379a00000000000000000000000000000000000000000000000000000000081526004016110f490612bdd565b60405180910390fd5b600061115b868460030180548060200260200160405190810160405280929190818152602001828054801561115157602002820191906000526020600020905b81548152602001906001019080831161113d575b5050505050610d66565b9050600081146111d2578360046000838152602001908152602001600020600001600082825461118b9190612523565b925050819055507fa535b07ae14ec98ab82ef3c685c41230285069dc563422605395fd18dae8c8928582886040516111c593929190612bfd565b60405180910390a1611274565b60006111df858789611781565b90508360030181908060018154018082558091505060019003906000526020600020016000909190919091505560058190806001815401808255809150506001900390600052602060002001600090919091909150557f05804b10cb2a68d01900ce2de4450ae3f77b2a65586816903b11cefc78fd61378682898860405161126a9493929190612c34565b60405180910390a1505b838360020160008282546112889190612523565b9250508190555082600360008781526020019081526020016000206000820160009054906101000a900460ff168160000160006101000a81548160ff021916908315150217905550600182015481600101556002820154816002015560038201816003019080546112fa929190611944565b5090505050611462565b80831115611347576040517f08c379a000000000000000000000000000000000000000000000000000000000815260040161133e90612bdd565b60405180910390fd5b80826001018190555082826002018190555060018260000160006101000a81548160ff0219169083151502179055506000611383848688611781565b90508260030181908060018154018082558091505060019003906000526020600020016000909190919091505560058190806001815401808255809150506001900390600052602060002001600090919091909150556001821115611424577f27b0c117e5853e303b7ff7bb8606b8cf471e1dbcd6827e94a462bc0f90b09fb9858288876040516114179493929190612c34565b60405180910390a1611460565b7f6e08465da0499908f3414c280976331636c51314351a981529841ffb2cfc594985828860405161145793929190612bfd565b60405180910390a15b505b5050505050565b606060006004600084815260200190815260200160002060405180608001604052908160008201548152602001600182015481526020016002820160009054906101000a900473ffffffffffffffffffffffffffffffffffffffff1673ffffffffffffffffffffffffffffffffffffffff1673ffffffffffffffffffffffffffffffffffffffff1681526020016002820160149054906101000a900460ff1615151515815250509050600060036000836020015181526020019081526020016000206040518060800160405290816000820160009054906101000a900460ff161515151581526020016001820154815260200160028201548152602001600382018054806020026020016040519081016040528092919081815260200182805480156115b457602002820191906000526020600020905b8154815260200190600101908083116115a0575b5050505050815250509050600081606001515167ffffffffffffffff8111156115e0576115df612105565b5b60405190808252806020026020018201604052801561161957816020015b611606611904565b8152602001906001900390816115fe5790505b509050600082600001511561173e5760005b83606001515181101561173c5760008460600151828151811061165157611650612579565b5b602002602001015190506004600082815260200190815260200160002060405180608001604052908160008201548152602001600182015481526020016002820160009054906101000a900473ffffffffffffffffffffffffffffffffffffffff1673ffffffffffffffffffffffffffffffffffffffff1673ffffffffffffffffffffffffffffffffffffffff1681526020016002820160149054906101000a900460ff16151515158152505084848061170a90612933565b95508151811061171d5761171c612579565b5b602002602001018190525050808061173490612933565b91505061162b565b505b81945050505050919050565b60036020528060005260406000206000915090508060000160009054906101000a900460ff16908060010154908060020154905083565b600080429050600060405180608001604052808781526020018681526020018573ffffffffffffffffffffffffffffffffffffffff1681526020016001151581525090508060046000848152602001908152602001600020600082015181600001556020820151816001015560408201518160020160006101000a81548173ffffffffffffffffffffffffffffffffffffffff021916908373ffffffffffffffffffffffffffffffffffffffff16021790555060608201518160020160146101000a81548160ff021916908315150217905550905050600260008573ffffffffffffffffffffffffffffffffffffffff1673ffffffffffffffffffffffffffffffffffffffff16815260200190815260200160002082908060018154018082558091505060019003906000526020600020016000909190919091505581925050509392505050565b6040518060a0016040528060008152602001600081526020016118ea611904565b81526020016118f7611996565b8152602001600081525090565b60405180608001604052806000815260200160008152602001600073ffffffffffffffffffffffffffffffffffffffff1681526020016000151581525090565b8280548282559060005260206000209081019282156119855760005260206000209182015b82811115611984578254825591600101919060010190611969565b5b5090506119929190611a07565b5090565b604051806101c00160405280600081526020016060815260200160608152602001606081526020016060815260200160608152602001600081526020016060815260200160608152602001606081526020016060815260200160608152602001600081526020016000151581525090565b5b80821115611a20576000816000905550600101611a08565b5090565b6000604051905090565b600080fd5b600080fd5b6000819050919050565b611a4b81611a38565b8114611a5657600080fd5b50565b600081359050611a6881611a42565b92915050565b600073ffffffffffffffffffffffffffffffffffffffff82169050919050565b6000611a9982611a6e565b9050919050565b611aa981611a8e565b8114611ab457600080fd5b50565b600081359050611ac681611aa0565b92915050565b60008060408385031215611ae357611ae2611a2e565b5b6000611af185828601611a59565b9250506020611b0285828601611ab7565b9150509250929050565b600081519050919050565b600082825260208201905092915050565b6000819050602082019050919050565b611b4181611a38565b82525050565b611b5081611a8e565b82525050565b60008115159050919050565b611b6b81611b56565b82525050565b608082016000820151611b876000850182611b38565b506020820151611b9a6020850182611b38565b506040820151611bad6040850182611b47565b506060820151611bc06060850182611b62565b50505050565b600081519050919050565b600082825260208201905092915050565b60005b83811015611c00578082015181840152602081019050611be5565b83811115611c0f576000848401525b50505050565b6000601f19601f8301169050919050565b6000611c3182611bc6565b611c3b8185611bd1565b9350611c4b818560208601611be2565b611c5481611c15565b840191505092915050565b60006101c083016000830151611c786000860182611b38565b5060208301518482036020860152611c908282611c26565b91505060408301518482036040860152611caa8282611c26565b91505060608301518482036060860152611cc48282611c26565b91505060808301518482036080860152611cde8282611c26565b91505060a083015184820360a0860152611cf88282611c26565b91505060c0830151611d0d60c0860182611b38565b5060e083015184820360e0860152611d258282611c26565b915050610100830151848203610100860152611d418282611c26565b915050610120830151848203610120860152611d5d8282611c26565b915050610140830151848203610140860152611d798282611c26565b915050610160830151848203610160860152611d958282611c26565b915050610180830151611dac610180860182611b38565b506101a0830151611dc16101a0860182611b62565b508091505092915050565b600061010083016000830151611de56000860182611b38565b506020830151611df86020860182611b38565b506040830151611e0b6040860182611b71565b50606083015184820360c0860152611e238282611c5f565b9150506080830151611e3860e0860182611b38565b508091505092915050565b6000611e4f8383611dcc565b905092915050565b6000602082019050919050565b6000611e6f82611b0c565b611e798185611b17565b935083602082028501611e8b85611b28565b8060005b85811015611ec75784840389528151611ea88582611e43565b9450611eb383611e57565b925060208a01995050600181019050611e8f565b50829750879550505050505092915050565b60006020820190508181036000830152611ef38184611e64565b905092915050565b600060208284031215611f1157611f10611a2e565b5b6000611f1f84828501611a59565b91505092915050565b611f3181611a38565b82525050565b611f4081611a8e565b82525050565b611f4f81611b56565b82525050565b6000608082019050611f6a6000830187611f28565b611f776020830186611f28565b611f846040830185611f37565b611f916060830184611f46565b95945050505050565b60008060408385031215611fb157611fb0611a2e565b5b6000611fbf85828601611ab7565b9250506020611fd085828601611a59565b9150509250929050565b6000602082019050611fef6000830184611f28565b92915050565b60006020828403121561200b5761200a611a2e565b5b600061201984828501611ab7565b91505092915050565b60008060006060848603121561203b5761203a611a2e565b5b600061204986828701611a59565b935050602061205a86828701611ab7565b925050604061206b86828701611ab7565b9150509250925092565b600060208201905061208a6000830184611f46565b92915050565b6080820160008201516120a66000850182611b38565b5060208201516120b96020850182611b38565b5060408201516120cc6040850182611b47565b5060608201516120df6060850182611b62565b50505050565b60006080820190506120fa6000830184612090565b92915050565b600080fd5b7f4e487b7100000000000000000000000000000000000000000000000000000000600052604160045260246000fd5b61213d82611c15565b810181811067ffffffffffffffff8211171561215c5761215b612105565b5b80604052505050565b600061216f611a24565b905061217b8282612134565b919050565b600067ffffffffffffffff82111561219b5761219a612105565b5b602082029050602081019050919050565b600080fd5b60006121c46121bf84612180565b612165565b905080838252602082019050602084028301858111156121e7576121e66121ac565b5b835b8181101561221057806121fc8882611a59565b8452602084019350506020810190506121e9565b5050509392505050565b600082601f83011261222f5761222e612100565b5b813561223f8482602086016121b1565b91505092915050565b6000806040838503121561225f5761225e611a2e565b5b600061226d85828601611ab7565b925050602083013567ffffffffffffffff81111561228e5761228d611a33565b5b61229a8582860161221a565b9150509250929050565b6000806000606084860312156122bd576122bc611a2e565b5b60006122cb86828701611ab7565b93505060206122dc86828701611a59565b92505060406122ed86828701611a59565b9150509250925092565b600081519050919050565b600082825260208201905092915050565b6000819050602082019050919050565b600061232f8383611b71565b60808301905092915050565b6000602082019050919050565b6000612353826122f7565b61235d8185612302565b935061236883612313565b8060005b838110156123995781516123808882612323565b975061238b8361233b565b92505060018101905061236c565b5085935050505092915050565b600060208201905081810360008301526123c08184612348565b905092915050565b60006060820190506123dd6000830186611f46565b6123ea6020830185611f28565b6123f76040830184611f28565b949350505050565b60008151905061240e81611a42565b92915050565b600061242761242284612180565b612165565b9050808382526020820190506020840283018581111561244a576124496121ac565b5b835b81811015612473578061245f88826123ff565b84526020840193505060208101905061244c565b5050509392505050565b600082601f83011261249257612491612100565b5b81516124a2848260208601612414565b91505092915050565b6000602082840312156124c1576124c0611a2e565b5b600082015167ffffffffffffffff8111156124df576124de611a33565b5b6124eb8482850161247d565b91505092915050565b7f4e487b7100000000000000000000000000000000000000000000000000000000600052601160045260246000fd5b600061252e82611a38565b915061253983611a38565b9250827fffffffffffffffffffffffffffffffffffffffffffffffffffffffffffffffff0382111561256e5761256d6124f4565b5b828201905092915050565b7f4e487b7100000000000000000000000000000000000000000000000000000000600052603260045260246000fd5b600080fd5b600080fd5b600080fd5b600067ffffffffffffffff8211156125d2576125d1612105565b5b6125db82611c15565b9050602081019050919050565b60006125fb6125f6846125b7565b612165565b905082815260208101848484011115612617576126166125b2565b5b612622848285611be2565b509392505050565b600082601f83011261263f5761263e612100565b5b815161264f8482602086016125e8565b91505092915050565b61266181611b56565b811461266c57600080fd5b50565b60008151905061267e81612658565b92915050565b60006101c0828403121561269b5761269a6125a8565b5b6126a66101c0612165565b905060006126b6848285016123ff565b600083015250602082015167ffffffffffffffff8111156126da576126d96125ad565b5b6126e68482850161262a565b602083015250604082015167ffffffffffffffff81111561270a576127096125ad565b5b6127168482850161262a565b604083015250606082015167ffffffffffffffff81111561273a576127396125ad565b5b6127468482850161262a565b606083015250608082015167ffffffffffffffff81111561276a576127696125ad565b5b6127768482850161262a565b60808301525060a082015167ffffffffffffffff81111561279a576127996125ad565b5b6127a68482850161262a565b60a08301525060c06127ba848285016123ff565b60c08301525060e082015167ffffffffffffffff8111156127de576127dd6125ad565b5b6127ea8482850161262a565b60e08301525061010082015167ffffffffffffffff81111561280f5761280e6125ad565b5b61281b8482850161262a565b6101008301525061012082015167ffffffffffffffff811115612841576128406125ad565b5b61284d8482850161262a565b6101208301525061014082015167ffffffffffffffff811115612873576128726125ad565b5b61287f8482850161262a565b6101408301525061016082015167ffffffffffffffff8111156128a5576128a46125ad565b5b6128b18482850161262a565b610160830152506101806128c7848285016123ff565b610180830152506101a06128dd8482850161266f565b6101a08301525092915050565b600060208284031215612900576128ff611a2e565b5b600082015167ffffffffffffffff81111561291e5761291d611a33565b5b61292a84828501612684565b91505092915050565b600061293e82611a38565b91507fffffffffffffffffffffffffffffffffffffffffffffffffffffffffffffffff82036129705761296f6124f4565b5b600182019050919050565b600082825260208201905092915050565b7f48697373652062756c756e616d61646900000000000000000000000000000000600082015250565b60006129c260108361297b565b91506129cd8261298c565b602082019050919050565b600060208201905081810360008301526129f1816129b5565b9050919050565b6000602082019050612a0d6000830184611f37565b92915050565b600060208284031215612a2957612a28611a2e565b5b6000612a378482850161266f565b91505092915050565b7f42752069736c656d69207361646563652061646d696e207961706162696c6972600082015250565b6000612a7660208361297b565b9150612a8182612a40565b602082019050919050565b60006020820190508181036000830152612aa581612a69565b9050919050565b7f5265616c2065737461746520646f6573206e6f7420657869737420696e20746860008201527f652073797374656d000000000000000000000000000000000000000000000000602082015250565b6000612b0860288361297b565b9150612b1382612aac565b604082019050919050565b60006020820190508181036000830152612b3781612afb565b9050919050565b600060208284031215612b5457612b53611a2e565b5b6000612b62848285016123ff565b91505092915050565b7f4e6f206d6f7265207368617265686f6c646572732063616e206265206164646560008201527f6420746f20746865207265616c20657374617465000000000000000000000000602082015250565b6000612bc760348361297b565b9150612bd282612b6b565b604082019050919050565b60006020820190508181036000830152612bf681612bba565b9050919050565b6000606082019050612c126000830186611f28565b612c1f6020830185611f28565b612c2c6040830184611f37565b949350505050565b6000608082019050612c496000830187611f28565b612c566020830186611f28565b612c636040830185611f37565b612c706060830184611f28565b9594505050505056fea2646970667358221220ed357aac2c2be8343a4b113706a1587f9196bd983d9d45a67980403f6c981bb164736f6c634300080e0033",
  "immutableReferences": {},
  "source": "// SPDX-License-Identifier: UNLICENSED\r\npragma solidity ^0.8.0;\r\n\r\nimport \"./Owner.sol\";\r\nimport \"./RealEstate.sol\";\r\nimport \"./NotaryContractBase.sol\";\r\n\r\ncontract RealEstateOwnerRelation is NotaryContractBase{\r\n    Owner ownerContract;\r\n    RealEstate realEstateContract;\r\n\r\n    mapping(address => uint[]) public ownerHisseIdMap;\r\n    \r\n    mapping(uint => RealEstateHisse) public realEstateIdHisseMap;\r\n    mapping(uint => Hisse) public hisseIdHisseMap;\r\n    uint[] hisseIdLUT;\r\n\r\n    event NewHisseAndRealEstateAdded(uint realEstateId, uint hisseId, address owner, uint pay);\r\n    event OwnerHissePayAdded(uint realEstateId, uint hisseId, address owner);\r\n    event NewHisseAddedToRealEstate(uint realEstateId, uint hisseId, address owner, uint pay);\r\n    event OwnerAddedToRealEstate(uint realEstateId, uint hisseId, address owner);\r\n    \r\n    constructor(address realEstateContractAdd, address ownerContractAdd)  {\r\n        ownerContract=Owner(ownerContractAdd);\r\n        realEstateContract=RealEstate(realEstateContractAdd);\r\n    }\r\n\r\n    function testOwnerShip(uint realEstateId, address ownAdd) public{\r\n        addOwnerShip(ownAdd, realEstateId, 3);        \r\n    }\r\n    \r\n    function addOwnerShip(address ownAdd, uint realEstateId, uint _hisse) public {\r\n        require(ownerContract.isAdmin(msg.sender), \"Bu islemi sadece admin yapabilir\");\r\n        require(realEstateContract.isRealEstateRegisted(realEstateId), \"Real estate does not exist in the system\");   \r\n         \r\n        RealEstateHisse storage realEstateHisse = realEstateIdHisseMap[realEstateId];\r\n        uint payda = realEstateContract.getRealEstatePayda(realEstateId);\r\n        if(realEstateHisse.registered){\r\n            require(realEstateHisse.toplamHisseMiktar + _hisse <= payda, \"No more shareholders can be added to the real estate\");\r\n            uint hisseId = getOwnerHisseId(ownAdd, realEstateHisse.hisseIdList);\r\n            if(hisseId != 0){\r\n                hisseIdHisseMap[hisseId].pay += _hisse;\r\n                emit OwnerHissePayAdded(realEstateId, hisseId, ownAdd);\r\n            }else{\r\n                uint newHisseId=hisseOlustur(_hisse, realEstateId, ownAdd);\r\n                realEstateHisse.hisseIdList.push(newHisseId);\r\n                hisseIdLUT.push(newHisseId);\r\n                emit NewHisseAddedToRealEstate(realEstateId, newHisseId, ownAdd, _hisse);\r\n            }\r\n            realEstateHisse.toplamHisseMiktar += _hisse;\r\n            realEstateIdHisseMap[realEstateId] = realEstateHisse;\r\n        }else{\r\n            require(_hisse <= payda,  \"No more shareholders can be added to the real estate\");\r\n            realEstateHisse.payda = payda;\r\n            realEstateHisse.toplamHisseMiktar= _hisse;\r\n            realEstateHisse.registered =true;\r\n            uint newHisseId=hisseOlustur(_hisse, realEstateId, ownAdd);\r\n            realEstateHisse.hisseIdList.push(newHisseId);\r\n            hisseIdLUT.push(newHisseId);\r\n            if(payda > 1){\r\n                emit NewHisseAndRealEstateAdded(realEstateId, newHisseId, ownAdd, _hisse);\r\n            }else{\r\n                emit OwnerAddedToRealEstate(realEstateId, newHisseId, ownAdd);\r\n            }\r\n        }        \r\n    }\r\n\r\n    function hisseOlustur(uint _hisse, uint realEstateId, address ownAdd) private returns (uint) {\r\n        uint newHisseId=block.timestamp;\r\n        Hisse memory newHisse = Hisse(_hisse, realEstateId, ownAdd, true);\r\n        hisseIdHisseMap[newHisseId] = newHisse;            \r\n        ownerHisseIdMap[ownAdd].push(newHisseId);   \r\n        return newHisseId;\r\n    }\r\n\r\n    function getOwnerHisseId(address ownAdd, uint[] memory hisseIdList) public view returns(uint) {\r\n        for(uint i = 0; i< hisseIdList.length; i++){\r\n            uint hisseId = hisseIdList[i];\r\n            if(hisseIdHisseMap[hisseId].ownerAdd == ownAdd){\r\n                return hisseId;\r\n            }\r\n        }\r\n        return 0;\r\n    }\r\n\r\n    function changeOwnerShip(uint hisseId, address newOwner, address oldOwner) public {\r\n        Hisse memory hisse  = hisseIdHisseMap[hisseId];\r\n        require(hisse.registered, \"Hisse bulunamadi\");\r\n        //require(ownerContract.isAdmin(msg.sender), \"Bu islemi sadece admin yapabilir\");\r\n\r\n        hisseIdHisseMap[hisseId].ownerAdd = newOwner;\r\n        \r\n        uint[] storage hisseIdList = ownerHisseIdMap[oldOwner];\r\n        for(uint i = 0; i < hisseIdList.length; i++){\r\n            if(hisseIdList[i] == hisseId){\r\n                hisseIdList[i] = 0;\r\n            } \r\n        }\r\n        ownerHisseIdMap[newOwner].push(hisseId);\r\n    }\r\n\r\n    function hisseSatisaCikabilirMi(uint hisseId, address ownAdd) public view returns(bool){\r\n        Hisse memory hisse  = hisseIdHisseMap[hisseId];\r\n        return hisse.registered && hisse.ownerAdd == ownAdd;\r\n    }\r\n\r\n    function getOwnerHisseId(address ownAdd, uint index) public view returns(uint){\r\n        return ownerHisseIdMap[ownAdd][index];\r\n    }\r\n\r\n    function getOwnerHisseLength(address ownAdd) public view returns(uint){\r\n        return ownerHisseIdMap[ownAdd].length;\r\n    }\r\n\r\n    function getHisse(uint hisseId) public view returns(Hisse memory){\r\n        return hisseIdHisseMap[hisseId];\r\n    }\r\n\r\n    function getAllHissedarsByHisseId(uint queryHisseId) public view returns(Hisse[] memory){\r\n        Hisse memory hisse = hisseIdHisseMap[queryHisseId];\r\n        RealEstateHisse memory realEstateHisse = realEstateIdHisseMap[hisse.realEstateId];\r\n        Hisse [] memory result = new Hisse[](realEstateHisse.hisseIdList.length);\r\n        uint index = 0;\r\n        if(realEstateHisse.registered) {\r\n            for (uint y = 0; y < realEstateHisse.hisseIdList.length; y++) {\r\n                uint hisseId =  realEstateHisse.hisseIdList[y];\r\n                result[index++] =  hisseIdHisseMap[hisseId];\r\n            }         \r\n        }\r\n        return result;\r\n    }\r\n\r\n    function getAllRealEstateAndHisse() public view returns(HisseView[] memory){\r\n        uint[] memory realEstateLUT = realEstateContract.getRealEstateLUT();\r\n        HisseView [] memory result = new HisseView[](hisseIdLUT.length + realEstateLUT.length);\r\n        uint index = 0;\r\n        for(uint i = 0; i< realEstateLUT.length; i++){\r\n            uint realEstateId = realEstateLUT[i];\r\n            RealEstateHisse memory realEstateHisse = realEstateIdHisseMap[realEstateId];\r\n            RealEstateData memory realEstateData = realEstateContract.getRealEstateInfo(realEstateId);\r\n            if(realEstateHisse.registered){\r\n                for (uint y = 0; y < realEstateHisse.hisseIdList.length; y++) {\r\n                    uint hisseId =  realEstateHisse.hisseIdList[y];\r\n                    result[index++] = HisseView(realEstateId, hisseId, hisseIdHisseMap[hisseId], realEstateData, realEstateHisse.toplamHisseMiktar);  \r\n                }\r\n                if(realEstateHisse.toplamHisseMiktar < realEstateHisse.payda){\r\n                    result[index++] = HisseView(realEstateId, 0, Hisse(0,0,address(0),false), realEstateData, 0);    \r\n                }                \r\n            }else{                \r\n                result[index++] = HisseView(realEstateId, 0, Hisse(0,0,address(0),false), realEstateData, 0);\r\n            }\r\n        }\r\n        return result;\r\n    }\r\n\r\n}",
  "sourcePath": "D:\\Ethereum Projects\\DAWithEth\\truffle-project\\contracts\\RealEstateOwnerRelation.sol",
  "compiler": {
    "name": "solc",
    "version": "0.8.14+commit.80d49f37.Emscripten.clang"
  },
  "schemaVersion": "3.4.11",
  "updatedAt": "2023-07-17T20:39:16.203Z",
  "networkType": "ethereum",
  "devdoc": {
    "kind": "dev",
    "methods": {},
    "version": 1
  },
  "userdoc": {
    "kind": "user",
    "methods": {},
    "version": 1
  }
}