{
  "contractName": "RealEstateSaleAd",
  "abi": [
    {
      "inputs": [
        {
          "internalType": "address",
          "name": "ownerContractAdd",
          "type": "address"
        },
        {
          "internalType": "address",
          "name": "realOwnRelAddress",
          "type": "address"
        },
        {
          "internalType": "address",
          "name": "realEstateAddress",
          "type": "address"
        }
      ],
      "stateMutability": "nonpayable",
      "type": "constructor"
    },
    {
      "anonymous": false,
      "inputs": [
        {
          "indexed": false,
          "internalType": "uint256",
          "name": "ilanId",
          "type": "uint256"
        },
        {
          "indexed": false,
          "internalType": "address",
          "name": "saticiId",
          "type": "address"
        },
        {
          "indexed": false,
          "internalType": "address",
          "name": "aliciId",
          "type": "address"
        }
      ],
      "name": "aliciIcinKilitlendi",
      "type": "event"
    },
    {
      "anonymous": false,
      "inputs": [
        {
          "indexed": false,
          "internalType": "address",
          "name": "alici",
          "type": "address"
        },
        {
          "indexed": false,
          "internalType": "uint256",
          "name": "ilanId",
          "type": "uint256"
        },
        {
          "indexed": false,
          "internalType": "uint256",
          "name": "miktar",
          "type": "uint256"
        }
      ],
      "name": "alicisistemHesabinaParaAktardi",
      "type": "event"
    },
    {
      "anonymous": false,
      "inputs": [
        {
          "indexed": false,
          "internalType": "uint256",
          "name": "hisseId",
          "type": "uint256"
        },
        {
          "indexed": false,
          "internalType": "address",
          "name": "alici",
          "type": "address"
        },
        {
          "indexed": false,
          "internalType": "address",
          "name": "satici",
          "type": "address"
        },
        {
          "indexed": false,
          "internalType": "uint256",
          "name": "fiyat",
          "type": "uint256"
        },
        {
          "indexed": false,
          "internalType": "uint256",
          "name": "zaman",
          "type": "uint256"
        }
      ],
      "name": "changedOwnerShip",
      "type": "event"
    },
    {
      "anonymous": false,
      "inputs": [
        {
          "indexed": false,
          "internalType": "uint256",
          "name": "ilanId",
          "type": "uint256"
        },
        {
          "indexed": false,
          "internalType": "uint256",
          "name": "yeniSatisFiyat",
          "type": "uint256"
        },
        {
          "indexed": false,
          "internalType": "address",
          "name": "saticiId",
          "type": "address"
        }
      ],
      "name": "fiyatDegistirildi",
      "type": "event"
    },
    {
      "anonymous": false,
      "inputs": [
        {
          "indexed": false,
          "internalType": "uint256",
          "name": "hisseId",
          "type": "uint256"
        },
        {
          "indexed": false,
          "internalType": "address",
          "name": "saticiId",
          "type": "address"
        },
        {
          "indexed": false,
          "internalType": "uint256",
          "name": "ilanId",
          "type": "uint256"
        },
        {
          "indexed": false,
          "internalType": "uint256",
          "name": "fiyat",
          "type": "uint256"
        }
      ],
      "name": "ilanOlusturuldu",
      "type": "event"
    },
    {
      "anonymous": false,
      "inputs": [
        {
          "indexed": false,
          "internalType": "address",
          "name": "saticiId",
          "type": "address"
        },
        {
          "indexed": false,
          "internalType": "uint256",
          "name": "ilanId",
          "type": "uint256"
        }
      ],
      "name": "ilanYayindanKaldirildi",
      "type": "event"
    },
    {
      "anonymous": false,
      "inputs": [
        {
          "indexed": false,
          "internalType": "uint256",
          "name": "ilanId",
          "type": "uint256"
        }
      ],
      "name": "kilitKaldirildiWithAliciOnayi",
      "type": "event"
    },
    {
      "anonymous": false,
      "inputs": [
        {
          "indexed": false,
          "internalType": "uint256",
          "name": "ilanId",
          "type": "uint256"
        }
      ],
      "name": "kilitKaldirildiWithSaticiOnayi",
      "type": "event"
    },
    {
      "anonymous": false,
      "inputs": [
        {
          "indexed": false,
          "internalType": "address",
          "name": "satici",
          "type": "address"
        },
        {
          "indexed": false,
          "internalType": "uint256",
          "name": "ilanId",
          "type": "uint256"
        },
        {
          "indexed": false,
          "internalType": "uint256",
          "name": "miktar",
          "type": "uint256"
        }
      ],
      "name": "saticiSistemHesabinaTapuHarciAktardi",
      "type": "event"
    },
    {
      "inputs": [
        {
          "internalType": "uint256",
          "name": "",
          "type": "uint256"
        }
      ],
      "name": "adIdLUT",
      "outputs": [
        {
          "internalType": "uint256",
          "name": "",
          "type": "uint256"
        }
      ],
      "stateMutability": "view",
      "type": "function",
      "constant": true
    },
    {
      "inputs": [
        {
          "internalType": "uint256",
          "name": "",
          "type": "uint256"
        }
      ],
      "name": "adIdMap",
      "outputs": [
        {
          "internalType": "uint256",
          "name": "hisseId",
          "type": "uint256"
        },
        {
          "internalType": "address",
          "name": "satici",
          "type": "address"
        },
        {
          "internalType": "address",
          "name": "alici",
          "type": "address"
        },
        {
          "internalType": "enum NotaryContractBase.State",
          "name": "state",
          "type": "uint8"
        },
        {
          "internalType": "uint256",
          "name": "rayicBedeli",
          "type": "uint256"
        },
        {
          "internalType": "uint256",
          "name": "fiyat",
          "type": "uint256"
        },
        {
          "internalType": "bool",
          "name": "borcuVarMi",
          "type": "bool"
        },
        {
          "internalType": "uint256",
          "name": "adIdLUTIndex",
          "type": "uint256"
        },
        {
          "internalType": "bool",
          "name": "aliciParaTransferi",
          "type": "bool"
        },
        {
          "internalType": "bool",
          "name": "saticiParaTransferi",
          "type": "bool"
        }
      ],
      "stateMutability": "view",
      "type": "function",
      "constant": true
    },
    {
      "inputs": [
        {
          "internalType": "uint256",
          "name": "",
          "type": "uint256"
        }
      ],
      "name": "hisseIdAdIdMap",
      "outputs": [
        {
          "internalType": "uint256",
          "name": "",
          "type": "uint256"
        }
      ],
      "stateMutability": "view",
      "type": "function",
      "constant": true
    },
    {
      "inputs": [
        {
          "internalType": "address",
          "name": "",
          "type": "address"
        },
        {
          "internalType": "uint256",
          "name": "",
          "type": "uint256"
        }
      ],
      "name": "ownerAdIdListMap",
      "outputs": [
        {
          "internalType": "uint256",
          "name": "",
          "type": "uint256"
        }
      ],
      "stateMutability": "view",
      "type": "function",
      "constant": true
    },
    {
      "inputs": [
        {
          "internalType": "uint256",
          "name": "hisseId",
          "type": "uint256"
        },
        {
          "internalType": "uint256",
          "name": "rayicBedeli",
          "type": "uint256"
        },
        {
          "internalType": "uint256",
          "name": "satisFiyat",
          "type": "uint256"
        },
        {
          "internalType": "bool",
          "name": "borcuVarMi",
          "type": "bool"
        }
      ],
      "name": "ilanOlustur",
      "outputs": [],
      "stateMutability": "nonpayable",
      "type": "function"
    },
    {
      "inputs": [
        {
          "internalType": "uint256",
          "name": "ilanId",
          "type": "uint256"
        }
      ],
      "name": "ilanYayindanKaldir",
      "outputs": [],
      "stateMutability": "nonpayable",
      "type": "function"
    },
    {
      "inputs": [
        {
          "internalType": "uint256",
          "name": "ilanId",
          "type": "uint256"
        },
        {
          "internalType": "address",
          "name": "aliciAdd",
          "type": "address"
        },
        {
          "internalType": "uint256",
          "name": "fiyat",
          "type": "uint256"
        }
      ],
      "name": "aliciIcinKilitle",
      "outputs": [],
      "stateMutability": "nonpayable",
      "type": "function"
    },
    {
      "inputs": [
        {
          "internalType": "uint256",
          "name": "ilanId",
          "type": "uint256"
        },
        {
          "internalType": "uint256",
          "name": "newfiyat",
          "type": "uint256"
        }
      ],
      "name": "changeSatisFiyat",
      "outputs": [],
      "stateMutability": "nonpayable",
      "type": "function"
    },
    {
      "inputs": [
        {
          "internalType": "uint256",
          "name": "ilanId",
          "type": "uint256"
        }
      ],
      "name": "kilitKaldirWithAliciOnayi",
      "outputs": [],
      "stateMutability": "nonpayable",
      "type": "function"
    },
    {
      "inputs": [
        {
          "internalType": "uint256",
          "name": "ilanId",
          "type": "uint256"
        }
      ],
      "name": "kilitKaldirWithSaticiOnayi",
      "outputs": [],
      "stateMutability": "nonpayable",
      "type": "function"
    },
    {
      "inputs": [
        {
          "internalType": "address",
          "name": "ownAdd",
          "type": "address"
        }
      ],
      "name": "getUserAds",
      "outputs": [
        {
          "components": [
            {
              "internalType": "uint256",
              "name": "hisseId",
              "type": "uint256"
            },
            {
              "internalType": "address",
              "name": "satici",
              "type": "address"
            },
            {
              "internalType": "address",
              "name": "alici",
              "type": "address"
            },
            {
              "internalType": "enum NotaryContractBase.State",
              "name": "state",
              "type": "uint8"
            },
            {
              "internalType": "uint256",
              "name": "rayicBedeli",
              "type": "uint256"
            },
            {
              "internalType": "uint256",
              "name": "fiyat",
              "type": "uint256"
            },
            {
              "internalType": "bool",
              "name": "borcuVarMi",
              "type": "bool"
            },
            {
              "internalType": "uint256",
              "name": "adIdLUTIndex",
              "type": "uint256"
            },
            {
              "internalType": "bool",
              "name": "aliciParaTransferi",
              "type": "bool"
            },
            {
              "internalType": "bool",
              "name": "saticiParaTransferi",
              "type": "bool"
            }
          ],
          "internalType": "struct NotaryContractBase.Advertisement[]",
          "name": "",
          "type": "tuple[]"
        }
      ],
      "stateMutability": "view",
      "type": "function",
      "constant": true
    },
    {
      "inputs": [
        {
          "internalType": "uint256",
          "name": "ilanId",
          "type": "uint256"
        }
      ],
      "name": "ilanaTeklifVerilebilirMi",
      "outputs": [
        {
          "internalType": "bool",
          "name": "",
          "type": "bool"
        }
      ],
      "stateMutability": "view",
      "type": "function",
      "constant": true
    },
    {
      "inputs": [
        {
          "internalType": "uint256",
          "name": "ilanId",
          "type": "uint256"
        },
        {
          "internalType": "uint256",
          "name": "fiyat",
          "type": "uint256"
        }
      ],
      "name": "teklifFiyatRaicBedeldenDusukMu",
      "outputs": [
        {
          "internalType": "bool",
          "name": "",
          "type": "bool"
        }
      ],
      "stateMutability": "view",
      "type": "function",
      "constant": true
    },
    {
      "inputs": [
        {
          "internalType": "uint256",
          "name": "ilanId",
          "type": "uint256"
        }
      ],
      "name": "getIlanSatici",
      "outputs": [
        {
          "internalType": "address",
          "name": "",
          "type": "address"
        }
      ],
      "stateMutability": "view",
      "type": "function",
      "constant": true
    },
    {
      "inputs": [
        {
          "internalType": "uint256",
          "name": "ilanId",
          "type": "uint256"
        }
      ],
      "name": "alicidanParaAlindi",
      "outputs": [],
      "stateMutability": "nonpayable",
      "type": "function"
    },
    {
      "inputs": [
        {
          "internalType": "uint256",
          "name": "ilanId",
          "type": "uint256"
        }
      ],
      "name": "saticidanTapuHarciAlindi",
      "outputs": [],
      "stateMutability": "nonpayable",
      "type": "function"
    },
    {
      "inputs": [],
      "name": "getAliciIcinKitlenenIlanlar",
      "outputs": [
        {
          "components": [
            {
              "internalType": "uint256",
              "name": "ilanId",
              "type": "uint256"
            },
            {
              "components": [
                {
                  "internalType": "uint256",
                  "name": "hisseId",
                  "type": "uint256"
                },
                {
                  "internalType": "address",
                  "name": "satici",
                  "type": "address"
                },
                {
                  "internalType": "address",
                  "name": "alici",
                  "type": "address"
                },
                {
                  "internalType": "enum NotaryContractBase.State",
                  "name": "state",
                  "type": "uint8"
                },
                {
                  "internalType": "uint256",
                  "name": "rayicBedeli",
                  "type": "uint256"
                },
                {
                  "internalType": "uint256",
                  "name": "fiyat",
                  "type": "uint256"
                },
                {
                  "internalType": "bool",
                  "name": "borcuVarMi",
                  "type": "bool"
                },
                {
                  "internalType": "uint256",
                  "name": "adIdLUTIndex",
                  "type": "uint256"
                },
                {
                  "internalType": "bool",
                  "name": "aliciParaTransferi",
                  "type": "bool"
                },
                {
                  "internalType": "bool",
                  "name": "saticiParaTransferi",
                  "type": "bool"
                }
              ],
              "internalType": "struct NotaryContractBase.Advertisement",
              "name": "ad",
              "type": "tuple"
            }
          ],
          "internalType": "struct NotaryContractBase.AdDto[]",
          "name": "",
          "type": "tuple[]"
        }
      ],
      "stateMutability": "view",
      "type": "function",
      "constant": true
    },
    {
      "inputs": [
        {
          "internalType": "address",
          "name": "ownAdd",
          "type": "address"
        }
      ],
      "name": "getUserAssets",
      "outputs": [
        {
          "components": [
            {
              "internalType": "uint256",
              "name": "hisseId",
              "type": "uint256"
            },
            {
              "components": [
                {
                  "internalType": "uint256",
                  "name": "pay",
                  "type": "uint256"
                },
                {
                  "internalType": "uint256",
                  "name": "realEstateId",
                  "type": "uint256"
                },
                {
                  "internalType": "address",
                  "name": "ownerAdd",
                  "type": "address"
                },
                {
                  "internalType": "bool",
                  "name": "registered",
                  "type": "bool"
                }
              ],
              "internalType": "struct NotaryContractBase.Hisse",
              "name": "hisse",
              "type": "tuple"
            },
            {
              "internalType": "uint256",
              "name": "ilanId",
              "type": "uint256"
            },
            {
              "components": [
                {
                  "internalType": "uint256",
                  "name": "hisseId",
                  "type": "uint256"
                },
                {
                  "internalType": "address",
                  "name": "satici",
                  "type": "address"
                },
                {
                  "internalType": "address",
                  "name": "alici",
                  "type": "address"
                },
                {
                  "internalType": "enum NotaryContractBase.State",
                  "name": "state",
                  "type": "uint8"
                },
                {
                  "internalType": "uint256",
                  "name": "rayicBedeli",
                  "type": "uint256"
                },
                {
                  "internalType": "uint256",
                  "name": "fiyat",
                  "type": "uint256"
                },
                {
                  "internalType": "bool",
                  "name": "borcuVarMi",
                  "type": "bool"
                },
                {
                  "internalType": "uint256",
                  "name": "adIdLUTIndex",
                  "type": "uint256"
                },
                {
                  "internalType": "bool",
                  "name": "aliciParaTransferi",
                  "type": "bool"
                },
                {
                  "internalType": "bool",
                  "name": "saticiParaTransferi",
                  "type": "bool"
                }
              ],
              "internalType": "struct NotaryContractBase.Advertisement",
              "name": "ad",
              "type": "tuple"
            },
            {
              "components": [
                {
                  "internalType": "uint256",
                  "name": "realEstateId",
                  "type": "uint256"
                },
                {
                  "internalType": "string",
                  "name": "il",
                  "type": "string"
                },
                {
                  "internalType": "string",
                  "name": "ilce",
                  "type": "string"
                },
                {
                  "internalType": "string",
                  "name": "mahalle",
                  "type": "string"
                },
                {
                  "internalType": "string",
                  "name": "cadde",
                  "type": "string"
                },
                {
                  "internalType": "string",
                  "name": "sokak",
                  "type": "string"
                },
                {
                  "internalType": "uint256",
                  "name": "kat",
                  "type": "uint256"
                },
                {
                  "internalType": "string",
                  "name": "daireNo",
                  "type": "string"
                },
                {
                  "internalType": "string",
                  "name": "tasinmazTip",
                  "type": "string"
                },
                {
                  "internalType": "string",
                  "name": "nitelik",
                  "type": "string"
                },
                {
                  "internalType": "string",
                  "name": "ada",
                  "type": "string"
                },
                {
                  "internalType": "string",
                  "name": "parsel",
                  "type": "string"
                },
                {
                  "internalType": "uint256",
                  "name": "payda",
                  "type": "uint256"
                },
                {
                  "internalType": "bool",
                  "name": "registered",
                  "type": "bool"
                }
              ],
              "internalType": "struct NotaryContractBase.RealEstateData",
              "name": "realEstateData",
              "type": "tuple"
            }
          ],
          "internalType": "struct NotaryContractBase.HisseAdData[]",
          "name": "",
          "type": "tuple[]"
        }
      ],
      "stateMutability": "view",
      "type": "function",
      "constant": true
    },
    {
      "inputs": [],
      "name": "getAllAds",
      "outputs": [
        {
          "components": [
            {
              "internalType": "uint256",
              "name": "hisseId",
              "type": "uint256"
            },
            {
              "components": [
                {
                  "internalType": "uint256",
                  "name": "pay",
                  "type": "uint256"
                },
                {
                  "internalType": "uint256",
                  "name": "realEstateId",
                  "type": "uint256"
                },
                {
                  "internalType": "address",
                  "name": "ownerAdd",
                  "type": "address"
                },
                {
                  "internalType": "bool",
                  "name": "registered",
                  "type": "bool"
                }
              ],
              "internalType": "struct NotaryContractBase.Hisse",
              "name": "hisse",
              "type": "tuple"
            },
            {
              "internalType": "uint256",
              "name": "ilanId",
              "type": "uint256"
            },
            {
              "components": [
                {
                  "internalType": "uint256",
                  "name": "hisseId",
                  "type": "uint256"
                },
                {
                  "internalType": "address",
                  "name": "satici",
                  "type": "address"
                },
                {
                  "internalType": "address",
                  "name": "alici",
                  "type": "address"
                },
                {
                  "internalType": "enum NotaryContractBase.State",
                  "name": "state",
                  "type": "uint8"
                },
                {
                  "internalType": "uint256",
                  "name": "rayicBedeli",
                  "type": "uint256"
                },
                {
                  "internalType": "uint256",
                  "name": "fiyat",
                  "type": "uint256"
                },
                {
                  "internalType": "bool",
                  "name": "borcuVarMi",
                  "type": "bool"
                },
                {
                  "internalType": "uint256",
                  "name": "adIdLUTIndex",
                  "type": "uint256"
                },
                {
                  "internalType": "bool",
                  "name": "aliciParaTransferi",
                  "type": "bool"
                },
                {
                  "internalType": "bool",
                  "name": "saticiParaTransferi",
                  "type": "bool"
                }
              ],
              "internalType": "struct NotaryContractBase.Advertisement",
              "name": "ad",
              "type": "tuple"
            },
            {
              "components": [
                {
                  "internalType": "uint256",
                  "name": "realEstateId",
                  "type": "uint256"
                },
                {
                  "internalType": "string",
                  "name": "il",
                  "type": "string"
                },
                {
                  "internalType": "string",
                  "name": "ilce",
                  "type": "string"
                },
                {
                  "internalType": "string",
                  "name": "mahalle",
                  "type": "string"
                },
                {
                  "internalType": "string",
                  "name": "cadde",
                  "type": "string"
                },
                {
                  "internalType": "string",
                  "name": "sokak",
                  "type": "string"
                },
                {
                  "internalType": "uint256",
                  "name": "kat",
                  "type": "uint256"
                },
                {
                  "internalType": "string",
                  "name": "daireNo",
                  "type": "string"
                },
                {
                  "internalType": "string",
                  "name": "tasinmazTip",
                  "type": "string"
                },
                {
                  "internalType": "string",
                  "name": "nitelik",
                  "type": "string"
                },
                {
                  "internalType": "string",
                  "name": "ada",
                  "type": "string"
                },
                {
                  "internalType": "string",
                  "name": "parsel",
                  "type": "string"
                },
                {
                  "internalType": "uint256",
                  "name": "payda",
                  "type": "uint256"
                },
                {
                  "internalType": "bool",
                  "name": "registered",
                  "type": "bool"
                }
              ],
              "internalType": "struct NotaryContractBase.RealEstateData",
              "name": "realEstateData",
              "type": "tuple"
            }
          ],
          "internalType": "struct NotaryContractBase.HisseAdData[]",
          "name": "",
          "type": "tuple[]"
        }
      ],
      "stateMutability": "view",
      "type": "function",
      "constant": true
    },
    {
      "inputs": [
        {
          "internalType": "uint256",
          "name": "ilanId",
          "type": "uint256"
        }
      ],
      "name": "getHisseAdDataById",
      "outputs": [
        {
          "components": [
            {
              "internalType": "uint256",
              "name": "hisseId",
              "type": "uint256"
            },
            {
              "components": [
                {
                  "internalType": "uint256",
                  "name": "pay",
                  "type": "uint256"
                },
                {
                  "internalType": "uint256",
                  "name": "realEstateId",
                  "type": "uint256"
                },
                {
                  "internalType": "address",
                  "name": "ownerAdd",
                  "type": "address"
                },
                {
                  "internalType": "bool",
                  "name": "registered",
                  "type": "bool"
                }
              ],
              "internalType": "struct NotaryContractBase.Hisse",
              "name": "hisse",
              "type": "tuple"
            },
            {
              "internalType": "uint256",
              "name": "ilanId",
              "type": "uint256"
            },
            {
              "components": [
                {
                  "internalType": "uint256",
                  "name": "hisseId",
                  "type": "uint256"
                },
                {
                  "internalType": "address",
                  "name": "satici",
                  "type": "address"
                },
                {
                  "internalType": "address",
                  "name": "alici",
                  "type": "address"
                },
                {
                  "internalType": "enum NotaryContractBase.State",
                  "name": "state",
                  "type": "uint8"
                },
                {
                  "internalType": "uint256",
                  "name": "rayicBedeli",
                  "type": "uint256"
                },
                {
                  "internalType": "uint256",
                  "name": "fiyat",
                  "type": "uint256"
                },
                {
                  "internalType": "bool",
                  "name": "borcuVarMi",
                  "type": "bool"
                },
                {
                  "internalType": "uint256",
                  "name": "adIdLUTIndex",
                  "type": "uint256"
                },
                {
                  "internalType": "bool",
                  "name": "aliciParaTransferi",
                  "type": "bool"
                },
                {
                  "internalType": "bool",
                  "name": "saticiParaTransferi",
                  "type": "bool"
                }
              ],
              "internalType": "struct NotaryContractBase.Advertisement",
              "name": "ad",
              "type": "tuple"
            },
            {
              "components": [
                {
                  "internalType": "uint256",
                  "name": "realEstateId",
                  "type": "uint256"
                },
                {
                  "internalType": "string",
                  "name": "il",
                  "type": "string"
                },
                {
                  "internalType": "string",
                  "name": "ilce",
                  "type": "string"
                },
                {
                  "internalType": "string",
                  "name": "mahalle",
                  "type": "string"
                },
                {
                  "internalType": "string",
                  "name": "cadde",
                  "type": "string"
                },
                {
                  "internalType": "string",
                  "name": "sokak",
                  "type": "string"
                },
                {
                  "internalType": "uint256",
                  "name": "kat",
                  "type": "uint256"
                },
                {
                  "internalType": "string",
                  "name": "daireNo",
                  "type": "string"
                },
                {
                  "internalType": "string",
                  "name": "tasinmazTip",
                  "type": "string"
                },
                {
                  "internalType": "string",
                  "name": "nitelik",
                  "type": "string"
                },
                {
                  "internalType": "string",
                  "name": "ada",
                  "type": "string"
                },
                {
                  "internalType": "string",
                  "name": "parsel",
                  "type": "string"
                },
                {
                  "internalType": "uint256",
                  "name": "payda",
                  "type": "uint256"
                },
                {
                  "internalType": "bool",
                  "name": "registered",
                  "type": "bool"
                }
              ],
              "internalType": "struct NotaryContractBase.RealEstateData",
              "name": "realEstateData",
              "type": "tuple"
            }
          ],
          "internalType": "struct NotaryContractBase.HisseAdData",
          "name": "",
          "type": "tuple"
        }
      ],
      "stateMutability": "view",
      "type": "function",
      "constant": true
    },
    {
      "inputs": [
        {
          "internalType": "uint256",
          "name": "ilanId",
          "type": "uint256"
        }
      ],
      "name": "isAdYayinda",
      "outputs": [
        {
          "internalType": "bool",
          "name": "",
          "type": "bool"
        }
      ],
      "stateMutability": "view",
      "type": "function",
      "constant": true
    }
  ],
  "bytecode": "0x6080604052600060075560006008553480156200001b57600080fd5b50604051620052b9380380620052b9833981810160405281019062000041919062000176565b82600160006101000a81548173ffffffffffffffffffffffffffffffffffffffff021916908373ffffffffffffffffffffffffffffffffffffffff160217905550816000806101000a81548173ffffffffffffffffffffffffffffffffffffffff021916908373ffffffffffffffffffffffffffffffffffffffff16021790555080600260006101000a81548173ffffffffffffffffffffffffffffffffffffffff021916908373ffffffffffffffffffffffffffffffffffffffff160217905550505050620001d2565b600080fd5b600073ffffffffffffffffffffffffffffffffffffffff82169050919050565b60006200013e8262000111565b9050919050565b620001508162000131565b81146200015c57600080fd5b50565b600081519050620001708162000145565b92915050565b6000806000606084860312156200019257620001916200010c565b5b6000620001a2868287016200015f565b9350506020620001b5868287016200015f565b9250506040620001c8868287016200015f565b9150509250925092565b6150d780620001e26000396000f3fe608060405234801561001057600080fd5b50600436106101375760003560e01c80638f7df5fe116100b8578063cca1baa11161007c578063cca1baa1146103a1578063da05ae33146103bd578063db77f85e146103ed578063dc589fad1461041d578063e7f6b3a014610439578063ebed05921461045557610137565b80638f7df5fe146102ce5780639206e938146102fe578063af54c71014610337578063b79f442314610367578063ba1468461461038557610137565b806349a2c6b0116100ff57806349a2c6b0146102065780634dff90a9146102365780635e1fac6c14610252578063765ff061146102825780638c193ff5146102b257610137565b8063157c2a401461013c5780633505d12f14610158578063384154f0146101885780633fa020e9146101b8578063407e17d6146101e8575b600080fd5b6101566004803603810190610151919061384b565b610471565b005b610172600480360381019061016d919061384b565b610622565b60405161017f9190613887565b60405180910390f35b6101a2600480360381019061019d919061384b565b61063a565b6040516101af9190613887565b60405180910390f35b6101d260048036038101906101cd919061384b565b610652565b6040516101df91906138bd565b60405180910390f35b6101f06106a6565b6040516101fd9190613b5a565b60405180910390f35b610220600480360381019061021b9190613ba8565b610a14565b60405161022d9190613887565b60405180910390f35b610250600480360381019061024b9190613be8565b610a45565b005b61026c6004803603810190610267919061384b565b610d47565b6040516102799190613f0e565b60405180910390f35b61029c60048036038101906102979190613f30565b611053565b6040516102a99190614097565b60405180910390f35b6102cc60048036038101906102c7919061384b565b61155a565b005b6102e860048036038101906102e3919061384b565b611989565b6040516102f591906140c8565b60405180910390f35b6103186004803603810190610313919061384b565b6119c9565b60405161032e9a999897969594939291906140f2565b60405180910390f35b610351600480360381019061034c919061384b565b611a91565b60405161035e91906138bd565b60405180910390f35b61036f611c49565b60405161037c9190614097565b60405180910390f35b61039f600480360381019061039a919061384b565b612001565b005b6103bb60048036038101906103b6919061384b565b6121bf565b005b6103d760048036038101906103d29190613f30565b6125ee565b6040516103e4919061423e565b60405180910390f35b61040760048036038101906104029190614260565b612ac1565b60405161041491906138bd565b60405180910390f35b610437600480360381019061043291906142cc565b612ae5565b005b610453600480360381019061044e919061384b565b612f87565b005b61046f600480360381019061046a9190614260565b61312e565b005b3373ffffffffffffffffffffffffffffffffffffffff166003600083815260200190815260200160002060010160009054906101000a900473ffffffffffffffffffffffffffffffffffffffff1673ffffffffffffffffffffffffffffffffffffffff1614610515576040517f08c379a000000000000000000000000000000000000000000000000000000000815260040161050c906143b6565b60405180910390fd5b6001600581111561052957610528613954565b5b6003600083815260200190815260200160002060020160149054906101000a900460ff16600581111561055f5761055e613954565b5b1461059f576040517f08c379a000000000000000000000000000000000000000000000000000000000815260040161059690614448565b60405180910390fd5b600380600083815260200190815260200160002060020160146101000a81548160ff021916908360058111156105d8576105d7613954565b5b02179055506105e681613430565b7f403a6f9792692b3ee502fa20caf6bb8fd6dcf2af50f28f5745b111e6170b05143382604051610617929190614468565b60405180910390a150565b60046020528060005260406000206000915090505481565b60066020528060005260406000206000915090505481565b60006001600581111561066857610667613954565b5b6003600084815260200190815260200160002060020160149054906101000a900460ff16600581111561069e5761069d613954565b5b149050919050565b6060600160009054906101000a900473ffffffffffffffffffffffffffffffffffffffff1673ffffffffffffffffffffffffffffffffffffffff166324d7806c336040518263ffffffff1660e01b815260040161070391906140c8565b602060405180830381865afa158015610720573d6000803e3d6000fd5b505050506040513d601f19601f8201168201806040525081019061074491906144a6565b610783576040517f08c379a000000000000000000000000000000000000000000000000000000000815260040161077a9061451f565b60405180910390fd5b600060085467ffffffffffffffff8111156107a1576107a061453f565b5b6040519080825280602002602001820160405280156107da57816020015b6107c7613658565b8152602001906001900390816107bf5790505b5090506000805b600754811015610a0b5760006006600083815260200190815260200160002054905060006003600083815260200190815260200160002060405180610140016040529081600082015481526020016001820160009054906101000a900473ffffffffffffffffffffffffffffffffffffffff1673ffffffffffffffffffffffffffffffffffffffff1673ffffffffffffffffffffffffffffffffffffffff1681526020016002820160009054906101000a900473ffffffffffffffffffffffffffffffffffffffff1673ffffffffffffffffffffffffffffffffffffffff1673ffffffffffffffffffffffffffffffffffffffff1681526020016002820160149054906101000a900460ff1660058111156108ff576108fe613954565b5b600581111561091157610910613954565b5b815260200160038201548152602001600482015481526020016005820160009054906101000a900460ff16151515158152602001600682015481526020016007820160009054906101000a900460ff161515151581526020016007820160019054906101000a900460ff16151515158152505090506002600581111561099a57610999613954565b5b816060015160058111156109b1576109b0613954565b5b036109f6576040518060400160405280838152602001828152508585806109d79061459d565b9650815181106109ea576109e96145e5565b5b60200260200101819052505b50508080610a039061459d565b9150506107e1565b50819250505090565b60056020528160005260406000208181548110610a3057600080fd5b90600052602060002001600091509150505481565b60006003600085815260200190815260200160002060405180610140016040529081600082015481526020016001820160009054906101000a900473ffffffffffffffffffffffffffffffffffffffff1673ffffffffffffffffffffffffffffffffffffffff1673ffffffffffffffffffffffffffffffffffffffff1681526020016002820160009054906101000a900473ffffffffffffffffffffffffffffffffffffffff1673ffffffffffffffffffffffffffffffffffffffff1673ffffffffffffffffffffffffffffffffffffffff1681526020016002820160149054906101000a900460ff166005811115610b4157610b40613954565b5b6005811115610b5357610b52613954565b5b815260200160038201548152602001600482015481526020016005820160009054906101000a900460ff16151515158152602001600682015481526020016007820160009054906101000a900460ff161515151581526020016007820160019054906101000a900460ff161515151581525050905060016005811115610bdc57610bdb613954565b5b81606001516005811115610bf357610bf2613954565b5b14610c33576040517f08c379a0000000000000000000000000000000000000000000000000000000008152600401610c2a90614448565b60405180910390fd5b8181608001511115610c7a576040517f08c379a0000000000000000000000000000000000000000000000000000000008152600401610c7190614686565b60405180910390fd5b60026003600086815260200190815260200160002060020160146101000a81548160ff02191690836005811115610cb457610cb3613954565b5b0217905550826003600086815260200190815260200160002060020160006101000a81548173ffffffffffffffffffffffffffffffffffffffff021916908373ffffffffffffffffffffffffffffffffffffffff16021790555081600360008681526020019081526020016000206004018190555060086000815480929190610d3c9061459d565b919050555050505050565b610d4f613678565b60006003600084815260200190815260200160002060405180610140016040529081600082015481526020016001820160009054906101000a900473ffffffffffffffffffffffffffffffffffffffff1673ffffffffffffffffffffffffffffffffffffffff1673ffffffffffffffffffffffffffffffffffffffff1681526020016002820160009054906101000a900473ffffffffffffffffffffffffffffffffffffffff1673ffffffffffffffffffffffffffffffffffffffff1673ffffffffffffffffffffffffffffffffffffffff1681526020016002820160149054906101000a900460ff166005811115610e4b57610e4a613954565b5b6005811115610e5d57610e5c613954565b5b815260200160038201548152602001600482015481526020016005820160009054906101000a900460ff16151515158152602001600682015481526020016007820160009054906101000a900460ff161515151581526020016007820160019054906101000a900460ff161515151581525050905060008060009054906101000a900473ffffffffffffffffffffffffffffffffffffffff1673ffffffffffffffffffffffffffffffffffffffff1663948c0d8e83600001516040518263ffffffff1660e01b8152600401610f329190613887565b608060405180830381865afa158015610f4f573d6000803e3d6000fd5b505050506040513d601f19601f82011682018060405250810190610f73919061479e565b90506000600260009054906101000a900473ffffffffffffffffffffffffffffffffffffffff1673ffffffffffffffffffffffffffffffffffffffff16639f8188b383602001516040518263ffffffff1660e01b8152600401610fd69190613887565b600060405180830381865afa158015610ff3573d6000803e3d6000fd5b505050506040513d6000823e3d601f19601f8201168201806040525081019061101c9190614adc565b90506040518060a0016040528084600001518152602001838152602001868152602001848152602001828152509350505050919050565b606060008060009054906101000a900473ffffffffffffffffffffffffffffffffffffffff1673ffffffffffffffffffffffffffffffffffffffff166351fe436a846040518263ffffffff1660e01b81526004016110b191906140c8565b602060405180830381865afa1580156110ce573d6000803e3d6000fd5b505050506040513d601f19601f820116820180604052508101906110f29190614b25565b905060008167ffffffffffffffff8111156111105761110f61453f565b5b60405190808252806020026020018201604052801561114957816020015b611136613678565b81526020019060019003908161112e5790505b5090506000805b8381101561154e5760008060009054906101000a900473ffffffffffffffffffffffffffffffffffffffff1673ffffffffffffffffffffffffffffffffffffffff1663794cc53388846040518363ffffffff1660e01b81526004016111b6929190614468565b602060405180830381865afa1580156111d3573d6000803e3d6000fd5b505050506040513d601f19601f820116820180604052508101906111f79190614b25565b90506000811461153a5760008060009054906101000a900473ffffffffffffffffffffffffffffffffffffffff1673ffffffffffffffffffffffffffffffffffffffff1663948c0d8e836040518263ffffffff1660e01b815260040161125d9190613887565b608060405180830381865afa15801561127a573d6000803e3d6000fd5b505050506040513d601f19601f8201168201806040525081019061129e919061479e565b90506000600260009054906101000a900473ffffffffffffffffffffffffffffffffffffffff1673ffffffffffffffffffffffffffffffffffffffff16639f8188b383602001516040518263ffffffff1660e01b81526004016113019190613887565b600060405180830381865afa15801561131e573d6000803e3d6000fd5b505050506040513d6000823e3d601f19601f820116820180604052508101906113479190614adc565b905060006004600085815260200190815260200160002054905060006003600083815260200190815260200160002060405180610140016040529081600082015481526020016001820160009054906101000a900473ffffffffffffffffffffffffffffffffffffffff1673ffffffffffffffffffffffffffffffffffffffff1673ffffffffffffffffffffffffffffffffffffffff1681526020016002820160009054906101000a900473ffffffffffffffffffffffffffffffffffffffff1673ffffffffffffffffffffffffffffffffffffffff1673ffffffffffffffffffffffffffffffffffffffff1681526020016002820160149054906101000a900460ff16600581111561145d5761145c613954565b5b600581111561146f5761146e613954565b5b815260200160038201548152602001600482015481526020016005820160009054906101000a900460ff16151515158152602001600682015481526020016007820160009054906101000a900460ff161515151581526020016007820160019054906101000a900460ff16151515158152505090506040518060a00160405280868152602001858152602001838152602001828152602001848152508888806115179061459d565b99508151811061152a576115296145e5565b5b6020026020010181905250505050505b5080806115469061459d565b915050611150565b50819350505050919050565b600160009054906101000a900473ffffffffffffffffffffffffffffffffffffffff1673ffffffffffffffffffffffffffffffffffffffff166324d7806c336040518263ffffffff1660e01b81526004016115b591906140c8565b602060405180830381865afa1580156115d2573d6000803e3d6000fd5b505050506040513d601f19601f820116820180604052508101906115f691906144a6565b611635576040517f08c379a000000000000000000000000000000000000000000000000000000000815260040161162c9061451f565b60405180910390fd5b60016003600083815260200190815260200160002060070160006101000a81548160ff02191690831515021790555060006003600083815260200190815260200160002060405180610140016040529081600082015481526020016001820160009054906101000a900473ffffffffffffffffffffffffffffffffffffffff1673ffffffffffffffffffffffffffffffffffffffff1673ffffffffffffffffffffffffffffffffffffffff1681526020016002820160009054906101000a900473ffffffffffffffffffffffffffffffffffffffff1673ffffffffffffffffffffffffffffffffffffffff1673ffffffffffffffffffffffffffffffffffffffff1681526020016002820160149054906101000a900460ff1660058111156117605761175f613954565b5b600581111561177257611771613954565b5b815260200160038201548152602001600482015481526020016005820160009054906101000a900460ff16151515158152602001600682015481526020016007820160009054906101000a900460ff161515151581526020016007820160019054906101000a900460ff1615151515815250509050806101200151156119415760008054906101000a900473ffffffffffffffffffffffffffffffffffffffff1673ffffffffffffffffffffffffffffffffffffffff166359451a7c8260000151836040015184602001516040518463ffffffff1660e01b815260040161185b93929190614b52565b600060405180830381600087803b15801561187557600080fd5b505af1158015611889573d6000803e3d6000fd5b5050505060046003600084815260200190815260200160002060020160146101000a81548160ff021916908360058111156118c7576118c6613954565b5b0217905550600860008154809291906118df90614b89565b91905055506118ed82613430565b7fae75e741823d4bd596c1c39c87e68936cf59d03a545ec749c31d1152c9a619778160000151826040015183602001518460a0015142604051611934959493929190614bb2565b60405180910390a1611985565b7f6d0553b0281ee3b4e72a4780b984f24b2d042d7e2813f904bdb787aec9c800578160400151838360a0015160405161197c93929190614c05565b60405180910390a15b5050565b60006003600083815260200190815260200160002060010160009054906101000a900473ffffffffffffffffffffffffffffffffffffffff169050919050565b60036020528060005260406000206000915090508060000154908060010160009054906101000a900473ffffffffffffffffffffffffffffffffffffffff16908060020160009054906101000a900473ffffffffffffffffffffffffffffffffffffffff16908060020160149054906101000a900460ff16908060030154908060040154908060050160009054906101000a900460ff16908060060154908060070160009054906101000a900460ff16908060070160019054906101000a900460ff1690508a565b6000806003600084815260200190815260200160002060405180610140016040529081600082015481526020016001820160009054906101000a900473ffffffffffffffffffffffffffffffffffffffff1673ffffffffffffffffffffffffffffffffffffffff1673ffffffffffffffffffffffffffffffffffffffff1681526020016002820160009054906101000a900473ffffffffffffffffffffffffffffffffffffffff1673ffffffffffffffffffffffffffffffffffffffff1673ffffffffffffffffffffffffffffffffffffffff1681526020016002820160149054906101000a900460ff166005811115611b8e57611b8d613954565b5b6005811115611ba057611b9f613954565b5b815260200160038201548152602001600482015481526020016005820160009054906101000a900460ff16151515158152602001600682015481526020016007820160009054906101000a900460ff161515151581526020016007820160019054906101000a900460ff161515151581525050905060016005811115611c2957611c28613954565b5b81606001516005811115611c4057611c3f613954565b5b14915050919050565b6060600060075467ffffffffffffffff811115611c6957611c6861453f565b5b604051908082528060200260200182016040528015611ca257816020015b611c8f613678565b815260200190600190039081611c875790505b50905060005b600754811015611ff95760006006600083815260200190815260200160002054905060006003600083815260200190815260200160002060405180610140016040529081600082015481526020016001820160009054906101000a900473ffffffffffffffffffffffffffffffffffffffff1673ffffffffffffffffffffffffffffffffffffffff1673ffffffffffffffffffffffffffffffffffffffff1681526020016002820160009054906101000a900473ffffffffffffffffffffffffffffffffffffffff1673ffffffffffffffffffffffffffffffffffffffff1673ffffffffffffffffffffffffffffffffffffffff1681526020016002820160149054906101000a900460ff166005811115611dc657611dc5613954565b5b6005811115611dd857611dd7613954565b5b815260200160038201548152602001600482015481526020016005820160009054906101000a900460ff16151515158152602001600682015481526020016007820160009054906101000a900460ff161515151581526020016007820160019054906101000a900460ff161515151581525050905060008060009054906101000a900473ffffffffffffffffffffffffffffffffffffffff1673ffffffffffffffffffffffffffffffffffffffff1663948c0d8e83600001516040518263ffffffff1660e01b8152600401611ead9190613887565b608060405180830381865afa158015611eca573d6000803e3d6000fd5b505050506040513d601f19601f82011682018060405250810190611eee919061479e565b90506000600260009054906101000a900473ffffffffffffffffffffffffffffffffffffffff1673ffffffffffffffffffffffffffffffffffffffff16639f8188b383602001516040518263ffffffff1660e01b8152600401611f519190613887565b600060405180830381865afa158015611f6e573d6000803e3d6000fd5b505050506040513d6000823e3d601f19601f82011682018060405250810190611f979190614adc565b90506040518060a001604052808460000151815260200183815260200185815260200184815260200182815250868681518110611fd757611fd66145e5565b5b6020026020010181905250505050508080611ff19061459d565b915050611ca8565b508091505090565b6003600082815260200190815260200160002060010160009054906101000a900473ffffffffffffffffffffffffffffffffffffffff1673ffffffffffffffffffffffffffffffffffffffff163373ffffffffffffffffffffffffffffffffffffffff16146120a5576040517f08c379a000000000000000000000000000000000000000000000000000000000815260040161209c906143b6565b60405180910390fd5b6005808111156120b8576120b7613954565b5b6003600083815260200190815260200160002060020160149054906101000a900460ff1660058111156120ee576120ed613954565b5b1461212e576040517f08c379a000000000000000000000000000000000000000000000000000000000815260040161212590614c88565b60405180910390fd5b60016003600083815260200190815260200160002060020160146101000a81548160ff0219169083600581111561216857612167613954565b5b02179055506008600081548092919061218090614b89565b91905055507f1943ff8fe66129619ad45b43d7666b90f9f10c041d2d491444879220812d647d816040516121b49190613887565b60405180910390a150565b600160009054906101000a900473ffffffffffffffffffffffffffffffffffffffff1673ffffffffffffffffffffffffffffffffffffffff166324d7806c336040518263ffffffff1660e01b815260040161221a91906140c8565b602060405180830381865afa158015612237573d6000803e3d6000fd5b505050506040513d601f19601f8201168201806040525081019061225b91906144a6565b61229a576040517f08c379a00000000000000000000000000000000000000000000000000000000081526004016122919061451f565b60405180910390fd5b60016003600083815260200190815260200160002060070160016101000a81548160ff02191690831515021790555060006003600083815260200190815260200160002060405180610140016040529081600082015481526020016001820160009054906101000a900473ffffffffffffffffffffffffffffffffffffffff1673ffffffffffffffffffffffffffffffffffffffff1673ffffffffffffffffffffffffffffffffffffffff1681526020016002820160009054906101000a900473ffffffffffffffffffffffffffffffffffffffff1673ffffffffffffffffffffffffffffffffffffffff1673ffffffffffffffffffffffffffffffffffffffff1681526020016002820160149054906101000a900460ff1660058111156123c5576123c4613954565b5b60058111156123d7576123d6613954565b5b815260200160038201548152602001600482015481526020016005820160009054906101000a900460ff16151515158152602001600682015481526020016007820160009054906101000a900460ff161515151581526020016007820160019054906101000a900460ff1615151515815250509050806101000151156125a65760008054906101000a900473ffffffffffffffffffffffffffffffffffffffff1673ffffffffffffffffffffffffffffffffffffffff166359451a7c8260000151836040015184602001516040518463ffffffff1660e01b81526004016124c093929190614b52565b600060405180830381600087803b1580156124da57600080fd5b505af11580156124ee573d6000803e3d6000fd5b5050505060046003600084815260200190815260200160002060020160146101000a81548160ff0219169083600581111561252c5761252b613954565b5b02179055506008600081548092919061254490614b89565b919050555061255282613430565b7fae75e741823d4bd596c1c39c87e68936cf59d03a545ec749c31d1152c9a619778160000151826040015183602001518460a0015142604051612599959493929190614bb2565b60405180910390a16125ea565b7f2cc7a87ac7c85b0bbd084923947c28d8c8bc79f2e7d60298c86b4e685f1e14ab8160400151838360a001516040516125e193929190614c05565b60405180910390a15b5050565b60606000600560008473ffffffffffffffffffffffffffffffffffffffff1673ffffffffffffffffffffffffffffffffffffffff16815260200190815260200160002080548060200260200160405190810160405280929190818152602001828054801561267b57602002820191906000526020600020905b815481526020019060010190808311612667575b505050505090506000815167ffffffffffffffff81111561269f5761269e61453f565b5b6040519080825280602002602001820160405280156126d857816020015b6126c56136b9565b8152602001906001900390816126bd5790505b50905060005b8251811015612ab657600060036000858481518110612700576126ff6145e5565b5b6020026020010151815260200190815260200160002060405180610140016040529081600082015481526020016001820160009054906101000a900473ffffffffffffffffffffffffffffffffffffffff1673ffffffffffffffffffffffffffffffffffffffff1673ffffffffffffffffffffffffffffffffffffffff1681526020016002820160009054906101000a900473ffffffffffffffffffffffffffffffffffffffff1673ffffffffffffffffffffffffffffffffffffffff1673ffffffffffffffffffffffffffffffffffffffff1681526020016002820160149054906101000a900460ff1660058111156127fd576127fc613954565b5b600581111561280f5761280e613954565b5b815260200160038201548152602001600482015481526020016005820160009054906101000a900460ff16151515158152602001600682015481526020016007820160009054906101000a900460ff161515151581526020016007820160019054906101000a900460ff16151515158152505090506003600581111561289857612897613954565b5b816060015160058111156128af576128ae613954565b5b1415806128e55750600460058111156128cb576128ca613954565b5b816060015160058111156128e2576128e1613954565b5b14155b15612aa25760036000858481518110612901576129006145e5565b5b6020026020010151815260200190815260200160002060405180610140016040529081600082015481526020016001820160009054906101000a900473ffffffffffffffffffffffffffffffffffffffff1673ffffffffffffffffffffffffffffffffffffffff1673ffffffffffffffffffffffffffffffffffffffff1681526020016002820160009054906101000a900473ffffffffffffffffffffffffffffffffffffffff1673ffffffffffffffffffffffffffffffffffffffff1673ffffffffffffffffffffffffffffffffffffffff1681526020016002820160149054906101000a900460ff1660058111156129fe576129fd613954565b5b6005811115612a1057612a0f613954565b5b815260200160038201548152602001600482015481526020016005820160009054906101000a900460ff16151515158152602001600682015481526020016007820160009054906101000a900460ff161515151581526020016007820160019054906101000a900460ff161515151581525050838381518110612a9657612a956145e5565b5b60200260200101819052505b508080612aae9061459d565b9150506126de565b508092505050919050565b60008160036000858152602001908152602001600020600301541115905092915050565b60008054906101000a900473ffffffffffffffffffffffffffffffffffffffff1673ffffffffffffffffffffffffffffffffffffffff166389642c5485336040518363ffffffff1660e01b8152600401612b40929190614ca8565b602060405180830381865afa158015612b5d573d6000803e3d6000fd5b505050506040513d601f19601f82011682018060405250810190612b8191906144a6565b612bc0576040517f08c379a0000000000000000000000000000000000000000000000000000000008152600401612bb790614d43565b60405180910390fd5b6000600460008681526020019081526020016000205414612c16576040517f08c379a0000000000000000000000000000000000000000000000000000000008152600401612c0d90614dd5565b60405180910390fd5b81831115612c59576040517f08c379a0000000000000000000000000000000000000000000000000000000008152600401612c5090614686565b60405180910390fd5b8015612c9a576040517f08c379a0000000000000000000000000000000000000000000000000000000008152600401612c9190614e41565b60405180910390fd5b600042905060006040518061014001604052808781526020013373ffffffffffffffffffffffffffffffffffffffff168152602001600073ffffffffffffffffffffffffffffffffffffffff16815260200160016005811115612d0057612cff613954565b5b81526020018681526020018581526020018415158152602001600754815260200160001515815260200160001515815250905080600360008481526020019081526020016000206000820151816000015560208201518160010160006101000a81548173ffffffffffffffffffffffffffffffffffffffff021916908373ffffffffffffffffffffffffffffffffffffffff16021790555060408201518160020160006101000a81548173ffffffffffffffffffffffffffffffffffffffff021916908373ffffffffffffffffffffffffffffffffffffffff16021790555060608201518160020160146101000a81548160ff02191690836005811115612e0a57612e09613954565b5b02179055506080820151816003015560a0820151816004015560c08201518160050160006101000a81548160ff02191690831515021790555060e082015181600601556101008201518160070160006101000a81548160ff0219169083151502179055506101208201518160070160016101000a81548160ff021916908315150217905550905050816004600088815260200190815260200160002081905550816006600060075481526020019081526020016000208190555060076000815480929190612ed79061459d565b9190505550600560003373ffffffffffffffffffffffffffffffffffffffff1673ffffffffffffffffffffffffffffffffffffffff1681526020019081526020016000208290806001815401808255809150506001900390600052602060002001600090919091909150557f932bb8e1964b19f151b100006d1433bdf7b9a6d6368ec8d600028f2b1932070386338487604051612f779493929190614e61565b60405180910390a1505050505050565b6003600082815260200190815260200160002060020160009054906101000a900473ffffffffffffffffffffffffffffffffffffffff1673ffffffffffffffffffffffffffffffffffffffff163373ffffffffffffffffffffffffffffffffffffffff161461302b576040517f08c379a000000000000000000000000000000000000000000000000000000000815260040161302290614f18565b60405180910390fd5b6002600581111561303f5761303e613954565b5b6003600083815260200190815260200160002060020160149054906101000a900460ff16600581111561307557613074613954565b5b146130b5576040517f08c379a00000000000000000000000000000000000000000000000000000000081526004016130ac90614f84565b60405180910390fd5b60056003600083815260200190815260200160002060020160146101000a81548160ff021916908360058111156130ef576130ee613954565b5b02179055507f48ae6fca79163101ea4f5b073efc510017228ac372cd41c1d2b4e8ec683bd822816040516131239190613887565b60405180910390a150565b60006003600084815260200190815260200160002060405180610140016040529081600082015481526020016001820160009054906101000a900473ffffffffffffffffffffffffffffffffffffffff1673ffffffffffffffffffffffffffffffffffffffff1673ffffffffffffffffffffffffffffffffffffffff1681526020016002820160009054906101000a900473ffffffffffffffffffffffffffffffffffffffff1673ffffffffffffffffffffffffffffffffffffffff1673ffffffffffffffffffffffffffffffffffffffff1681526020016002820160149054906101000a900460ff16600581111561322a57613229613954565b5b600581111561323c5761323b613954565b5b815260200160038201548152602001600482015481526020016005820160009054906101000a900460ff16151515158152602001600682015481526020016007820160009054906101000a900460ff161515151581526020016007820160019054906101000a900460ff16151515158152505090503373ffffffffffffffffffffffffffffffffffffffff16816020015173ffffffffffffffffffffffffffffffffffffffff1614613323576040517f08c379a000000000000000000000000000000000000000000000000000000000815260040161331a90615016565b60405180910390fd5b6001600581111561333757613336613954565b5b8160600151600581111561334e5761334d613954565b5b1461338e576040517f08c379a000000000000000000000000000000000000000000000000000000000815260040161338590614448565b60405180910390fd5b81816080015111156133d5576040517f08c379a00000000000000000000000000000000000000000000000000000000081526004016133cc90614686565b60405180910390fd5b8160036000858152602001908152602001600020600401819055507f1be87e192bb167834605abd4893be96c64e06a90e635d767fc5bc264e0ff3f6d83833360405161342393929190615036565b60405180910390a1505050565b60006003600083815260200190815260200160002060405180610140016040529081600082015481526020016001820160009054906101000a900473ffffffffffffffffffffffffffffffffffffffff1673ffffffffffffffffffffffffffffffffffffffff1673ffffffffffffffffffffffffffffffffffffffff1681526020016002820160009054906101000a900473ffffffffffffffffffffffffffffffffffffffff1673ffffffffffffffffffffffffffffffffffffffff1673ffffffffffffffffffffffffffffffffffffffff1681526020016002820160149054906101000a900460ff16600581111561352c5761352b613954565b5b600581111561353e5761353d613954565b5b815260200160038201548152602001600482015481526020016005820160009054906101000a900460ff16151515158152602001600682015481526020016007820160009054906101000a900460ff161515151581526020016007820160019054906101000a900460ff1615151515815250509050600060046000836000015181526020019081526020016000208190555060008160e00151905060006006600060016007546135ee919061506d565b815260200190815260200160002054905080841461363a578160036000838152602001908152602001600020600601819055508060066000848152602001908152602001600020819055505b6007600081548092919061364d90614b89565b919050555050505050565b6040518060400160405280600081526020016136726136b9565b81525090565b6040518060a0016040528060008152602001613692613750565b8152602001600081526020016136a66136b9565b81526020016136b3613790565b81525090565b60405180610140016040528060008152602001600073ffffffffffffffffffffffffffffffffffffffff168152602001600073ffffffffffffffffffffffffffffffffffffffff1681526020016000600581111561371a57613719613954565b5b81526020016000815260200160008152602001600015158152602001600081526020016000151581526020016000151581525090565b60405180608001604052806000815260200160008152602001600073ffffffffffffffffffffffffffffffffffffffff1681526020016000151581525090565b604051806101c00160405280600081526020016060815260200160608152602001606081526020016060815260200160608152602001600081526020016060815260200160608152602001606081526020016060815260200160608152602001600081526020016000151581525090565b6000604051905090565b600080fd5b600080fd5b6000819050919050565b61382881613815565b811461383357600080fd5b50565b6000813590506138458161381f565b92915050565b6000602082840312156138615761386061380b565b5b600061386f84828501613836565b91505092915050565b61388181613815565b82525050565b600060208201905061389c6000830184613878565b92915050565b60008115159050919050565b6138b7816138a2565b82525050565b60006020820190506138d260008301846138ae565b92915050565b600081519050919050565b600082825260208201905092915050565b6000819050602082019050919050565b61390d81613815565b82525050565b600073ffffffffffffffffffffffffffffffffffffffff82169050919050565b600061393e82613913565b9050919050565b61394e81613933565b82525050565b7f4e487b7100000000000000000000000000000000000000000000000000000000600052602160045260246000fd5b6006811061399457613993613954565b5b50565b60008190506139a582613983565b919050565b60006139b582613997565b9050919050565b6139c5816139aa565b82525050565b6139d4816138a2565b82525050565b610140820160008201516139f16000850182613904565b506020820151613a046020850182613945565b506040820151613a176040850182613945565b506060820151613a2a60608501826139bc565b506080820151613a3d6080850182613904565b5060a0820151613a5060a0850182613904565b5060c0820151613a6360c08501826139cb565b5060e0820151613a7660e0850182613904565b50610100820151613a8b6101008501826139cb565b50610120820151613aa06101208501826139cb565b50505050565b61016082016000820151613abd6000850182613904565b506020820151613ad060208501826139da565b50505050565b6000613ae28383613aa6565b6101608301905092915050565b6000602082019050919050565b6000613b07826138d8565b613b1181856138e3565b9350613b1c836138f4565b8060005b83811015613b4d578151613b348882613ad6565b9750613b3f83613aef565b925050600181019050613b20565b5085935050505092915050565b60006020820190508181036000830152613b748184613afc565b905092915050565b613b8581613933565b8114613b9057600080fd5b50565b600081359050613ba281613b7c565b92915050565b60008060408385031215613bbf57613bbe61380b565b5b6000613bcd85828601613b93565b9250506020613bde85828601613836565b9150509250929050565b600080600060608486031215613c0157613c0061380b565b5b6000613c0f86828701613836565b9350506020613c2086828701613b93565b9250506040613c3186828701613836565b9150509250925092565b608082016000820151613c516000850182613904565b506020820151613c646020850182613904565b506040820151613c776040850182613945565b506060820151613c8a60608501826139cb565b50505050565b600081519050919050565b600082825260208201905092915050565b60005b83811015613cca578082015181840152602081019050613caf565b83811115613cd9576000848401525b50505050565b6000601f19601f8301169050919050565b6000613cfb82613c90565b613d058185613c9b565b9350613d15818560208601613cac565b613d1e81613cdf565b840191505092915050565b60006101c083016000830151613d426000860182613904565b5060208301518482036020860152613d5a8282613cf0565b91505060408301518482036040860152613d748282613cf0565b91505060608301518482036060860152613d8e8282613cf0565b91505060808301518482036080860152613da88282613cf0565b91505060a083015184820360a0860152613dc28282613cf0565b91505060c0830151613dd760c0860182613904565b5060e083015184820360e0860152613def8282613cf0565b915050610100830151848203610100860152613e0b8282613cf0565b915050610120830151848203610120860152613e278282613cf0565b915050610140830151848203610140860152613e438282613cf0565b915050610160830151848203610160860152613e5f8282613cf0565b915050610180830151613e76610180860182613904565b506101a0830151613e8b6101a08601826139cb565b508091505092915050565b600061022083016000830151613eaf6000860182613904565b506020830151613ec26020860182613c3b565b506040830151613ed560a0860182613904565b506060830151613ee860c08601826139da565b506080830151848203610200860152613f018282613d29565b9150508091505092915050565b60006020820190508181036000830152613f288184613e96565b905092915050565b600060208284031215613f4657613f4561380b565b5b6000613f5484828501613b93565b91505092915050565b600081519050919050565b600082825260208201905092915050565b6000819050602082019050919050565b600061022083016000830151613fa26000860182613904565b506020830151613fb56020860182613c3b565b506040830151613fc860a0860182613904565b506060830151613fdb60c08601826139da565b506080830151848203610200860152613ff48282613d29565b9150508091505092915050565b600061400d8383613f89565b905092915050565b6000602082019050919050565b600061402d82613f5d565b6140378185613f68565b93508360208202850161404985613f79565b8060005b8581101561408557848403895281516140668582614001565b945061407183614015565b925060208a0199505060018101905061404d565b50829750879550505050505092915050565b600060208201905081810360008301526140b18184614022565b905092915050565b6140c281613933565b82525050565b60006020820190506140dd60008301846140b9565b92915050565b6140ec816139aa565b82525050565b600061014082019050614108600083018d613878565b614115602083018c6140b9565b614122604083018b6140b9565b61412f606083018a6140e3565b61413c6080830189613878565b61414960a0830188613878565b61415660c08301876138ae565b61416360e0830186613878565b6141716101008301856138ae565b61417f6101208301846138ae565b9b9a5050505050505050505050565b600081519050919050565b600082825260208201905092915050565b6000819050602082019050919050565b60006141c683836139da565b6101408301905092915050565b6000602082019050919050565b60006141eb8261418e565b6141f58185614199565b9350614200836141aa565b8060005b8381101561423157815161421888826141ba565b9750614223836141d3565b925050600181019050614204565b5085935050505092915050565b6000602082019050818103600083015261425881846141e0565b905092915050565b600080604083850312156142775761427661380b565b5b600061428585828601613836565b925050602061429685828601613836565b9150509250929050565b6142a9816138a2565b81146142b457600080fd5b50565b6000813590506142c6816142a0565b92915050565b600080600080608085870312156142e6576142e561380b565b5b60006142f487828801613836565b945050602061430587828801613836565b935050604061431687828801613836565b9250506060614327878288016142b7565b91505092959194509250565b600082825260208201905092915050565b7f42752069736c656d2073616465636520736174696369207461726166696e646160008201527f6e20796170696c69720000000000000000000000000000000000000000000000602082015250565b60006143a0602983614333565b91506143ab82614344565b604082019050919050565b600060208201905081810360008301526143cf81614393565b9050919050565b7f53616465636520796179696e6461206f6c616e20696c616e6c6172206963696e60008201527f2062752069736c656d20796170696c6162696c69720000000000000000000000602082015250565b6000614432603583614333565b915061443d826143d6565b604082019050919050565b6000602082019050818103600083015261446181614425565b9050919050565b600060408201905061447d60008301856140b9565b61448a6020830184613878565b9392505050565b6000815190506144a0816142a0565b92915050565b6000602082840312156144bc576144bb61380b565b5b60006144ca84828501614491565b91505092915050565b7f42752069736c656d69207361646563652061646d696e207961706162696c6972600082015250565b6000614509602083614333565b9150614514826144d3565b602082019050919050565b60006020820190508181036000830152614538816144fc565b9050919050565b7f4e487b7100000000000000000000000000000000000000000000000000000000600052604160045260246000fd5b7f4e487b7100000000000000000000000000000000000000000000000000000000600052601160045260246000fd5b60006145a882613815565b91507fffffffffffffffffffffffffffffffffffffffffffffffffffffffffffffffff82036145da576145d961456e565b5b600182019050919050565b7f4e487b7100000000000000000000000000000000000000000000000000000000600052603260045260246000fd5b7f536174697320666979617420726179696320626564656c64656e20647573756b60008201527f206f6c616d617a00000000000000000000000000000000000000000000000000602082015250565b6000614670602783614333565b915061467b82614614565b604082019050919050565b6000602082019050818103600083015261469f81614663565b9050919050565b600080fd5b6146b482613cdf565b810181811067ffffffffffffffff821117156146d3576146d261453f565b5b80604052505050565b60006146e6613801565b90506146f282826146ab565b919050565b600080fd5b60008151905061470b8161381f565b92915050565b60008151905061472081613b7c565b92915050565b60006080828403121561473c5761473b6146a6565b5b61474660806146dc565b90506000614756848285016146fc565b600083015250602061476a848285016146fc565b602083015250604061477e84828501614711565b604083015250606061479284828501614491565b60608301525092915050565b6000608082840312156147b4576147b361380b565b5b60006147c284828501614726565b91505092915050565b600080fd5b600080fd5b600067ffffffffffffffff8211156147f0576147ef61453f565b5b6147f982613cdf565b9050602081019050919050565b6000614819614814846147d5565b6146dc565b905082815260208101848484011115614835576148346147d0565b5b614840848285613cac565b509392505050565b600082601f83011261485d5761485c6147cb565b5b815161486d848260208601614806565b91505092915050565b60006101c0828403121561488d5761488c6146a6565b5b6148986101c06146dc565b905060006148a8848285016146fc565b600083015250602082015167ffffffffffffffff8111156148cc576148cb6146f7565b5b6148d884828501614848565b602083015250604082015167ffffffffffffffff8111156148fc576148fb6146f7565b5b61490884828501614848565b604083015250606082015167ffffffffffffffff81111561492c5761492b6146f7565b5b61493884828501614848565b606083015250608082015167ffffffffffffffff81111561495c5761495b6146f7565b5b61496884828501614848565b60808301525060a082015167ffffffffffffffff81111561498c5761498b6146f7565b5b61499884828501614848565b60a08301525060c06149ac848285016146fc565b60c08301525060e082015167ffffffffffffffff8111156149d0576149cf6146f7565b5b6149dc84828501614848565b60e08301525061010082015167ffffffffffffffff811115614a0157614a006146f7565b5b614a0d84828501614848565b6101008301525061012082015167ffffffffffffffff811115614a3357614a326146f7565b5b614a3f84828501614848565b6101208301525061014082015167ffffffffffffffff811115614a6557614a646146f7565b5b614a7184828501614848565b6101408301525061016082015167ffffffffffffffff811115614a9757614a966146f7565b5b614aa384828501614848565b61016083015250610180614ab9848285016146fc565b610180830152506101a0614acf84828501614491565b6101a08301525092915050565b600060208284031215614af257614af161380b565b5b600082015167ffffffffffffffff811115614b1057614b0f613810565b5b614b1c84828501614876565b91505092915050565b600060208284031215614b3b57614b3a61380b565b5b6000614b49848285016146fc565b91505092915050565b6000606082019050614b676000830186613878565b614b7460208301856140b9565b614b8160408301846140b9565b949350505050565b6000614b9482613815565b915060008203614ba757614ba661456e565b5b600182039050919050565b600060a082019050614bc76000830188613878565b614bd460208301876140b9565b614be160408301866140b9565b614bee6060830185613878565b614bfb6080830184613878565b9695505050505050565b6000606082019050614c1a60008301866140b9565b614c276020830185613878565b614c346040830184613878565b949350505050565b7f6f6e63656c696b6c6520616c696369206b696c6974206b616c6469726d616c69600082015250565b6000614c72602083614333565b9150614c7d82614c3c565b602082019050919050565b60006020820190508181036000830152614ca181614c65565b9050919050565b6000604082019050614cbd6000830185613878565b614cca60208301846140b9565b9392505050565b7f48697373652073616465636520736168696269207461726166696e64616e206960008201527f6c616e206f6c7573747572756c6d616c69000000000000000000000000000000602082015250565b6000614d2d603183614333565b9150614d3882614cd1565b604082019050919050565b60006020820190508181036000830152614d5c81614d20565b9050919050565b7f6164766572746973656d656e7420666f72207265616c2065737461746520616c60008201527f726561647920657869737420696e207468652073797374656d00000000000000602082015250565b6000614dbf603983614333565b9150614dca82614d63565b604082019050919050565b60006020820190508181036000830152614dee81614db2565b9050919050565b7f47617972696d656e6b756c756e20766572676920626f726375206f6c6d617a00600082015250565b6000614e2b601f83614333565b9150614e3682614df5565b602082019050919050565b60006020820190508181036000830152614e5a81614e1e565b9050919050565b6000608082019050614e766000830187613878565b614e8360208301866140b9565b614e906040830185613878565b614e9d6060830184613878565b95945050505050565b7f42752069736c656d2073616465636520616c696369207461726166696e64616e60008201527f20796170696c6972000000000000000000000000000000000000000000000000602082015250565b6000614f02602883614333565b9150614f0d82614ea6565b604082019050919050565b60006020820190508181036000830152614f3181614ef5565b9050919050565b7f696c616e20616c696369206963696e206b69746c656e6d656d69730000000000600082015250565b6000614f6e601b83614333565b9150614f7982614f38565b602082019050919050565b60006020820190508181036000830152614f9d81614f61565b9050919050565b7f42752069736c656d692073616465636520736174696369207961706162696c6960008201527f7200000000000000000000000000000000000000000000000000000000000000602082015250565b6000615000602183614333565b915061500b82614fa4565b604082019050919050565b6000602082019050818103600083015261502f81614ff3565b9050919050565b600060608201905061504b6000830186613878565b6150586020830185613878565b61506560408301846140b9565b949350505050565b600061507882613815565b915061508383613815565b9250828210156150965761509561456e565b5b82820390509291505056fea264697066735822122057bc84014dfffec6f5f8ed218b11c4f9d768645452af5fda0df1c9396564232e64736f6c634300080e0033",
  "immutableReferences": {},
  "source": "// SPDX-License-Identifier: UNLICENSED\r\npragma solidity ^0.8.0;\r\n\r\nimport \"./Owner.sol\";\r\nimport \"./RealEstateOwnerRelation.sol\";\r\nimport \"./NotaryContractBase.sol\";\r\nimport \"./RealEstate.sol\";\r\n\r\ncontract RealEstateSaleAd is NotaryContractBase{\r\n\r\n    RealEstateOwnerRelation realEstateOwnerRelation;\r\n    Owner ownerContract;\r\n    RealEstate realEstate;\r\n\r\n    event ilanOlusturuldu(uint hisseId, address saticiId, uint ilanId, uint fiyat);\r\n    event ilanYayindanKaldirildi(address saticiId, uint ilanId);\r\n    event aliciIcinKilitlendi(uint ilanId, address saticiId, address aliciId);    \r\n    event fiyatDegistirildi(uint ilanId, uint yeniSatisFiyat, address saticiId);\r\n    event kilitKaldirildiWithAliciOnayi(uint ilanId);\r\n    event kilitKaldirildiWithSaticiOnayi(uint ilanId);\r\n    event alicisistemHesabinaParaAktardi(address alici, uint ilanId, uint miktar);\r\n    event saticiSistemHesabinaTapuHarciAktardi(address satici, uint ilanId, uint miktar);\r\n    event changedOwnerShip(uint hisseId, address alici, address satici, uint fiyat, uint zaman);\r\n\r\n    mapping (uint => Advertisement) public adIdMap;\r\n    mapping (uint => uint) public hisseIdAdIdMap;\r\n    mapping (address => uint[]) public ownerAdIdListMap;\r\n    mapping (uint => uint) public adIdLUT;\r\n    uint adIdLUTLength = 0;\r\n    uint aliciIcinKitlenenIlanSayisi = 0;\r\n    \r\n    constructor(address ownerContractAdd, address realOwnRelAddress, address realEstateAddress)  {\r\n        ownerContract=Owner(ownerContractAdd);\r\n        realEstateOwnerRelation=RealEstateOwnerRelation(realOwnRelAddress);\r\n        realEstate=RealEstate(realEstateAddress);\r\n    }\r\n\r\n    function ilanOlustur(uint hisseId, uint256 rayicBedeli, uint256 satisFiyat, bool borcuVarMi) public {\r\n        require(realEstateOwnerRelation.hisseSatisaCikabilirMi(hisseId, msg.sender), \"Hisse sadece sahibi tarafindan ilan olusturulmali\");\r\n        require(hisseIdAdIdMap[hisseId] == 0, \"advertisement for real estate already exist in the system\");\r\n        require(rayicBedeli <= satisFiyat, \"Satis fiyat rayic bedelden dusuk olamaz\");\r\n        require(!borcuVarMi, \"Gayrimenkulun vergi borcu olmaz\");\r\n\r\n        uint ilanId = block.timestamp;\r\n        Advertisement memory ad = Advertisement(hisseId, msg.sender, address(0), State.YAYINDA, rayicBedeli, satisFiyat, borcuVarMi, adIdLUTLength, false, false);\r\n        adIdMap[ilanId] = ad;\r\n        hisseIdAdIdMap[hisseId] = ilanId;\r\n        adIdLUT[adIdLUTLength] = ilanId;\r\n        adIdLUTLength++;\r\n        ownerAdIdListMap[msg.sender].push(ilanId);\r\n        emit ilanOlusturuldu(hisseId, msg.sender, ilanId, satisFiyat);\r\n    }\r\n\r\n    function ilanYayindanKaldir(uint ilanId) public {\r\n        require(adIdMap[ilanId].satici == msg.sender, \"Bu islem sadece satici tarafindan yapilir\");\r\n        require(adIdMap[ilanId].state == State.YAYINDA, \"Sadece yayinda olan ilanlar icin bu islem yapilabilir\");\r\n        adIdMap[ilanId].state = State.YAYINDAN_KALDIRILDI;        \r\n        updateLUT(ilanId);\r\n        emit ilanYayindanKaldirildi(msg.sender, ilanId);\r\n    }\r\n    \r\n    function updateLUT(uint ilanId) private {\r\n        Advertisement memory yayindanKaldirildiAd = adIdMap[ilanId];\r\n        hisseIdAdIdMap[yayindanKaldirildiAd.hisseId] = 0;\r\n        uint yayindanKaldirilanItemIndex = yayindanKaldirildiAd.adIdLUTIndex;\r\n        uint lastAdInLUT = adIdLUT[adIdLUTLength -1];\r\n        if(ilanId != lastAdInLUT){\r\n            adIdMap[lastAdInLUT].adIdLUTIndex = yayindanKaldirilanItemIndex;\r\n            adIdLUT[yayindanKaldirilanItemIndex] = lastAdInLUT;              \r\n        }\r\n        adIdLUTLength--;\r\n    }\r\n\r\n    function aliciIcinKilitle(uint ilanId, address aliciAdd, uint fiyat) public {\r\n        Advertisement memory ad =  adIdMap[ilanId];\r\n        //require(ad.satici == msg.sender, \"Bu islemi sadece satici yapabilir\");\r\n        require(ad.state == State.YAYINDA, \"Sadece yayinda olan ilanlar icin bu islem yapilabilir\");\r\n        require(ad.rayicBedeli <= fiyat, \"Satis fiyat rayic bedelden dusuk olamaz\");\r\n        adIdMap[ilanId].state = State.ALICI_ICIN_KILITLENDI;\r\n        adIdMap[ilanId].alici = aliciAdd;\r\n        adIdMap[ilanId].fiyat = fiyat;\r\n        aliciIcinKitlenenIlanSayisi++;\r\n    }\r\n\r\n    function changeSatisFiyat(uint ilanId, uint newfiyat) public {\r\n        Advertisement memory ad =  adIdMap[ilanId];\r\n        require(ad.satici == msg.sender, \"Bu islemi sadece satici yapabilir\");\r\n        require(ad.state == State.YAYINDA, \"Sadece yayinda olan ilanlar icin bu islem yapilabilir\");\r\n        require(ad.rayicBedeli <= newfiyat, \"Satis fiyat rayic bedelden dusuk olamaz\");\r\n        adIdMap[ilanId].fiyat = newfiyat;\r\n        emit fiyatDegistirildi(ilanId, newfiyat, msg.sender);\r\n    }\r\n\r\n    function kilitKaldirWithAliciOnayi(uint ilanId) public {\r\n        require(msg.sender == adIdMap[ilanId].alici, \"Bu islem sadece alici tarafindan yapilir\");\r\n        require(adIdMap[ilanId].state == State.ALICI_ICIN_KILITLENDI, \"ilan alici icin kitlenmemis\");\r\n        adIdMap[ilanId].state = State.ALICI_ONAYI_ILE_KILIT_KALDIRMA;\r\n        emit kilitKaldirildiWithAliciOnayi(ilanId);\r\n    }\r\n\r\n    function kilitKaldirWithSaticiOnayi(uint ilanId) public {\r\n        require(msg.sender == adIdMap[ilanId].satici, \"Bu islem sadece satici tarafindan yapilir\");\r\n        require(adIdMap[ilanId].state == State.ALICI_ONAYI_ILE_KILIT_KALDIRMA, \"oncelikle alici kilit kaldirmali\");\r\n        adIdMap[ilanId].state = State.YAYINDA;\r\n        aliciIcinKitlenenIlanSayisi--;\r\n        emit kilitKaldirildiWithSaticiOnayi(ilanId);\r\n    }\r\n\r\n    function getUserAds(address ownAdd) public view returns(Advertisement [] memory){\r\n        //sadece kullanici yapabilsin kendi ilanlarini grebilsin\r\n        uint[] memory ownAdIds = ownerAdIdListMap[ownAdd];\r\n        Advertisement [] memory ads = new Advertisement[](ownAdIds.length);        \r\n        for(uint i = 0; i< ownAdIds.length; i++){\r\n            Advertisement memory ad = adIdMap[ownAdIds[i]];\r\n            if(ad.state != State.YAYINDAN_KALDIRILDI || ad.state != State.DEVIR_ISLEMI_TAMAMLANDI){\r\n                ads[i] = adIdMap[ownAdIds[i]];\r\n            }\r\n        }\r\n        return ads;\r\n    }   \r\n\r\n    function ilanaTeklifVerilebilirMi(uint ilanId) public view returns(bool){\r\n        return adIdMap[ilanId].state == State.YAYINDA;\r\n    }\r\n\r\n    function teklifFiyatRaicBedeldenDusukMu(uint ilanId, uint fiyat) public view returns(bool){\r\n        return adIdMap[ilanId].rayicBedeli <= fiyat;\r\n    }\r\n\r\n    function getIlanSatici(uint ilanId) public view returns(address){\r\n        return adIdMap[ilanId].satici;\r\n    }\r\n\r\n    function alicidanParaAlindi(uint ilanId) public {\r\n        require(ownerContract.isAdmin(msg.sender), \"Bu islemi sadece admin yapabilir\");\r\n        adIdMap[ilanId].aliciParaTransferi = true;\r\n        Advertisement memory advertisement = adIdMap[ilanId];\r\n        if(advertisement.saticiParaTransferi){\r\n            realEstateOwnerRelation.changeOwnerShip(advertisement.hisseId, advertisement.alici, advertisement.satici);\r\n            adIdMap[ilanId].state = State.DEVIR_ISLEMI_TAMAMLANDI;\r\n            aliciIcinKitlenenIlanSayisi--;\r\n            updateLUT(ilanId);\r\n            emit changedOwnerShip(advertisement.hisseId, advertisement.alici, advertisement.satici, advertisement.fiyat, block.timestamp);\r\n        }else{\r\n            emit alicisistemHesabinaParaAktardi(advertisement.alici, ilanId, advertisement.fiyat);\r\n        }\r\n    }\r\n\r\n    function saticidanTapuHarciAlindi(uint ilanId) public {\r\n        require(ownerContract.isAdmin(msg.sender), \"Bu islemi sadece admin yapabilir\");\r\n        adIdMap[ilanId].saticiParaTransferi = true;\r\n        Advertisement memory advertisement = adIdMap[ilanId];\r\n        if(advertisement.aliciParaTransferi){\r\n            realEstateOwnerRelation.changeOwnerShip(advertisement.hisseId, advertisement.alici, advertisement.satici);\r\n            adIdMap[ilanId].state = State.DEVIR_ISLEMI_TAMAMLANDI;\r\n            aliciIcinKitlenenIlanSayisi--;\r\n            updateLUT(ilanId);\r\n            emit changedOwnerShip(advertisement.hisseId, advertisement.alici, advertisement.satici, advertisement.fiyat, block.timestamp);\r\n        }else{\r\n            emit saticiSistemHesabinaTapuHarciAktardi(advertisement.alici, ilanId, advertisement.fiyat);\r\n        }\r\n    }\r\n\r\n    function getAliciIcinKitlenenIlanlar() public view returns(AdDto[] memory) {\r\n        require(ownerContract.isAdmin(msg.sender), \"Bu islemi sadece admin yapabilir\");\r\n        AdDto [] memory result = new AdDto[]( aliciIcinKitlenenIlanSayisi);\r\n        uint resultCount = 0;\r\n        for(uint i; i< adIdLUTLength; i++){\r\n            uint ilanId = adIdLUT[i];\r\n            Advertisement memory ad =  adIdMap[ilanId]; \r\n            if(ad.state == State.ALICI_ICIN_KILITLENDI){\r\n                result[resultCount++] =AdDto(ilanId, ad);\r\n            }\r\n        }\r\n        return result;\r\n    }\r\n\r\n    function getUserAssets(address ownAdd) public view returns(HisseAdData[] memory){\r\n        uint hisseIdsLength = realEstateOwnerRelation.getOwnerHisseLength(ownAdd);\r\n        HisseAdData [] memory result = new HisseAdData[](hisseIdsLength);\r\n        uint resultCount = 0;\r\n        for(uint i = 0; i< hisseIdsLength; i++){\r\n            uint hisseId = realEstateOwnerRelation.getOwnerHisseId(ownAdd, i);\r\n           if(hisseId != 0 ){\r\n                Hisse memory hisse = realEstateOwnerRelation.getHisse(hisseId);\r\n                RealEstateData memory realEstateData = realEstate.getRealEstateInfo(hisse.realEstateId);\r\n                uint ilanId = hisseIdAdIdMap[hisseId];\r\n                Advertisement memory advertisement = adIdMap[ilanId];\r\n                result[resultCount++] = HisseAdData(hisseId, hisse, ilanId, advertisement, realEstateData);\r\n            }\r\n        }\r\n        return result;\r\n    }\r\n\r\n    function getAllAds() public view returns(HisseAdData [] memory){\r\n        HisseAdData [] memory result = new HisseAdData[](adIdLUTLength);\r\n        for(uint i = 0; i< adIdLUTLength; i++){\r\n            uint ilanId = adIdLUT[i];\r\n            Advertisement memory ad = adIdMap[ilanId];\r\n            Hisse memory hisse = realEstateOwnerRelation.getHisse(ad.hisseId);\r\n            RealEstateData memory realEstateData = realEstate.getRealEstateInfo(hisse.realEstateId);\r\n            result[i] = HisseAdData(ad.hisseId, hisse, ilanId, ad, realEstateData);\r\n        }\r\n        return result;\r\n    }\r\n\r\n    function getHisseAdDataById(uint ilanId) public view returns(HisseAdData memory){\r\n        Advertisement memory ad = adIdMap[ilanId];\r\n        Hisse memory hisse = realEstateOwnerRelation.getHisse(ad.hisseId);\r\n        RealEstateData memory realEstateData = realEstate.getRealEstateInfo(hisse.realEstateId);\r\n        return HisseAdData(ad.hisseId, hisse, ilanId, ad, realEstateData);\r\n    }\r\n\r\n    function isAdYayinda(uint ilanId) public view returns(bool){\r\n        Advertisement memory ad = adIdMap[ilanId];\r\n        return ad.state == State.YAYINDA;\r\n    }\r\n\r\n}\r\n",
  "sourcePath": "D:\\Ethereum Projects\\DAWithEth\\truffle-project\\contracts\\RealEstateSaleAd.sol",
  "compiler": {
    "name": "solc",
    "version": "0.8.14+commit.80d49f37.Emscripten.clang"
  },
  "schemaVersion": "3.4.11",
  "updatedAt": "2023-02-22T19:44:41.785Z",
  "networkType": "ethereum",
  "devdoc": {
    "kind": "dev",
    "methods": {},
    "version": 1
  },
  "userdoc": {
    "kind": "user",
    "methods": {},
    "version": 1
  }
}