{
  "contractName": "RealEstateOwnerRelation",
  "abi": [
    {
      "inputs": [
        {
          "internalType": "address",
          "name": "realEstateContractAdd",
          "type": "address"
        },
        {
          "internalType": "address",
          "name": "ownerContractAdd",
          "type": "address"
        }
      ],
      "stateMutability": "nonpayable",
      "type": "constructor"
    },
    {
      "anonymous": false,
      "inputs": [
        {
          "indexed": false,
          "internalType": "uint256",
          "name": "realEstateId",
          "type": "uint256"
        },
        {
          "indexed": false,
          "internalType": "uint256",
          "name": "hisseId",
          "type": "uint256"
        },
        {
          "indexed": false,
          "internalType": "address",
          "name": "owner",
          "type": "address"
        }
      ],
      "name": "NewHisseAddedToRealEstate",
      "type": "event"
    },
    {
      "anonymous": false,
      "inputs": [
        {
          "indexed": false,
          "internalType": "uint256",
          "name": "realEstateId",
          "type": "uint256"
        },
        {
          "indexed": false,
          "internalType": "uint256",
          "name": "hisseId",
          "type": "uint256"
        },
        {
          "indexed": false,
          "internalType": "address",
          "name": "owner",
          "type": "address"
        }
      ],
      "name": "NewHisseAndRealEstateAdded",
      "type": "event"
    },
    {
      "anonymous": false,
      "inputs": [
        {
          "indexed": false,
          "internalType": "uint256",
          "name": "realEstateId",
          "type": "uint256"
        },
        {
          "indexed": false,
          "internalType": "uint256",
          "name": "hisseId",
          "type": "uint256"
        },
        {
          "indexed": false,
          "internalType": "address",
          "name": "owner",
          "type": "address"
        }
      ],
      "name": "OwnerHissePayAdded",
      "type": "event"
    },
    {
      "anonymous": false,
      "inputs": [
        {
          "indexed": false,
          "internalType": "uint256",
          "name": "hiseId",
          "type": "uint256"
        },
        {
          "indexed": false,
          "internalType": "address",
          "name": "oldOwner",
          "type": "address"
        },
        {
          "indexed": false,
          "internalType": "address",
          "name": "newOwner",
          "type": "address"
        }
      ],
      "name": "OwnerShipChanged",
      "type": "event"
    },
    {
      "inputs": [
        {
          "internalType": "uint256",
          "name": "",
          "type": "uint256"
        }
      ],
      "name": "hisseIdHisseMap",
      "outputs": [
        {
          "internalType": "uint256",
          "name": "pay",
          "type": "uint256"
        },
        {
          "internalType": "uint256",
          "name": "realEstateId",
          "type": "uint256"
        },
        {
          "internalType": "address",
          "name": "ownerAdd",
          "type": "address"
        },
        {
          "internalType": "bool",
          "name": "registered",
          "type": "bool"
        }
      ],
      "stateMutability": "view",
      "type": "function",
      "constant": true
    },
    {
      "inputs": [
        {
          "internalType": "address",
          "name": "",
          "type": "address"
        },
        {
          "internalType": "uint256",
          "name": "",
          "type": "uint256"
        }
      ],
      "name": "ownerHisseIdMap",
      "outputs": [
        {
          "internalType": "uint256",
          "name": "",
          "type": "uint256"
        }
      ],
      "stateMutability": "view",
      "type": "function",
      "constant": true
    },
    {
      "inputs": [
        {
          "internalType": "uint256",
          "name": "",
          "type": "uint256"
        }
      ],
      "name": "realEstateIdHisseMap",
      "outputs": [
        {
          "internalType": "bool",
          "name": "registered",
          "type": "bool"
        },
        {
          "internalType": "uint256",
          "name": "payda",
          "type": "uint256"
        },
        {
          "internalType": "uint256",
          "name": "toplamHisseMiktar",
          "type": "uint256"
        }
      ],
      "stateMutability": "view",
      "type": "function",
      "constant": true
    },
    {
      "inputs": [
        {
          "internalType": "uint256",
          "name": "realEstateId",
          "type": "uint256"
        }
      ],
      "name": "testOwnerShip",
      "outputs": [],
      "stateMutability": "nonpayable",
      "type": "function"
    },
    {
      "inputs": [
        {
          "internalType": "address",
          "name": "ownAdd",
          "type": "address"
        },
        {
          "internalType": "uint256",
          "name": "realEstateId",
          "type": "uint256"
        },
        {
          "internalType": "uint256",
          "name": "_hisse",
          "type": "uint256"
        }
      ],
      "name": "addOwnerShip",
      "outputs": [],
      "stateMutability": "nonpayable",
      "type": "function"
    },
    {
      "inputs": [
        {
          "internalType": "uint256",
          "name": "hisseId",
          "type": "uint256"
        },
        {
          "internalType": "address",
          "name": "newOwner",
          "type": "address"
        }
      ],
      "name": "changeOwnerShip",
      "outputs": [],
      "stateMutability": "nonpayable",
      "type": "function"
    },
    {
      "inputs": [
        {
          "internalType": "uint256",
          "name": "hisseId",
          "type": "uint256"
        },
        {
          "internalType": "address",
          "name": "ownAdd",
          "type": "address"
        }
      ],
      "name": "hisseSatisaCikabilirMi",
      "outputs": [
        {
          "internalType": "bool",
          "name": "",
          "type": "bool"
        }
      ],
      "stateMutability": "view",
      "type": "function",
      "constant": true
    },
    {
      "inputs": [
        {
          "internalType": "address",
          "name": "ownAdd",
          "type": "address"
        },
        {
          "internalType": "uint256",
          "name": "index",
          "type": "uint256"
        }
      ],
      "name": "getOwnerHisseId",
      "outputs": [
        {
          "internalType": "uint256",
          "name": "",
          "type": "uint256"
        }
      ],
      "stateMutability": "view",
      "type": "function",
      "constant": true
    },
    {
      "inputs": [
        {
          "internalType": "address",
          "name": "ownAdd",
          "type": "address"
        },
        {
          "internalType": "uint256[]",
          "name": "hisseIdList",
          "type": "uint256[]"
        }
      ],
      "name": "getOwnerHisseId",
      "outputs": [
        {
          "internalType": "uint256",
          "name": "",
          "type": "uint256"
        }
      ],
      "stateMutability": "view",
      "type": "function",
      "constant": true
    },
    {
      "inputs": [
        {
          "internalType": "address",
          "name": "ownAdd",
          "type": "address"
        }
      ],
      "name": "getOwnerHisseLength",
      "outputs": [
        {
          "internalType": "uint256",
          "name": "",
          "type": "uint256"
        }
      ],
      "stateMutability": "view",
      "type": "function",
      "constant": true
    },
    {
      "inputs": [
        {
          "internalType": "uint256",
          "name": "hisseId",
          "type": "uint256"
        }
      ],
      "name": "getHisse",
      "outputs": [
        {
          "components": [
            {
              "internalType": "uint256",
              "name": "pay",
              "type": "uint256"
            },
            {
              "internalType": "uint256",
              "name": "realEstateId",
              "type": "uint256"
            },
            {
              "internalType": "address",
              "name": "ownerAdd",
              "type": "address"
            },
            {
              "internalType": "bool",
              "name": "registered",
              "type": "bool"
            }
          ],
          "internalType": "struct NotaryContractBase.Hisse",
          "name": "",
          "type": "tuple"
        }
      ],
      "stateMutability": "view",
      "type": "function",
      "constant": true
    },
    {
      "inputs": [
        {
          "internalType": "address",
          "name": "ownAdd",
          "type": "address"
        }
      ],
      "name": "getHisseInfos",
      "outputs": [
        {
          "components": [
            {
              "internalType": "uint256",
              "name": "pay",
              "type": "uint256"
            },
            {
              "internalType": "uint256",
              "name": "realEstateId",
              "type": "uint256"
            },
            {
              "internalType": "address",
              "name": "ownerAdd",
              "type": "address"
            },
            {
              "internalType": "bool",
              "name": "registered",
              "type": "bool"
            }
          ],
          "internalType": "struct NotaryContractBase.Hisse[]",
          "name": "",
          "type": "tuple[]"
        }
      ],
      "stateMutability": "view",
      "type": "function",
      "constant": true
    }
  ],
  "bytecode": "0x60806040523480156200001157600080fd5b5060405162001f6f38038062001f6f83398181016040528101906200003791906200012a565b806000806101000a81548173ffffffffffffffffffffffffffffffffffffffff021916908373ffffffffffffffffffffffffffffffffffffffff16021790555081600160006101000a81548173ffffffffffffffffffffffffffffffffffffffff021916908373ffffffffffffffffffffffffffffffffffffffff160217905550505062000171565b600080fd5b600073ffffffffffffffffffffffffffffffffffffffff82169050919050565b6000620000f282620000c5565b9050919050565b6200010481620000e5565b81146200011057600080fd5b50565b6000815190506200012481620000f9565b92915050565b60008060408385031215620001445762000143620000c0565b5b6000620001548582860162000113565b9250506020620001678582860162000113565b9150509250929050565b611dee80620001816000396000f3fe608060405234801561001057600080fd5b50600436106100b45760003560e01c806389642c541161007157806389642c54146101c8578063948c0d8e146101f85780639c3ead7414610228578063a4ddba4e14610258578063af825c9914610274578063d4ad4e9214610290576100b4565b80632a9421fd146100b957806331e0e081146100ec578063505383291461011c57806351fe436a1461014c578063776467981461017c578063794cc53314610198575b600080fd5b6100d360048036038101906100ce919061139d565b6102c2565b6040516100e39493929190611435565b60405180910390f35b610106600480360381019061010191906114a6565b61031f565b6040516101139190611604565b60405180910390f35b61013660048036038101906101319190611626565b610511565b6040516101439190611666565b60405180910390f35b610166600480360381019061016191906114a6565b610542565b6040516101739190611666565b60405180910390f35b61019660048036038101906101919190611681565b61058e565b005b6101b260048036038101906101ad9190611626565b6108aa565b6040516101bf9190611666565b60405180910390f35b6101e260048036038101906101dd9190611681565b610910565b6040516101ef91906116c1565b60405180910390f35b610212600480360381019061020d919061139d565b610a01565b60405161021f9190611731565b60405180910390f35b610242600480360381019061023d91906118a5565b610ab3565b60405161024f9190611666565b60405180910390f35b610272600480360381019061026d9190611901565b610b76565b005b61028e6004803603810190610289919061139d565b611116565b005b6102aa60048036038101906102a5919061139d565b611125565b6040516102b993929190611954565b60405180910390f35b60046020528060005260406000206000915090508060000154908060010154908060020160009054906101000a900473ffffffffffffffffffffffffffffffffffffffff16908060020160149054906101000a900460ff16905084565b60606000600260008473ffffffffffffffffffffffffffffffffffffffff1673ffffffffffffffffffffffffffffffffffffffff1681526020019081526020016000208054806020026020016040519081016040528092919081815260200182805480156103ac57602002820191906000526020600020905b815481526020019060010190808311610398575b505050505090506000815167ffffffffffffffff8111156103d0576103cf611762565b5b60405190808252806020026020018201604052801561040957816020015b6103f66112a4565b8152602001906001900390816103ee5790505b50905060005b8251811015610506576004600084838151811061042f5761042e61198b565b5b6020026020010151815260200190815260200160002060405180608001604052908160008201548152602001600182015481526020016002820160009054906101000a900473ffffffffffffffffffffffffffffffffffffffff1673ffffffffffffffffffffffffffffffffffffffff1673ffffffffffffffffffffffffffffffffffffffff1681526020016002820160149054906101000a900460ff1615151515815250508282815181106104e8576104e761198b565b5b602002602001018190525080806104fe906119e9565b91505061040f565b508092505050919050565b6002602052816000526040600020818154811061052d57600080fd5b90600052602060002001600091509150505481565b6000600260008373ffffffffffffffffffffffffffffffffffffffff1673ffffffffffffffffffffffffffffffffffffffff168152602001908152602001600020805490509050919050565b60006004600084815260200190815260200160002060405180608001604052908160008201548152602001600182015481526020016002820160009054906101000a900473ffffffffffffffffffffffffffffffffffffffff1673ffffffffffffffffffffffffffffffffffffffff1673ffffffffffffffffffffffffffffffffffffffff1681526020016002820160149054906101000a900460ff16151515158152505090508060600151610679576040517f08c379a000000000000000000000000000000000000000000000000000000000815260040161067090611a8e565b60405180910390fd5b816004600085815260200190815260200160002060020160006101000a81548173ffffffffffffffffffffffffffffffffffffffff021916908373ffffffffffffffffffffffffffffffffffffffff1602179055506000600260003373ffffffffffffffffffffffffffffffffffffffff1673ffffffffffffffffffffffffffffffffffffffff16815260200190815260200160002080548060200260200160405190810160405280929190818152602001828054801561075957602002820191906000526020600020905b815481526020019060010190808311610745575b5050505050905060005b815181101561080257848282815181106107805761077f61198b565b5b6020026020010151036107ef576000600260003373ffffffffffffffffffffffffffffffffffffffff1673ffffffffffffffffffffffffffffffffffffffff16815260200190815260200160002082815481106107e0576107df61198b565b5b90600052602060002001819055505b80806107fa906119e9565b915050610763565b50600260008473ffffffffffffffffffffffffffffffffffffffff1673ffffffffffffffffffffffffffffffffffffffff1681526020019081526020016000208490806001815401808255809150506001900390600052602060002001600090919091909150557ffc76d50164923258b51ee1079ccd1cf163bdb590fae88254a27a68fc01338db384338560405161089c93929190611aae565b60405180910390a150505050565b6000600260008473ffffffffffffffffffffffffffffffffffffffff1673ffffffffffffffffffffffffffffffffffffffff16815260200190815260200160002082815481106108fd576108fc61198b565b5b9060005260206000200154905092915050565b6000806004600085815260200190815260200160002060405180608001604052908160008201548152602001600182015481526020016002820160009054906101000a900473ffffffffffffffffffffffffffffffffffffffff1673ffffffffffffffffffffffffffffffffffffffff1673ffffffffffffffffffffffffffffffffffffffff1681526020016002820160149054906101000a900460ff1615151515815250509050806060015180156109f857508273ffffffffffffffffffffffffffffffffffffffff16816040015173ffffffffffffffffffffffffffffffffffffffff16145b91505092915050565b610a096112a4565b6004600083815260200190815260200160002060405180608001604052908160008201548152602001600182015481526020016002820160009054906101000a900473ffffffffffffffffffffffffffffffffffffffff1673ffffffffffffffffffffffffffffffffffffffff1673ffffffffffffffffffffffffffffffffffffffff1681526020016002820160149054906101000a900460ff1615151515815250509050919050565b600080600090505b8251811015610b6a576000838281518110610ad957610ad861198b565b5b602002602001015190508473ffffffffffffffffffffffffffffffffffffffff166004600083815260200190815260200160002060020160009054906101000a900473ffffffffffffffffffffffffffffffffffffffff1673ffffffffffffffffffffffffffffffffffffffff1603610b56578092505050610b70565b508080610b62906119e9565b915050610abb565b50600090505b92915050565b60008054906101000a900473ffffffffffffffffffffffffffffffffffffffff1673ffffffffffffffffffffffffffffffffffffffff166324d7806c336040518263ffffffff1660e01b8152600401610bcf9190611ae5565b602060405180830381865afa158015610bec573d6000803e3d6000fd5b505050506040513d601f19601f82011682018060405250810190610c109190611b2c565b610c4f576040517f08c379a0000000000000000000000000000000000000000000000000000000008152600401610c4690611ba5565b60405180910390fd5b600160009054906101000a900473ffffffffffffffffffffffffffffffffffffffff1673ffffffffffffffffffffffffffffffffffffffff16635a8f6713836040518263ffffffff1660e01b8152600401610caa9190611666565b602060405180830381865afa158015610cc7573d6000803e3d6000fd5b505050506040513d601f19601f82011682018060405250810190610ceb9190611b2c565b610d2a576040517f08c379a0000000000000000000000000000000000000000000000000000000008152600401610d2190611c37565b60405180910390fd5b60006003600084815260200190815260200160002090506000600160009054906101000a900473ffffffffffffffffffffffffffffffffffffffff1673ffffffffffffffffffffffffffffffffffffffff16633c7422df856040518263ffffffff1660e01b8152600401610d9e9190611666565b602060405180830381865afa158015610dbb573d6000803e3d6000fd5b505050506040513d601f19601f82011682018060405250810190610ddf9190611c6c565b90508160000160009054906101000a900460ff16156110265780838360020154610e099190611c99565b1115610e4a576040517f08c379a0000000000000000000000000000000000000000000000000000000008152600401610e4190611d61565b60405180910390fd5b6000610ea88684600301805480602002602001604051908101604052809291908181526020018280548015610e9e57602002820191906000526020600020905b815481526020019060010190808311610e8a575b5050505050610ab3565b905060008114610f1f5783600460008381526020019081526020016000206000016000828254610ed89190611c99565b925050819055507fa535b07ae14ec98ab82ef3c685c41230285069dc563422605395fd18dae8c892858288604051610f1293929190611d81565b60405180910390a1610f96565b6000610f2c85878961115c565b9050836003018190806001815401808255809150506001900390600052602060002001600090919091909150557f778bb28ce6a290175f1e03453e3a37af08496ccc1b12ef02a0fe761cdabd810d868289604051610f8c93929190611d81565b60405180910390a1505b83836002016000828254610faa9190611c99565b9250508190555082600360008781526020019081526020016000206000820160009054906101000a900460ff168160000160006101000a81548160ff0219169083151502179055506001820154816001015560028201548160020155600382018160030190805461101c9291906112e4565b509050505061110f565b80831115611069576040517f08c379a000000000000000000000000000000000000000000000000000000000815260040161106090611d61565b60405180910390fd5b80826001018190555082826002018190555060018260000160006101000a81548160ff02191690831515021790555060006110a584868861115c565b9050826003018190806001815401808255809150506001900390600052602060002001600090919091909150557f29d7d5587f61e146ad3cfca1aae3910d412e0701ee1b55b46d9d3837f4dc693d85828860405161110593929190611d81565b60405180910390a1505b5050505050565b61112233826001610b76565b50565b60036020528060005260406000206000915090508060000160009054906101000a900460ff16908060010154908060020154905083565b600080429050600060405180608001604052808781526020018681526020018573ffffffffffffffffffffffffffffffffffffffff1681526020016001151581525090508060046000848152602001908152602001600020600082015181600001556020820151816001015560408201518160020160006101000a81548173ffffffffffffffffffffffffffffffffffffffff021916908373ffffffffffffffffffffffffffffffffffffffff16021790555060608201518160020160146101000a81548160ff021916908315150217905550905050600260008573ffffffffffffffffffffffffffffffffffffffff1673ffffffffffffffffffffffffffffffffffffffff16815260200190815260200160002082908060018154018082558091505060019003906000526020600020016000909190919091505581925050509392505050565b60405180608001604052806000815260200160008152602001600073ffffffffffffffffffffffffffffffffffffffff1681526020016000151581525090565b8280548282559060005260206000209081019282156113255760005260206000209182015b82811115611324578254825591600101919060010190611309565b5b5090506113329190611336565b5090565b5b8082111561134f576000816000905550600101611337565b5090565b6000604051905090565b600080fd5b600080fd5b6000819050919050565b61137a81611367565b811461138557600080fd5b50565b60008135905061139781611371565b92915050565b6000602082840312156113b3576113b261135d565b5b60006113c184828501611388565b91505092915050565b6113d381611367565b82525050565b600073ffffffffffffffffffffffffffffffffffffffff82169050919050565b6000611404826113d9565b9050919050565b611414816113f9565b82525050565b60008115159050919050565b61142f8161141a565b82525050565b600060808201905061144a60008301876113ca565b61145760208301866113ca565b611464604083018561140b565b6114716060830184611426565b95945050505050565b611483816113f9565b811461148e57600080fd5b50565b6000813590506114a08161147a565b92915050565b6000602082840312156114bc576114bb61135d565b5b60006114ca84828501611491565b91505092915050565b600081519050919050565b600082825260208201905092915050565b6000819050602082019050919050565b61150881611367565b82525050565b611517816113f9565b82525050565b6115268161141a565b82525050565b60808201600082015161154260008501826114ff565b50602082015161155560208501826114ff565b506040820151611568604085018261150e565b50606082015161157b606085018261151d565b50505050565b600061158d838361152c565b60808301905092915050565b6000602082019050919050565b60006115b1826114d3565b6115bb81856114de565b93506115c6836114ef565b8060005b838110156115f75781516115de8882611581565b97506115e983611599565b9250506001810190506115ca565b5085935050505092915050565b6000602082019050818103600083015261161e81846115a6565b905092915050565b6000806040838503121561163d5761163c61135d565b5b600061164b85828601611491565b925050602061165c85828601611388565b9150509250929050565b600060208201905061167b60008301846113ca565b92915050565b600080604083850312156116985761169761135d565b5b60006116a685828601611388565b92505060206116b785828601611491565b9150509250929050565b60006020820190506116d66000830184611426565b92915050565b6080820160008201516116f260008501826114ff565b50602082015161170560208501826114ff565b506040820151611718604085018261150e565b50606082015161172b606085018261151d565b50505050565b600060808201905061174660008301846116dc565b92915050565b600080fd5b6000601f19601f8301169050919050565b7f4e487b7100000000000000000000000000000000000000000000000000000000600052604160045260246000fd5b61179a82611751565b810181811067ffffffffffffffff821117156117b9576117b8611762565b5b80604052505050565b60006117cc611353565b90506117d88282611791565b919050565b600067ffffffffffffffff8211156117f8576117f7611762565b5b602082029050602081019050919050565b600080fd5b600061182161181c846117dd565b6117c2565b9050808382526020820190506020840283018581111561184457611843611809565b5b835b8181101561186d57806118598882611388565b845260208401935050602081019050611846565b5050509392505050565b600082601f83011261188c5761188b61174c565b5b813561189c84826020860161180e565b91505092915050565b600080604083850312156118bc576118bb61135d565b5b60006118ca85828601611491565b925050602083013567ffffffffffffffff8111156118eb576118ea611362565b5b6118f785828601611877565b9150509250929050565b60008060006060848603121561191a5761191961135d565b5b600061192886828701611491565b935050602061193986828701611388565b925050604061194a86828701611388565b9150509250925092565b60006060820190506119696000830186611426565b61197660208301856113ca565b61198360408301846113ca565b949350505050565b7f4e487b7100000000000000000000000000000000000000000000000000000000600052603260045260246000fd5b7f4e487b7100000000000000000000000000000000000000000000000000000000600052601160045260246000fd5b60006119f482611367565b91507fffffffffffffffffffffffffffffffffffffffffffffffffffffffffffffffff8203611a2657611a256119ba565b5b600182019050919050565b600082825260208201905092915050565b7f48697373652062756c756e616d61646900000000000000000000000000000000600082015250565b6000611a78601083611a31565b9150611a8382611a42565b602082019050919050565b60006020820190508181036000830152611aa781611a6b565b9050919050565b6000606082019050611ac360008301866113ca565b611ad0602083018561140b565b611add604083018461140b565b949350505050565b6000602082019050611afa600083018461140b565b92915050565b611b098161141a565b8114611b1457600080fd5b50565b600081519050611b2681611b00565b92915050565b600060208284031215611b4257611b4161135d565b5b6000611b5084828501611b17565b91505092915050565b7f42752069736c656d69207361646563652061646d696e207961706162696c6972600082015250565b6000611b8f602083611a31565b9150611b9a82611b59565b602082019050919050565b60006020820190508181036000830152611bbe81611b82565b9050919050565b7f5265616c2065737461746520646f6573206e6f7420657869737420696e20746860008201527f652073797374656d000000000000000000000000000000000000000000000000602082015250565b6000611c21602883611a31565b9150611c2c82611bc5565b604082019050919050565b60006020820190508181036000830152611c5081611c14565b9050919050565b600081519050611c6681611371565b92915050565b600060208284031215611c8257611c8161135d565b5b6000611c9084828501611c57565b91505092915050565b6000611ca482611367565b9150611caf83611367565b9250827fffffffffffffffffffffffffffffffffffffffffffffffffffffffffffffffff03821115611ce457611ce36119ba565b5b828201905092915050565b7f4e6f206d6f7265207368617265686f6c646572732063616e206265206164646560008201527f6420746f20746865207265616c20657374617465000000000000000000000000602082015250565b6000611d4b603483611a31565b9150611d5682611cef565b604082019050919050565b60006020820190508181036000830152611d7a81611d3e565b9050919050565b6000606082019050611d9660008301866113ca565b611da360208301856113ca565b611db0604083018461140b565b94935050505056fea2646970667358221220fa0146898d3743d05c01b0d4fb23215012854dce9256a45c8d9962991117b4ea64736f6c634300080e0033",
  "immutableReferences": {},
  "source": "// SPDX-License-Identifier: UNLICENSED\r\npragma solidity ^0.8.0;\r\n\r\nimport \"./Owner.sol\";\r\nimport \"./RealEstate.sol\";\r\nimport \"./NotaryContractBase.sol\";\r\n\r\ncontract RealEstateOwnerRelation is NotaryContractBase{\r\n    Owner ownerContract;\r\n    RealEstate realEstateContract;\r\n\r\n    mapping(address => uint []) public ownerHisseIdMap;\r\n    \r\n    mapping(uint => RealEstateHisse) public realEstateIdHisseMap;\r\n    mapping(uint => Hisse) public hisseIdHisseMap;\r\n\r\n    event NewHisseAndRealEstateAdded(uint realEstateId, uint hisseId, address owner);\r\n    event OwnerHissePayAdded(uint realEstateId, uint hisseId, address owner);\r\n    event NewHisseAddedToRealEstate(uint realEstateId, uint hisseId, address owner);\r\n    event OwnerShipChanged(uint hiseId, address oldOwner, address newOwner);\r\n    \r\n    constructor(address realEstateContractAdd, address ownerContractAdd)  {\r\n        ownerContract=Owner(ownerContractAdd);\r\n        realEstateContract=RealEstate(realEstateContractAdd);\r\n    }\r\n\r\n    function testOwnerShip(uint realEstateId) public{\r\n        addOwnerShip(msg.sender, realEstateId, 1);        \r\n    }\r\n    \r\n    function addOwnerShip(address ownAdd, uint realEstateId, uint _hisse) public {\r\n        require(ownerContract.isAdmin(msg.sender), \"Bu islemi sadece admin yapabilir\");\r\n        require(realEstateContract.isRealEstateRegisted(realEstateId), \"Real estate does not exist in the system\");   \r\n         \r\n        RealEstateHisse storage realEstateHisse = realEstateIdHisseMap[realEstateId];\r\n        uint payda = realEstateContract.getRealEstatePayda(realEstateId);\r\n        if(realEstateHisse.registered){\r\n            require(realEstateHisse.toplamHisseMiktar + _hisse <= payda, \"No more shareholders can be added to the real estate\");\r\n            uint hisseId = getOwnerHisseId(ownAdd, realEstateHisse.hisseIdList);\r\n            if(hisseId != 0){\r\n                hisseIdHisseMap[hisseId].pay += _hisse;\r\n                emit OwnerHissePayAdded(realEstateId, hisseId, ownAdd);\r\n            }else{\r\n                uint newHisseId=hisseOlustur(_hisse, realEstateId, ownAdd);\r\n                realEstateHisse.hisseIdList.push(newHisseId);\r\n                emit NewHisseAddedToRealEstate(realEstateId, newHisseId, ownAdd);\r\n            }\r\n            realEstateHisse.toplamHisseMiktar += _hisse;\r\n            realEstateIdHisseMap[realEstateId] = realEstateHisse;\r\n        }else{\r\n            require(_hisse <= payda,  \"No more shareholders can be added to the real estate\");\r\n            realEstateHisse.payda = payda;\r\n            realEstateHisse.toplamHisseMiktar= _hisse;\r\n            realEstateHisse.registered =true;\r\n            uint newHisseId=hisseOlustur(_hisse, realEstateId, ownAdd);\r\n            realEstateHisse.hisseIdList.push(newHisseId);\r\n            emit NewHisseAndRealEstateAdded(realEstateId, newHisseId, ownAdd);\r\n        }\r\n        \r\n    }\r\n\r\n    function hisseOlustur(uint _hisse, uint realEstateId, address ownAdd) private returns (uint) {\r\n        uint newHisseId=block.timestamp;\r\n        Hisse memory newHisse = Hisse(_hisse, realEstateId, ownAdd, true);\r\n        hisseIdHisseMap[newHisseId] = newHisse;            \r\n        ownerHisseIdMap[ownAdd].push(newHisseId);   \r\n        return newHisseId;\r\n    }\r\n\r\n    function getOwnerHisseId(address ownAdd, uint[] memory hisseIdList) public view returns(uint) {\r\n        for(uint i = 0; i< hisseIdList.length; i++){\r\n            uint hisseId = hisseIdList[i];\r\n            if(hisseIdHisseMap[hisseId].ownerAdd == ownAdd){\r\n                return hisseId;\r\n            }\r\n        }\r\n        return 0;\r\n    }\r\n\r\n    function changeOwnerShip(uint hisseId, address newOwner) public {\r\n        Hisse memory hisse  = hisseIdHisseMap[hisseId];\r\n        require(hisse.registered, \"Hisse bulunamadi\");\r\n        //require(ownerContract.isAdmin(msg.sender), \"Bu islemi sadece admin yapabilir\");\r\n\r\n        hisseIdHisseMap[hisseId].ownerAdd = newOwner;\r\n        \r\n        uint[] memory hisseIdList = ownerHisseIdMap[msg.sender];\r\n        for(uint i = 0; i<hisseIdList.length; i++){\r\n            if(hisseIdList[i] == hisseId){\r\n                ownerHisseIdMap[msg.sender][i] = 0;\r\n            } \r\n        }\r\n        ownerHisseIdMap[newOwner].push(hisseId);\r\n        \r\n        emit OwnerShipChanged(hisseId, msg.sender, newOwner);\r\n    }\r\n\r\n    function hisseSatisaCikabilirMi(uint hisseId, address ownAdd) public view returns(bool){\r\n        Hisse memory hisse  = hisseIdHisseMap[hisseId];\r\n        return hisse.registered && hisse.ownerAdd == ownAdd;\r\n    }\r\n\r\n    function getOwnerHisseId(address ownAdd, uint index) public view returns(uint){\r\n        return ownerHisseIdMap[ownAdd][index];\r\n    }\r\n\r\n    function getOwnerHisseLength(address ownAdd) public view returns(uint){\r\n        return ownerHisseIdMap[ownAdd].length;\r\n    }\r\n\r\n    function getHisse(uint hisseId) public view returns(Hisse memory){\r\n        return hisseIdHisseMap[hisseId];\r\n    }\r\n\r\n    function getHisseInfos(address ownAdd) public view returns (Hisse[] memory){\r\n           uint [] memory hisseIds = ownerHisseIdMap[ownAdd];\r\n           Hisse [] memory result = new Hisse[](hisseIds.length);\r\n           for(uint i = 0; i< hisseIds.length; i++){\r\n               result[i] = hisseIdHisseMap[hisseIds[i]];\r\n           }\r\n           return result;            \r\n    }\r\n\r\n}",
  "sourcePath": "D:\\Ethereum Projects\\DAWithEth\\truffle-project\\contracts\\RealEstateOwnerRelation.sol",
  "compiler": {
    "name": "solc",
    "version": "0.8.14+commit.80d49f37.Emscripten.clang"
  },
  "schemaVersion": "3.4.11",
  "updatedAt": "2023-01-14T14:19:43.004Z",
  "networkType": "ethereum",
  "devdoc": {
    "kind": "dev",
    "methods": {},
    "version": 1
  },
  "userdoc": {
    "kind": "user",
    "methods": {},
    "version": 1
  }
}