{
  "contractName": "RealEstateSaleAd",
  "abi": [
    {
      "inputs": [
        {
          "internalType": "address",
          "name": "ownerContractAdd",
          "type": "address"
        },
        {
          "internalType": "address",
          "name": "realOwnRelAddress",
          "type": "address"
        },
        {
          "internalType": "address",
          "name": "realEstateAddress",
          "type": "address"
        },
        {
          "internalType": "address",
          "name": "hissedarOnayAdd",
          "type": "address"
        }
      ],
      "stateMutability": "nonpayable",
      "type": "constructor"
    },
    {
      "anonymous": false,
      "inputs": [
        {
          "indexed": false,
          "internalType": "uint256",
          "name": "ilanId",
          "type": "uint256"
        },
        {
          "indexed": false,
          "internalType": "address",
          "name": "saticiId",
          "type": "address"
        },
        {
          "indexed": false,
          "internalType": "address",
          "name": "aliciId",
          "type": "address"
        }
      ],
      "name": "aliciIcinKilitlendi",
      "type": "event"
    },
    {
      "anonymous": false,
      "inputs": [
        {
          "indexed": false,
          "internalType": "address",
          "name": "alici",
          "type": "address"
        },
        {
          "indexed": false,
          "internalType": "uint256",
          "name": "ilanId",
          "type": "uint256"
        },
        {
          "indexed": false,
          "internalType": "uint256",
          "name": "miktar",
          "type": "uint256"
        }
      ],
      "name": "alicisistemHesabinaParaAktardi",
      "type": "event"
    },
    {
      "anonymous": false,
      "inputs": [
        {
          "indexed": false,
          "internalType": "uint256",
          "name": "hisseId",
          "type": "uint256"
        },
        {
          "indexed": false,
          "internalType": "address",
          "name": "alici",
          "type": "address"
        },
        {
          "indexed": false,
          "internalType": "address",
          "name": "satici",
          "type": "address"
        },
        {
          "indexed": false,
          "internalType": "uint256",
          "name": "fiyat",
          "type": "uint256"
        },
        {
          "indexed": false,
          "internalType": "uint256",
          "name": "zaman",
          "type": "uint256"
        }
      ],
      "name": "changedOwnerShip",
      "type": "event"
    },
    {
      "anonymous": false,
      "inputs": [
        {
          "indexed": false,
          "internalType": "uint256",
          "name": "ilanId",
          "type": "uint256"
        },
        {
          "indexed": false,
          "internalType": "uint256",
          "name": "yeniSatisFiyat",
          "type": "uint256"
        },
        {
          "indexed": false,
          "internalType": "address",
          "name": "saticiId",
          "type": "address"
        }
      ],
      "name": "fiyatDegistirildi",
      "type": "event"
    },
    {
      "anonymous": false,
      "inputs": [
        {
          "indexed": false,
          "internalType": "uint256",
          "name": "hisseId",
          "type": "uint256"
        },
        {
          "indexed": false,
          "internalType": "address",
          "name": "saticiId",
          "type": "address"
        },
        {
          "indexed": false,
          "internalType": "uint256",
          "name": "ilanId",
          "type": "uint256"
        },
        {
          "indexed": false,
          "internalType": "uint256",
          "name": "fiyat",
          "type": "uint256"
        }
      ],
      "name": "hissedarlarinOnayinda",
      "type": "event"
    },
    {
      "anonymous": false,
      "inputs": [
        {
          "indexed": false,
          "internalType": "uint256",
          "name": "hisseId",
          "type": "uint256"
        },
        {
          "indexed": false,
          "internalType": "address",
          "name": "saticiId",
          "type": "address"
        },
        {
          "indexed": false,
          "internalType": "uint256",
          "name": "ilanId",
          "type": "uint256"
        },
        {
          "indexed": false,
          "internalType": "uint256",
          "name": "fiyat",
          "type": "uint256"
        }
      ],
      "name": "ilanOlusturuldu",
      "type": "event"
    },
    {
      "anonymous": false,
      "inputs": [
        {
          "indexed": false,
          "internalType": "address",
          "name": "saticiId",
          "type": "address"
        },
        {
          "indexed": false,
          "internalType": "uint256",
          "name": "ilanId",
          "type": "uint256"
        }
      ],
      "name": "ilanYayindanKaldirildi",
      "type": "event"
    },
    {
      "anonymous": false,
      "inputs": [
        {
          "indexed": false,
          "internalType": "uint256",
          "name": "ilanId",
          "type": "uint256"
        }
      ],
      "name": "kilitKaldirildiWithAliciOnayi",
      "type": "event"
    },
    {
      "anonymous": false,
      "inputs": [
        {
          "indexed": false,
          "internalType": "uint256",
          "name": "ilanId",
          "type": "uint256"
        }
      ],
      "name": "kilitKaldirildiWithSaticiOnayi",
      "type": "event"
    },
    {
      "anonymous": false,
      "inputs": [],
      "name": "mutabakatIslemiOnay",
      "type": "event"
    },
    {
      "anonymous": false,
      "inputs": [],
      "name": "mutabakatIslemiRed",
      "type": "event"
    },
    {
      "anonymous": false,
      "inputs": [
        {
          "indexed": false,
          "internalType": "address",
          "name": "satici",
          "type": "address"
        },
        {
          "indexed": false,
          "internalType": "uint256",
          "name": "ilanId",
          "type": "uint256"
        },
        {
          "indexed": false,
          "internalType": "uint256",
          "name": "miktar",
          "type": "uint256"
        }
      ],
      "name": "saticiSistemHesabinaTapuHarciAktardi",
      "type": "event"
    },
    {
      "inputs": [
        {
          "internalType": "uint256",
          "name": "",
          "type": "uint256"
        }
      ],
      "name": "adIdLUT",
      "outputs": [
        {
          "internalType": "uint256",
          "name": "",
          "type": "uint256"
        }
      ],
      "stateMutability": "view",
      "type": "function",
      "constant": true
    },
    {
      "inputs": [
        {
          "internalType": "uint256",
          "name": "",
          "type": "uint256"
        }
      ],
      "name": "adIdMap",
      "outputs": [
        {
          "internalType": "uint256",
          "name": "hisseId",
          "type": "uint256"
        },
        {
          "internalType": "address",
          "name": "satici",
          "type": "address"
        },
        {
          "internalType": "address",
          "name": "alici",
          "type": "address"
        },
        {
          "internalType": "enum NotaryContractBase.State",
          "name": "state",
          "type": "uint8"
        },
        {
          "internalType": "uint256",
          "name": "rayicBedeli",
          "type": "uint256"
        },
        {
          "internalType": "uint256",
          "name": "fiyat",
          "type": "uint256"
        },
        {
          "internalType": "bool",
          "name": "borcuVarMi",
          "type": "bool"
        },
        {
          "internalType": "uint256",
          "name": "adIdLUTIndex",
          "type": "uint256"
        },
        {
          "internalType": "bool",
          "name": "aliciParaTransferi",
          "type": "bool"
        },
        {
          "internalType": "bool",
          "name": "saticiParaTransferi",
          "type": "bool"
        }
      ],
      "stateMutability": "view",
      "type": "function",
      "constant": true
    },
    {
      "inputs": [
        {
          "internalType": "uint256",
          "name": "",
          "type": "uint256"
        }
      ],
      "name": "hisseIdAdIdMap",
      "outputs": [
        {
          "internalType": "uint256",
          "name": "",
          "type": "uint256"
        }
      ],
      "stateMutability": "view",
      "type": "function",
      "constant": true
    },
    {
      "inputs": [
        {
          "internalType": "address",
          "name": "",
          "type": "address"
        },
        {
          "internalType": "uint256",
          "name": "",
          "type": "uint256"
        }
      ],
      "name": "ownerAdIdListMap",
      "outputs": [
        {
          "internalType": "uint256",
          "name": "",
          "type": "uint256"
        }
      ],
      "stateMutability": "view",
      "type": "function",
      "constant": true
    },
    {
      "inputs": [
        {
          "internalType": "uint256",
          "name": "hisseId",
          "type": "uint256"
        },
        {
          "internalType": "uint256",
          "name": "rayicBedeli",
          "type": "uint256"
        },
        {
          "internalType": "uint256",
          "name": "satisFiyat",
          "type": "uint256"
        },
        {
          "internalType": "bool",
          "name": "borcuVarMi",
          "type": "bool"
        }
      ],
      "name": "ilanOlustur",
      "outputs": [],
      "stateMutability": "nonpayable",
      "type": "function"
    },
    {
      "inputs": [
        {
          "internalType": "uint256",
          "name": "ilanId",
          "type": "uint256"
        },
        {
          "internalType": "uint256",
          "name": "hisseId",
          "type": "uint256"
        },
        {
          "internalType": "uint256",
          "name": "satisFiyat",
          "type": "uint256"
        }
      ],
      "name": "hissedarVarsaOnayaGonder",
      "outputs": [],
      "stateMutability": "nonpayable",
      "type": "function"
    },
    {
      "inputs": [
        {
          "internalType": "uint256",
          "name": "ilanId",
          "type": "uint256"
        }
      ],
      "name": "ilanYayindanKaldir",
      "outputs": [],
      "stateMutability": "nonpayable",
      "type": "function"
    },
    {
      "inputs": [
        {
          "internalType": "uint256",
          "name": "ilanId",
          "type": "uint256"
        },
        {
          "internalType": "address",
          "name": "aliciAdd",
          "type": "address"
        },
        {
          "internalType": "uint256",
          "name": "fiyat",
          "type": "uint256"
        }
      ],
      "name": "aliciIcinKilitle",
      "outputs": [],
      "stateMutability": "nonpayable",
      "type": "function"
    },
    {
      "inputs": [
        {
          "internalType": "uint256",
          "name": "ilanId",
          "type": "uint256"
        },
        {
          "internalType": "uint256",
          "name": "newfiyat",
          "type": "uint256"
        }
      ],
      "name": "changeSatisFiyat",
      "outputs": [],
      "stateMutability": "nonpayable",
      "type": "function"
    },
    {
      "inputs": [
        {
          "internalType": "uint256",
          "name": "ilanId",
          "type": "uint256"
        }
      ],
      "name": "kilitKaldirWithAliciOnayi",
      "outputs": [],
      "stateMutability": "nonpayable",
      "type": "function"
    },
    {
      "inputs": [
        {
          "internalType": "uint256",
          "name": "ilanId",
          "type": "uint256"
        }
      ],
      "name": "kilitKaldirWithSaticiOnayi",
      "outputs": [],
      "stateMutability": "nonpayable",
      "type": "function"
    },
    {
      "inputs": [
        {
          "internalType": "address",
          "name": "ownAdd",
          "type": "address"
        }
      ],
      "name": "getUserAds",
      "outputs": [
        {
          "components": [
            {
              "internalType": "uint256",
              "name": "hisseId",
              "type": "uint256"
            },
            {
              "internalType": "address",
              "name": "satici",
              "type": "address"
            },
            {
              "internalType": "address",
              "name": "alici",
              "type": "address"
            },
            {
              "internalType": "enum NotaryContractBase.State",
              "name": "state",
              "type": "uint8"
            },
            {
              "internalType": "uint256",
              "name": "rayicBedeli",
              "type": "uint256"
            },
            {
              "internalType": "uint256",
              "name": "fiyat",
              "type": "uint256"
            },
            {
              "internalType": "bool",
              "name": "borcuVarMi",
              "type": "bool"
            },
            {
              "internalType": "uint256",
              "name": "adIdLUTIndex",
              "type": "uint256"
            },
            {
              "internalType": "bool",
              "name": "aliciParaTransferi",
              "type": "bool"
            },
            {
              "internalType": "bool",
              "name": "saticiParaTransferi",
              "type": "bool"
            }
          ],
          "internalType": "struct NotaryContractBase.Advertisement[]",
          "name": "",
          "type": "tuple[]"
        }
      ],
      "stateMutability": "view",
      "type": "function",
      "constant": true
    },
    {
      "inputs": [
        {
          "internalType": "uint256",
          "name": "ilanId",
          "type": "uint256"
        }
      ],
      "name": "ilanaTeklifVerilebilirMi",
      "outputs": [
        {
          "internalType": "bool",
          "name": "",
          "type": "bool"
        }
      ],
      "stateMutability": "view",
      "type": "function",
      "constant": true
    },
    {
      "inputs": [
        {
          "internalType": "uint256",
          "name": "ilanId",
          "type": "uint256"
        },
        {
          "internalType": "uint256",
          "name": "fiyat",
          "type": "uint256"
        }
      ],
      "name": "teklifFiyatRaicBedeldenDusukMu",
      "outputs": [
        {
          "internalType": "bool",
          "name": "",
          "type": "bool"
        }
      ],
      "stateMutability": "view",
      "type": "function",
      "constant": true
    },
    {
      "inputs": [
        {
          "internalType": "uint256",
          "name": "ilanId",
          "type": "uint256"
        }
      ],
      "name": "getIlanSatici",
      "outputs": [
        {
          "internalType": "address",
          "name": "",
          "type": "address"
        }
      ],
      "stateMutability": "view",
      "type": "function",
      "constant": true
    },
    {
      "inputs": [
        {
          "internalType": "uint256",
          "name": "onayId",
          "type": "uint256"
        },
        {
          "internalType": "uint256",
          "name": "ilanId",
          "type": "uint256"
        }
      ],
      "name": "onayVer",
      "outputs": [],
      "stateMutability": "nonpayable",
      "type": "function"
    },
    {
      "inputs": [
        {
          "internalType": "uint256",
          "name": "onayId",
          "type": "uint256"
        },
        {
          "internalType": "uint256",
          "name": "ilanId",
          "type": "uint256"
        }
      ],
      "name": "reddet",
      "outputs": [],
      "stateMutability": "nonpayable",
      "type": "function"
    },
    {
      "inputs": [
        {
          "internalType": "uint256",
          "name": "ilanId",
          "type": "uint256"
        }
      ],
      "name": "ilanDurumuGuncelle",
      "outputs": [],
      "stateMutability": "nonpayable",
      "type": "function"
    },
    {
      "inputs": [
        {
          "internalType": "uint256",
          "name": "ilanId",
          "type": "uint256"
        }
      ],
      "name": "alicidanParaAlindi",
      "outputs": [],
      "stateMutability": "nonpayable",
      "type": "function"
    },
    {
      "inputs": [
        {
          "internalType": "uint256",
          "name": "ilanId",
          "type": "uint256"
        }
      ],
      "name": "saticidanTapuHarciAlindi",
      "outputs": [],
      "stateMutability": "nonpayable",
      "type": "function"
    },
    {
      "inputs": [],
      "name": "getAliciIcinKitlenenIlanlar",
      "outputs": [
        {
          "components": [
            {
              "internalType": "uint256",
              "name": "ilanId",
              "type": "uint256"
            },
            {
              "components": [
                {
                  "internalType": "uint256",
                  "name": "hisseId",
                  "type": "uint256"
                },
                {
                  "internalType": "address",
                  "name": "satici",
                  "type": "address"
                },
                {
                  "internalType": "address",
                  "name": "alici",
                  "type": "address"
                },
                {
                  "internalType": "enum NotaryContractBase.State",
                  "name": "state",
                  "type": "uint8"
                },
                {
                  "internalType": "uint256",
                  "name": "rayicBedeli",
                  "type": "uint256"
                },
                {
                  "internalType": "uint256",
                  "name": "fiyat",
                  "type": "uint256"
                },
                {
                  "internalType": "bool",
                  "name": "borcuVarMi",
                  "type": "bool"
                },
                {
                  "internalType": "uint256",
                  "name": "adIdLUTIndex",
                  "type": "uint256"
                },
                {
                  "internalType": "bool",
                  "name": "aliciParaTransferi",
                  "type": "bool"
                },
                {
                  "internalType": "bool",
                  "name": "saticiParaTransferi",
                  "type": "bool"
                }
              ],
              "internalType": "struct NotaryContractBase.Advertisement",
              "name": "ad",
              "type": "tuple"
            }
          ],
          "internalType": "struct NotaryContractBase.AdDto[]",
          "name": "",
          "type": "tuple[]"
        }
      ],
      "stateMutability": "view",
      "type": "function",
      "constant": true
    },
    {
      "inputs": [
        {
          "internalType": "address",
          "name": "ownAdd",
          "type": "address"
        }
      ],
      "name": "getUserAssets",
      "outputs": [
        {
          "components": [
            {
              "internalType": "uint256",
              "name": "hisseId",
              "type": "uint256"
            },
            {
              "components": [
                {
                  "internalType": "uint256",
                  "name": "pay",
                  "type": "uint256"
                },
                {
                  "internalType": "uint256",
                  "name": "realEstateId",
                  "type": "uint256"
                },
                {
                  "internalType": "address",
                  "name": "ownerAdd",
                  "type": "address"
                },
                {
                  "internalType": "bool",
                  "name": "registered",
                  "type": "bool"
                }
              ],
              "internalType": "struct NotaryContractBase.Hisse",
              "name": "hisse",
              "type": "tuple"
            },
            {
              "internalType": "uint256",
              "name": "ilanId",
              "type": "uint256"
            },
            {
              "components": [
                {
                  "internalType": "uint256",
                  "name": "hisseId",
                  "type": "uint256"
                },
                {
                  "internalType": "address",
                  "name": "satici",
                  "type": "address"
                },
                {
                  "internalType": "address",
                  "name": "alici",
                  "type": "address"
                },
                {
                  "internalType": "enum NotaryContractBase.State",
                  "name": "state",
                  "type": "uint8"
                },
                {
                  "internalType": "uint256",
                  "name": "rayicBedeli",
                  "type": "uint256"
                },
                {
                  "internalType": "uint256",
                  "name": "fiyat",
                  "type": "uint256"
                },
                {
                  "internalType": "bool",
                  "name": "borcuVarMi",
                  "type": "bool"
                },
                {
                  "internalType": "uint256",
                  "name": "adIdLUTIndex",
                  "type": "uint256"
                },
                {
                  "internalType": "bool",
                  "name": "aliciParaTransferi",
                  "type": "bool"
                },
                {
                  "internalType": "bool",
                  "name": "saticiParaTransferi",
                  "type": "bool"
                }
              ],
              "internalType": "struct NotaryContractBase.Advertisement",
              "name": "ad",
              "type": "tuple"
            },
            {
              "components": [
                {
                  "internalType": "uint256",
                  "name": "realEstateId",
                  "type": "uint256"
                },
                {
                  "internalType": "string",
                  "name": "il",
                  "type": "string"
                },
                {
                  "internalType": "string",
                  "name": "ilce",
                  "type": "string"
                },
                {
                  "internalType": "string",
                  "name": "mahalle",
                  "type": "string"
                },
                {
                  "internalType": "string",
                  "name": "cadde",
                  "type": "string"
                },
                {
                  "internalType": "string",
                  "name": "sokak",
                  "type": "string"
                },
                {
                  "internalType": "uint256",
                  "name": "kat",
                  "type": "uint256"
                },
                {
                  "internalType": "string",
                  "name": "daireNo",
                  "type": "string"
                },
                {
                  "internalType": "string",
                  "name": "tasinmazTip",
                  "type": "string"
                },
                {
                  "internalType": "string",
                  "name": "nitelik",
                  "type": "string"
                },
                {
                  "internalType": "string",
                  "name": "ada",
                  "type": "string"
                },
                {
                  "internalType": "string",
                  "name": "parsel",
                  "type": "string"
                },
                {
                  "internalType": "uint256",
                  "name": "payda",
                  "type": "uint256"
                },
                {
                  "internalType": "bool",
                  "name": "registered",
                  "type": "bool"
                }
              ],
              "internalType": "struct NotaryContractBase.RealEstateData",
              "name": "realEstateData",
              "type": "tuple"
            }
          ],
          "internalType": "struct NotaryContractBase.HisseAdData[]",
          "name": "",
          "type": "tuple[]"
        }
      ],
      "stateMutability": "view",
      "type": "function",
      "constant": true
    },
    {
      "inputs": [],
      "name": "getAllAds",
      "outputs": [
        {
          "components": [
            {
              "internalType": "uint256",
              "name": "hisseId",
              "type": "uint256"
            },
            {
              "components": [
                {
                  "internalType": "uint256",
                  "name": "pay",
                  "type": "uint256"
                },
                {
                  "internalType": "uint256",
                  "name": "realEstateId",
                  "type": "uint256"
                },
                {
                  "internalType": "address",
                  "name": "ownerAdd",
                  "type": "address"
                },
                {
                  "internalType": "bool",
                  "name": "registered",
                  "type": "bool"
                }
              ],
              "internalType": "struct NotaryContractBase.Hisse",
              "name": "hisse",
              "type": "tuple"
            },
            {
              "internalType": "uint256",
              "name": "ilanId",
              "type": "uint256"
            },
            {
              "components": [
                {
                  "internalType": "uint256",
                  "name": "hisseId",
                  "type": "uint256"
                },
                {
                  "internalType": "address",
                  "name": "satici",
                  "type": "address"
                },
                {
                  "internalType": "address",
                  "name": "alici",
                  "type": "address"
                },
                {
                  "internalType": "enum NotaryContractBase.State",
                  "name": "state",
                  "type": "uint8"
                },
                {
                  "internalType": "uint256",
                  "name": "rayicBedeli",
                  "type": "uint256"
                },
                {
                  "internalType": "uint256",
                  "name": "fiyat",
                  "type": "uint256"
                },
                {
                  "internalType": "bool",
                  "name": "borcuVarMi",
                  "type": "bool"
                },
                {
                  "internalType": "uint256",
                  "name": "adIdLUTIndex",
                  "type": "uint256"
                },
                {
                  "internalType": "bool",
                  "name": "aliciParaTransferi",
                  "type": "bool"
                },
                {
                  "internalType": "bool",
                  "name": "saticiParaTransferi",
                  "type": "bool"
                }
              ],
              "internalType": "struct NotaryContractBase.Advertisement",
              "name": "ad",
              "type": "tuple"
            },
            {
              "components": [
                {
                  "internalType": "uint256",
                  "name": "realEstateId",
                  "type": "uint256"
                },
                {
                  "internalType": "string",
                  "name": "il",
                  "type": "string"
                },
                {
                  "internalType": "string",
                  "name": "ilce",
                  "type": "string"
                },
                {
                  "internalType": "string",
                  "name": "mahalle",
                  "type": "string"
                },
                {
                  "internalType": "string",
                  "name": "cadde",
                  "type": "string"
                },
                {
                  "internalType": "string",
                  "name": "sokak",
                  "type": "string"
                },
                {
                  "internalType": "uint256",
                  "name": "kat",
                  "type": "uint256"
                },
                {
                  "internalType": "string",
                  "name": "daireNo",
                  "type": "string"
                },
                {
                  "internalType": "string",
                  "name": "tasinmazTip",
                  "type": "string"
                },
                {
                  "internalType": "string",
                  "name": "nitelik",
                  "type": "string"
                },
                {
                  "internalType": "string",
                  "name": "ada",
                  "type": "string"
                },
                {
                  "internalType": "string",
                  "name": "parsel",
                  "type": "string"
                },
                {
                  "internalType": "uint256",
                  "name": "payda",
                  "type": "uint256"
                },
                {
                  "internalType": "bool",
                  "name": "registered",
                  "type": "bool"
                }
              ],
              "internalType": "struct NotaryContractBase.RealEstateData",
              "name": "realEstateData",
              "type": "tuple"
            }
          ],
          "internalType": "struct NotaryContractBase.HisseAdData[]",
          "name": "",
          "type": "tuple[]"
        }
      ],
      "stateMutability": "view",
      "type": "function",
      "constant": true
    },
    {
      "inputs": [
        {
          "internalType": "uint256",
          "name": "ilanId",
          "type": "uint256"
        }
      ],
      "name": "getHisseAdDataById",
      "outputs": [
        {
          "components": [
            {
              "internalType": "uint256",
              "name": "hisseId",
              "type": "uint256"
            },
            {
              "components": [
                {
                  "internalType": "uint256",
                  "name": "pay",
                  "type": "uint256"
                },
                {
                  "internalType": "uint256",
                  "name": "realEstateId",
                  "type": "uint256"
                },
                {
                  "internalType": "address",
                  "name": "ownerAdd",
                  "type": "address"
                },
                {
                  "internalType": "bool",
                  "name": "registered",
                  "type": "bool"
                }
              ],
              "internalType": "struct NotaryContractBase.Hisse",
              "name": "hisse",
              "type": "tuple"
            },
            {
              "internalType": "uint256",
              "name": "ilanId",
              "type": "uint256"
            },
            {
              "components": [
                {
                  "internalType": "uint256",
                  "name": "hisseId",
                  "type": "uint256"
                },
                {
                  "internalType": "address",
                  "name": "satici",
                  "type": "address"
                },
                {
                  "internalType": "address",
                  "name": "alici",
                  "type": "address"
                },
                {
                  "internalType": "enum NotaryContractBase.State",
                  "name": "state",
                  "type": "uint8"
                },
                {
                  "internalType": "uint256",
                  "name": "rayicBedeli",
                  "type": "uint256"
                },
                {
                  "internalType": "uint256",
                  "name": "fiyat",
                  "type": "uint256"
                },
                {
                  "internalType": "bool",
                  "name": "borcuVarMi",
                  "type": "bool"
                },
                {
                  "internalType": "uint256",
                  "name": "adIdLUTIndex",
                  "type": "uint256"
                },
                {
                  "internalType": "bool",
                  "name": "aliciParaTransferi",
                  "type": "bool"
                },
                {
                  "internalType": "bool",
                  "name": "saticiParaTransferi",
                  "type": "bool"
                }
              ],
              "internalType": "struct NotaryContractBase.Advertisement",
              "name": "ad",
              "type": "tuple"
            },
            {
              "components": [
                {
                  "internalType": "uint256",
                  "name": "realEstateId",
                  "type": "uint256"
                },
                {
                  "internalType": "string",
                  "name": "il",
                  "type": "string"
                },
                {
                  "internalType": "string",
                  "name": "ilce",
                  "type": "string"
                },
                {
                  "internalType": "string",
                  "name": "mahalle",
                  "type": "string"
                },
                {
                  "internalType": "string",
                  "name": "cadde",
                  "type": "string"
                },
                {
                  "internalType": "string",
                  "name": "sokak",
                  "type": "string"
                },
                {
                  "internalType": "uint256",
                  "name": "kat",
                  "type": "uint256"
                },
                {
                  "internalType": "string",
                  "name": "daireNo",
                  "type": "string"
                },
                {
                  "internalType": "string",
                  "name": "tasinmazTip",
                  "type": "string"
                },
                {
                  "internalType": "string",
                  "name": "nitelik",
                  "type": "string"
                },
                {
                  "internalType": "string",
                  "name": "ada",
                  "type": "string"
                },
                {
                  "internalType": "string",
                  "name": "parsel",
                  "type": "string"
                },
                {
                  "internalType": "uint256",
                  "name": "payda",
                  "type": "uint256"
                },
                {
                  "internalType": "bool",
                  "name": "registered",
                  "type": "bool"
                }
              ],
              "internalType": "struct NotaryContractBase.RealEstateData",
              "name": "realEstateData",
              "type": "tuple"
            }
          ],
          "internalType": "struct NotaryContractBase.HisseAdData",
          "name": "",
          "type": "tuple"
        }
      ],
      "stateMutability": "view",
      "type": "function",
      "constant": true
    },
    {
      "inputs": [
        {
          "internalType": "uint256",
          "name": "ilanId",
          "type": "uint256"
        }
      ],
      "name": "isAdYayinda",
      "outputs": [
        {
          "internalType": "bool",
          "name": "",
          "type": "bool"
        }
      ],
      "stateMutability": "view",
      "type": "function",
      "constant": true
    }
  ],
  "bytecode": "0x6080604052600060085560006009553480156200001b57600080fd5b50604051620059ad380380620059ad8339818101604052810190620000419190620001b8565b83600160006101000a81548173ffffffffffffffffffffffffffffffffffffffff021916908373ffffffffffffffffffffffffffffffffffffffff160217905550826000806101000a81548173ffffffffffffffffffffffffffffffffffffffff021916908373ffffffffffffffffffffffffffffffffffffffff16021790555081600260006101000a81548173ffffffffffffffffffffffffffffffffffffffff021916908373ffffffffffffffffffffffffffffffffffffffff16021790555080600360006101000a81548173ffffffffffffffffffffffffffffffffffffffff021916908373ffffffffffffffffffffffffffffffffffffffff160217905550505050506200022a565b600080fd5b600073ffffffffffffffffffffffffffffffffffffffff82169050919050565b6000620001808262000153565b9050919050565b620001928162000173565b81146200019e57600080fd5b50565b600081519050620001b28162000187565b92915050565b60008060008060808587031215620001d557620001d46200014e565b5b6000620001e587828801620001a1565b9450506020620001f887828801620001a1565b93505060406200020b87828801620001a1565b92505060606200021e87828801620001a1565b91505092959194509250565b615773806200023a6000396000f3fe608060405234801561001057600080fd5b50600436106101735760003560e01c806377584ada116100de578063ba14684611610097578063db77f85e11610071578063db77f85e14610499578063dc589fad146104c9578063e7f6b3a0146104e5578063ebed05921461050157610173565b8063ba14684614610431578063cca1baa11461044d578063da05ae331461046957610173565b806377584ada146103425780638c193ff51461035e5780638f7df5fe1461037a5780639206e938146103aa578063af54c710146103e3578063b79f44231461041357610173565b8063407e17d611610130578063407e17d61461025c57806349a2c6b01461027a5780634dff90a9146102aa57806354b64a5a146102c65780635e1fac6c146102e2578063765ff0611461031257610173565b8063157c2a401461017857806325a0ce04146101945780633505d12f146101b05780633747e416146101e0578063384154f0146101fc5780633fa020e91461022c575b600080fd5b610192600480360381019061018d9190613def565b61051d565b005b6101ae60048036038101906101a99190613def565b6106cf565b005b6101ca60048036038101906101c59190613def565b6107b1565b6040516101d79190613e2b565b60405180910390f35b6101fa60048036038101906101f59190613e46565b6107c9565b005b61021660048036038101906102119190613def565b610a81565b6040516102239190613e2b565b60405180910390f35b61024660048036038101906102419190613def565b610a99565b6040516102539190613eb4565b60405180910390f35b610264610aed565b6040516102719190614151565b60405180910390f35b610294600480360381019061028f919061419f565b610e5b565b6040516102a19190613e2b565b60405180910390f35b6102c460048036038101906102bf91906141df565b610e8c565b005b6102e060048036038101906102db9190614232565b61118e565b005b6102fc60048036038101906102f79190613def565b611256565b6040516103099190614545565b60405180910390f35b61032c60048036038101906103279190614567565b611562565b60405161033991906146ce565b60405180910390f35b61035c60048036038101906103579190614232565b611a69565b005b61037860048036038101906103739190613def565b611b31565b005b610394600480360381019061038f9190613def565b611f5f565b6040516103a191906146ff565b60405180910390f35b6103c460048036038101906103bf9190613def565b611f9f565b6040516103da9a99989796959493929190614729565b60405180910390f35b6103fd60048036038101906103f89190613def565b612067565b60405161040a9190613eb4565b60405180910390f35b61041b61221f565b60405161042891906146ce565b60405180910390f35b61044b60048036038101906104469190613def565b6125d7565b005b61046760048036038101906104629190613def565b612796565b005b610483600480360381019061047e9190614567565b612bc4565b6040516104909190614875565b60405180910390f35b6104b360048036038101906104ae9190614232565b613097565b6040516104c09190613eb4565b60405180910390f35b6104e360048036038101906104de91906148c3565b6130bb565b005b6104ff60048036038101906104fa9190613def565b61352b565b005b61051b60048036038101906105169190614232565b6136d2565b005b3373ffffffffffffffffffffffffffffffffffffffff166004600083815260200190815260200160002060010160009054906101000a900473ffffffffffffffffffffffffffffffffffffffff1673ffffffffffffffffffffffffffffffffffffffff16146105c1576040517f08c379a00000000000000000000000000000000000000000000000000000000081526004016105b8906149ad565b60405180910390fd5b600160078111156105d5576105d4613f4b565b5b6004600083815260200190815260200160002060020160149054906101000a900460ff16600781111561060b5761060a613f4b565b5b1461064b576040517f08c379a000000000000000000000000000000000000000000000000000000000815260040161064290614a3f565b60405180910390fd5b60036004600083815260200190815260200160002060020160146101000a81548160ff0219169083600781111561068557610684613f4b565b5b0217905550610693816139d4565b7f403a6f9792692b3ee502fa20caf6bb8fd6dcf2af50f28f5745b111e6170b051433826040516106c4929190614a5f565b60405180910390a150565b6000600360009054906101000a900473ffffffffffffffffffffffffffffffffffffffff1673ffffffffffffffffffffffffffffffffffffffff1663a36d32fe836040518263ffffffff1660e01b815260040161072c9190613e2b565b602060405180830381865afa158015610749573d6000803e3d6000fd5b505050506040513d601f19601f8201168201806040525081019061076d9190614aad565b9050806004600084815260200190815260200160002060020160146101000a81548160ff021916908360078111156107a8576107a7613f4b565b5b02179055505050565b60056020528060005260406000206000915090505481565b60008060009054906101000a900473ffffffffffffffffffffffffffffffffffffffff1673ffffffffffffffffffffffffffffffffffffffff1663948c0d8e846040518263ffffffff1660e01b81526004016108259190613e2b565b608060405180830381865afa158015610842573d6000803e3d6000fd5b505050506040513d601f19601f820116820180604052508101906108669190614c16565b90506000600260009054906101000a900473ffffffffffffffffffffffffffffffffffffffff1673ffffffffffffffffffffffffffffffffffffffff16639f8188b383602001516040518263ffffffff1660e01b81526004016108c99190613e2b565b600060405180830381865afa1580156108e6573d6000803e3d6000fd5b505050506040513d6000823e3d601f19601f8201168201806040525081019061090f9190614f54565b9050816000015181610180015114610a3c57600360009054906101000a900473ffffffffffffffffffffffffffffffffffffffff1673ffffffffffffffffffffffffffffffffffffffff1663b2b4f4c4868686338661018001516040518663ffffffff1660e01b8152600401610989959493929190614f9d565b600060405180830381600087803b1580156109a357600080fd5b505af11580156109b7573d6000803e3d6000fd5b5050505060066004600087815260200190815260200160002060020160146101000a81548160ff021916908360078111156109f5576109f4613f4b565b5b02179055507fad65d12c2570555103a87033dc23a79d4e91940109849283587203497534e1b884338786604051610a2f9493929190614ff0565b60405180910390a1610a7a565b7f932bb8e1964b19f151b100006d1433bdf7b9a6d6368ec8d600028f2b1932070384338786604051610a719493929190614ff0565b60405180910390a15b5050505050565b60076020528060005260406000206000915090505481565b600060016007811115610aaf57610aae613f4b565b5b6004600084815260200190815260200160002060020160149054906101000a900460ff166007811115610ae557610ae4613f4b565b5b149050919050565b6060600160009054906101000a900473ffffffffffffffffffffffffffffffffffffffff1673ffffffffffffffffffffffffffffffffffffffff166324d7806c336040518263ffffffff1660e01b8152600401610b4a91906146ff565b602060405180830381865afa158015610b67573d6000803e3d6000fd5b505050506040513d601f19601f82011682018060405250810190610b8b9190615035565b610bca576040517f08c379a0000000000000000000000000000000000000000000000000000000008152600401610bc1906150ae565b60405180910390fd5b600060095467ffffffffffffffff811115610be857610be7614adf565b5b604051908082528060200260200182016040528015610c2157816020015b610c0e613bfc565b815260200190600190039081610c065790505b5090506000805b600854811015610e525760006007600083815260200190815260200160002054905060006004600083815260200190815260200160002060405180610140016040529081600082015481526020016001820160009054906101000a900473ffffffffffffffffffffffffffffffffffffffff1673ffffffffffffffffffffffffffffffffffffffff1673ffffffffffffffffffffffffffffffffffffffff1681526020016002820160009054906101000a900473ffffffffffffffffffffffffffffffffffffffff1673ffffffffffffffffffffffffffffffffffffffff1673ffffffffffffffffffffffffffffffffffffffff1681526020016002820160149054906101000a900460ff166007811115610d4657610d45613f4b565b5b6007811115610d5857610d57613f4b565b5b815260200160038201548152602001600482015481526020016005820160009054906101000a900460ff16151515158152602001600682015481526020016007820160009054906101000a900460ff161515151581526020016007820160019054906101000a900460ff161515151581525050905060026007811115610de157610de0613f4b565b5b81606001516007811115610df857610df7613f4b565b5b03610e3d57604051806040016040528083815260200182815250858580610e1e906150fd565b965081518110610e3157610e30615145565b5b60200260200101819052505b50508080610e4a906150fd565b915050610c28565b50819250505090565b60066020528160005260406000208181548110610e7757600080fd5b90600052602060002001600091509150505481565b60006004600085815260200190815260200160002060405180610140016040529081600082015481526020016001820160009054906101000a900473ffffffffffffffffffffffffffffffffffffffff1673ffffffffffffffffffffffffffffffffffffffff1673ffffffffffffffffffffffffffffffffffffffff1681526020016002820160009054906101000a900473ffffffffffffffffffffffffffffffffffffffff1673ffffffffffffffffffffffffffffffffffffffff1673ffffffffffffffffffffffffffffffffffffffff1681526020016002820160149054906101000a900460ff166007811115610f8857610f87613f4b565b5b6007811115610f9a57610f99613f4b565b5b815260200160038201548152602001600482015481526020016005820160009054906101000a900460ff16151515158152602001600682015481526020016007820160009054906101000a900460ff161515151581526020016007820160019054906101000a900460ff16151515158152505090506001600781111561102357611022613f4b565b5b8160600151600781111561103a57611039613f4b565b5b1461107a576040517f08c379a000000000000000000000000000000000000000000000000000000000815260040161107190614a3f565b60405180910390fd5b81816080015111156110c1576040517f08c379a00000000000000000000000000000000000000000000000000000000081526004016110b8906151e6565b60405180910390fd5b60026004600086815260200190815260200160002060020160146101000a81548160ff021916908360078111156110fb576110fa613f4b565b5b0217905550826004600086815260200190815260200160002060020160006101000a81548173ffffffffffffffffffffffffffffffffffffffff021916908373ffffffffffffffffffffffffffffffffffffffff16021790555081600460008681526020019081526020016000206004018190555060096000815480929190611183906150fd565b919050555050505050565b600360009054906101000a900473ffffffffffffffffffffffffffffffffffffffff1673ffffffffffffffffffffffffffffffffffffffff166349c7cb8783336040518363ffffffff1660e01b81526004016111eb929190615206565b600060405180830381600087803b15801561120557600080fd5b505af1158015611219573d6000803e3d6000fd5b50505050611226816106cf565b7f0a220697add4088d351ff0fbc7e6501f31b871e1877a359cdccb021bd45e708d60405160405180910390a15050565b61125e613c1c565b60006004600084815260200190815260200160002060405180610140016040529081600082015481526020016001820160009054906101000a900473ffffffffffffffffffffffffffffffffffffffff1673ffffffffffffffffffffffffffffffffffffffff1673ffffffffffffffffffffffffffffffffffffffff1681526020016002820160009054906101000a900473ffffffffffffffffffffffffffffffffffffffff1673ffffffffffffffffffffffffffffffffffffffff1673ffffffffffffffffffffffffffffffffffffffff1681526020016002820160149054906101000a900460ff16600781111561135a57611359613f4b565b5b600781111561136c5761136b613f4b565b5b815260200160038201548152602001600482015481526020016005820160009054906101000a900460ff16151515158152602001600682015481526020016007820160009054906101000a900460ff161515151581526020016007820160019054906101000a900460ff161515151581525050905060008060009054906101000a900473ffffffffffffffffffffffffffffffffffffffff1673ffffffffffffffffffffffffffffffffffffffff1663948c0d8e83600001516040518263ffffffff1660e01b81526004016114419190613e2b565b608060405180830381865afa15801561145e573d6000803e3d6000fd5b505050506040513d601f19601f820116820180604052508101906114829190614c16565b90506000600260009054906101000a900473ffffffffffffffffffffffffffffffffffffffff1673ffffffffffffffffffffffffffffffffffffffff16639f8188b383602001516040518263ffffffff1660e01b81526004016114e59190613e2b565b600060405180830381865afa158015611502573d6000803e3d6000fd5b505050506040513d6000823e3d601f19601f8201168201806040525081019061152b9190614f54565b90506040518060a0016040528084600001518152602001838152602001868152602001848152602001828152509350505050919050565b606060008060009054906101000a900473ffffffffffffffffffffffffffffffffffffffff1673ffffffffffffffffffffffffffffffffffffffff166351fe436a846040518263ffffffff1660e01b81526004016115c091906146ff565b602060405180830381865afa1580156115dd573d6000803e3d6000fd5b505050506040513d601f19601f82011682018060405250810190611601919061522f565b905060008167ffffffffffffffff81111561161f5761161e614adf565b5b60405190808252806020026020018201604052801561165857816020015b611645613c1c565b81526020019060019003908161163d5790505b5090506000805b83811015611a5d5760008060009054906101000a900473ffffffffffffffffffffffffffffffffffffffff1673ffffffffffffffffffffffffffffffffffffffff1663794cc53388846040518363ffffffff1660e01b81526004016116c5929190614a5f565b602060405180830381865afa1580156116e2573d6000803e3d6000fd5b505050506040513d601f19601f82011682018060405250810190611706919061522f565b905060008114611a495760008060009054906101000a900473ffffffffffffffffffffffffffffffffffffffff1673ffffffffffffffffffffffffffffffffffffffff1663948c0d8e836040518263ffffffff1660e01b815260040161176c9190613e2b565b608060405180830381865afa158015611789573d6000803e3d6000fd5b505050506040513d601f19601f820116820180604052508101906117ad9190614c16565b90506000600260009054906101000a900473ffffffffffffffffffffffffffffffffffffffff1673ffffffffffffffffffffffffffffffffffffffff16639f8188b383602001516040518263ffffffff1660e01b81526004016118109190613e2b565b600060405180830381865afa15801561182d573d6000803e3d6000fd5b505050506040513d6000823e3d601f19601f820116820180604052508101906118569190614f54565b905060006005600085815260200190815260200160002054905060006004600083815260200190815260200160002060405180610140016040529081600082015481526020016001820160009054906101000a900473ffffffffffffffffffffffffffffffffffffffff1673ffffffffffffffffffffffffffffffffffffffff1673ffffffffffffffffffffffffffffffffffffffff1681526020016002820160009054906101000a900473ffffffffffffffffffffffffffffffffffffffff1673ffffffffffffffffffffffffffffffffffffffff1673ffffffffffffffffffffffffffffffffffffffff1681526020016002820160149054906101000a900460ff16600781111561196c5761196b613f4b565b5b600781111561197e5761197d613f4b565b5b815260200160038201548152602001600482015481526020016005820160009054906101000a900460ff16151515158152602001600682015481526020016007820160009054906101000a900460ff161515151581526020016007820160019054906101000a900460ff16151515158152505090506040518060a0016040528086815260200185815260200183815260200182815260200184815250888880611a26906150fd565b995081518110611a3957611a38615145565b5b6020026020010181905250505050505b508080611a55906150fd565b91505061165f565b50819350505050919050565b600360009054906101000a900473ffffffffffffffffffffffffffffffffffffffff1673ffffffffffffffffffffffffffffffffffffffff1663a7df842e83336040518363ffffffff1660e01b8152600401611ac6929190615206565b600060405180830381600087803b158015611ae057600080fd5b505af1158015611af4573d6000803e3d6000fd5b50505050611b01816106cf565b7f808e028e7cbd9e036abeb0c9104b054716562968c691bd5f7303b1b3404bf61160405160405180910390a15050565b600160009054906101000a900473ffffffffffffffffffffffffffffffffffffffff1673ffffffffffffffffffffffffffffffffffffffff166324d7806c336040518263ffffffff1660e01b8152600401611b8c91906146ff565b602060405180830381865afa158015611ba9573d6000803e3d6000fd5b505050506040513d601f19601f82011682018060405250810190611bcd9190615035565b611c0c576040517f08c379a0000000000000000000000000000000000000000000000000000000008152600401611c03906150ae565b60405180910390fd5b60016004600083815260200190815260200160002060070160006101000a81548160ff02191690831515021790555060006004600083815260200190815260200160002060405180610140016040529081600082015481526020016001820160009054906101000a900473ffffffffffffffffffffffffffffffffffffffff1673ffffffffffffffffffffffffffffffffffffffff1673ffffffffffffffffffffffffffffffffffffffff1681526020016002820160009054906101000a900473ffffffffffffffffffffffffffffffffffffffff1673ffffffffffffffffffffffffffffffffffffffff1673ffffffffffffffffffffffffffffffffffffffff1681526020016002820160149054906101000a900460ff166007811115611d3757611d36613f4b565b5b6007811115611d4957611d48613f4b565b5b815260200160038201548152602001600482015481526020016005820160009054906101000a900460ff16151515158152602001600682015481526020016007820160009054906101000a900460ff161515151581526020016007820160019054906101000a900460ff161515151581525050905080610120015115611f175760008054906101000a900473ffffffffffffffffffffffffffffffffffffffff1673ffffffffffffffffffffffffffffffffffffffff166359451a7c8260000151836040015184602001516040518463ffffffff1660e01b8152600401611e329392919061525c565b600060405180830381600087803b158015611e4c57600080fd5b505af1158015611e60573d6000803e3d6000fd5b50505050600480600084815260200190815260200160002060020160146101000a81548160ff02191690836007811115611e9d57611e9c613f4b565b5b021790555060096000815480929190611eb590615293565b9190505550611ec3826139d4565b7fae75e741823d4bd596c1c39c87e68936cf59d03a545ec749c31d1152c9a619778160000151826040015183602001518460a0015142604051611f0a9594939291906152bc565b60405180910390a1611f5b565b7f6d0553b0281ee3b4e72a4780b984f24b2d042d7e2813f904bdb787aec9c800578160400151838360a00151604051611f529392919061530f565b60405180910390a15b5050565b60006004600083815260200190815260200160002060010160009054906101000a900473ffffffffffffffffffffffffffffffffffffffff169050919050565b60046020528060005260406000206000915090508060000154908060010160009054906101000a900473ffffffffffffffffffffffffffffffffffffffff16908060020160009054906101000a900473ffffffffffffffffffffffffffffffffffffffff16908060020160149054906101000a900460ff16908060030154908060040154908060050160009054906101000a900460ff16908060060154908060070160009054906101000a900460ff16908060070160019054906101000a900460ff1690508a565b6000806004600084815260200190815260200160002060405180610140016040529081600082015481526020016001820160009054906101000a900473ffffffffffffffffffffffffffffffffffffffff1673ffffffffffffffffffffffffffffffffffffffff1673ffffffffffffffffffffffffffffffffffffffff1681526020016002820160009054906101000a900473ffffffffffffffffffffffffffffffffffffffff1673ffffffffffffffffffffffffffffffffffffffff1673ffffffffffffffffffffffffffffffffffffffff1681526020016002820160149054906101000a900460ff16600781111561216457612163613f4b565b5b600781111561217657612175613f4b565b5b815260200160038201548152602001600482015481526020016005820160009054906101000a900460ff16151515158152602001600682015481526020016007820160009054906101000a900460ff161515151581526020016007820160019054906101000a900460ff1615151515815250509050600160078111156121ff576121fe613f4b565b5b8160600151600781111561221657612215613f4b565b5b14915050919050565b6060600060085467ffffffffffffffff81111561223f5761223e614adf565b5b60405190808252806020026020018201604052801561227857816020015b612265613c1c565b81526020019060019003908161225d5790505b50905060005b6008548110156125cf5760006007600083815260200190815260200160002054905060006004600083815260200190815260200160002060405180610140016040529081600082015481526020016001820160009054906101000a900473ffffffffffffffffffffffffffffffffffffffff1673ffffffffffffffffffffffffffffffffffffffff1673ffffffffffffffffffffffffffffffffffffffff1681526020016002820160009054906101000a900473ffffffffffffffffffffffffffffffffffffffff1673ffffffffffffffffffffffffffffffffffffffff1673ffffffffffffffffffffffffffffffffffffffff1681526020016002820160149054906101000a900460ff16600781111561239c5761239b613f4b565b5b60078111156123ae576123ad613f4b565b5b815260200160038201548152602001600482015481526020016005820160009054906101000a900460ff16151515158152602001600682015481526020016007820160009054906101000a900460ff161515151581526020016007820160019054906101000a900460ff161515151581525050905060008060009054906101000a900473ffffffffffffffffffffffffffffffffffffffff1673ffffffffffffffffffffffffffffffffffffffff1663948c0d8e83600001516040518263ffffffff1660e01b81526004016124839190613e2b565b608060405180830381865afa1580156124a0573d6000803e3d6000fd5b505050506040513d601f19601f820116820180604052508101906124c49190614c16565b90506000600260009054906101000a900473ffffffffffffffffffffffffffffffffffffffff1673ffffffffffffffffffffffffffffffffffffffff16639f8188b383602001516040518263ffffffff1660e01b81526004016125279190613e2b565b600060405180830381865afa158015612544573d6000803e3d6000fd5b505050506040513d6000823e3d601f19601f8201168201806040525081019061256d9190614f54565b90506040518060a0016040528084600001518152602001838152602001858152602001848152602001828152508686815181106125ad576125ac615145565b5b60200260200101819052505050505080806125c7906150fd565b91505061227e565b508091505090565b6004600082815260200190815260200160002060010160009054906101000a900473ffffffffffffffffffffffffffffffffffffffff1673ffffffffffffffffffffffffffffffffffffffff163373ffffffffffffffffffffffffffffffffffffffff161461267b576040517f08c379a0000000000000000000000000000000000000000000000000000000008152600401612672906149ad565b60405180910390fd5b6005600781111561268f5761268e613f4b565b5b6004600083815260200190815260200160002060020160149054906101000a900460ff1660078111156126c5576126c4613f4b565b5b14612705576040517f08c379a00000000000000000000000000000000000000000000000000000000081526004016126fc90615392565b60405180910390fd5b60016004600083815260200190815260200160002060020160146101000a81548160ff0219169083600781111561273f5761273e613f4b565b5b02179055506009600081548092919061275790615293565b91905055507f1943ff8fe66129619ad45b43d7666b90f9f10c041d2d491444879220812d647d8160405161278b9190613e2b565b60405180910390a150565b600160009054906101000a900473ffffffffffffffffffffffffffffffffffffffff1673ffffffffffffffffffffffffffffffffffffffff166324d7806c336040518263ffffffff1660e01b81526004016127f191906146ff565b602060405180830381865afa15801561280e573d6000803e3d6000fd5b505050506040513d601f19601f820116820180604052508101906128329190615035565b612871576040517f08c379a0000000000000000000000000000000000000000000000000000000008152600401612868906150ae565b60405180910390fd5b60016004600083815260200190815260200160002060070160016101000a81548160ff02191690831515021790555060006004600083815260200190815260200160002060405180610140016040529081600082015481526020016001820160009054906101000a900473ffffffffffffffffffffffffffffffffffffffff1673ffffffffffffffffffffffffffffffffffffffff1673ffffffffffffffffffffffffffffffffffffffff1681526020016002820160009054906101000a900473ffffffffffffffffffffffffffffffffffffffff1673ffffffffffffffffffffffffffffffffffffffff1673ffffffffffffffffffffffffffffffffffffffff1681526020016002820160149054906101000a900460ff16600781111561299c5761299b613f4b565b5b60078111156129ae576129ad613f4b565b5b815260200160038201548152602001600482015481526020016005820160009054906101000a900460ff16151515158152602001600682015481526020016007820160009054906101000a900460ff161515151581526020016007820160019054906101000a900460ff161515151581525050905080610100015115612b7c5760008054906101000a900473ffffffffffffffffffffffffffffffffffffffff1673ffffffffffffffffffffffffffffffffffffffff166359451a7c8260000151836040015184602001516040518463ffffffff1660e01b8152600401612a979392919061525c565b600060405180830381600087803b158015612ab157600080fd5b505af1158015612ac5573d6000803e3d6000fd5b50505050600480600084815260200190815260200160002060020160146101000a81548160ff02191690836007811115612b0257612b01613f4b565b5b021790555060096000815480929190612b1a90615293565b9190505550612b28826139d4565b7fae75e741823d4bd596c1c39c87e68936cf59d03a545ec749c31d1152c9a619778160000151826040015183602001518460a0015142604051612b6f9594939291906152bc565b60405180910390a1612bc0565b7f2cc7a87ac7c85b0bbd084923947c28d8c8bc79f2e7d60298c86b4e685f1e14ab8160400151838360a00151604051612bb79392919061530f565b60405180910390a15b5050565b60606000600660008473ffffffffffffffffffffffffffffffffffffffff1673ffffffffffffffffffffffffffffffffffffffff168152602001908152602001600020805480602002602001604051908101604052809291908181526020018280548015612c5157602002820191906000526020600020905b815481526020019060010190808311612c3d575b505050505090506000815167ffffffffffffffff811115612c7557612c74614adf565b5b604051908082528060200260200182016040528015612cae57816020015b612c9b613c5d565b815260200190600190039081612c935790505b50905060005b825181101561308c57600060046000858481518110612cd657612cd5615145565b5b6020026020010151815260200190815260200160002060405180610140016040529081600082015481526020016001820160009054906101000a900473ffffffffffffffffffffffffffffffffffffffff1673ffffffffffffffffffffffffffffffffffffffff1673ffffffffffffffffffffffffffffffffffffffff1681526020016002820160009054906101000a900473ffffffffffffffffffffffffffffffffffffffff1673ffffffffffffffffffffffffffffffffffffffff1673ffffffffffffffffffffffffffffffffffffffff1681526020016002820160149054906101000a900460ff166007811115612dd357612dd2613f4b565b5b6007811115612de557612de4613f4b565b5b815260200160038201548152602001600482015481526020016005820160009054906101000a900460ff16151515158152602001600682015481526020016007820160009054906101000a900460ff161515151581526020016007820160019054906101000a900460ff161515151581525050905060036007811115612e6e57612e6d613f4b565b5b81606001516007811115612e8557612e84613f4b565b5b141580612ebb575060046007811115612ea157612ea0613f4b565b5b81606001516007811115612eb857612eb7613f4b565b5b14155b156130785760046000858481518110612ed757612ed6615145565b5b6020026020010151815260200190815260200160002060405180610140016040529081600082015481526020016001820160009054906101000a900473ffffffffffffffffffffffffffffffffffffffff1673ffffffffffffffffffffffffffffffffffffffff1673ffffffffffffffffffffffffffffffffffffffff1681526020016002820160009054906101000a900473ffffffffffffffffffffffffffffffffffffffff1673ffffffffffffffffffffffffffffffffffffffff1673ffffffffffffffffffffffffffffffffffffffff1681526020016002820160149054906101000a900460ff166007811115612fd457612fd3613f4b565b5b6007811115612fe657612fe5613f4b565b5b815260200160038201548152602001600482015481526020016005820160009054906101000a900460ff16151515158152602001600682015481526020016007820160009054906101000a900460ff161515151581526020016007820160019054906101000a900460ff16151515158152505083838151811061306c5761306b615145565b5b60200260200101819052505b508080613084906150fd565b915050612cb4565b508092505050919050565b60008160046000858152602001908152602001600020600301541115905092915050565b60008054906101000a900473ffffffffffffffffffffffffffffffffffffffff1673ffffffffffffffffffffffffffffffffffffffff166389642c5485336040518363ffffffff1660e01b8152600401613116929190615206565b602060405180830381865afa158015613133573d6000803e3d6000fd5b505050506040513d601f19601f820116820180604052508101906131579190615035565b613196576040517f08c379a000000000000000000000000000000000000000000000000000000000815260040161318d90615424565b60405180910390fd5b60006005600086815260200190815260200160002054146131ec576040517f08c379a00000000000000000000000000000000000000000000000000000000081526004016131e3906154b6565b60405180910390fd5b8183111561322f576040517f08c379a0000000000000000000000000000000000000000000000000000000008152600401613226906151e6565b60405180910390fd5b8015613270576040517f08c379a000000000000000000000000000000000000000000000000000000000815260040161326790615522565b60405180910390fd5b600042905060006040518061014001604052808781526020013373ffffffffffffffffffffffffffffffffffffffff168152602001600073ffffffffffffffffffffffffffffffffffffffff168152602001600160078111156132d6576132d5613f4b565b5b81526020018681526020018581526020018415158152602001600854815260200160001515815260200160001515815250905080600460008481526020019081526020016000206000820151816000015560208201518160010160006101000a81548173ffffffffffffffffffffffffffffffffffffffff021916908373ffffffffffffffffffffffffffffffffffffffff16021790555060408201518160020160006101000a81548173ffffffffffffffffffffffffffffffffffffffff021916908373ffffffffffffffffffffffffffffffffffffffff16021790555060608201518160020160146101000a81548160ff021916908360078111156133e0576133df613f4b565b5b02179055506080820151816003015560a0820151816004015560c08201518160050160006101000a81548160ff02191690831515021790555060e082015181600601556101008201518160070160006101000a81548160ff0219169083151502179055506101208201518160070160016101000a81548160ff0219169083151502179055509050508160056000888152602001908152602001600020819055508160076000600854815260200190815260200160002081905550600860008154809291906134ad906150fd565b9190505550600660003373ffffffffffffffffffffffffffffffffffffffff1673ffffffffffffffffffffffffffffffffffffffff1681526020019081526020016000208290806001815401808255809150506001900390600052602060002001600090919091909150556135238287866107c9565b505050505050565b6004600082815260200190815260200160002060020160009054906101000a900473ffffffffffffffffffffffffffffffffffffffff1673ffffffffffffffffffffffffffffffffffffffff163373ffffffffffffffffffffffffffffffffffffffff16146135cf576040517f08c379a00000000000000000000000000000000000000000000000000000000081526004016135c6906155b4565b60405180910390fd5b600260078111156135e3576135e2613f4b565b5b6004600083815260200190815260200160002060020160149054906101000a900460ff16600781111561361957613618613f4b565b5b14613659576040517f08c379a000000000000000000000000000000000000000000000000000000000815260040161365090615620565b60405180910390fd5b60056004600083815260200190815260200160002060020160146101000a81548160ff0219169083600781111561369357613692613f4b565b5b02179055507f48ae6fca79163101ea4f5b073efc510017228ac372cd41c1d2b4e8ec683bd822816040516136c79190613e2b565b60405180910390a150565b60006004600084815260200190815260200160002060405180610140016040529081600082015481526020016001820160009054906101000a900473ffffffffffffffffffffffffffffffffffffffff1673ffffffffffffffffffffffffffffffffffffffff1673ffffffffffffffffffffffffffffffffffffffff1681526020016002820160009054906101000a900473ffffffffffffffffffffffffffffffffffffffff1673ffffffffffffffffffffffffffffffffffffffff1673ffffffffffffffffffffffffffffffffffffffff1681526020016002820160149054906101000a900460ff1660078111156137ce576137cd613f4b565b5b60078111156137e0576137df613f4b565b5b815260200160038201548152602001600482015481526020016005820160009054906101000a900460ff16151515158152602001600682015481526020016007820160009054906101000a900460ff161515151581526020016007820160019054906101000a900460ff16151515158152505090503373ffffffffffffffffffffffffffffffffffffffff16816020015173ffffffffffffffffffffffffffffffffffffffff16146138c7576040517f08c379a00000000000000000000000000000000000000000000000000000000081526004016138be906156b2565b60405180910390fd5b600160078111156138db576138da613f4b565b5b816060015160078111156138f2576138f1613f4b565b5b14613932576040517f08c379a000000000000000000000000000000000000000000000000000000000815260040161392990614a3f565b60405180910390fd5b8181608001511115613979576040517f08c379a0000000000000000000000000000000000000000000000000000000008152600401613970906151e6565b60405180910390fd5b8160046000858152602001908152602001600020600401819055507f1be87e192bb167834605abd4893be96c64e06a90e635d767fc5bc264e0ff3f6d8383336040516139c7939291906156d2565b60405180910390a1505050565b60006004600083815260200190815260200160002060405180610140016040529081600082015481526020016001820160009054906101000a900473ffffffffffffffffffffffffffffffffffffffff1673ffffffffffffffffffffffffffffffffffffffff1673ffffffffffffffffffffffffffffffffffffffff1681526020016002820160009054906101000a900473ffffffffffffffffffffffffffffffffffffffff1673ffffffffffffffffffffffffffffffffffffffff1673ffffffffffffffffffffffffffffffffffffffff1681526020016002820160149054906101000a900460ff166007811115613ad057613acf613f4b565b5b6007811115613ae257613ae1613f4b565b5b815260200160038201548152602001600482015481526020016005820160009054906101000a900460ff16151515158152602001600682015481526020016007820160009054906101000a900460ff161515151581526020016007820160019054906101000a900460ff1615151515815250509050600060056000836000015181526020019081526020016000208190555060008160e0015190506000600760006001600854613b929190615709565b8152602001908152602001600020549050808414613bde578160046000838152602001908152602001600020600601819055508060076000848152602001908152602001600020819055505b60086000815480929190613bf190615293565b919050555050505050565b604051806040016040528060008152602001613c16613c5d565b81525090565b6040518060a0016040528060008152602001613c36613cf4565b815260200160008152602001613c4a613c5d565b8152602001613c57613d34565b81525090565b60405180610140016040528060008152602001600073ffffffffffffffffffffffffffffffffffffffff168152602001600073ffffffffffffffffffffffffffffffffffffffff16815260200160006007811115613cbe57613cbd613f4b565b5b81526020016000815260200160008152602001600015158152602001600081526020016000151581526020016000151581525090565b60405180608001604052806000815260200160008152602001600073ffffffffffffffffffffffffffffffffffffffff1681526020016000151581525090565b604051806101c00160405280600081526020016060815260200160608152602001606081526020016060815260200160608152602001600081526020016060815260200160608152602001606081526020016060815260200160608152602001600081526020016000151581525090565b6000604051905090565b600080fd5b600080fd5b6000819050919050565b613dcc81613db9565b8114613dd757600080fd5b50565b600081359050613de981613dc3565b92915050565b600060208284031215613e0557613e04613daf565b5b6000613e1384828501613dda565b91505092915050565b613e2581613db9565b82525050565b6000602082019050613e406000830184613e1c565b92915050565b600080600060608486031215613e5f57613e5e613daf565b5b6000613e6d86828701613dda565b9350506020613e7e86828701613dda565b9250506040613e8f86828701613dda565b9150509250925092565b60008115159050919050565b613eae81613e99565b82525050565b6000602082019050613ec96000830184613ea5565b92915050565b600081519050919050565b600082825260208201905092915050565b6000819050602082019050919050565b613f0481613db9565b82525050565b600073ffffffffffffffffffffffffffffffffffffffff82169050919050565b6000613f3582613f0a565b9050919050565b613f4581613f2a565b82525050565b7f4e487b7100000000000000000000000000000000000000000000000000000000600052602160045260246000fd5b60088110613f8b57613f8a613f4b565b5b50565b6000819050613f9c82613f7a565b919050565b6000613fac82613f8e565b9050919050565b613fbc81613fa1565b82525050565b613fcb81613e99565b82525050565b61014082016000820151613fe86000850182613efb565b506020820151613ffb6020850182613f3c565b50604082015161400e6040850182613f3c565b5060608201516140216060850182613fb3565b5060808201516140346080850182613efb565b5060a082015161404760a0850182613efb565b5060c082015161405a60c0850182613fc2565b5060e082015161406d60e0850182613efb565b50610100820151614082610100850182613fc2565b50610120820151614097610120850182613fc2565b50505050565b610160820160008201516140b46000850182613efb565b5060208201516140c76020850182613fd1565b50505050565b60006140d9838361409d565b6101608301905092915050565b6000602082019050919050565b60006140fe82613ecf565b6141088185613eda565b935061411383613eeb565b8060005b8381101561414457815161412b88826140cd565b9750614136836140e6565b925050600181019050614117565b5085935050505092915050565b6000602082019050818103600083015261416b81846140f3565b905092915050565b61417c81613f2a565b811461418757600080fd5b50565b60008135905061419981614173565b92915050565b600080604083850312156141b6576141b5613daf565b5b60006141c48582860161418a565b92505060206141d585828601613dda565b9150509250929050565b6000806000606084860312156141f8576141f7613daf565b5b600061420686828701613dda565b93505060206142178682870161418a565b925050604061422886828701613dda565b9150509250925092565b6000806040838503121561424957614248613daf565b5b600061425785828601613dda565b925050602061426885828601613dda565b9150509250929050565b6080820160008201516142886000850182613efb565b50602082015161429b6020850182613efb565b5060408201516142ae6040850182613f3c565b5060608201516142c16060850182613fc2565b50505050565b600081519050919050565b600082825260208201905092915050565b60005b838110156143015780820151818401526020810190506142e6565b83811115614310576000848401525b50505050565b6000601f19601f8301169050919050565b6000614332826142c7565b61433c81856142d2565b935061434c8185602086016142e3565b61435581614316565b840191505092915050565b60006101c0830160008301516143796000860182613efb565b50602083015184820360208601526143918282614327565b915050604083015184820360408601526143ab8282614327565b915050606083015184820360608601526143c58282614327565b915050608083015184820360808601526143df8282614327565b91505060a083015184820360a08601526143f98282614327565b91505060c083015161440e60c0860182613efb565b5060e083015184820360e08601526144268282614327565b9150506101008301518482036101008601526144428282614327565b91505061012083015184820361012086015261445e8282614327565b91505061014083015184820361014086015261447a8282614327565b9150506101608301518482036101608601526144968282614327565b9150506101808301516144ad610180860182613efb565b506101a08301516144c26101a0860182613fc2565b508091505092915050565b6000610220830160008301516144e66000860182613efb565b5060208301516144f96020860182614272565b50604083015161450c60a0860182613efb565b50606083015161451f60c0860182613fd1565b5060808301518482036102008601526145388282614360565b9150508091505092915050565b6000602082019050818103600083015261455f81846144cd565b905092915050565b60006020828403121561457d5761457c613daf565b5b600061458b8482850161418a565b91505092915050565b600081519050919050565b600082825260208201905092915050565b6000819050602082019050919050565b6000610220830160008301516145d96000860182613efb565b5060208301516145ec6020860182614272565b5060408301516145ff60a0860182613efb565b50606083015161461260c0860182613fd1565b50608083015184820361020086015261462b8282614360565b9150508091505092915050565b600061464483836145c0565b905092915050565b6000602082019050919050565b600061466482614594565b61466e818561459f565b935083602082028501614680856145b0565b8060005b858110156146bc578484038952815161469d8582614638565b94506146a88361464c565b925060208a01995050600181019050614684565b50829750879550505050505092915050565b600060208201905081810360008301526146e88184614659565b905092915050565b6146f981613f2a565b82525050565b600060208201905061471460008301846146f0565b92915050565b61472381613fa1565b82525050565b60006101408201905061473f600083018d613e1c565b61474c602083018c6146f0565b614759604083018b6146f0565b614766606083018a61471a565b6147736080830189613e1c565b61478060a0830188613e1c565b61478d60c0830187613ea5565b61479a60e0830186613e1c565b6147a8610100830185613ea5565b6147b6610120830184613ea5565b9b9a5050505050505050505050565b600081519050919050565b600082825260208201905092915050565b6000819050602082019050919050565b60006147fd8383613fd1565b6101408301905092915050565b6000602082019050919050565b6000614822826147c5565b61482c81856147d0565b9350614837836147e1565b8060005b8381101561486857815161484f88826147f1565b975061485a8361480a565b92505060018101905061483b565b5085935050505092915050565b6000602082019050818103600083015261488f8184614817565b905092915050565b6148a081613e99565b81146148ab57600080fd5b50565b6000813590506148bd81614897565b92915050565b600080600080608085870312156148dd576148dc613daf565b5b60006148eb87828801613dda565b94505060206148fc87828801613dda565b935050604061490d87828801613dda565b925050606061491e878288016148ae565b91505092959194509250565b600082825260208201905092915050565b7f42752069736c656d2073616465636520736174696369207461726166696e646160008201527f6e20796170696c69720000000000000000000000000000000000000000000000602082015250565b600061499760298361492a565b91506149a28261493b565b604082019050919050565b600060208201905081810360008301526149c68161498a565b9050919050565b7f53616465636520796179696e6461206f6c616e20696c616e6c6172206963696e60008201527f2062752069736c656d20796170696c6162696c69720000000000000000000000602082015250565b6000614a2960358361492a565b9150614a34826149cd565b604082019050919050565b60006020820190508181036000830152614a5881614a1c565b9050919050565b6000604082019050614a7460008301856146f0565b614a816020830184613e1c565b9392505050565b60088110614a9557600080fd5b50565b600081519050614aa781614a88565b92915050565b600060208284031215614ac357614ac2613daf565b5b6000614ad184828501614a98565b91505092915050565b600080fd5b7f4e487b7100000000000000000000000000000000000000000000000000000000600052604160045260246000fd5b614b1782614316565b810181811067ffffffffffffffff82111715614b3657614b35614adf565b5b80604052505050565b6000614b49613da5565b9050614b558282614b0e565b919050565b600080fd5b600081519050614b6e81613dc3565b92915050565b600081519050614b8381614173565b92915050565b600081519050614b9881614897565b92915050565b600060808284031215614bb457614bb3614ada565b5b614bbe6080614b3f565b90506000614bce84828501614b5f565b6000830152506020614be284828501614b5f565b6020830152506040614bf684828501614b74565b6040830152506060614c0a84828501614b89565b60608301525092915050565b600060808284031215614c2c57614c2b613daf565b5b6000614c3a84828501614b9e565b91505092915050565b600080fd5b600080fd5b600067ffffffffffffffff821115614c6857614c67614adf565b5b614c7182614316565b9050602081019050919050565b6000614c91614c8c84614c4d565b614b3f565b905082815260208101848484011115614cad57614cac614c48565b5b614cb88482856142e3565b509392505050565b600082601f830112614cd557614cd4614c43565b5b8151614ce5848260208601614c7e565b91505092915050565b60006101c08284031215614d0557614d04614ada565b5b614d106101c0614b3f565b90506000614d2084828501614b5f565b600083015250602082015167ffffffffffffffff811115614d4457614d43614b5a565b5b614d5084828501614cc0565b602083015250604082015167ffffffffffffffff811115614d7457614d73614b5a565b5b614d8084828501614cc0565b604083015250606082015167ffffffffffffffff811115614da457614da3614b5a565b5b614db084828501614cc0565b606083015250608082015167ffffffffffffffff811115614dd457614dd3614b5a565b5b614de084828501614cc0565b60808301525060a082015167ffffffffffffffff811115614e0457614e03614b5a565b5b614e1084828501614cc0565b60a08301525060c0614e2484828501614b5f565b60c08301525060e082015167ffffffffffffffff811115614e4857614e47614b5a565b5b614e5484828501614cc0565b60e08301525061010082015167ffffffffffffffff811115614e7957614e78614b5a565b5b614e8584828501614cc0565b6101008301525061012082015167ffffffffffffffff811115614eab57614eaa614b5a565b5b614eb784828501614cc0565b6101208301525061014082015167ffffffffffffffff811115614edd57614edc614b5a565b5b614ee984828501614cc0565b6101408301525061016082015167ffffffffffffffff811115614f0f57614f0e614b5a565b5b614f1b84828501614cc0565b61016083015250610180614f3184828501614b5f565b610180830152506101a0614f4784828501614b89565b6101a08301525092915050565b600060208284031215614f6a57614f69613daf565b5b600082015167ffffffffffffffff811115614f8857614f87613db4565b5b614f9484828501614cee565b91505092915050565b600060a082019050614fb26000830188613e1c565b614fbf6020830187613e1c565b614fcc6040830186613e1c565b614fd960608301856146f0565b614fe66080830184613e1c565b9695505050505050565b60006080820190506150056000830187613e1c565b61501260208301866146f0565b61501f6040830185613e1c565b61502c6060830184613e1c565b95945050505050565b60006020828403121561504b5761504a613daf565b5b600061505984828501614b89565b91505092915050565b7f42752069736c656d69207361646563652061646d696e207961706162696c6972600082015250565b600061509860208361492a565b91506150a382615062565b602082019050919050565b600060208201905081810360008301526150c78161508b565b9050919050565b7f4e487b7100000000000000000000000000000000000000000000000000000000600052601160045260246000fd5b600061510882613db9565b91507fffffffffffffffffffffffffffffffffffffffffffffffffffffffffffffffff820361513a576151396150ce565b5b600182019050919050565b7f4e487b7100000000000000000000000000000000000000000000000000000000600052603260045260246000fd5b7f536174697320666979617420726179696320626564656c64656e20647573756b60008201527f206f6c616d617a00000000000000000000000000000000000000000000000000602082015250565b60006151d060278361492a565b91506151db82615174565b604082019050919050565b600060208201905081810360008301526151ff816151c3565b9050919050565b600060408201905061521b6000830185613e1c565b61522860208301846146f0565b9392505050565b60006020828403121561524557615244613daf565b5b600061525384828501614b5f565b91505092915050565b60006060820190506152716000830186613e1c565b61527e60208301856146f0565b61528b60408301846146f0565b949350505050565b600061529e82613db9565b9150600082036152b1576152b06150ce565b5b600182039050919050565b600060a0820190506152d16000830188613e1c565b6152de60208301876146f0565b6152eb60408301866146f0565b6152f86060830185613e1c565b6153056080830184613e1c565b9695505050505050565b600060608201905061532460008301866146f0565b6153316020830185613e1c565b61533e6040830184613e1c565b949350505050565b7f6f6e63656c696b6c6520616c696369206b696c6974206b616c6469726d616c69600082015250565b600061537c60208361492a565b915061538782615346565b602082019050919050565b600060208201905081810360008301526153ab8161536f565b9050919050565b7f48697373652073616465636520736168696269207461726166696e64616e206960008201527f6c616e206f6c7573747572756c6d616c69000000000000000000000000000000602082015250565b600061540e60318361492a565b9150615419826153b2565b604082019050919050565b6000602082019050818103600083015261543d81615401565b9050919050565b7f6164766572746973656d656e7420666f72207265616c2065737461746520616c60008201527f726561647920657869737420696e207468652073797374656d00000000000000602082015250565b60006154a060398361492a565b91506154ab82615444565b604082019050919050565b600060208201905081810360008301526154cf81615493565b9050919050565b7f47617972696d656e6b756c756e20766572676920626f726375206f6c6d617a00600082015250565b600061550c601f8361492a565b9150615517826154d6565b602082019050919050565b6000602082019050818103600083015261553b816154ff565b9050919050565b7f42752069736c656d2073616465636520616c696369207461726166696e64616e60008201527f20796170696c6972000000000000000000000000000000000000000000000000602082015250565b600061559e60288361492a565b91506155a982615542565b604082019050919050565b600060208201905081810360008301526155cd81615591565b9050919050565b7f696c616e20616c696369206963696e206b69746c656e6d656d69730000000000600082015250565b600061560a601b8361492a565b9150615615826155d4565b602082019050919050565b60006020820190508181036000830152615639816155fd565b9050919050565b7f42752069736c656d692073616465636520736174696369207961706162696c6960008201527f7200000000000000000000000000000000000000000000000000000000000000602082015250565b600061569c60218361492a565b91506156a782615640565b604082019050919050565b600060208201905081810360008301526156cb8161568f565b9050919050565b60006060820190506156e76000830186613e1c565b6156f46020830185613e1c565b61570160408301846146f0565b949350505050565b600061571482613db9565b915061571f83613db9565b925082821015615732576157316150ce565b5b82820390509291505056fea2646970667358221220f5a6b5113d76de265c858ecae03a86e749aa7d9c1d8aec7609f63a4542e7023164736f6c634300080e0033",
  "immutableReferences": {},
  "source": "// SPDX-License-Identifier: UNLICENSED\r\npragma solidity ^0.8.0;\r\n\r\nimport \"./Owner.sol\";\r\nimport \"./RealEstateOwnerRelation.sol\";\r\nimport \"./NotaryContractBase.sol\";\r\nimport \"./RealEstate.sol\";\r\nimport \"./HissedarOnay.sol\";\r\n\r\ncontract RealEstateSaleAd is NotaryContractBase{\r\n\r\n    RealEstateOwnerRelation realEstateOwnerRelation;\r\n    Owner ownerContract;\r\n    RealEstate realEstate;\r\n    HissedarOnay hissedarOnay;\r\n\r\n    event ilanOlusturuldu(uint hisseId, address saticiId, uint ilanId, uint fiyat);\r\n    event hissedarlarinOnayinda(uint hisseId, address saticiId, uint ilanId, uint fiyat);\r\n    event ilanYayindanKaldirildi(address saticiId, uint ilanId);\r\n    event aliciIcinKilitlendi(uint ilanId, address saticiId, address aliciId);    \r\n    event fiyatDegistirildi(uint ilanId, uint yeniSatisFiyat, address saticiId);\r\n    event kilitKaldirildiWithAliciOnayi(uint ilanId);\r\n    event kilitKaldirildiWithSaticiOnayi(uint ilanId);\r\n    event alicisistemHesabinaParaAktardi(address alici, uint ilanId, uint miktar);\r\n    event saticiSistemHesabinaTapuHarciAktardi(address satici, uint ilanId, uint miktar);\r\n    event changedOwnerShip(uint hisseId, address alici, address satici, uint fiyat, uint zaman);\r\n    event mutabakatIslemiRed();\r\n    event mutabakatIslemiOnay();\r\n\r\n    mapping (uint => Advertisement) public adIdMap;\r\n    mapping (uint => uint) public hisseIdAdIdMap;\r\n    mapping (address => uint[]) public ownerAdIdListMap;\r\n    mapping (uint => uint) public adIdLUT;\r\n    uint adIdLUTLength = 0;\r\n    uint aliciIcinKitlenenIlanSayisi = 0;\r\n    \r\n    constructor(address ownerContractAdd, address realOwnRelAddress, address realEstateAddress, address hissedarOnayAdd)  {\r\n        ownerContract=Owner(ownerContractAdd);\r\n        realEstateOwnerRelation=RealEstateOwnerRelation(realOwnRelAddress);\r\n        realEstate=RealEstate(realEstateAddress);\r\n        hissedarOnay = HissedarOnay(hissedarOnayAdd);\r\n    }\r\n\r\n    function ilanOlustur(uint hisseId, uint256 rayicBedeli, uint256 satisFiyat, bool borcuVarMi) public {\r\n        require(realEstateOwnerRelation.hisseSatisaCikabilirMi(hisseId, msg.sender), \"Hisse sadece sahibi tarafindan ilan olusturulmali\");\r\n        require(hisseIdAdIdMap[hisseId] == 0, \"advertisement for real estate already exist in the system\");\r\n        require(rayicBedeli <= satisFiyat, \"Satis fiyat rayic bedelden dusuk olamaz\");\r\n        require(!borcuVarMi, \"Gayrimenkulun vergi borcu olmaz\");\r\n\r\n        uint ilanId = block.timestamp;\r\n        Advertisement memory ad = Advertisement(hisseId, msg.sender, address(0), State.YAYINDA, rayicBedeli, satisFiyat, borcuVarMi, adIdLUTLength, false, false);\r\n        adIdMap[ilanId] = ad;\r\n        hisseIdAdIdMap[hisseId] = ilanId;\r\n        adIdLUT[adIdLUTLength] = ilanId;\r\n        adIdLUTLength++;\r\n        ownerAdIdListMap[msg.sender].push(ilanId);\r\n        hissedarVarsaOnayaGonder(ilanId, hisseId, satisFiyat);        \r\n    }\r\n\r\n    function hissedarVarsaOnayaGonder(uint ilanId, uint hisseId, uint256 satisFiyat) public {\r\n        \r\n        Hisse memory hisse = realEstateOwnerRelation.getHisse(hisseId);\r\n        RealEstateData memory realEstateData = realEstate.getRealEstateInfo(hisse.realEstateId);\r\n        if(realEstateData.payda != hisse.pay){\r\n            hissedarOnay.onayaGonder(ilanId, hisseId, satisFiyat, msg.sender, realEstateData.payda);\r\n            adIdMap[ilanId].state = State.HISSEDARLARDAN_ONAY_BEKLIYOR;\r\n            emit hissedarlarinOnayinda(hisseId, msg.sender, ilanId, satisFiyat);\r\n        }else{\r\n            emit ilanOlusturuldu(hisseId, msg.sender, ilanId, satisFiyat);\r\n        }        \r\n    }\r\n   \r\n    function ilanYayindanKaldir(uint ilanId) public {\r\n        require(adIdMap[ilanId].satici == msg.sender, \"Bu islem sadece satici tarafindan yapilir\");\r\n        require(adIdMap[ilanId].state == State.YAYINDA, \"Sadece yayinda olan ilanlar icin bu islem yapilabilir\");\r\n        adIdMap[ilanId].state = State.YAYINDAN_KALDIRILDI;        \r\n        updateLUT(ilanId);\r\n        emit ilanYayindanKaldirildi(msg.sender, ilanId);\r\n    }\r\n    \r\n    function updateLUT(uint ilanId) private {\r\n        Advertisement memory yayindanKaldirildiAd = adIdMap[ilanId];\r\n        hisseIdAdIdMap[yayindanKaldirildiAd.hisseId] = 0;\r\n        uint yayindanKaldirilanItemIndex = yayindanKaldirildiAd.adIdLUTIndex;\r\n        uint lastAdInLUT = adIdLUT[adIdLUTLength -1];\r\n        if(ilanId != lastAdInLUT){\r\n            adIdMap[lastAdInLUT].adIdLUTIndex = yayindanKaldirilanItemIndex;\r\n            adIdLUT[yayindanKaldirilanItemIndex] = lastAdInLUT;              \r\n        }\r\n        adIdLUTLength--;\r\n    }\r\n\r\n    function aliciIcinKilitle(uint ilanId, address aliciAdd, uint fiyat) public {\r\n        Advertisement memory ad =  adIdMap[ilanId];\r\n        //require(ad.satici == msg.sender, \"Bu islemi sadece satici yapabilir\");\r\n        require(ad.state == State.YAYINDA, \"Sadece yayinda olan ilanlar icin bu islem yapilabilir\");\r\n        require(ad.rayicBedeli <= fiyat, \"Satis fiyat rayic bedelden dusuk olamaz\");\r\n        adIdMap[ilanId].state = State.ALICI_ICIN_KILITLENDI;\r\n        adIdMap[ilanId].alici = aliciAdd;\r\n        adIdMap[ilanId].fiyat = fiyat;\r\n        aliciIcinKitlenenIlanSayisi++;\r\n    }\r\n\r\n    function changeSatisFiyat(uint ilanId, uint newfiyat) public {\r\n        Advertisement memory ad =  adIdMap[ilanId];\r\n        require(ad.satici == msg.sender, \"Bu islemi sadece satici yapabilir\");\r\n        require(ad.state == State.YAYINDA, \"Sadece yayinda olan ilanlar icin bu islem yapilabilir\");\r\n        require(ad.rayicBedeli <= newfiyat, \"Satis fiyat rayic bedelden dusuk olamaz\");\r\n        adIdMap[ilanId].fiyat = newfiyat;\r\n        emit fiyatDegistirildi(ilanId, newfiyat, msg.sender);\r\n    }\r\n\r\n    function kilitKaldirWithAliciOnayi(uint ilanId) public {\r\n        require(msg.sender == adIdMap[ilanId].alici, \"Bu islem sadece alici tarafindan yapilir\");\r\n        require(adIdMap[ilanId].state == State.ALICI_ICIN_KILITLENDI, \"ilan alici icin kitlenmemis\");\r\n        adIdMap[ilanId].state = State.ALICI_ONAYI_ILE_KILIT_KALDIRMA;\r\n        emit kilitKaldirildiWithAliciOnayi(ilanId);\r\n    }\r\n\r\n    function kilitKaldirWithSaticiOnayi(uint ilanId) public {\r\n        require(msg.sender == adIdMap[ilanId].satici, \"Bu islem sadece satici tarafindan yapilir\");\r\n        require(adIdMap[ilanId].state == State.ALICI_ONAYI_ILE_KILIT_KALDIRMA, \"oncelikle alici kilit kaldirmali\");\r\n        adIdMap[ilanId].state = State.YAYINDA;\r\n        aliciIcinKitlenenIlanSayisi--;\r\n        emit kilitKaldirildiWithSaticiOnayi(ilanId);\r\n    }\r\n\r\n    function getUserAds(address ownAdd) public view returns(Advertisement [] memory){\r\n        //sadece kullanici yapabilsin kendi ilanlarini grebilsin\r\n        uint[] memory ownAdIds = ownerAdIdListMap[ownAdd];\r\n        Advertisement [] memory ads = new Advertisement[](ownAdIds.length);        \r\n        for(uint i = 0; i< ownAdIds.length; i++){\r\n            Advertisement memory ad = adIdMap[ownAdIds[i]];\r\n            if(ad.state != State.YAYINDAN_KALDIRILDI || ad.state != State.DEVIR_ISLEMI_TAMAMLANDI){\r\n                ads[i] = adIdMap[ownAdIds[i]];\r\n            }\r\n        }\r\n        return ads;\r\n    }   \r\n\r\n    function ilanaTeklifVerilebilirMi(uint ilanId) public view returns(bool){\r\n        return adIdMap[ilanId].state == State.YAYINDA;\r\n    }\r\n\r\n    function teklifFiyatRaicBedeldenDusukMu(uint ilanId, uint fiyat) public view returns(bool){\r\n        return adIdMap[ilanId].rayicBedeli <= fiyat;\r\n    }\r\n\r\n    function getIlanSatici(uint ilanId) public view returns(address){\r\n        return adIdMap[ilanId].satici;\r\n    }\r\n\r\n    function onayVer(uint onayId, uint ilanId) public {\r\n        hissedarOnay.onayVer(onayId, msg.sender);\r\n        ilanDurumuGuncelle(ilanId);\r\n        emit mutabakatIslemiOnay();\r\n    }\r\n\r\n    function reddet(uint onayId, uint ilanId) public {\r\n        hissedarOnay.reddet(onayId, msg.sender);\r\n        ilanDurumuGuncelle(ilanId);\r\n        emit mutabakatIslemiRed();\r\n    }\r\n\r\n    function ilanDurumuGuncelle(uint ilanId) public {\r\n        State ilanState = hissedarOnay.ilanYayinlanabilirmi(ilanId);\r\n        adIdMap[ilanId].state = ilanState;\r\n    }\r\n\r\n    function alicidanParaAlindi(uint ilanId) public {\r\n        require(ownerContract.isAdmin(msg.sender), \"Bu islemi sadece admin yapabilir\");\r\n        adIdMap[ilanId].aliciParaTransferi = true;\r\n        Advertisement memory advertisement = adIdMap[ilanId];\r\n        if(advertisement.saticiParaTransferi){\r\n            realEstateOwnerRelation.changeOwnerShip(advertisement.hisseId, advertisement.alici, advertisement.satici);\r\n            adIdMap[ilanId].state = State.DEVIR_ISLEMI_TAMAMLANDI;\r\n            aliciIcinKitlenenIlanSayisi--;\r\n            updateLUT(ilanId);\r\n            emit changedOwnerShip(advertisement.hisseId, advertisement.alici, advertisement.satici, advertisement.fiyat, block.timestamp);\r\n        }else{\r\n            emit alicisistemHesabinaParaAktardi(advertisement.alici, ilanId, advertisement.fiyat);\r\n        }\r\n    }\r\n\r\n    function saticidanTapuHarciAlindi(uint ilanId) public {\r\n        require(ownerContract.isAdmin(msg.sender), \"Bu islemi sadece admin yapabilir\");\r\n        adIdMap[ilanId].saticiParaTransferi = true;\r\n        Advertisement memory advertisement = adIdMap[ilanId];\r\n        if(advertisement.aliciParaTransferi){\r\n            realEstateOwnerRelation.changeOwnerShip(advertisement.hisseId, advertisement.alici, advertisement.satici);\r\n            adIdMap[ilanId].state = State.DEVIR_ISLEMI_TAMAMLANDI;\r\n            aliciIcinKitlenenIlanSayisi--;\r\n            updateLUT(ilanId);\r\n            emit changedOwnerShip(advertisement.hisseId, advertisement.alici, advertisement.satici, advertisement.fiyat, block.timestamp);\r\n        }else{\r\n            emit saticiSistemHesabinaTapuHarciAktardi(advertisement.alici, ilanId, advertisement.fiyat);\r\n        }\r\n    }\r\n\r\n    function getAliciIcinKitlenenIlanlar() public view returns(AdDto[] memory) {\r\n        require(ownerContract.isAdmin(msg.sender), \"Bu islemi sadece admin yapabilir\");\r\n        AdDto [] memory result = new AdDto[]( aliciIcinKitlenenIlanSayisi);\r\n        uint resultCount = 0;\r\n        for(uint i; i< adIdLUTLength; i++){\r\n            uint ilanId = adIdLUT[i];\r\n            Advertisement memory ad =  adIdMap[ilanId]; \r\n            if(ad.state == State.ALICI_ICIN_KILITLENDI){\r\n                result[resultCount++] =AdDto(ilanId, ad);\r\n            }\r\n        }\r\n        return result;\r\n    }\r\n\r\n    function getUserAssets(address ownAdd) public view returns(HisseAdData[] memory){\r\n        uint hisseIdsLength = realEstateOwnerRelation.getOwnerHisseLength(ownAdd);\r\n        HisseAdData [] memory result = new HisseAdData[](hisseIdsLength);\r\n        uint resultCount = 0;\r\n        for(uint i = 0; i< hisseIdsLength; i++){\r\n            uint hisseId = realEstateOwnerRelation.getOwnerHisseId(ownAdd, i);\r\n           if(hisseId != 0 ){\r\n                Hisse memory hisse = realEstateOwnerRelation.getHisse(hisseId);\r\n                RealEstateData memory realEstateData = realEstate.getRealEstateInfo(hisse.realEstateId);\r\n                uint ilanId = hisseIdAdIdMap[hisseId];\r\n                Advertisement memory advertisement = adIdMap[ilanId];\r\n                result[resultCount++] = HisseAdData(hisseId, hisse, ilanId, advertisement, realEstateData);\r\n            }\r\n        }\r\n        return result;\r\n    }\r\n\r\n    function getAllAds() public view returns(HisseAdData [] memory){\r\n        HisseAdData [] memory result = new HisseAdData[](adIdLUTLength);\r\n        for(uint i = 0; i< adIdLUTLength; i++){\r\n            uint ilanId = adIdLUT[i];\r\n            Advertisement memory ad = adIdMap[ilanId];\r\n            Hisse memory hisse = realEstateOwnerRelation.getHisse(ad.hisseId);\r\n            RealEstateData memory realEstateData = realEstate.getRealEstateInfo(hisse.realEstateId);\r\n            result[i] = HisseAdData(ad.hisseId, hisse, ilanId, ad, realEstateData);\r\n        }\r\n        return result;\r\n    }\r\n\r\n    function getHisseAdDataById(uint ilanId) public view returns(HisseAdData memory){\r\n        Advertisement memory ad = adIdMap[ilanId];\r\n        Hisse memory hisse = realEstateOwnerRelation.getHisse(ad.hisseId);\r\n        RealEstateData memory realEstateData = realEstate.getRealEstateInfo(hisse.realEstateId);\r\n        return HisseAdData(ad.hisseId, hisse, ilanId, ad, realEstateData);\r\n    }\r\n\r\n    function isAdYayinda(uint ilanId) public view returns(bool){\r\n        Advertisement memory ad = adIdMap[ilanId];\r\n        return ad.state == State.YAYINDA;\r\n    }\r\n\r\n}\r\n",
  "sourcePath": "D:\\Ethereum Projects\\DAWithEth\\truffle-project\\contracts\\RealEstateSaleAd.sol",
  "compiler": {
    "name": "solc",
    "version": "0.8.14+commit.80d49f37.Emscripten.clang"
  },
  "schemaVersion": "3.4.11",
  "updatedAt": "2023-07-17T20:39:16.243Z",
  "networkType": "ethereum",
  "devdoc": {
    "kind": "dev",
    "methods": {},
    "version": 1
  },
  "userdoc": {
    "kind": "user",
    "methods": {},
    "version": 1
  }
}