{
  "contractName": "RealEstate",
  "abi": [
    {
      "inputs": [],
      "name": "add",
      "outputs": [],
      "stateMutability": "nonpayable",
      "type": "function"
    },
    {
      "inputs": [
        {
          "internalType": "string",
          "name": "mahalle",
          "type": "string"
        },
        {
          "internalType": "uint256",
          "name": "payda",
          "type": "uint256"
        }
      ],
      "name": "addRealEstate",
      "outputs": [],
      "stateMutability": "nonpayable",
      "type": "function"
    },
    {
      "inputs": [
        {
          "internalType": "uint256",
          "name": "realEstateId",
          "type": "uint256"
        }
      ],
      "name": "isRealEstateRegisted",
      "outputs": [
        {
          "internalType": "bool",
          "name": "",
          "type": "bool"
        }
      ],
      "stateMutability": "view",
      "type": "function",
      "constant": true
    },
    {
      "inputs": [
        {
          "internalType": "uint256",
          "name": "realEstateId",
          "type": "uint256"
        }
      ],
      "name": "getRealEstatePayda",
      "outputs": [
        {
          "internalType": "uint256",
          "name": "",
          "type": "uint256"
        }
      ],
      "stateMutability": "view",
      "type": "function",
      "constant": true
    },
    {
      "inputs": [
        {
          "internalType": "uint256",
          "name": "realEstateId",
          "type": "uint256"
        }
      ],
      "name": "getRealEstateInfo",
      "outputs": [
        {
          "components": [
            {
              "internalType": "uint256",
              "name": "realEstateId",
              "type": "uint256"
            },
            {
              "internalType": "string",
              "name": "mahalle",
              "type": "string"
            },
            {
              "internalType": "uint256",
              "name": "payda",
              "type": "uint256"
            },
            {
              "internalType": "bool",
              "name": "registered",
              "type": "bool"
            }
          ],
          "internalType": "struct NotaryContractBase.RealEstateData",
          "name": "",
          "type": "tuple"
        }
      ],
      "stateMutability": "view",
      "type": "function",
      "constant": true
    },
    {
      "inputs": [
        {
          "internalType": "string",
          "name": "mahalle",
          "type": "string"
        }
      ],
      "name": "getId",
      "outputs": [
        {
          "internalType": "uint256",
          "name": "",
          "type": "uint256"
        }
      ],
      "stateMutability": "pure",
      "type": "function",
      "constant": true
    }
  ],
  "bytecode": "0x608060405234801561001057600080fd5b506108ce806100206000396000f3fe608060405234801561001057600080fd5b50600436106100625760003560e01c80633c7422df146100675780634f2be91f146100975780635a8f6713146100a1578063969430e2146100d15780639f8188b3146100ed578063bee51f3b1461011d575b600080fd5b610081600480360381019061007c9190610495565b61014d565b60405161008e91906104d1565b60405180910390f35b61009f61016c565b005b6100bb60048036038101906100b69190610495565b6101ae565b6040516100c89190610507565b60405180910390f35b6100eb60048036038101906100e69190610668565b6101da565b005b61010760048036038101906101029190610495565b610278565b60405161011491906107cd565b60405180910390f35b610137600480360381019061013291906107ef565b610365565b60405161014491906104d1565b60405180910390f35b6000806000838152602001908152602001600020600201549050919050565b6101ac6040518060400160405280600981526020017f6b61726170696e6172000000000000000000000000000000000000000000000081525060026101da565b565b600080600083815260200190815260200160002060030160009054906101000a900460ff169050919050565b6000828051906020012060001c905060405180608001604052808281526020018481526020018381526020016001151581525060008083815260200190815260200160002060008201518160000155602082015181600101908051906020019061024592919061037e565b506040820151816002015560608201518160030160006101000a81548160ff021916908315150217905550905050505050565b610280610404565b600080838152602001908152602001600020604051806080016040529081600082015481526020016001820180546102b790610867565b80601f01602080910402602001604051908101604052809291908181526020018280546102e390610867565b80156103305780601f1061030557610100808354040283529160200191610330565b820191906000526020600020905b81548152906001019060200180831161031357829003601f168201915b50505050508152602001600282015481526020016003820160009054906101000a900460ff1615151515815250509050919050565b600080828051906020012060001c905080915050919050565b82805461038a90610867565b90600052602060002090601f0160209004810192826103ac57600085556103f3565b82601f106103c557805160ff19168380011785556103f3565b828001600101855582156103f3579182015b828111156103f25782518255916020019190600101906103d7565b5b509050610400919061042e565b5090565b60405180608001604052806000815260200160608152602001600081526020016000151581525090565b5b8082111561044757600081600090555060010161042f565b5090565b6000604051905090565b600080fd5b600080fd5b6000819050919050565b6104728161045f565b811461047d57600080fd5b50565b60008135905061048f81610469565b92915050565b6000602082840312156104ab576104aa610455565b5b60006104b984828501610480565b91505092915050565b6104cb8161045f565b82525050565b60006020820190506104e660008301846104c2565b92915050565b60008115159050919050565b610501816104ec565b82525050565b600060208201905061051c60008301846104f8565b92915050565b600080fd5b600080fd5b6000601f19601f8301169050919050565b7f4e487b7100000000000000000000000000000000000000000000000000000000600052604160045260246000fd5b6105758261052c565b810181811067ffffffffffffffff821117156105945761059361053d565b5b80604052505050565b60006105a761044b565b90506105b3828261056c565b919050565b600067ffffffffffffffff8211156105d3576105d261053d565b5b6105dc8261052c565b9050602081019050919050565b82818337600083830152505050565b600061060b610606846105b8565b61059d565b90508281526020810184848401111561062757610626610527565b5b6106328482856105e9565b509392505050565b600082601f83011261064f5761064e610522565b5b813561065f8482602086016105f8565b91505092915050565b6000806040838503121561067f5761067e610455565b5b600083013567ffffffffffffffff81111561069d5761069c61045a565b5b6106a98582860161063a565b92505060206106ba85828601610480565b9150509250929050565b6106cd8161045f565b82525050565b600081519050919050565b600082825260208201905092915050565b60005b8381101561070d5780820151818401526020810190506106f2565b8381111561071c576000848401525b50505050565b600061072d826106d3565b61073781856106de565b93506107478185602086016106ef565b6107508161052c565b840191505092915050565b610764816104ec565b82525050565b600060808301600083015161078260008601826106c4565b506020830151848203602086015261079a8282610722565b91505060408301516107af60408601826106c4565b5060608301516107c2606086018261075b565b508091505092915050565b600060208201905081810360008301526107e7818461076a565b905092915050565b60006020828403121561080557610804610455565b5b600082013567ffffffffffffffff8111156108235761082261045a565b5b61082f8482850161063a565b91505092915050565b7f4e487b7100000000000000000000000000000000000000000000000000000000600052602260045260246000fd5b6000600282049050600182168061087f57607f821691505b60208210810361089257610891610838565b5b5091905056fea26469706673582212203a34e2df848d84a67b3fafcee1e7f58f164fa623af5fa5fecfeb0a92226be06364736f6c634300080e0033",
  "immutableReferences": {},
  "source": "// SPDX-License-Identifier: UNLICENSED\r\npragma solidity ^0.8.0;\r\n\r\nimport \"./NotaryContractBase.sol\";\r\n\r\ncontract RealEstate is NotaryContractBase {\r\n\r\n    mapping(uint => RealEstateData) realEstateMap; \r\n    \r\n    function add() public {\r\n        addRealEstate(\"karapinar\", 2);\r\n    }\r\n\r\n    function addRealEstate(string memory mahalle, uint payda) public{\r\n        uint realEstateId=uint(keccak256(bytes(mahalle))); //TODO bilgilerin daha nceden olmadn kontrol et\r\n        realEstateMap[realEstateId] = RealEstateData(realEstateId, mahalle, payda, true);\r\n    }\r\n\r\n    function isRealEstateRegisted(uint realEstateId) public view returns(bool){\r\n        return realEstateMap[realEstateId].registered;\r\n    }\r\n  \r\n    function getRealEstatePayda(uint realEstateId) public view returns(uint){\r\n        return realEstateMap[realEstateId].payda;\r\n    }\r\n\r\n    function getRealEstateInfo(uint realEstateId) public view returns(RealEstateData memory) {\r\n        return realEstateMap[realEstateId];\r\n    }\r\n\r\n    function getId(string memory mahalle) public pure returns(uint){\r\n        uint realEstateId=uint(keccak256(bytes(mahalle)));\r\n        return realEstateId;\r\n    }\r\n    \r\n}",
  "sourcePath": "D:\\Ethereum Projects\\DAWithEth\\truffle-project\\contracts\\RealEstate.sol",
  "compiler": {
    "name": "solc",
    "version": "0.8.14+commit.80d49f37.Emscripten.clang"
  },
  "schemaVersion": "3.4.11",
  "updatedAt": "2023-01-09T20:03:17.702Z",
  "networkType": "ethereum",
  "devdoc": {
    "kind": "dev",
    "methods": {},
    "version": 1
  },
  "userdoc": {
    "kind": "user",
    "methods": {},
    "version": 1
  }
}