{
  "contractName": "RealEstateSaleAd",
  "abi": [
    {
      "inputs": [
        {
          "internalType": "address",
          "name": "realOwnRelAddress",
          "type": "address"
        },
        {
          "internalType": "address",
          "name": "realEstateAddress",
          "type": "address"
        }
      ],
      "stateMutability": "nonpayable",
      "type": "constructor"
    },
    {
      "anonymous": false,
      "inputs": [
        {
          "indexed": false,
          "internalType": "uint256",
          "name": "ilanId",
          "type": "uint256"
        },
        {
          "indexed": false,
          "internalType": "address",
          "name": "saticiId",
          "type": "address"
        },
        {
          "indexed": false,
          "internalType": "address",
          "name": "aliciId",
          "type": "address"
        }
      ],
      "name": "aliciIcinKilitlendi",
      "type": "event"
    },
    {
      "anonymous": false,
      "inputs": [
        {
          "indexed": false,
          "internalType": "address",
          "name": "alici",
          "type": "address"
        },
        {
          "indexed": false,
          "internalType": "uint256",
          "name": "ilanId",
          "type": "uint256"
        },
        {
          "indexed": false,
          "internalType": "uint256",
          "name": "miktar",
          "type": "uint256"
        }
      ],
      "name": "alicisistemHesabinaParaAktardi",
      "type": "event"
    },
    {
      "anonymous": false,
      "inputs": [
        {
          "indexed": false,
          "internalType": "uint256",
          "name": "ilanId",
          "type": "uint256"
        },
        {
          "indexed": false,
          "internalType": "uint256",
          "name": "yeniSatisFiyat",
          "type": "uint256"
        },
        {
          "indexed": false,
          "internalType": "address",
          "name": "saticiId",
          "type": "address"
        }
      ],
      "name": "fiyatDegistir",
      "type": "event"
    },
    {
      "anonymous": false,
      "inputs": [
        {
          "indexed": false,
          "internalType": "uint256",
          "name": "hisseId",
          "type": "uint256"
        },
        {
          "indexed": false,
          "internalType": "address",
          "name": "saticiId",
          "type": "address"
        },
        {
          "indexed": false,
          "internalType": "uint256",
          "name": "ilanId",
          "type": "uint256"
        },
        {
          "indexed": false,
          "internalType": "uint256",
          "name": "fiyat",
          "type": "uint256"
        }
      ],
      "name": "ilanOlusturuldu",
      "type": "event"
    },
    {
      "anonymous": false,
      "inputs": [
        {
          "indexed": false,
          "internalType": "address",
          "name": "saticiId",
          "type": "address"
        },
        {
          "indexed": false,
          "internalType": "uint256",
          "name": "ilanId",
          "type": "uint256"
        }
      ],
      "name": "ilanYayindanKaldirildi",
      "type": "event"
    },
    {
      "anonymous": false,
      "inputs": [
        {
          "indexed": false,
          "internalType": "uint256",
          "name": "ilanId",
          "type": "uint256"
        }
      ],
      "name": "kilitKaldirildiWithAliciOnayi",
      "type": "event"
    },
    {
      "anonymous": false,
      "inputs": [
        {
          "indexed": false,
          "internalType": "uint256",
          "name": "ilanId",
          "type": "uint256"
        }
      ],
      "name": "kilitKaldirildiWithSaticiOnayi",
      "type": "event"
    },
    {
      "inputs": [
        {
          "internalType": "uint256",
          "name": "",
          "type": "uint256"
        }
      ],
      "name": "adIdLUT",
      "outputs": [
        {
          "internalType": "uint256",
          "name": "",
          "type": "uint256"
        }
      ],
      "stateMutability": "view",
      "type": "function",
      "constant": true
    },
    {
      "inputs": [
        {
          "internalType": "uint256",
          "name": "",
          "type": "uint256"
        }
      ],
      "name": "adIdMap",
      "outputs": [
        {
          "internalType": "uint256",
          "name": "hisseId",
          "type": "uint256"
        },
        {
          "internalType": "address",
          "name": "satici",
          "type": "address"
        },
        {
          "internalType": "address",
          "name": "alici",
          "type": "address"
        },
        {
          "internalType": "enum NotaryContractBase.State",
          "name": "state",
          "type": "uint8"
        },
        {
          "internalType": "uint256",
          "name": "rayicBedeli",
          "type": "uint256"
        },
        {
          "internalType": "uint256",
          "name": "fiyat",
          "type": "uint256"
        },
        {
          "internalType": "bool",
          "name": "borcuVarMi",
          "type": "bool"
        },
        {
          "internalType": "uint256",
          "name": "adIdLUTIndex",
          "type": "uint256"
        },
        {
          "internalType": "bool",
          "name": "aliciParaTransferi",
          "type": "bool"
        },
        {
          "internalType": "bool",
          "name": "saticiParaTransferi",
          "type": "bool"
        }
      ],
      "stateMutability": "view",
      "type": "function",
      "constant": true
    },
    {
      "inputs": [
        {
          "internalType": "uint256",
          "name": "",
          "type": "uint256"
        }
      ],
      "name": "hisseIdAdIdMap",
      "outputs": [
        {
          "internalType": "uint256",
          "name": "",
          "type": "uint256"
        }
      ],
      "stateMutability": "view",
      "type": "function",
      "constant": true
    },
    {
      "inputs": [
        {
          "internalType": "address",
          "name": "",
          "type": "address"
        },
        {
          "internalType": "uint256",
          "name": "",
          "type": "uint256"
        }
      ],
      "name": "ownerAdIdListMap",
      "outputs": [
        {
          "internalType": "uint256",
          "name": "",
          "type": "uint256"
        }
      ],
      "stateMutability": "view",
      "type": "function",
      "constant": true
    },
    {
      "inputs": [
        {
          "internalType": "uint256",
          "name": "hisseId",
          "type": "uint256"
        },
        {
          "internalType": "uint256",
          "name": "rayicBedeli",
          "type": "uint256"
        },
        {
          "internalType": "uint256",
          "name": "satisFiyat",
          "type": "uint256"
        },
        {
          "internalType": "bool",
          "name": "borcuVarMi",
          "type": "bool"
        }
      ],
      "name": "ilanOlustur",
      "outputs": [],
      "stateMutability": "nonpayable",
      "type": "function"
    },
    {
      "inputs": [
        {
          "internalType": "uint256",
          "name": "ilanId",
          "type": "uint256"
        }
      ],
      "name": "ilanYayindanKaldir",
      "outputs": [],
      "stateMutability": "nonpayable",
      "type": "function"
    },
    {
      "inputs": [
        {
          "internalType": "uint256",
          "name": "ilanId",
          "type": "uint256"
        },
        {
          "internalType": "address",
          "name": "aliciAdd",
          "type": "address"
        },
        {
          "internalType": "uint256",
          "name": "fiyat",
          "type": "uint256"
        }
      ],
      "name": "aliciIcinKilitle",
      "outputs": [],
      "stateMutability": "nonpayable",
      "type": "function"
    },
    {
      "inputs": [
        {
          "internalType": "uint256",
          "name": "ilanId",
          "type": "uint256"
        },
        {
          "internalType": "uint256",
          "name": "newfiyat",
          "type": "uint256"
        }
      ],
      "name": "changeSatisFiyat",
      "outputs": [],
      "stateMutability": "nonpayable",
      "type": "function"
    },
    {
      "inputs": [
        {
          "internalType": "uint256",
          "name": "ilanId",
          "type": "uint256"
        }
      ],
      "name": "kilitKaldirWithAliciOnayi",
      "outputs": [],
      "stateMutability": "nonpayable",
      "type": "function"
    },
    {
      "inputs": [
        {
          "internalType": "uint256",
          "name": "ilanId",
          "type": "uint256"
        }
      ],
      "name": "kilitKaldirWithSaticiOnayi",
      "outputs": [],
      "stateMutability": "nonpayable",
      "type": "function"
    },
    {
      "inputs": [],
      "name": "getAllAds",
      "outputs": [
        {
          "components": [
            {
              "internalType": "uint256",
              "name": "hisseId",
              "type": "uint256"
            },
            {
              "internalType": "address",
              "name": "satici",
              "type": "address"
            },
            {
              "internalType": "address",
              "name": "alici",
              "type": "address"
            },
            {
              "internalType": "enum NotaryContractBase.State",
              "name": "state",
              "type": "uint8"
            },
            {
              "internalType": "uint256",
              "name": "rayicBedeli",
              "type": "uint256"
            },
            {
              "internalType": "uint256",
              "name": "fiyat",
              "type": "uint256"
            },
            {
              "internalType": "bool",
              "name": "borcuVarMi",
              "type": "bool"
            },
            {
              "internalType": "uint256",
              "name": "adIdLUTIndex",
              "type": "uint256"
            },
            {
              "internalType": "bool",
              "name": "aliciParaTransferi",
              "type": "bool"
            },
            {
              "internalType": "bool",
              "name": "saticiParaTransferi",
              "type": "bool"
            }
          ],
          "internalType": "struct NotaryContractBase.Advertisement[]",
          "name": "",
          "type": "tuple[]"
        }
      ],
      "stateMutability": "view",
      "type": "function",
      "constant": true
    },
    {
      "inputs": [
        {
          "internalType": "address",
          "name": "ownAdd",
          "type": "address"
        }
      ],
      "name": "getUserAds",
      "outputs": [
        {
          "components": [
            {
              "internalType": "uint256",
              "name": "hisseId",
              "type": "uint256"
            },
            {
              "internalType": "address",
              "name": "satici",
              "type": "address"
            },
            {
              "internalType": "address",
              "name": "alici",
              "type": "address"
            },
            {
              "internalType": "enum NotaryContractBase.State",
              "name": "state",
              "type": "uint8"
            },
            {
              "internalType": "uint256",
              "name": "rayicBedeli",
              "type": "uint256"
            },
            {
              "internalType": "uint256",
              "name": "fiyat",
              "type": "uint256"
            },
            {
              "internalType": "bool",
              "name": "borcuVarMi",
              "type": "bool"
            },
            {
              "internalType": "uint256",
              "name": "adIdLUTIndex",
              "type": "uint256"
            },
            {
              "internalType": "bool",
              "name": "aliciParaTransferi",
              "type": "bool"
            },
            {
              "internalType": "bool",
              "name": "saticiParaTransferi",
              "type": "bool"
            }
          ],
          "internalType": "struct NotaryContractBase.Advertisement[]",
          "name": "",
          "type": "tuple[]"
        }
      ],
      "stateMutability": "view",
      "type": "function",
      "constant": true
    },
    {
      "inputs": [
        {
          "internalType": "uint256",
          "name": "ilanId",
          "type": "uint256"
        }
      ],
      "name": "ilanaTeklifVerilebilirMi",
      "outputs": [
        {
          "internalType": "bool",
          "name": "",
          "type": "bool"
        }
      ],
      "stateMutability": "view",
      "type": "function",
      "constant": true
    },
    {
      "inputs": [
        {
          "internalType": "uint256",
          "name": "ilanId",
          "type": "uint256"
        }
      ],
      "name": "getIlanSatici",
      "outputs": [
        {
          "internalType": "address",
          "name": "",
          "type": "address"
        }
      ],
      "stateMutability": "view",
      "type": "function",
      "constant": true
    },
    {
      "inputs": [
        {
          "internalType": "uint256",
          "name": "ilanId",
          "type": "uint256"
        }
      ],
      "name": "alicidanParaAlindi",
      "outputs": [],
      "stateMutability": "nonpayable",
      "type": "function"
    },
    {
      "inputs": [
        {
          "internalType": "uint256",
          "name": "ilanId",
          "type": "uint256"
        }
      ],
      "name": "saticidanTapuHarciAlindi",
      "outputs": [],
      "stateMutability": "nonpayable",
      "type": "function"
    },
    {
      "inputs": [
        {
          "internalType": "address",
          "name": "ownAdd",
          "type": "address"
        }
      ],
      "name": "getUserAssets",
      "outputs": [
        {
          "components": [
            {
              "internalType": "uint256",
              "name": "hisseId",
              "type": "uint256"
            },
            {
              "components": [
                {
                  "internalType": "uint256",
                  "name": "pay",
                  "type": "uint256"
                },
                {
                  "internalType": "uint256",
                  "name": "realEstateId",
                  "type": "uint256"
                },
                {
                  "internalType": "address",
                  "name": "ownerAdd",
                  "type": "address"
                },
                {
                  "internalType": "bool",
                  "name": "registered",
                  "type": "bool"
                }
              ],
              "internalType": "struct NotaryContractBase.Hisse",
              "name": "hisse",
              "type": "tuple"
            },
            {
              "internalType": "uint256",
              "name": "ilanId",
              "type": "uint256"
            },
            {
              "components": [
                {
                  "internalType": "uint256",
                  "name": "hisseId",
                  "type": "uint256"
                },
                {
                  "internalType": "address",
                  "name": "satici",
                  "type": "address"
                },
                {
                  "internalType": "address",
                  "name": "alici",
                  "type": "address"
                },
                {
                  "internalType": "enum NotaryContractBase.State",
                  "name": "state",
                  "type": "uint8"
                },
                {
                  "internalType": "uint256",
                  "name": "rayicBedeli",
                  "type": "uint256"
                },
                {
                  "internalType": "uint256",
                  "name": "fiyat",
                  "type": "uint256"
                },
                {
                  "internalType": "bool",
                  "name": "borcuVarMi",
                  "type": "bool"
                },
                {
                  "internalType": "uint256",
                  "name": "adIdLUTIndex",
                  "type": "uint256"
                },
                {
                  "internalType": "bool",
                  "name": "aliciParaTransferi",
                  "type": "bool"
                },
                {
                  "internalType": "bool",
                  "name": "saticiParaTransferi",
                  "type": "bool"
                }
              ],
              "internalType": "struct NotaryContractBase.Advertisement",
              "name": "ad",
              "type": "tuple"
            },
            {
              "components": [
                {
                  "internalType": "uint256",
                  "name": "realEstateId",
                  "type": "uint256"
                },
                {
                  "internalType": "string",
                  "name": "mahalle",
                  "type": "string"
                },
                {
                  "internalType": "uint256",
                  "name": "payda",
                  "type": "uint256"
                },
                {
                  "internalType": "bool",
                  "name": "registered",
                  "type": "bool"
                }
              ],
              "internalType": "struct NotaryContractBase.RealEstateData",
              "name": "realEstateData",
              "type": "tuple"
            }
          ],
          "internalType": "struct NotaryContractBase.HisseAdData[]",
          "name": "",
          "type": "tuple[]"
        }
      ],
      "stateMutability": "view",
      "type": "function",
      "constant": true
    }
  ],
  "bytecode": "0x608060405260006007553480156200001657600080fd5b5060405162003e8238038062003e8283398181016040528101906200003c91906200012f565b816000806101000a81548173ffffffffffffffffffffffffffffffffffffffff021916908373ffffffffffffffffffffffffffffffffffffffff16021790555080600260006101000a81548173ffffffffffffffffffffffffffffffffffffffff021916908373ffffffffffffffffffffffffffffffffffffffff160217905550505062000176565b600080fd5b600073ffffffffffffffffffffffffffffffffffffffff82169050919050565b6000620000f782620000ca565b9050919050565b6200010981620000ea565b81146200011557600080fd5b50565b6000815190506200012981620000fe565b92915050565b60008060408385031215620001495762000148620000c5565b5b6000620001598582860162000118565b92505060206200016c8582860162000118565b9150509250929050565b613cfc80620001866000396000f3fe608060405234801561001057600080fd5b506004361061010b5760003560e01c80638f7df5fe116100a2578063cca1baa111610071578063cca1baa1146102f7578063da05ae3314610313578063dc589fad14610343578063e7f6b3a01461035f578063ebed05921461037b5761010b565b80638f7df5fe146102545780639206e93814610284578063b79f4423146102bd578063ba146846146102db5761010b565b806349a2c6b0116100de57806349a2c6b0146101bc5780634dff90a9146101ec578063765ff061146102085780638c193ff5146102385761010b565b8063157c2a40146101105780633505d12f1461012c578063384154f01461015c5780633fa020e91461018c575b600080fd5b61012a60048036038101906101259190612a04565b610397565b005b61014660048036038101906101419190612a04565b610548565b6040516101539190612a40565b60405180910390f35b61017660048036038101906101719190612a04565b610560565b6040516101839190612a40565b60405180910390f35b6101a660048036038101906101a19190612a04565b610578565b6040516101b39190612a76565b60405180910390f35b6101d660048036038101906101d19190612aef565b6105cc565b6040516101e39190612a40565b60405180910390f35b61020660048036038101906102019190612b2f565b6105fd565b005b610222600480360381019061021d9190612b82565b610922565b60405161022f9190612faa565b60405180910390f35b610252600480360381019061024d9190612a04565b610e12565b005b61026e60048036038101906102699190612a04565b6110b1565b60405161027b9190612fdb565b60405180910390f35b61029e60048036038101906102999190612a04565b6110f1565b6040516102b49a99989796959493929190613005565b60405180910390f35b6102c56111b9565b6040516102d29190613151565b60405180910390f35b6102f560048036038101906102f09190612a04565b6113ed565b005b610311600480360381019061030c9190612a04565b611593565b005b61032d60048036038101906103289190612b82565b611832565b60405161033a9190613151565b60405180910390f35b61035d6004803603810190610358919061319f565b611d05565b005b61037960048036038101906103749190612a04565b6121a7565b005b61039560048036038101906103909190613206565b61234e565b005b3373ffffffffffffffffffffffffffffffffffffffff166003600083815260200190815260200160002060010160009054906101000a900473ffffffffffffffffffffffffffffffffffffffff1673ffffffffffffffffffffffffffffffffffffffff161461043b576040517f08c379a0000000000000000000000000000000000000000000000000000000008152600401610432906132c9565b60405180910390fd5b6001600581111561044f5761044e612c5d565b5b6003600083815260200190815260200160002060020160149054906101000a900460ff16600581111561048557610484612c5d565b5b146104c5576040517f08c379a00000000000000000000000000000000000000000000000000000000081526004016104bc9061335b565b60405180910390fd5b600380600083815260200190815260200160002060020160146101000a81548160ff021916908360058111156104fe576104fd612c5d565b5b021790555061050c81612650565b7f403a6f9792692b3ee502fa20caf6bb8fd6dcf2af50f28f5745b111e6170b0514338260405161053d92919061337b565b60405180910390a150565b60046020528060005260406000206000915090505481565b60066020528060005260406000206000915090505481565b60006001600581111561058e5761058d612c5d565b5b6003600084815260200190815260200160002060020160149054906101000a900460ff1660058111156105c4576105c3612c5d565b5b149050919050565b600560205281600052604060002081815481106105e857600080fd5b90600052602060002001600091509150505481565b60006003600085815260200190815260200160002060405180610140016040529081600082015481526020016001820160009054906101000a900473ffffffffffffffffffffffffffffffffffffffff1673ffffffffffffffffffffffffffffffffffffffff1673ffffffffffffffffffffffffffffffffffffffff1681526020016002820160009054906101000a900473ffffffffffffffffffffffffffffffffffffffff1673ffffffffffffffffffffffffffffffffffffffff1673ffffffffffffffffffffffffffffffffffffffff1681526020016002820160149054906101000a900460ff1660058111156106f9576106f8612c5d565b5b600581111561070b5761070a612c5d565b5b815260200160038201548152602001600482015481526020016005820160009054906101000a900460ff16151515158152602001600682015481526020016007820160009054906101000a900460ff161515151581526020016007820160019054906101000a900460ff16151515158152505090506001600581111561079457610793612c5d565b5b816060015160058111156107ab576107aa612c5d565b5b146107eb576040517f08c379a00000000000000000000000000000000000000000000000000000000081526004016107e29061335b565b60405180910390fd5b8181608001511115610832576040517f08c379a000000000000000000000000000000000000000000000000000000000815260040161082990613416565b60405180910390fd5b60026003600086815260200190815260200160002060020160146101000a81548160ff0219169083600581111561086c5761086b612c5d565b5b0217905550826003600086815260200190815260200160002060020160006101000a81548173ffffffffffffffffffffffffffffffffffffffff021916908373ffffffffffffffffffffffffffffffffffffffff1602179055508160036000868152602001908152602001600020600401819055507f1479338b27bb727a6d6bdbb8f7554b67addade705ff18a6a4e9f52b7c26f8caf84338560405161091493929190613436565b60405180910390a150505050565b606060008060009054906101000a900473ffffffffffffffffffffffffffffffffffffffff1673ffffffffffffffffffffffffffffffffffffffff166351fe436a846040518263ffffffff1660e01b81526004016109809190612fdb565b602060405180830381865afa15801561099d573d6000803e3d6000fd5b505050506040513d601f19601f820116820180604052508101906109c19190613482565b905060008167ffffffffffffffff8111156109df576109de6134af565b5b604051908082528060200260200182016040528015610a1857816020015b610a05612878565b8152602001906001900390816109fd5790505b50905060005b82811015610e075760008060009054906101000a900473ffffffffffffffffffffffffffffffffffffffff1673ffffffffffffffffffffffffffffffffffffffff1663794cc53387846040518363ffffffff1660e01b8152600401610a8492919061337b565b602060405180830381865afa158015610aa1573d6000803e3d6000fd5b505050506040513d601f19601f82011682018060405250810190610ac59190613482565b905060008060009054906101000a900473ffffffffffffffffffffffffffffffffffffffff1673ffffffffffffffffffffffffffffffffffffffff1663948c0d8e836040518263ffffffff1660e01b8152600401610b239190612a40565b608060405180830381865afa158015610b40573d6000803e3d6000fd5b505050506040513d601f19601f82011682018060405250810190610b6491906135d6565b90506000600260009054906101000a900473ffffffffffffffffffffffffffffffffffffffff1673ffffffffffffffffffffffffffffffffffffffff16639f8188b383602001516040518263ffffffff1660e01b8152600401610bc79190612a40565b600060405180830381865afa158015610be4573d6000803e3d6000fd5b505050506040513d6000823e3d601f19601f82011682018060405250810190610c0d9190613742565b905060006004600085815260200190815260200160002054905060006003600083815260200190815260200160002060405180610140016040529081600082015481526020016001820160009054906101000a900473ffffffffffffffffffffffffffffffffffffffff1673ffffffffffffffffffffffffffffffffffffffff1673ffffffffffffffffffffffffffffffffffffffff1681526020016002820160009054906101000a900473ffffffffffffffffffffffffffffffffffffffff1673ffffffffffffffffffffffffffffffffffffffff1673ffffffffffffffffffffffffffffffffffffffff1681526020016002820160149054906101000a900460ff166005811115610d2357610d22612c5d565b5b6005811115610d3557610d34612c5d565b5b815260200160038201548152602001600482015481526020016005820160009054906101000a900460ff16151515158152602001600682015481526020016007820160009054906101000a900460ff161515151581526020016007820160019054906101000a900460ff16151515158152505090506040518060a0016040528086815260200185815260200183815260200182815260200184815250878781518110610de457610de361378b565b5b602002602001018190525050505050508080610dff906137e9565b915050610a1e565b508092505050919050565b60016003600083815260200190815260200160002060070160006101000a81548160ff02191690831515021790555060006003600083815260200190815260200160002060405180610140016040529081600082015481526020016001820160009054906101000a900473ffffffffffffffffffffffffffffffffffffffff1673ffffffffffffffffffffffffffffffffffffffff1673ffffffffffffffffffffffffffffffffffffffff1681526020016002820160009054906101000a900473ffffffffffffffffffffffffffffffffffffffff1673ffffffffffffffffffffffffffffffffffffffff1673ffffffffffffffffffffffffffffffffffffffff1681526020016002820160149054906101000a900460ff166005811115610f3d57610f3c612c5d565b5b6005811115610f4f57610f4e612c5d565b5b815260200160038201548152602001600482015481526020016005820160009054906101000a900460ff16151515158152602001600682015481526020016007820160009054906101000a900460ff161515151581526020016007820160019054906101000a900460ff1615151515815250509050806101200151156110ad5760008054906101000a900473ffffffffffffffffffffffffffffffffffffffff1673ffffffffffffffffffffffffffffffffffffffff166377646798826000015183604001516040518363ffffffff1660e01b8152600401611032929190613831565b600060405180830381600087803b15801561104c57600080fd5b505af1158015611060573d6000803e3d6000fd5b5050505060046003600084815260200190815260200160002060020160146101000a81548160ff0219169083600581111561109e5761109d612c5d565b5b02179055506110ac82612650565b5b5050565b60006003600083815260200190815260200160002060010160009054906101000a900473ffffffffffffffffffffffffffffffffffffffff169050919050565b60036020528060005260406000206000915090508060000154908060010160009054906101000a900473ffffffffffffffffffffffffffffffffffffffff16908060020160009054906101000a900473ffffffffffffffffffffffffffffffffffffffff16908060020160149054906101000a900460ff16908060030154908060040154908060050160009054906101000a900460ff16908060060154908060070160009054906101000a900460ff16908060070160019054906101000a900460ff1690508a565b6060600060075467ffffffffffffffff8111156111d9576111d86134af565b5b60405190808252806020026020018201604052801561121257816020015b6111ff6128b9565b8152602001906001900390816111f75790505b50905060005b6007548110156113e557600360006006600084815260200190815260200160002054815260200190815260200160002060405180610140016040529081600082015481526020016001820160009054906101000a900473ffffffffffffffffffffffffffffffffffffffff1673ffffffffffffffffffffffffffffffffffffffff1673ffffffffffffffffffffffffffffffffffffffff1681526020016002820160009054906101000a900473ffffffffffffffffffffffffffffffffffffffff1673ffffffffffffffffffffffffffffffffffffffff1673ffffffffffffffffffffffffffffffffffffffff1681526020016002820160149054906101000a900460ff16600581111561132f5761132e612c5d565b5b600581111561134157611340612c5d565b5b815260200160038201548152602001600482015481526020016005820160009054906101000a900460ff16151515158152602001600682015481526020016007820160009054906101000a900460ff161515151581526020016007820160019054906101000a900460ff1615151515815250508282815181106113c7576113c661378b565b5b602002602001018190525080806113dd906137e9565b915050611218565b508091505090565b6003600082815260200190815260200160002060010160009054906101000a900473ffffffffffffffffffffffffffffffffffffffff1673ffffffffffffffffffffffffffffffffffffffff163373ffffffffffffffffffffffffffffffffffffffff1614611491576040517f08c379a0000000000000000000000000000000000000000000000000000000008152600401611488906132c9565b60405180910390fd5b6005808111156114a4576114a3612c5d565b5b6003600083815260200190815260200160002060020160149054906101000a900460ff1660058111156114da576114d9612c5d565b5b1461151a576040517f08c379a0000000000000000000000000000000000000000000000000000000008152600401611511906138a6565b60405180910390fd5b60016003600083815260200190815260200160002060020160146101000a81548160ff0219169083600581111561155457611553612c5d565b5b02179055507f1943ff8fe66129619ad45b43d7666b90f9f10c041d2d491444879220812d647d816040516115889190612a40565b60405180910390a150565b60016003600083815260200190815260200160002060070160016101000a81548160ff02191690831515021790555060006003600083815260200190815260200160002060405180610140016040529081600082015481526020016001820160009054906101000a900473ffffffffffffffffffffffffffffffffffffffff1673ffffffffffffffffffffffffffffffffffffffff1673ffffffffffffffffffffffffffffffffffffffff1681526020016002820160009054906101000a900473ffffffffffffffffffffffffffffffffffffffff1673ffffffffffffffffffffffffffffffffffffffff1673ffffffffffffffffffffffffffffffffffffffff1681526020016002820160149054906101000a900460ff1660058111156116be576116bd612c5d565b5b60058111156116d0576116cf612c5d565b5b815260200160038201548152602001600482015481526020016005820160009054906101000a900460ff16151515158152602001600682015481526020016007820160009054906101000a900460ff161515151581526020016007820160019054906101000a900460ff16151515158152505090508061010001511561182e5760008054906101000a900473ffffffffffffffffffffffffffffffffffffffff1673ffffffffffffffffffffffffffffffffffffffff166377646798826000015183604001516040518363ffffffff1660e01b81526004016117b3929190613831565b600060405180830381600087803b1580156117cd57600080fd5b505af11580156117e1573d6000803e3d6000fd5b5050505060046003600084815260200190815260200160002060020160146101000a81548160ff0219169083600581111561181f5761181e612c5d565b5b021790555061182d82612650565b5b5050565b60606000600560008473ffffffffffffffffffffffffffffffffffffffff1673ffffffffffffffffffffffffffffffffffffffff1681526020019081526020016000208054806020026020016040519081016040528092919081815260200182805480156118bf57602002820191906000526020600020905b8154815260200190600101908083116118ab575b505050505090506000815167ffffffffffffffff8111156118e3576118e26134af565b5b60405190808252806020026020018201604052801561191c57816020015b6119096128b9565b8152602001906001900390816119015790505b50905060005b8251811015611cfa576000600360008584815181106119445761194361378b565b5b6020026020010151815260200190815260200160002060405180610140016040529081600082015481526020016001820160009054906101000a900473ffffffffffffffffffffffffffffffffffffffff1673ffffffffffffffffffffffffffffffffffffffff1673ffffffffffffffffffffffffffffffffffffffff1681526020016002820160009054906101000a900473ffffffffffffffffffffffffffffffffffffffff1673ffffffffffffffffffffffffffffffffffffffff1673ffffffffffffffffffffffffffffffffffffffff1681526020016002820160149054906101000a900460ff166005811115611a4157611a40612c5d565b5b6005811115611a5357611a52612c5d565b5b815260200160038201548152602001600482015481526020016005820160009054906101000a900460ff16151515158152602001600682015481526020016007820160009054906101000a900460ff161515151581526020016007820160019054906101000a900460ff161515151581525050905060036005811115611adc57611adb612c5d565b5b81606001516005811115611af357611af2612c5d565b5b141580611b29575060046005811115611b0f57611b0e612c5d565b5b81606001516005811115611b2657611b25612c5d565b5b14155b15611ce65760036000858481518110611b4557611b4461378b565b5b6020026020010151815260200190815260200160002060405180610140016040529081600082015481526020016001820160009054906101000a900473ffffffffffffffffffffffffffffffffffffffff1673ffffffffffffffffffffffffffffffffffffffff1673ffffffffffffffffffffffffffffffffffffffff1681526020016002820160009054906101000a900473ffffffffffffffffffffffffffffffffffffffff1673ffffffffffffffffffffffffffffffffffffffff1673ffffffffffffffffffffffffffffffffffffffff1681526020016002820160149054906101000a900460ff166005811115611c4257611c41612c5d565b5b6005811115611c5457611c53612c5d565b5b815260200160038201548152602001600482015481526020016005820160009054906101000a900460ff16151515158152602001600682015481526020016007820160009054906101000a900460ff161515151581526020016007820160019054906101000a900460ff161515151581525050838381518110611cda57611cd961378b565b5b60200260200101819052505b508080611cf2906137e9565b915050611922565b508092505050919050565b60008054906101000a900473ffffffffffffffffffffffffffffffffffffffff1673ffffffffffffffffffffffffffffffffffffffff166389642c5485336040518363ffffffff1660e01b8152600401611d60929190613831565b602060405180830381865afa158015611d7d573d6000803e3d6000fd5b505050506040513d601f19601f82011682018060405250810190611da191906138c6565b611de0576040517f08c379a0000000000000000000000000000000000000000000000000000000008152600401611dd79061393f565b60405180910390fd5b6000600460008681526020019081526020016000205414611e36576040517f08c379a0000000000000000000000000000000000000000000000000000000008152600401611e2d906139d1565b60405180910390fd5b81831115611e79576040517f08c379a0000000000000000000000000000000000000000000000000000000008152600401611e7090613416565b60405180910390fd5b8015611eba576040517f08c379a0000000000000000000000000000000000000000000000000000000008152600401611eb190613a3d565b60405180910390fd5b600042905060006040518061014001604052808781526020013373ffffffffffffffffffffffffffffffffffffffff168152602001600073ffffffffffffffffffffffffffffffffffffffff16815260200160016005811115611f2057611f1f612c5d565b5b81526020018681526020018581526020018415158152602001600754815260200160001515815260200160001515815250905080600360008481526020019081526020016000206000820151816000015560208201518160010160006101000a81548173ffffffffffffffffffffffffffffffffffffffff021916908373ffffffffffffffffffffffffffffffffffffffff16021790555060408201518160020160006101000a81548173ffffffffffffffffffffffffffffffffffffffff021916908373ffffffffffffffffffffffffffffffffffffffff16021790555060608201518160020160146101000a81548160ff0219169083600581111561202a57612029612c5d565b5b02179055506080820151816003015560a0820151816004015560c08201518160050160006101000a81548160ff02191690831515021790555060e082015181600601556101008201518160070160006101000a81548160ff0219169083151502179055506101208201518160070160016101000a81548160ff0219169083151502179055509050508160046000888152602001908152602001600020819055508160066000600754815260200190815260200160002081905550600760008154809291906120f7906137e9565b9190505550600560003373ffffffffffffffffffffffffffffffffffffffff1673ffffffffffffffffffffffffffffffffffffffff1681526020019081526020016000208290806001815401808255809150506001900390600052602060002001600090919091909150557f932bb8e1964b19f151b100006d1433bdf7b9a6d6368ec8d600028f2b19320703863384876040516121979493929190613a5d565b60405180910390a1505050505050565b6003600082815260200190815260200160002060020160009054906101000a900473ffffffffffffffffffffffffffffffffffffffff1673ffffffffffffffffffffffffffffffffffffffff163373ffffffffffffffffffffffffffffffffffffffff161461224b576040517f08c379a000000000000000000000000000000000000000000000000000000000815260040161224290613b14565b60405180910390fd5b6002600581111561225f5761225e612c5d565b5b6003600083815260200190815260200160002060020160149054906101000a900460ff16600581111561229557612294612c5d565b5b146122d5576040517f08c379a00000000000000000000000000000000000000000000000000000000081526004016122cc90613b80565b60405180910390fd5b60056003600083815260200190815260200160002060020160146101000a81548160ff0219169083600581111561230f5761230e612c5d565b5b02179055507f48ae6fca79163101ea4f5b073efc510017228ac372cd41c1d2b4e8ec683bd822816040516123439190612a40565b60405180910390a150565b60006003600084815260200190815260200160002060405180610140016040529081600082015481526020016001820160009054906101000a900473ffffffffffffffffffffffffffffffffffffffff1673ffffffffffffffffffffffffffffffffffffffff1673ffffffffffffffffffffffffffffffffffffffff1681526020016002820160009054906101000a900473ffffffffffffffffffffffffffffffffffffffff1673ffffffffffffffffffffffffffffffffffffffff1673ffffffffffffffffffffffffffffffffffffffff1681526020016002820160149054906101000a900460ff16600581111561244a57612449612c5d565b5b600581111561245c5761245b612c5d565b5b815260200160038201548152602001600482015481526020016005820160009054906101000a900460ff16151515158152602001600682015481526020016007820160009054906101000a900460ff161515151581526020016007820160019054906101000a900460ff16151515158152505090503373ffffffffffffffffffffffffffffffffffffffff16816020015173ffffffffffffffffffffffffffffffffffffffff1614612543576040517f08c379a000000000000000000000000000000000000000000000000000000000815260040161253a90613c12565b60405180910390fd5b6001600581111561255757612556612c5d565b5b8160600151600581111561256e5761256d612c5d565b5b146125ae576040517f08c379a00000000000000000000000000000000000000000000000000000000081526004016125a59061335b565b60405180910390fd5b81816080015111156125f5576040517f08c379a00000000000000000000000000000000000000000000000000000000081526004016125ec90613416565b60405180910390fd5b8160036000858152602001908152602001600020600401819055507f32f2b6309378457b4dd94fe258595c9b095bcde80654521e246cbc06bf63296183833360405161264393929190613c32565b60405180910390a1505050565b60006003600083815260200190815260200160002060405180610140016040529081600082015481526020016001820160009054906101000a900473ffffffffffffffffffffffffffffffffffffffff1673ffffffffffffffffffffffffffffffffffffffff1673ffffffffffffffffffffffffffffffffffffffff1681526020016002820160009054906101000a900473ffffffffffffffffffffffffffffffffffffffff1673ffffffffffffffffffffffffffffffffffffffff1673ffffffffffffffffffffffffffffffffffffffff1681526020016002820160149054906101000a900460ff16600581111561274c5761274b612c5d565b5b600581111561275e5761275d612c5d565b5b815260200160038201548152602001600482015481526020016005820160009054906101000a900460ff16151515158152602001600682015481526020016007820160009054906101000a900460ff161515151581526020016007820160019054906101000a900460ff1615151515815250509050600060046000836000015181526020019081526020016000208190555060008160e001519050600060066000600160075461280e9190613c69565b815260200190815260200160002054905080841461285a578160036000838152602001908152602001600020600601819055508060066000848152602001908152602001600020819055505b6007600081548092919061286d90613c9d565b919050555050505050565b6040518060a0016040528060008152602001612892612950565b8152602001600081526020016128a66128b9565b81526020016128b3612990565b81525090565b60405180610140016040528060008152602001600073ffffffffffffffffffffffffffffffffffffffff168152602001600073ffffffffffffffffffffffffffffffffffffffff1681526020016000600581111561291a57612919612c5d565b5b81526020016000815260200160008152602001600015158152602001600081526020016000151581526020016000151581525090565b60405180608001604052806000815260200160008152602001600073ffffffffffffffffffffffffffffffffffffffff1681526020016000151581525090565b60405180608001604052806000815260200160608152602001600081526020016000151581525090565b6000604051905090565b600080fd5b600080fd5b6000819050919050565b6129e1816129ce565b81146129ec57600080fd5b50565b6000813590506129fe816129d8565b92915050565b600060208284031215612a1a57612a196129c4565b5b6000612a28848285016129ef565b91505092915050565b612a3a816129ce565b82525050565b6000602082019050612a556000830184612a31565b92915050565b60008115159050919050565b612a7081612a5b565b82525050565b6000602082019050612a8b6000830184612a67565b92915050565b600073ffffffffffffffffffffffffffffffffffffffff82169050919050565b6000612abc82612a91565b9050919050565b612acc81612ab1565b8114612ad757600080fd5b50565b600081359050612ae981612ac3565b92915050565b60008060408385031215612b0657612b056129c4565b5b6000612b1485828601612ada565b9250506020612b25858286016129ef565b9150509250929050565b600080600060608486031215612b4857612b476129c4565b5b6000612b56868287016129ef565b9350506020612b6786828701612ada565b9250506040612b78868287016129ef565b9150509250925092565b600060208284031215612b9857612b976129c4565b5b6000612ba684828501612ada565b91505092915050565b600081519050919050565b600082825260208201905092915050565b6000819050602082019050919050565b612be4816129ce565b82525050565b612bf381612ab1565b82525050565b612c0281612a5b565b82525050565b608082016000820151612c1e6000850182612bdb565b506020820151612c316020850182612bdb565b506040820151612c446040850182612bea565b506060820151612c576060850182612bf9565b50505050565b7f4e487b7100000000000000000000000000000000000000000000000000000000600052602160045260246000fd5b60068110612c9d57612c9c612c5d565b5b50565b6000819050612cae82612c8c565b919050565b6000612cbe82612ca0565b9050919050565b612cce81612cb3565b82525050565b61014082016000820151612ceb6000850182612bdb565b506020820151612cfe6020850182612bea565b506040820151612d116040850182612bea565b506060820151612d246060850182612cc5565b506080820151612d376080850182612bdb565b5060a0820151612d4a60a0850182612bdb565b5060c0820151612d5d60c0850182612bf9565b5060e0820151612d7060e0850182612bdb565b50610100820151612d85610100850182612bf9565b50610120820151612d9a610120850182612bf9565b50505050565b600081519050919050565b600082825260208201905092915050565b60005b83811015612dda578082015181840152602081019050612dbf565b83811115612de9576000848401525b50505050565b6000601f19601f8301169050919050565b6000612e0b82612da0565b612e158185612dab565b9350612e25818560208601612dbc565b612e2e81612def565b840191505092915050565b6000608083016000830151612e516000860182612bdb565b5060208301518482036020860152612e698282612e00565b9150506040830151612e7e6040860182612bdb565b506060830151612e916060860182612bf9565b508091505092915050565b600061022083016000830151612eb56000860182612bdb565b506020830151612ec86020860182612c08565b506040830151612edb60a0860182612bdb565b506060830151612eee60c0860182612cd4565b506080830151848203610200860152612f078282612e39565b9150508091505092915050565b6000612f208383612e9c565b905092915050565b6000602082019050919050565b6000612f4082612baf565b612f4a8185612bba565b935083602082028501612f5c85612bcb565b8060005b85811015612f985784840389528151612f798582612f14565b9450612f8483612f28565b925060208a01995050600181019050612f60565b50829750879550505050505092915050565b60006020820190508181036000830152612fc48184612f35565b905092915050565b612fd581612ab1565b82525050565b6000602082019050612ff06000830184612fcc565b92915050565b612fff81612cb3565b82525050565b60006101408201905061301b600083018d612a31565b613028602083018c612fcc565b613035604083018b612fcc565b613042606083018a612ff6565b61304f6080830189612a31565b61305c60a0830188612a31565b61306960c0830187612a67565b61307660e0830186612a31565b613084610100830185612a67565b613092610120830184612a67565b9b9a5050505050505050505050565b600081519050919050565b600082825260208201905092915050565b6000819050602082019050919050565b60006130d98383612cd4565b6101408301905092915050565b6000602082019050919050565b60006130fe826130a1565b61310881856130ac565b9350613113836130bd565b8060005b8381101561314457815161312b88826130cd565b9750613136836130e6565b925050600181019050613117565b5085935050505092915050565b6000602082019050818103600083015261316b81846130f3565b905092915050565b61317c81612a5b565b811461318757600080fd5b50565b60008135905061319981613173565b92915050565b600080600080608085870312156131b9576131b86129c4565b5b60006131c7878288016129ef565b94505060206131d8878288016129ef565b93505060406131e9878288016129ef565b92505060606131fa8782880161318a565b91505092959194509250565b6000806040838503121561321d5761321c6129c4565b5b600061322b858286016129ef565b925050602061323c858286016129ef565b9150509250929050565b600082825260208201905092915050565b7f42752069736c656d2073616465636520736174696369207461726166696e646160008201527f6e20796170696c69720000000000000000000000000000000000000000000000602082015250565b60006132b3602983613246565b91506132be82613257565b604082019050919050565b600060208201905081810360008301526132e2816132a6565b9050919050565b7f53616465636520796179696e6461206f6c616e20696c616e6c6172206963696e60008201527f2062752069736c656d20796170696c6162696c69720000000000000000000000602082015250565b6000613345603583613246565b9150613350826132e9565b604082019050919050565b6000602082019050818103600083015261337481613338565b9050919050565b60006040820190506133906000830185612fcc565b61339d6020830184612a31565b9392505050565b7f536174697320666979617420726179696320626564656c64656e20647573756b60008201527f206f6c616d617a00000000000000000000000000000000000000000000000000602082015250565b6000613400602783613246565b915061340b826133a4565b604082019050919050565b6000602082019050818103600083015261342f816133f3565b9050919050565b600060608201905061344b6000830186612a31565b6134586020830185612fcc565b6134656040830184612fcc565b949350505050565b60008151905061347c816129d8565b92915050565b600060208284031215613498576134976129c4565b5b60006134a68482850161346d565b91505092915050565b7f4e487b7100000000000000000000000000000000000000000000000000000000600052604160045260246000fd5b600080fd5b6134ec82612def565b810181811067ffffffffffffffff8211171561350b5761350a6134af565b5b80604052505050565b600061351e6129ba565b905061352a82826134e3565b919050565b600080fd5b60008151905061354381612ac3565b92915050565b60008151905061355881613173565b92915050565b600060808284031215613574576135736134de565b5b61357e6080613514565b9050600061358e8482850161346d565b60008301525060206135a28482850161346d565b60208301525060406135b684828501613534565b60408301525060606135ca84828501613549565b60608301525092915050565b6000608082840312156135ec576135eb6129c4565b5b60006135fa8482850161355e565b91505092915050565b600080fd5b600080fd5b600067ffffffffffffffff821115613628576136276134af565b5b61363182612def565b9050602081019050919050565b600061365161364c8461360d565b613514565b90508281526020810184848401111561366d5761366c613608565b5b613678848285612dbc565b509392505050565b600082601f83011261369557613694613603565b5b81516136a584826020860161363e565b91505092915050565b6000608082840312156136c4576136c36134de565b5b6136ce6080613514565b905060006136de8482850161346d565b600083015250602082015167ffffffffffffffff8111156137025761370161352f565b5b61370e84828501613680565b60208301525060406137228482850161346d565b604083015250606061373684828501613549565b60608301525092915050565b600060208284031215613758576137576129c4565b5b600082015167ffffffffffffffff811115613776576137756129c9565b5b613782848285016136ae565b91505092915050565b7f4e487b7100000000000000000000000000000000000000000000000000000000600052603260045260246000fd5b7f4e487b7100000000000000000000000000000000000000000000000000000000600052601160045260246000fd5b60006137f4826129ce565b91507fffffffffffffffffffffffffffffffffffffffffffffffffffffffffffffffff8203613826576138256137ba565b5b600182019050919050565b60006040820190506138466000830185612a31565b6138536020830184612fcc565b9392505050565b7f6f6e63656c696b6c6520616c696369206b696c6974206b616c6469726d616c69600082015250565b6000613890602083613246565b915061389b8261385a565b602082019050919050565b600060208201905081810360008301526138bf81613883565b9050919050565b6000602082840312156138dc576138db6129c4565b5b60006138ea84828501613549565b91505092915050565b7f48697373652073697374656d646520796f6b0000000000000000000000000000600082015250565b6000613929601283613246565b9150613934826138f3565b602082019050919050565b600060208201905081810360008301526139588161391c565b9050919050565b7f6164766572746973656d656e7420666f72207265616c2065737461746520616c60008201527f726561647920657869737420696e207468652073797374656d00000000000000602082015250565b60006139bb603983613246565b91506139c68261395f565b604082019050919050565b600060208201905081810360008301526139ea816139ae565b9050919050565b7f47617972696d656e6b756c756e20766572676920626f726375206f6c6d617a00600082015250565b6000613a27601f83613246565b9150613a32826139f1565b602082019050919050565b60006020820190508181036000830152613a5681613a1a565b9050919050565b6000608082019050613a726000830187612a31565b613a7f6020830186612fcc565b613a8c6040830185612a31565b613a996060830184612a31565b95945050505050565b7f42752069736c656d2073616465636520616c696369207461726166696e64616e60008201527f20796170696c6972000000000000000000000000000000000000000000000000602082015250565b6000613afe602883613246565b9150613b0982613aa2565b604082019050919050565b60006020820190508181036000830152613b2d81613af1565b9050919050565b7f696c616e20616c696369206963696e206b69746c656e6d656d69730000000000600082015250565b6000613b6a601b83613246565b9150613b7582613b34565b602082019050919050565b60006020820190508181036000830152613b9981613b5d565b9050919050565b7f42752069736c656d692073616465636520736174696369207961706162696c6960008201527f7200000000000000000000000000000000000000000000000000000000000000602082015250565b6000613bfc602183613246565b9150613c0782613ba0565b604082019050919050565b60006020820190508181036000830152613c2b81613bef565b9050919050565b6000606082019050613c476000830186612a31565b613c546020830185612a31565b613c616040830184612fcc565b949350505050565b6000613c74826129ce565b9150613c7f836129ce565b925082821015613c9257613c916137ba565b5b828203905092915050565b6000613ca8826129ce565b915060008203613cbb57613cba6137ba565b5b60018203905091905056fea2646970667358221220edbb8e63747c8e8fcf07833795b3e72e7f7e55ac8bd48dff53bea264359dc1b664736f6c634300080e0033",
  "immutableReferences": {},
  "source": "// SPDX-License-Identifier: UNLICENSED\r\npragma solidity ^0.8.0;\r\n\r\nimport \"./Owner.sol\";\r\nimport \"./RealEstateOwnerRelation.sol\";\r\nimport \"./NotaryContractBase.sol\";\r\nimport \"./RealEstate.sol\";\r\n\r\ncontract RealEstateSaleAd is NotaryContractBase{\r\n\r\n    RealEstateOwnerRelation realEstateOwnerRelation;\r\n    Owner ownerContract;\r\n    RealEstate realEstate;\r\n\r\n    event ilanOlusturuldu(uint hisseId, address saticiId, uint ilanId, uint fiyat);\r\n    event ilanYayindanKaldirildi(address saticiId, uint ilanId);\r\n    event aliciIcinKilitlendi(uint ilanId, address saticiId, address aliciId);    \r\n    event fiyatDegistir(uint ilanId, uint yeniSatisFiyat, address saticiId);\r\n    event kilitKaldirildiWithAliciOnayi(uint ilanId);\r\n    event kilitKaldirildiWithSaticiOnayi(uint ilanId);\r\n    event alicisistemHesabinaParaAktardi(address alici, uint ilanId, uint miktar);\r\n \r\n    mapping (uint => Advertisement) public adIdMap;\r\n    mapping (uint => uint) public hisseIdAdIdMap;\r\n    mapping (address => uint[]) public ownerAdIdListMap;\r\n    mapping (uint => uint) public adIdLUT;\r\n    uint adIdLUTLength = 0;\r\n\r\n    constructor(address realOwnRelAddress, address realEstateAddress)  {\r\n        //ownerContract=Owner(ownerContractAdd);\r\n        realEstateOwnerRelation=RealEstateOwnerRelation(realOwnRelAddress);\r\n        realEstate=RealEstate(realEstateAddress);\r\n    }\r\n\r\n    function ilanOlustur(uint hisseId, uint256 rayicBedeli, uint256 satisFiyat, bool borcuVarMi) public {\r\n        require(realEstateOwnerRelation.hisseSatisaCikabilirMi(hisseId, msg.sender), \"Hisse sistemde yok\");\r\n        require(hisseIdAdIdMap[hisseId] == 0, \"advertisement for real estate already exist in the system\");\r\n        require(rayicBedeli <= satisFiyat, \"Satis fiyat rayic bedelden dusuk olamaz\");\r\n        require(!borcuVarMi, \"Gayrimenkulun vergi borcu olmaz\");\r\n\r\n        uint ilanId = block.timestamp;\r\n        Advertisement memory ad = Advertisement(hisseId, msg.sender, address(0), State.YAYINDA, rayicBedeli, satisFiyat, borcuVarMi, adIdLUTLength, false, false);\r\n        adIdMap[ilanId] = ad;\r\n        hisseIdAdIdMap[hisseId] = ilanId;\r\n        adIdLUT[adIdLUTLength] = ilanId;\r\n        adIdLUTLength++;\r\n        ownerAdIdListMap[msg.sender].push(ilanId);\r\n        emit ilanOlusturuldu(hisseId, msg.sender, ilanId, satisFiyat);\r\n    }\r\n\r\n    function ilanYayindanKaldir(uint ilanId) public {\r\n        require(adIdMap[ilanId].satici == msg.sender, \"Bu islem sadece satici tarafindan yapilir\");\r\n        require(adIdMap[ilanId].state == State.YAYINDA, \"Sadece yayinda olan ilanlar icin bu islem yapilabilir\");\r\n        adIdMap[ilanId].state = State.YAYINDAN_KALDIRILDI;        \r\n        updateLUT(ilanId);\r\n        emit ilanYayindanKaldirildi(msg.sender, ilanId);\r\n    }\r\n    \r\n    function updateLUT(uint ilanId) private {\r\n        Advertisement memory yayindanKaldirildiAd = adIdMap[ilanId];\r\n        hisseIdAdIdMap[yayindanKaldirildiAd.hisseId] = 0;\r\n        uint yayindanKaldirilanItemIndex = yayindanKaldirildiAd.adIdLUTIndex;\r\n        uint lastAdInLUT = adIdLUT[adIdLUTLength -1];\r\n        if(ilanId != lastAdInLUT){\r\n            adIdMap[lastAdInLUT].adIdLUTIndex = yayindanKaldirilanItemIndex;\r\n            adIdLUT[yayindanKaldirilanItemIndex] = lastAdInLUT;              \r\n        }\r\n        adIdLUTLength--;\r\n    }\r\n\r\n    function aliciIcinKilitle(uint ilanId, address aliciAdd, uint fiyat) public {\r\n        Advertisement memory ad =  adIdMap[ilanId];\r\n        //require(ad.satici == msg.sender, \"Bu islemi sadece satici yapabilir\");\r\n        require(ad.state == State.YAYINDA, \"Sadece yayinda olan ilanlar icin bu islem yapilabilir\");\r\n        require(ad.rayicBedeli <= fiyat, \"Satis fiyat rayic bedelden dusuk olamaz\");\r\n        adIdMap[ilanId].state = State.ALICI_ICIN_KILITLENDI;\r\n        adIdMap[ilanId].alici = aliciAdd;\r\n        adIdMap[ilanId].fiyat = fiyat;\r\n\r\n        emit aliciIcinKilitlendi(ilanId, msg.sender, aliciAdd);    \r\n    }\r\n\r\n    function changeSatisFiyat(uint ilanId, uint newfiyat) public {\r\n        Advertisement memory ad =  adIdMap[ilanId];\r\n        require(ad.satici == msg.sender, \"Bu islemi sadece satici yapabilir\");\r\n        require(ad.state == State.YAYINDA, \"Sadece yayinda olan ilanlar icin bu islem yapilabilir\");\r\n        require(ad.rayicBedeli <= newfiyat, \"Satis fiyat rayic bedelden dusuk olamaz\");\r\n        adIdMap[ilanId].fiyat = newfiyat;\r\n        emit fiyatDegistir(ilanId, newfiyat, msg.sender);\r\n    }\r\n\r\n    function kilitKaldirWithAliciOnayi(uint ilanId) public {\r\n        require(msg.sender == adIdMap[ilanId].alici, \"Bu islem sadece alici tarafindan yapilir\");\r\n        require(adIdMap[ilanId].state == State.ALICI_ICIN_KILITLENDI, \"ilan alici icin kitlenmemis\");\r\n        adIdMap[ilanId].state = State.ALICI_ONAYI_ILE_KILIT_KALDIRMA;\r\n        emit kilitKaldirildiWithAliciOnayi(ilanId);\r\n    }\r\n\r\n    function kilitKaldirWithSaticiOnayi(uint ilanId) public {\r\n        require(msg.sender == adIdMap[ilanId].satici, \"Bu islem sadece satici tarafindan yapilir\");\r\n        require(adIdMap[ilanId].state == State.ALICI_ONAYI_ILE_KILIT_KALDIRMA, \"oncelikle alici kilit kaldirmali\");\r\n        adIdMap[ilanId].state = State.YAYINDA;\r\n        emit kilitKaldirildiWithSaticiOnayi(ilanId);\r\n    }\r\n\r\n    function getAllAds() public view returns(Advertisement [] memory){\r\n        Advertisement [] memory ads = new Advertisement[](adIdLUTLength);\r\n        for(uint i = 0; i< adIdLUTLength; i++){\r\n            ads[i] = adIdMap[adIdLUT[i]];\r\n        }\r\n        return ads;\r\n    }\r\n\r\n    function getUserAds(address ownAdd) public view returns(Advertisement [] memory){\r\n        //sadece kullanici yapabilsin kendi ilanlarini grebilsin\r\n        uint[] memory ownAdIds = ownerAdIdListMap[ownAdd];\r\n        Advertisement [] memory ads = new Advertisement[](ownAdIds.length);        \r\n        for(uint i = 0; i< ownAdIds.length; i++){\r\n            Advertisement memory ad = adIdMap[ownAdIds[i]];\r\n            if(ad.state != State.YAYINDAN_KALDIRILDI || ad.state != State.DEVIR_ISLEMI_TAMAMLANDI){\r\n                ads[i] = adIdMap[ownAdIds[i]];\r\n            }\r\n        }\r\n        return ads;\r\n    }   \r\n\r\n    function ilanaTeklifVerilebilirMi(uint ilanId) public view returns(bool){\r\n        return adIdMap[ilanId].state == State.YAYINDA;\r\n    }\r\n\r\n    function getIlanSatici(uint ilanId) public view returns(address){\r\n        return adIdMap[ilanId].satici;\r\n    }\r\n\r\n    function alicidanParaAlindi(uint ilanId) public {\r\n        //sadece admin yapabilsin\r\n        adIdMap[ilanId].aliciParaTransferi = true;\r\n        Advertisement memory advertisement = adIdMap[ilanId];\r\n        if(advertisement.saticiParaTransferi){\r\n            realEstateOwnerRelation.changeOwnerShip(advertisement.hisseId, advertisement.alici);\r\n            adIdMap[ilanId].state = State.DEVIR_ISLEMI_TAMAMLANDI;\r\n            updateLUT(ilanId);\r\n        }\r\n    }\r\n\r\n    function saticidanTapuHarciAlindi(uint ilanId) public {\r\n        //sadece admin yapabilsin\r\n        adIdMap[ilanId].saticiParaTransferi = true;\r\n        Advertisement memory advertisement = adIdMap[ilanId];\r\n        if(advertisement.aliciParaTransferi){\r\n            realEstateOwnerRelation.changeOwnerShip(advertisement.hisseId, advertisement.alici);\r\n            adIdMap[ilanId].state = State.DEVIR_ISLEMI_TAMAMLANDI;\r\n            updateLUT(ilanId);\r\n        }\r\n    }\r\n\r\n    function getUserAssets(address ownAdd) public view returns(HisseAdData[] memory){\r\n        uint hisseIdsLength = realEstateOwnerRelation.getOwnerHisseLength(ownAdd);\r\n        HisseAdData [] memory result = new HisseAdData[](hisseIdsLength);\r\n        for(uint i = 0; i< hisseIdsLength; i++){\r\n            uint hisseId = realEstateOwnerRelation.getOwnerHisseId(ownAdd, i);\r\n            Hisse memory hisse = realEstateOwnerRelation.getHisse(hisseId);\r\n            RealEstateData memory realEstateData = realEstate.getRealEstateInfo(hisse.realEstateId);\r\n            uint ilanId = hisseIdAdIdMap[hisseId];\r\n            Advertisement memory advertisement = adIdMap[ilanId];\r\n            result[i] = HisseAdData(hisseId, hisse, ilanId, advertisement, realEstateData);\r\n        }\r\n        return result;\r\n    }\r\n\r\n}\r\n",
  "sourcePath": "D:\\Ethereum Projects\\DAWithEth\\truffle-project\\contracts\\RealEstateSaleAd.sol",
  "compiler": {
    "name": "solc",
    "version": "0.8.14+commit.80d49f37.Emscripten.clang"
  },
  "schemaVersion": "3.4.11",
  "updatedAt": "2023-01-09T20:03:17.724Z",
  "networkType": "ethereum",
  "devdoc": {
    "kind": "dev",
    "methods": {},
    "version": 1
  },
  "userdoc": {
    "kind": "user",
    "methods": {},
    "version": 1
  }
}