{
  "contractName": "RealEstateOwnerRelation",
  "abi": [
    {
      "inputs": [
        {
          "internalType": "address",
          "name": "realEstateContractAdd",
          "type": "address"
        },
        {
          "internalType": "address",
          "name": "ownerContractAdd",
          "type": "address"
        }
      ],
      "stateMutability": "nonpayable",
      "type": "constructor"
    },
    {
      "anonymous": false,
      "inputs": [
        {
          "indexed": false,
          "internalType": "uint256",
          "name": "realEstateId",
          "type": "uint256"
        },
        {
          "indexed": false,
          "internalType": "uint256",
          "name": "hisseId",
          "type": "uint256"
        },
        {
          "indexed": false,
          "internalType": "address",
          "name": "owner",
          "type": "address"
        },
        {
          "indexed": false,
          "internalType": "uint256",
          "name": "pay",
          "type": "uint256"
        }
      ],
      "name": "NewHisseAddedToRealEstate",
      "type": "event"
    },
    {
      "anonymous": false,
      "inputs": [
        {
          "indexed": false,
          "internalType": "uint256",
          "name": "realEstateId",
          "type": "uint256"
        },
        {
          "indexed": false,
          "internalType": "uint256",
          "name": "hisseId",
          "type": "uint256"
        },
        {
          "indexed": false,
          "internalType": "address",
          "name": "owner",
          "type": "address"
        },
        {
          "indexed": false,
          "internalType": "uint256",
          "name": "pay",
          "type": "uint256"
        }
      ],
      "name": "NewHisseAndRealEstateAdded",
      "type": "event"
    },
    {
      "anonymous": false,
      "inputs": [
        {
          "indexed": false,
          "internalType": "uint256",
          "name": "realEstateId",
          "type": "uint256"
        },
        {
          "indexed": false,
          "internalType": "uint256",
          "name": "hisseId",
          "type": "uint256"
        },
        {
          "indexed": false,
          "internalType": "address",
          "name": "owner",
          "type": "address"
        }
      ],
      "name": "OwnerAddedToRealEstate",
      "type": "event"
    },
    {
      "anonymous": false,
      "inputs": [
        {
          "indexed": false,
          "internalType": "uint256",
          "name": "realEstateId",
          "type": "uint256"
        },
        {
          "indexed": false,
          "internalType": "uint256",
          "name": "hisseId",
          "type": "uint256"
        },
        {
          "indexed": false,
          "internalType": "address",
          "name": "owner",
          "type": "address"
        }
      ],
      "name": "OwnerHissePayAdded",
      "type": "event"
    },
    {
      "inputs": [
        {
          "internalType": "uint256",
          "name": "",
          "type": "uint256"
        }
      ],
      "name": "hisseIdHisseMap",
      "outputs": [
        {
          "internalType": "uint256",
          "name": "pay",
          "type": "uint256"
        },
        {
          "internalType": "uint256",
          "name": "realEstateId",
          "type": "uint256"
        },
        {
          "internalType": "address",
          "name": "ownerAdd",
          "type": "address"
        },
        {
          "internalType": "bool",
          "name": "registered",
          "type": "bool"
        }
      ],
      "stateMutability": "view",
      "type": "function",
      "constant": true
    },
    {
      "inputs": [
        {
          "internalType": "address",
          "name": "",
          "type": "address"
        },
        {
          "internalType": "uint256",
          "name": "",
          "type": "uint256"
        }
      ],
      "name": "ownerHisseIdMap",
      "outputs": [
        {
          "internalType": "uint256",
          "name": "",
          "type": "uint256"
        }
      ],
      "stateMutability": "view",
      "type": "function",
      "constant": true
    },
    {
      "inputs": [
        {
          "internalType": "uint256",
          "name": "",
          "type": "uint256"
        }
      ],
      "name": "realEstateIdHisseMap",
      "outputs": [
        {
          "internalType": "bool",
          "name": "registered",
          "type": "bool"
        },
        {
          "internalType": "uint256",
          "name": "payda",
          "type": "uint256"
        },
        {
          "internalType": "uint256",
          "name": "toplamHisseMiktar",
          "type": "uint256"
        }
      ],
      "stateMutability": "view",
      "type": "function",
      "constant": true
    },
    {
      "inputs": [
        {
          "internalType": "uint256",
          "name": "realEstateId",
          "type": "uint256"
        }
      ],
      "name": "testOwnerShip",
      "outputs": [],
      "stateMutability": "nonpayable",
      "type": "function"
    },
    {
      "inputs": [
        {
          "internalType": "address",
          "name": "ownAdd",
          "type": "address"
        },
        {
          "internalType": "uint256",
          "name": "realEstateId",
          "type": "uint256"
        },
        {
          "internalType": "uint256",
          "name": "_hisse",
          "type": "uint256"
        }
      ],
      "name": "addOwnerShip",
      "outputs": [],
      "stateMutability": "nonpayable",
      "type": "function"
    },
    {
      "inputs": [
        {
          "internalType": "uint256",
          "name": "hisseId",
          "type": "uint256"
        },
        {
          "internalType": "address",
          "name": "newOwner",
          "type": "address"
        },
        {
          "internalType": "address",
          "name": "oldOwner",
          "type": "address"
        }
      ],
      "name": "changeOwnerShip",
      "outputs": [],
      "stateMutability": "nonpayable",
      "type": "function"
    },
    {
      "inputs": [
        {
          "internalType": "uint256",
          "name": "hisseId",
          "type": "uint256"
        },
        {
          "internalType": "address",
          "name": "ownAdd",
          "type": "address"
        }
      ],
      "name": "hisseSatisaCikabilirMi",
      "outputs": [
        {
          "internalType": "bool",
          "name": "",
          "type": "bool"
        }
      ],
      "stateMutability": "view",
      "type": "function",
      "constant": true
    },
    {
      "inputs": [
        {
          "internalType": "address",
          "name": "ownAdd",
          "type": "address"
        },
        {
          "internalType": "uint256",
          "name": "index",
          "type": "uint256"
        }
      ],
      "name": "getOwnerHisseId",
      "outputs": [
        {
          "internalType": "uint256",
          "name": "",
          "type": "uint256"
        }
      ],
      "stateMutability": "view",
      "type": "function",
      "constant": true
    },
    {
      "inputs": [
        {
          "internalType": "address",
          "name": "ownAdd",
          "type": "address"
        },
        {
          "internalType": "uint256[]",
          "name": "hisseIdList",
          "type": "uint256[]"
        }
      ],
      "name": "getOwnerHisseId",
      "outputs": [
        {
          "internalType": "uint256",
          "name": "",
          "type": "uint256"
        }
      ],
      "stateMutability": "view",
      "type": "function",
      "constant": true
    },
    {
      "inputs": [
        {
          "internalType": "address",
          "name": "ownAdd",
          "type": "address"
        }
      ],
      "name": "getOwnerHisseLength",
      "outputs": [
        {
          "internalType": "uint256",
          "name": "",
          "type": "uint256"
        }
      ],
      "stateMutability": "view",
      "type": "function",
      "constant": true
    },
    {
      "inputs": [
        {
          "internalType": "uint256",
          "name": "hisseId",
          "type": "uint256"
        }
      ],
      "name": "getHisse",
      "outputs": [
        {
          "components": [
            {
              "internalType": "uint256",
              "name": "pay",
              "type": "uint256"
            },
            {
              "internalType": "uint256",
              "name": "realEstateId",
              "type": "uint256"
            },
            {
              "internalType": "address",
              "name": "ownerAdd",
              "type": "address"
            },
            {
              "internalType": "bool",
              "name": "registered",
              "type": "bool"
            }
          ],
          "internalType": "struct NotaryContractBase.Hisse",
          "name": "",
          "type": "tuple"
        }
      ],
      "stateMutability": "view",
      "type": "function",
      "constant": true
    },
    {
      "inputs": [],
      "name": "getAllRealEstateAndHisse",
      "outputs": [
        {
          "components": [
            {
              "internalType": "uint256",
              "name": "realEstateId",
              "type": "uint256"
            },
            {
              "internalType": "uint256",
              "name": "hisseId",
              "type": "uint256"
            },
            {
              "components": [
                {
                  "internalType": "uint256",
                  "name": "pay",
                  "type": "uint256"
                },
                {
                  "internalType": "uint256",
                  "name": "realEstateId",
                  "type": "uint256"
                },
                {
                  "internalType": "address",
                  "name": "ownerAdd",
                  "type": "address"
                },
                {
                  "internalType": "bool",
                  "name": "registered",
                  "type": "bool"
                }
              ],
              "internalType": "struct NotaryContractBase.Hisse",
              "name": "hisse",
              "type": "tuple"
            },
            {
              "components": [
                {
                  "internalType": "uint256",
                  "name": "realEstateId",
                  "type": "uint256"
                },
                {
                  "internalType": "string",
                  "name": "il",
                  "type": "string"
                },
                {
                  "internalType": "string",
                  "name": "ilce",
                  "type": "string"
                },
                {
                  "internalType": "string",
                  "name": "mahalle",
                  "type": "string"
                },
                {
                  "internalType": "string",
                  "name": "cadde",
                  "type": "string"
                },
                {
                  "internalType": "string",
                  "name": "sokak",
                  "type": "string"
                },
                {
                  "internalType": "uint256",
                  "name": "kat",
                  "type": "uint256"
                },
                {
                  "internalType": "string",
                  "name": "daireNo",
                  "type": "string"
                },
                {
                  "internalType": "string",
                  "name": "tasinmazTip",
                  "type": "string"
                },
                {
                  "internalType": "string",
                  "name": "nitelik",
                  "type": "string"
                },
                {
                  "internalType": "string",
                  "name": "ada",
                  "type": "string"
                },
                {
                  "internalType": "string",
                  "name": "parsel",
                  "type": "string"
                },
                {
                  "internalType": "uint256",
                  "name": "payda",
                  "type": "uint256"
                },
                {
                  "internalType": "bool",
                  "name": "registered",
                  "type": "bool"
                }
              ],
              "internalType": "struct NotaryContractBase.RealEstateData",
              "name": "realEstateData",
              "type": "tuple"
            },
            {
              "internalType": "uint256",
              "name": "toplamEklenenHisseMiktar",
              "type": "uint256"
            }
          ],
          "internalType": "struct NotaryContractBase.HisseView[]",
          "name": "",
          "type": "tuple[]"
        }
      ],
      "stateMutability": "view",
      "type": "function",
      "constant": true
    }
  ],
  "bytecode": "0x60806040523480156200001157600080fd5b5060405162002a3238038062002a3283398181016040528101906200003791906200012a565b806000806101000a81548173ffffffffffffffffffffffffffffffffffffffff021916908373ffffffffffffffffffffffffffffffffffffffff16021790555081600160006101000a81548173ffffffffffffffffffffffffffffffffffffffff021916908373ffffffffffffffffffffffffffffffffffffffff160217905550505062000171565b600080fd5b600073ffffffffffffffffffffffffffffffffffffffff82169050919050565b6000620000f282620000c5565b9050919050565b6200010481620000e5565b81146200011057600080fd5b50565b6000815190506200012481620000f9565b92915050565b60008060408385031215620001445762000143620000c0565b5b6000620001548582860162000113565b9250506020620001678582860162000113565b9150509250929050565b6128b180620001816000396000f3fe608060405234801561001057600080fd5b50600436106100b45760003560e01c806389642c541161007157806389642c54146101b6578063948c0d8e146101e65780639c3ead7414610216578063a4ddba4e14610246578063af825c9914610262578063d4ad4e921461027e576100b4565b8063121a06bb146100b95780632a9421fd146100d7578063505383291461010a57806351fe436a1461013a57806359451a7c1461016a578063794cc53314610186575b600080fd5b6100c16102b0565b6040516100ce9190611b00565b60405180910390f35b6100f160048036038101906100ec9190611b62565b6107cd565b6040516101019493929190611bbc565b60405180910390f35b610124600480360381019061011f9190611c2d565b61082a565b6040516101319190611c6d565b60405180910390f35b610154600480360381019061014f9190611c88565b61085b565b6040516101619190611c6d565b60405180910390f35b610184600480360381019061017f9190611cb5565b6108a7565b005b6101a0600480360381019061019b9190611c2d565b610b02565b6040516101ad9190611c6d565b60405180910390f35b6101d060048036038101906101cb9190611d08565b610b68565b6040516101dd9190611d48565b60405180910390f35b61020060048036038101906101fb9190611b62565b610c59565b60405161020d9190611db8565b60405180910390f35b610230600480360381019061022b9190611f1b565b610d0b565b60405161023d9190611c6d565b60405180910390f35b610260600480360381019061025b9190611f77565b610dce565b005b61027c60048036038101906102779190611b62565b61140e565b005b61029860048036038101906102939190611b62565b61141d565b6040516102a793929190611fca565b60405180910390f35b60606000600160009054906101000a900473ffffffffffffffffffffffffffffffffffffffff1673ffffffffffffffffffffffffffffffffffffffff16631c0a9b646040518163ffffffff1660e01b8152600401600060405180830381865afa158015610321573d6000803e3d6000fd5b505050506040513d6000823e3d601f19601f8201168201806040525081019061034a91906120ad565b9050600081516005805490506103609190612125565b67ffffffffffffffff81111561037957610378611dd8565b5b6040519080825280602002602001820160405280156103b257816020015b61039f61159c565b8152602001906001900390816103975790505b5090506000805b83518110156107c35760008482815181106103d7576103d661217b565b5b602002602001015190506000600360008381526020019081526020016000206040518060800160405290816000820160009054906101000a900460ff1615151515815260200160018201548152602001600282015481526020016003820180548060200260200160405190810160405280929190818152602001828054801561047f57602002820191906000526020600020905b81548152602001906001019080831161046b575b50505050508152505090506000600160009054906101000a900473ffffffffffffffffffffffffffffffffffffffff1673ffffffffffffffffffffffffffffffffffffffff16639f8188b3846040518263ffffffff1660e01b81526004016104e79190611c6d565b600060405180830381865afa158015610504573d6000803e3d6000fd5b505050506040513d6000823e3d601f19601f8201168201806040525081019061052d91906124ec565b905081600001511561071d5760005b826060015151811015610677576000836060015182815181106105625761056161217b565b5b602002602001015190506040518060a001604052808681526020018281526020016004600084815260200190815260200160002060405180608001604052908160008201548152602001600182015481526020016002820160009054906101000a900473ffffffffffffffffffffffffffffffffffffffff1673ffffffffffffffffffffffffffffffffffffffff1673ffffffffffffffffffffffffffffffffffffffff1681526020016002820160149054906101000a900460ff1615151515815250508152602001848152602001856040015181525088888061064590612535565b9950815181106106585761065761217b565b5b602002602001018190525050808061066f90612535565b91505061053c565b50816020015182604001511015610718576040518060a001604052808481526020016000815260200160405180608001604052806000815260200160008152602001600073ffffffffffffffffffffffffffffffffffffffff16815260200160001515815250815260200182815260200160008152508686806106f990612535565b97508151811061070c5761070b61217b565b5b60200260200101819052505b6107ad565b6040518060a001604052808481526020016000815260200160405180608001604052806000815260200160008152602001600073ffffffffffffffffffffffffffffffffffffffff168152602001600015158152508152602001828152602001600081525086868061078e90612535565b9750815181106107a1576107a061217b565b5b60200260200101819052505b50505080806107bb90612535565b9150506103b9565b5081935050505090565b60046020528060005260406000206000915090508060000154908060010154908060020160009054906101000a900473ffffffffffffffffffffffffffffffffffffffff16908060020160149054906101000a900460ff16905084565b6002602052816000526040600020818154811061084657600080fd5b90600052602060002001600091509150505481565b6000600260008373ffffffffffffffffffffffffffffffffffffffff1673ffffffffffffffffffffffffffffffffffffffff168152602001908152602001600020805490509050919050565b60006004600085815260200190815260200160002060405180608001604052908160008201548152602001600182015481526020016002820160009054906101000a900473ffffffffffffffffffffffffffffffffffffffff1673ffffffffffffffffffffffffffffffffffffffff1673ffffffffffffffffffffffffffffffffffffffff1681526020016002820160149054906101000a900460ff16151515158152505090508060600151610992576040517f08c379a0000000000000000000000000000000000000000000000000000000008152600401610989906125da565b60405180910390fd5b826004600086815260200190815260200160002060020160006101000a81548173ffffffffffffffffffffffffffffffffffffffff021916908373ffffffffffffffffffffffffffffffffffffffff1602179055506000600260008473ffffffffffffffffffffffffffffffffffffffff1673ffffffffffffffffffffffffffffffffffffffff168152602001908152602001600020905060005b8180549050811015610a945785828281548110610a4d57610a4c61217b565b5b906000526020600020015403610a81576000828281548110610a7257610a7161217b565b5b90600052602060002001819055505b8080610a8c90612535565b915050610a2d565b50600260008573ffffffffffffffffffffffffffffffffffffffff1673ffffffffffffffffffffffffffffffffffffffff1681526020019081526020016000208590806001815401808255809150506001900390600052602060002001600090919091909150555050505050565b6000600260008473ffffffffffffffffffffffffffffffffffffffff1673ffffffffffffffffffffffffffffffffffffffff1681526020019081526020016000208281548110610b5557610b5461217b565b5b9060005260206000200154905092915050565b6000806004600085815260200190815260200160002060405180608001604052908160008201548152602001600182015481526020016002820160009054906101000a900473ffffffffffffffffffffffffffffffffffffffff1673ffffffffffffffffffffffffffffffffffffffff1673ffffffffffffffffffffffffffffffffffffffff1681526020016002820160149054906101000a900460ff161515151581525050905080606001518015610c5057508273ffffffffffffffffffffffffffffffffffffffff16816040015173ffffffffffffffffffffffffffffffffffffffff16145b91505092915050565b610c616115d7565b6004600083815260200190815260200160002060405180608001604052908160008201548152602001600182015481526020016002820160009054906101000a900473ffffffffffffffffffffffffffffffffffffffff1673ffffffffffffffffffffffffffffffffffffffff1673ffffffffffffffffffffffffffffffffffffffff1681526020016002820160149054906101000a900460ff1615151515815250509050919050565b600080600090505b8251811015610dc2576000838281518110610d3157610d3061217b565b5b602002602001015190508473ffffffffffffffffffffffffffffffffffffffff166004600083815260200190815260200160002060020160009054906101000a900473ffffffffffffffffffffffffffffffffffffffff1673ffffffffffffffffffffffffffffffffffffffff1603610dae578092505050610dc8565b508080610dba90612535565b915050610d13565b50600090505b92915050565b60008054906101000a900473ffffffffffffffffffffffffffffffffffffffff1673ffffffffffffffffffffffffffffffffffffffff166324d7806c336040518263ffffffff1660e01b8152600401610e2791906125fa565b602060405180830381865afa158015610e44573d6000803e3d6000fd5b505050506040513d601f19601f82011682018060405250810190610e689190612615565b610ea7576040517f08c379a0000000000000000000000000000000000000000000000000000000008152600401610e9e9061268e565b60405180910390fd5b600160009054906101000a900473ffffffffffffffffffffffffffffffffffffffff1673ffffffffffffffffffffffffffffffffffffffff16635a8f6713836040518263ffffffff1660e01b8152600401610f029190611c6d565b602060405180830381865afa158015610f1f573d6000803e3d6000fd5b505050506040513d601f19601f82011682018060405250810190610f439190612615565b610f82576040517f08c379a0000000000000000000000000000000000000000000000000000000008152600401610f7990612720565b60405180910390fd5b60006003600084815260200190815260200160002090506000600160009054906101000a900473ffffffffffffffffffffffffffffffffffffffff1673ffffffffffffffffffffffffffffffffffffffff16633c7422df856040518263ffffffff1660e01b8152600401610ff69190611c6d565b602060405180830381865afa158015611013573d6000803e3d6000fd5b505050506040513d601f19601f820116820180604052508101906110379190612740565b90508160000160009054906101000a900460ff16156112a957808383600201546110619190612125565b11156110a2576040517f08c379a0000000000000000000000000000000000000000000000000000000008152600401611099906127df565b60405180910390fd5b600061110086846003018054806020026020016040519081016040528092919081815260200182805480156110f657602002820191906000526020600020905b8154815260200190600101908083116110e2575b5050505050610d0b565b90506000811461117757836004600083815260200190815260200160002060000160008282546111309190612125565b925050819055507fa535b07ae14ec98ab82ef3c685c41230285069dc563422605395fd18dae8c89285828860405161116a939291906127ff565b60405180910390a1611219565b6000611184858789611454565b90508360030181908060018154018082558091505060019003906000526020600020016000909190919091505560058190806001815401808255809150506001900390600052602060002001600090919091909150557f05804b10cb2a68d01900ce2de4450ae3f77b2a65586816903b11cefc78fd61378682898860405161120f9493929190612836565b60405180910390a1505b8383600201600082825461122d9190612125565b9250508190555082600360008781526020019081526020016000206000820160009054906101000a900460ff168160000160006101000a81548160ff0219169083151502179055506001820154816001015560028201548160020155600382018160030190805461129f929190611617565b5090505050611407565b808311156112ec576040517f08c379a00000000000000000000000000000000000000000000000000000000081526004016112e3906127df565b60405180910390fd5b80826001018190555082826002018190555060018260000160006101000a81548160ff0219169083151502179055506000611328848688611454565b905082600301819080600181540180825580915050600190039060005260206000200160009091909190915055600581908060018154018082558091505060019003906000526020600020016000909190919091505560018211156113c9577f27b0c117e5853e303b7ff7bb8606b8cf471e1dbcd6827e94a462bc0f90b09fb9858288876040516113bc9493929190612836565b60405180910390a1611405565b7f6e08465da0499908f3414c280976331636c51314351a981529841ffb2cfc59498582886040516113fc939291906127ff565b60405180910390a15b505b5050505050565b61141a33826001610dce565b50565b60036020528060005260406000206000915090508060000160009054906101000a900460ff16908060010154908060020154905083565b600080429050600060405180608001604052808781526020018681526020018573ffffffffffffffffffffffffffffffffffffffff1681526020016001151581525090508060046000848152602001908152602001600020600082015181600001556020820151816001015560408201518160020160006101000a81548173ffffffffffffffffffffffffffffffffffffffff021916908373ffffffffffffffffffffffffffffffffffffffff16021790555060608201518160020160146101000a81548160ff021916908315150217905550905050600260008573ffffffffffffffffffffffffffffffffffffffff1673ffffffffffffffffffffffffffffffffffffffff16815260200190815260200160002082908060018154018082558091505060019003906000526020600020016000909190919091505581925050509392505050565b6040518060a0016040528060008152602001600081526020016115bd6115d7565b81526020016115ca611669565b8152602001600081525090565b60405180608001604052806000815260200160008152602001600073ffffffffffffffffffffffffffffffffffffffff1681526020016000151581525090565b8280548282559060005260206000209081019282156116585760005260206000209182015b8281111561165757825482559160010191906001019061163c565b5b50905061166591906116da565b5090565b604051806101c00160405280600081526020016060815260200160608152602001606081526020016060815260200160608152602001600081526020016060815260200160608152602001606081526020016060815260200160608152602001600081526020016000151581525090565b5b808211156116f35760008160009055506001016116db565b5090565b600081519050919050565b600082825260208201905092915050565b6000819050602082019050919050565b6000819050919050565b61173681611723565b82525050565b600073ffffffffffffffffffffffffffffffffffffffff82169050919050565b60006117678261173c565b9050919050565b6117778161175c565b82525050565b60008115159050919050565b6117928161177d565b82525050565b6080820160008201516117ae600085018261172d565b5060208201516117c1602085018261172d565b5060408201516117d4604085018261176e565b5060608201516117e76060850182611789565b50505050565b600081519050919050565b600082825260208201905092915050565b60005b8381101561182757808201518184015260208101905061180c565b83811115611836576000848401525b50505050565b6000601f19601f8301169050919050565b6000611858826117ed565b61186281856117f8565b9350611872818560208601611809565b61187b8161183c565b840191505092915050565b60006101c08301600083015161189f600086018261172d565b50602083015184820360208601526118b7828261184d565b915050604083015184820360408601526118d1828261184d565b915050606083015184820360608601526118eb828261184d565b91505060808301518482036080860152611905828261184d565b91505060a083015184820360a086015261191f828261184d565b91505060c083015161193460c086018261172d565b5060e083015184820360e086015261194c828261184d565b915050610100830151848203610100860152611968828261184d565b915050610120830151848203610120860152611984828261184d565b9150506101408301518482036101408601526119a0828261184d565b9150506101608301518482036101608601526119bc828261184d565b9150506101808301516119d361018086018261172d565b506101a08301516119e86101a0860182611789565b508091505092915050565b600061010083016000830151611a0c600086018261172d565b506020830151611a1f602086018261172d565b506040830151611a326040860182611798565b50606083015184820360c0860152611a4a8282611886565b9150506080830151611a5f60e086018261172d565b508091505092915050565b6000611a7683836119f3565b905092915050565b6000602082019050919050565b6000611a96826116f7565b611aa08185611702565b935083602082028501611ab285611713565b8060005b85811015611aee5784840389528151611acf8582611a6a565b9450611ada83611a7e565b925060208a01995050600181019050611ab6565b50829750879550505050505092915050565b60006020820190508181036000830152611b1a8184611a8b565b905092915050565b6000604051905090565b600080fd5b600080fd5b611b3f81611723565b8114611b4a57600080fd5b50565b600081359050611b5c81611b36565b92915050565b600060208284031215611b7857611b77611b2c565b5b6000611b8684828501611b4d565b91505092915050565b611b9881611723565b82525050565b611ba78161175c565b82525050565b611bb68161177d565b82525050565b6000608082019050611bd16000830187611b8f565b611bde6020830186611b8f565b611beb6040830185611b9e565b611bf86060830184611bad565b95945050505050565b611c0a8161175c565b8114611c1557600080fd5b50565b600081359050611c2781611c01565b92915050565b60008060408385031215611c4457611c43611b2c565b5b6000611c5285828601611c18565b9250506020611c6385828601611b4d565b9150509250929050565b6000602082019050611c826000830184611b8f565b92915050565b600060208284031215611c9e57611c9d611b2c565b5b6000611cac84828501611c18565b91505092915050565b600080600060608486031215611cce57611ccd611b2c565b5b6000611cdc86828701611b4d565b9350506020611ced86828701611c18565b9250506040611cfe86828701611c18565b9150509250925092565b60008060408385031215611d1f57611d1e611b2c565b5b6000611d2d85828601611b4d565b9250506020611d3e85828601611c18565b9150509250929050565b6000602082019050611d5d6000830184611bad565b92915050565b608082016000820151611d79600085018261172d565b506020820151611d8c602085018261172d565b506040820151611d9f604085018261176e565b506060820151611db26060850182611789565b50505050565b6000608082019050611dcd6000830184611d63565b92915050565b600080fd5b7f4e487b7100000000000000000000000000000000000000000000000000000000600052604160045260246000fd5b611e108261183c565b810181811067ffffffffffffffff82111715611e2f57611e2e611dd8565b5b80604052505050565b6000611e42611b22565b9050611e4e8282611e07565b919050565b600067ffffffffffffffff821115611e6e57611e6d611dd8565b5b602082029050602081019050919050565b600080fd5b6000611e97611e9284611e53565b611e38565b90508083825260208201905060208402830185811115611eba57611eb9611e7f565b5b835b81811015611ee35780611ecf8882611b4d565b845260208401935050602081019050611ebc565b5050509392505050565b600082601f830112611f0257611f01611dd3565b5b8135611f12848260208601611e84565b91505092915050565b60008060408385031215611f3257611f31611b2c565b5b6000611f4085828601611c18565b925050602083013567ffffffffffffffff811115611f6157611f60611b31565b5b611f6d85828601611eed565b9150509250929050565b600080600060608486031215611f9057611f8f611b2c565b5b6000611f9e86828701611c18565b9350506020611faf86828701611b4d565b9250506040611fc086828701611b4d565b9150509250925092565b6000606082019050611fdf6000830186611bad565b611fec6020830185611b8f565b611ff96040830184611b8f565b949350505050565b60008151905061201081611b36565b92915050565b600061202961202484611e53565b611e38565b9050808382526020820190506020840283018581111561204c5761204b611e7f565b5b835b8181101561207557806120618882612001565b84526020840193505060208101905061204e565b5050509392505050565b600082601f83011261209457612093611dd3565b5b81516120a4848260208601612016565b91505092915050565b6000602082840312156120c3576120c2611b2c565b5b600082015167ffffffffffffffff8111156120e1576120e0611b31565b5b6120ed8482850161207f565b91505092915050565b7f4e487b7100000000000000000000000000000000000000000000000000000000600052601160045260246000fd5b600061213082611723565b915061213b83611723565b9250827fffffffffffffffffffffffffffffffffffffffffffffffffffffffffffffffff038211156121705761216f6120f6565b5b828201905092915050565b7f4e487b7100000000000000000000000000000000000000000000000000000000600052603260045260246000fd5b600080fd5b600080fd5b600080fd5b600067ffffffffffffffff8211156121d4576121d3611dd8565b5b6121dd8261183c565b9050602081019050919050565b60006121fd6121f8846121b9565b611e38565b905082815260208101848484011115612219576122186121b4565b5b612224848285611809565b509392505050565b600082601f83011261224157612240611dd3565b5b81516122518482602086016121ea565b91505092915050565b6122638161177d565b811461226e57600080fd5b50565b6000815190506122808161225a565b92915050565b60006101c0828403121561229d5761229c6121aa565b5b6122a86101c0611e38565b905060006122b884828501612001565b600083015250602082015167ffffffffffffffff8111156122dc576122db6121af565b5b6122e88482850161222c565b602083015250604082015167ffffffffffffffff81111561230c5761230b6121af565b5b6123188482850161222c565b604083015250606082015167ffffffffffffffff81111561233c5761233b6121af565b5b6123488482850161222c565b606083015250608082015167ffffffffffffffff81111561236c5761236b6121af565b5b6123788482850161222c565b60808301525060a082015167ffffffffffffffff81111561239c5761239b6121af565b5b6123a88482850161222c565b60a08301525060c06123bc84828501612001565b60c08301525060e082015167ffffffffffffffff8111156123e0576123df6121af565b5b6123ec8482850161222c565b60e08301525061010082015167ffffffffffffffff811115612411576124106121af565b5b61241d8482850161222c565b6101008301525061012082015167ffffffffffffffff811115612443576124426121af565b5b61244f8482850161222c565b6101208301525061014082015167ffffffffffffffff811115612475576124746121af565b5b6124818482850161222c565b6101408301525061016082015167ffffffffffffffff8111156124a7576124a66121af565b5b6124b38482850161222c565b610160830152506101806124c984828501612001565b610180830152506101a06124df84828501612271565b6101a08301525092915050565b60006020828403121561250257612501611b2c565b5b600082015167ffffffffffffffff8111156125205761251f611b31565b5b61252c84828501612286565b91505092915050565b600061254082611723565b91507fffffffffffffffffffffffffffffffffffffffffffffffffffffffffffffffff8203612572576125716120f6565b5b600182019050919050565b600082825260208201905092915050565b7f48697373652062756c756e616d61646900000000000000000000000000000000600082015250565b60006125c460108361257d565b91506125cf8261258e565b602082019050919050565b600060208201905081810360008301526125f3816125b7565b9050919050565b600060208201905061260f6000830184611b9e565b92915050565b60006020828403121561262b5761262a611b2c565b5b600061263984828501612271565b91505092915050565b7f42752069736c656d69207361646563652061646d696e207961706162696c6972600082015250565b600061267860208361257d565b915061268382612642565b602082019050919050565b600060208201905081810360008301526126a78161266b565b9050919050565b7f5265616c2065737461746520646f6573206e6f7420657869737420696e20746860008201527f652073797374656d000000000000000000000000000000000000000000000000602082015250565b600061270a60288361257d565b9150612715826126ae565b604082019050919050565b60006020820190508181036000830152612739816126fd565b9050919050565b60006020828403121561275657612755611b2c565b5b600061276484828501612001565b91505092915050565b7f4e6f206d6f7265207368617265686f6c646572732063616e206265206164646560008201527f6420746f20746865207265616c20657374617465000000000000000000000000602082015250565b60006127c960348361257d565b91506127d48261276d565b604082019050919050565b600060208201905081810360008301526127f8816127bc565b9050919050565b60006060820190506128146000830186611b8f565b6128216020830185611b8f565b61282e6040830184611b9e565b949350505050565b600060808201905061284b6000830187611b8f565b6128586020830186611b8f565b6128656040830185611b9e565b6128726060830184611b8f565b9594505050505056fea2646970667358221220015310fddce94b76f09b13c20c3f1f1431982849409d8a2780baaa0f451a7bf864736f6c634300080e0033",
  "immutableReferences": {},
  "source": "// SPDX-License-Identifier: UNLICENSED\r\npragma solidity ^0.8.0;\r\n\r\nimport \"./Owner.sol\";\r\nimport \"./RealEstate.sol\";\r\nimport \"./NotaryContractBase.sol\";\r\n\r\ncontract RealEstateOwnerRelation is NotaryContractBase{\r\n    Owner ownerContract;\r\n    RealEstate realEstateContract;\r\n\r\n    mapping(address => uint[]) public ownerHisseIdMap;\r\n    \r\n    mapping(uint => RealEstateHisse) public realEstateIdHisseMap;\r\n    mapping(uint => Hisse) public hisseIdHisseMap;\r\n    uint[] hisseIdLUT;\r\n\r\n    event NewHisseAndRealEstateAdded(uint realEstateId, uint hisseId, address owner, uint pay);\r\n    event OwnerHissePayAdded(uint realEstateId, uint hisseId, address owner);\r\n    event NewHisseAddedToRealEstate(uint realEstateId, uint hisseId, address owner, uint pay);\r\n    event OwnerAddedToRealEstate(uint realEstateId, uint hisseId, address owner);\r\n    \r\n    constructor(address realEstateContractAdd, address ownerContractAdd)  {\r\n        ownerContract=Owner(ownerContractAdd);\r\n        realEstateContract=RealEstate(realEstateContractAdd);\r\n    }\r\n\r\n    function testOwnerShip(uint realEstateId) public{\r\n        addOwnerShip(msg.sender, realEstateId, 1);        \r\n    }\r\n    \r\n    function addOwnerShip(address ownAdd, uint realEstateId, uint _hisse) public {\r\n        require(ownerContract.isAdmin(msg.sender), \"Bu islemi sadece admin yapabilir\");\r\n        require(realEstateContract.isRealEstateRegisted(realEstateId), \"Real estate does not exist in the system\");   \r\n         \r\n        RealEstateHisse storage realEstateHisse = realEstateIdHisseMap[realEstateId];\r\n        uint payda = realEstateContract.getRealEstatePayda(realEstateId);\r\n        if(realEstateHisse.registered){\r\n            require(realEstateHisse.toplamHisseMiktar + _hisse <= payda, \"No more shareholders can be added to the real estate\");\r\n            uint hisseId = getOwnerHisseId(ownAdd, realEstateHisse.hisseIdList);\r\n            if(hisseId != 0){\r\n                hisseIdHisseMap[hisseId].pay += _hisse;\r\n                emit OwnerHissePayAdded(realEstateId, hisseId, ownAdd);\r\n            }else{\r\n                uint newHisseId=hisseOlustur(_hisse, realEstateId, ownAdd);\r\n                realEstateHisse.hisseIdList.push(newHisseId);\r\n                hisseIdLUT.push(newHisseId);\r\n                emit NewHisseAddedToRealEstate(realEstateId, newHisseId, ownAdd, _hisse);\r\n            }\r\n            realEstateHisse.toplamHisseMiktar += _hisse;\r\n            realEstateIdHisseMap[realEstateId] = realEstateHisse;\r\n        }else{\r\n            require(_hisse <= payda,  \"No more shareholders can be added to the real estate\");\r\n            realEstateHisse.payda = payda;\r\n            realEstateHisse.toplamHisseMiktar= _hisse;\r\n            realEstateHisse.registered =true;\r\n            uint newHisseId=hisseOlustur(_hisse, realEstateId, ownAdd);\r\n            realEstateHisse.hisseIdList.push(newHisseId);\r\n            hisseIdLUT.push(newHisseId);\r\n            if(payda > 1){\r\n                emit NewHisseAndRealEstateAdded(realEstateId, newHisseId, ownAdd, _hisse);\r\n            }else{\r\n                emit OwnerAddedToRealEstate(realEstateId, newHisseId, ownAdd);\r\n            }\r\n        }        \r\n    }\r\n\r\n    function hisseOlustur(uint _hisse, uint realEstateId, address ownAdd) private returns (uint) {\r\n        uint newHisseId=block.timestamp;\r\n        Hisse memory newHisse = Hisse(_hisse, realEstateId, ownAdd, true);\r\n        hisseIdHisseMap[newHisseId] = newHisse;            \r\n        ownerHisseIdMap[ownAdd].push(newHisseId);   \r\n        return newHisseId;\r\n    }\r\n\r\n    function getOwnerHisseId(address ownAdd, uint[] memory hisseIdList) public view returns(uint) {\r\n        for(uint i = 0; i< hisseIdList.length; i++){\r\n            uint hisseId = hisseIdList[i];\r\n            if(hisseIdHisseMap[hisseId].ownerAdd == ownAdd){\r\n                return hisseId;\r\n            }\r\n        }\r\n        return 0;\r\n    }\r\n\r\n    function changeOwnerShip(uint hisseId, address newOwner, address oldOwner) public {\r\n        Hisse memory hisse  = hisseIdHisseMap[hisseId];\r\n        require(hisse.registered, \"Hisse bulunamadi\");\r\n        //require(ownerContract.isAdmin(msg.sender), \"Bu islemi sadece admin yapabilir\");\r\n\r\n        hisseIdHisseMap[hisseId].ownerAdd = newOwner;\r\n        \r\n        uint[] storage hisseIdList = ownerHisseIdMap[oldOwner];\r\n        for(uint i = 0; i < hisseIdList.length; i++){\r\n            if(hisseIdList[i] == hisseId){\r\n                hisseIdList[i] = 0;\r\n            } \r\n        }\r\n        ownerHisseIdMap[newOwner].push(hisseId);\r\n    }\r\n\r\n    function hisseSatisaCikabilirMi(uint hisseId, address ownAdd) public view returns(bool){\r\n        Hisse memory hisse  = hisseIdHisseMap[hisseId];\r\n        return hisse.registered && hisse.ownerAdd == ownAdd;\r\n    }\r\n\r\n    function getOwnerHisseId(address ownAdd, uint index) public view returns(uint){\r\n        return ownerHisseIdMap[ownAdd][index];\r\n    }\r\n\r\n    function getOwnerHisseLength(address ownAdd) public view returns(uint){\r\n        return ownerHisseIdMap[ownAdd].length;\r\n    }\r\n\r\n    function getHisse(uint hisseId) public view returns(Hisse memory){\r\n        return hisseIdHisseMap[hisseId];\r\n    }\r\n\r\n    function getAllRealEstateAndHisse() public view returns(HisseView[] memory){\r\n        uint[] memory realEstateLUT = realEstateContract.getRealEstateLUT();\r\n        HisseView [] memory result = new HisseView[](hisseIdLUT.length + realEstateLUT.length);\r\n        uint index = 0;\r\n        for(uint i = 0; i< realEstateLUT.length; i++){\r\n            uint realEstateId = realEstateLUT[i];\r\n            RealEstateHisse memory realEstateHisse = realEstateIdHisseMap[realEstateId];\r\n            RealEstateData memory realEstateData = realEstateContract.getRealEstateInfo(realEstateId);\r\n            if(realEstateHisse.registered){\r\n                for (uint y = 0; y < realEstateHisse.hisseIdList.length; y++) {\r\n                    uint hisseId =  realEstateHisse.hisseIdList[y];\r\n                    result[index++] = HisseView(realEstateId, hisseId, hisseIdHisseMap[hisseId], realEstateData, realEstateHisse.toplamHisseMiktar);  \r\n                }\r\n                if(realEstateHisse.toplamHisseMiktar < realEstateHisse.payda){\r\n                    result[index++] = HisseView(realEstateId, 0, Hisse(0,0,address(0),false), realEstateData, 0);    \r\n                }                \r\n            }else{                \r\n                result[index++] = HisseView(realEstateId, 0, Hisse(0,0,address(0),false), realEstateData, 0);\r\n            }\r\n        }\r\n        return result;\r\n    }\r\n\r\n}",
  "sourcePath": "D:\\Ethereum Projects\\DAWithEth\\truffle-project\\contracts\\RealEstateOwnerRelation.sol",
  "compiler": {
    "name": "solc",
    "version": "0.8.14+commit.80d49f37.Emscripten.clang"
  },
  "schemaVersion": "3.4.11",
  "updatedAt": "2023-02-22T19:44:41.755Z",
  "networkType": "ethereum",
  "devdoc": {
    "kind": "dev",
    "methods": {},
    "version": 1
  },
  "userdoc": {
    "kind": "user",
    "methods": {},
    "version": 1
  }
}