{
  "contractName": "RealEstateSaleAd",
  "abi": [
    {
      "inputs": [
        {
          "internalType": "address",
          "name": "realOwnRelAddress",
          "type": "address"
        }
      ],
      "stateMutability": "nonpayable",
      "type": "constructor"
    },
    {
      "anonymous": false,
      "inputs": [
        {
          "indexed": false,
          "internalType": "uint256",
          "name": "ilanId",
          "type": "uint256"
        },
        {
          "indexed": false,
          "internalType": "address",
          "name": "saticiId",
          "type": "address"
        },
        {
          "indexed": false,
          "internalType": "address",
          "name": "aliciId",
          "type": "address"
        }
      ],
      "name": "aliciIcinKilitlendi",
      "type": "event"
    },
    {
      "anonymous": false,
      "inputs": [
        {
          "indexed": false,
          "internalType": "address",
          "name": "alici",
          "type": "address"
        },
        {
          "indexed": false,
          "internalType": "uint256",
          "name": "ilanId",
          "type": "uint256"
        },
        {
          "indexed": false,
          "internalType": "uint256",
          "name": "miktar",
          "type": "uint256"
        }
      ],
      "name": "alicisistemHesabinaParaAktardi",
      "type": "event"
    },
    {
      "anonymous": false,
      "inputs": [
        {
          "indexed": false,
          "internalType": "uint256",
          "name": "ilanId",
          "type": "uint256"
        },
        {
          "indexed": false,
          "internalType": "uint256",
          "name": "yeniSatisFiyat",
          "type": "uint256"
        },
        {
          "indexed": false,
          "internalType": "address",
          "name": "saticiId",
          "type": "address"
        }
      ],
      "name": "fiyatDegistir",
      "type": "event"
    },
    {
      "anonymous": false,
      "inputs": [
        {
          "indexed": false,
          "internalType": "uint256",
          "name": "hisseId",
          "type": "uint256"
        },
        {
          "indexed": false,
          "internalType": "address",
          "name": "saticiId",
          "type": "address"
        },
        {
          "indexed": false,
          "internalType": "uint256",
          "name": "ilanId",
          "type": "uint256"
        },
        {
          "indexed": false,
          "internalType": "uint256",
          "name": "fiyat",
          "type": "uint256"
        }
      ],
      "name": "ilanOlusturuldu",
      "type": "event"
    },
    {
      "anonymous": false,
      "inputs": [
        {
          "indexed": false,
          "internalType": "address",
          "name": "saticiId",
          "type": "address"
        },
        {
          "indexed": false,
          "internalType": "uint256",
          "name": "ilanId",
          "type": "uint256"
        }
      ],
      "name": "ilanYayindanKaldirildi",
      "type": "event"
    },
    {
      "anonymous": false,
      "inputs": [
        {
          "indexed": false,
          "internalType": "uint256",
          "name": "ilanId",
          "type": "uint256"
        }
      ],
      "name": "kilitKaldirildiWithAliciOnayi",
      "type": "event"
    },
    {
      "anonymous": false,
      "inputs": [
        {
          "indexed": false,
          "internalType": "uint256",
          "name": "ilanId",
          "type": "uint256"
        }
      ],
      "name": "kilitKaldirildiWithSaticiOnayi",
      "type": "event"
    },
    {
      "inputs": [
        {
          "internalType": "uint256",
          "name": "",
          "type": "uint256"
        }
      ],
      "name": "adIdLUT",
      "outputs": [
        {
          "internalType": "uint256",
          "name": "",
          "type": "uint256"
        }
      ],
      "stateMutability": "view",
      "type": "function",
      "constant": true
    },
    {
      "inputs": [
        {
          "internalType": "uint256",
          "name": "",
          "type": "uint256"
        }
      ],
      "name": "adIdMap",
      "outputs": [
        {
          "internalType": "uint256",
          "name": "hisseId",
          "type": "uint256"
        },
        {
          "internalType": "address",
          "name": "satici",
          "type": "address"
        },
        {
          "internalType": "address",
          "name": "alici",
          "type": "address"
        },
        {
          "internalType": "enum NotaryContractBase.State",
          "name": "state",
          "type": "uint8"
        },
        {
          "internalType": "uint256",
          "name": "rayicBedeli",
          "type": "uint256"
        },
        {
          "internalType": "uint256",
          "name": "fiyat",
          "type": "uint256"
        },
        {
          "internalType": "bool",
          "name": "borcuVarMi",
          "type": "bool"
        },
        {
          "internalType": "uint256",
          "name": "adIdLUTIndex",
          "type": "uint256"
        },
        {
          "internalType": "bool",
          "name": "aliciParaTransferi",
          "type": "bool"
        },
        {
          "internalType": "bool",
          "name": "saticiParaTransferi",
          "type": "bool"
        }
      ],
      "stateMutability": "view",
      "type": "function",
      "constant": true
    },
    {
      "inputs": [
        {
          "internalType": "uint256",
          "name": "",
          "type": "uint256"
        }
      ],
      "name": "hisseIdAdIdMap",
      "outputs": [
        {
          "internalType": "uint256",
          "name": "",
          "type": "uint256"
        }
      ],
      "stateMutability": "view",
      "type": "function",
      "constant": true
    },
    {
      "inputs": [
        {
          "internalType": "address",
          "name": "",
          "type": "address"
        },
        {
          "internalType": "uint256",
          "name": "",
          "type": "uint256"
        }
      ],
      "name": "ownerAdIdListMap",
      "outputs": [
        {
          "internalType": "uint256",
          "name": "",
          "type": "uint256"
        }
      ],
      "stateMutability": "view",
      "type": "function",
      "constant": true
    },
    {
      "inputs": [
        {
          "internalType": "uint256",
          "name": "hisseId",
          "type": "uint256"
        },
        {
          "internalType": "uint256",
          "name": "rayicBedeli",
          "type": "uint256"
        },
        {
          "internalType": "uint256",
          "name": "satisFiyat",
          "type": "uint256"
        },
        {
          "internalType": "bool",
          "name": "borcuVarMi",
          "type": "bool"
        }
      ],
      "name": "ilanOlustur",
      "outputs": [],
      "stateMutability": "nonpayable",
      "type": "function"
    },
    {
      "inputs": [
        {
          "internalType": "uint256",
          "name": "ilanId",
          "type": "uint256"
        }
      ],
      "name": "ilanYayindanKaldir",
      "outputs": [],
      "stateMutability": "nonpayable",
      "type": "function"
    },
    {
      "inputs": [
        {
          "internalType": "uint256",
          "name": "ilanId",
          "type": "uint256"
        },
        {
          "internalType": "address",
          "name": "aliciAdd",
          "type": "address"
        },
        {
          "internalType": "uint256",
          "name": "fiyat",
          "type": "uint256"
        }
      ],
      "name": "aliciIcinKilitle",
      "outputs": [],
      "stateMutability": "nonpayable",
      "type": "function"
    },
    {
      "inputs": [
        {
          "internalType": "uint256",
          "name": "ilanId",
          "type": "uint256"
        },
        {
          "internalType": "uint256",
          "name": "newfiyat",
          "type": "uint256"
        }
      ],
      "name": "changeSatisFiyat",
      "outputs": [],
      "stateMutability": "nonpayable",
      "type": "function"
    },
    {
      "inputs": [
        {
          "internalType": "uint256",
          "name": "ilanId",
          "type": "uint256"
        }
      ],
      "name": "kilitKaldirWithAliciOnayi",
      "outputs": [],
      "stateMutability": "nonpayable",
      "type": "function"
    },
    {
      "inputs": [
        {
          "internalType": "uint256",
          "name": "ilanId",
          "type": "uint256"
        }
      ],
      "name": "kilitKaldirWithSaticiOnayi",
      "outputs": [],
      "stateMutability": "nonpayable",
      "type": "function"
    },
    {
      "inputs": [],
      "name": "getAllAds",
      "outputs": [
        {
          "components": [
            {
              "internalType": "uint256",
              "name": "hisseId",
              "type": "uint256"
            },
            {
              "internalType": "address",
              "name": "satici",
              "type": "address"
            },
            {
              "internalType": "address",
              "name": "alici",
              "type": "address"
            },
            {
              "internalType": "enum NotaryContractBase.State",
              "name": "state",
              "type": "uint8"
            },
            {
              "internalType": "uint256",
              "name": "rayicBedeli",
              "type": "uint256"
            },
            {
              "internalType": "uint256",
              "name": "fiyat",
              "type": "uint256"
            },
            {
              "internalType": "bool",
              "name": "borcuVarMi",
              "type": "bool"
            },
            {
              "internalType": "uint256",
              "name": "adIdLUTIndex",
              "type": "uint256"
            },
            {
              "internalType": "bool",
              "name": "aliciParaTransferi",
              "type": "bool"
            },
            {
              "internalType": "bool",
              "name": "saticiParaTransferi",
              "type": "bool"
            }
          ],
          "internalType": "struct NotaryContractBase.Advertisement[]",
          "name": "",
          "type": "tuple[]"
        }
      ],
      "stateMutability": "view",
      "type": "function",
      "constant": true
    },
    {
      "inputs": [
        {
          "internalType": "address",
          "name": "ownAdd",
          "type": "address"
        }
      ],
      "name": "getUserAds",
      "outputs": [
        {
          "components": [
            {
              "internalType": "uint256",
              "name": "hisseId",
              "type": "uint256"
            },
            {
              "internalType": "address",
              "name": "satici",
              "type": "address"
            },
            {
              "internalType": "address",
              "name": "alici",
              "type": "address"
            },
            {
              "internalType": "enum NotaryContractBase.State",
              "name": "state",
              "type": "uint8"
            },
            {
              "internalType": "uint256",
              "name": "rayicBedeli",
              "type": "uint256"
            },
            {
              "internalType": "uint256",
              "name": "fiyat",
              "type": "uint256"
            },
            {
              "internalType": "bool",
              "name": "borcuVarMi",
              "type": "bool"
            },
            {
              "internalType": "uint256",
              "name": "adIdLUTIndex",
              "type": "uint256"
            },
            {
              "internalType": "bool",
              "name": "aliciParaTransferi",
              "type": "bool"
            },
            {
              "internalType": "bool",
              "name": "saticiParaTransferi",
              "type": "bool"
            }
          ],
          "internalType": "struct NotaryContractBase.Advertisement[]",
          "name": "",
          "type": "tuple[]"
        }
      ],
      "stateMutability": "view",
      "type": "function",
      "constant": true
    },
    {
      "inputs": [
        {
          "internalType": "uint256",
          "name": "ilanId",
          "type": "uint256"
        }
      ],
      "name": "ilanaTeklifVerilebilirMi",
      "outputs": [
        {
          "internalType": "bool",
          "name": "",
          "type": "bool"
        }
      ],
      "stateMutability": "view",
      "type": "function",
      "constant": true
    },
    {
      "inputs": [
        {
          "internalType": "uint256",
          "name": "ilanId",
          "type": "uint256"
        }
      ],
      "name": "getIlanSatici",
      "outputs": [
        {
          "internalType": "address",
          "name": "",
          "type": "address"
        }
      ],
      "stateMutability": "view",
      "type": "function",
      "constant": true
    },
    {
      "inputs": [
        {
          "internalType": "uint256",
          "name": "ilanId",
          "type": "uint256"
        }
      ],
      "name": "alicidanParaAlindi",
      "outputs": [],
      "stateMutability": "nonpayable",
      "type": "function"
    },
    {
      "inputs": [
        {
          "internalType": "uint256",
          "name": "ilanId",
          "type": "uint256"
        }
      ],
      "name": "saticidanTapuHarciAlindi",
      "outputs": [],
      "stateMutability": "nonpayable",
      "type": "function"
    },
    {
      "inputs": [
        {
          "internalType": "address",
          "name": "ownAdd",
          "type": "address"
        }
      ],
      "name": "getUserAssets",
      "outputs": [
        {
          "components": [
            {
              "internalType": "uint256",
              "name": "hisseId",
              "type": "uint256"
            },
            {
              "components": [
                {
                  "internalType": "uint256",
                  "name": "pay",
                  "type": "uint256"
                },
                {
                  "internalType": "uint256",
                  "name": "realEstateId",
                  "type": "uint256"
                },
                {
                  "internalType": "address",
                  "name": "ownerAdd",
                  "type": "address"
                },
                {
                  "internalType": "bool",
                  "name": "registered",
                  "type": "bool"
                }
              ],
              "internalType": "struct NotaryContractBase.Hisse",
              "name": "hisse",
              "type": "tuple"
            },
            {
              "internalType": "uint256",
              "name": "ilanId",
              "type": "uint256"
            },
            {
              "components": [
                {
                  "internalType": "uint256",
                  "name": "hisseId",
                  "type": "uint256"
                },
                {
                  "internalType": "address",
                  "name": "satici",
                  "type": "address"
                },
                {
                  "internalType": "address",
                  "name": "alici",
                  "type": "address"
                },
                {
                  "internalType": "enum NotaryContractBase.State",
                  "name": "state",
                  "type": "uint8"
                },
                {
                  "internalType": "uint256",
                  "name": "rayicBedeli",
                  "type": "uint256"
                },
                {
                  "internalType": "uint256",
                  "name": "fiyat",
                  "type": "uint256"
                },
                {
                  "internalType": "bool",
                  "name": "borcuVarMi",
                  "type": "bool"
                },
                {
                  "internalType": "uint256",
                  "name": "adIdLUTIndex",
                  "type": "uint256"
                },
                {
                  "internalType": "bool",
                  "name": "aliciParaTransferi",
                  "type": "bool"
                },
                {
                  "internalType": "bool",
                  "name": "saticiParaTransferi",
                  "type": "bool"
                }
              ],
              "internalType": "struct NotaryContractBase.Advertisement",
              "name": "ad",
              "type": "tuple"
            }
          ],
          "internalType": "struct NotaryContractBase.HisseAdData[]",
          "name": "",
          "type": "tuple[]"
        }
      ],
      "stateMutability": "view",
      "type": "function",
      "constant": true
    }
  ],
  "bytecode": "0x608060405260006006553480156200001657600080fd5b5060405162003a9338038062003a9383398181016040528101906200003c9190620000ed565b806000806101000a81548173ffffffffffffffffffffffffffffffffffffffff021916908373ffffffffffffffffffffffffffffffffffffffff160217905550506200011f565b600080fd5b600073ffffffffffffffffffffffffffffffffffffffff82169050919050565b6000620000b58262000088565b9050919050565b620000c781620000a8565b8114620000d357600080fd5b50565b600081519050620000e781620000bc565b92915050565b60006020828403121562000106576200010562000083565b5b60006200011684828501620000d6565b91505092915050565b613964806200012f6000396000f3fe608060405234801561001057600080fd5b506004361061010b5760003560e01c80638f7df5fe116100a2578063cca1baa111610071578063cca1baa1146102f7578063da05ae3314610313578063dc589fad14610343578063e7f6b3a01461035f578063ebed05921461037b5761010b565b80638f7df5fe146102545780639206e93814610284578063b79f4423146102bd578063ba146846146102db5761010b565b806349a2c6b0116100de57806349a2c6b0146101bc5780634dff90a9146101ec578063765ff061146102085780638c193ff5146102385761010b565b8063157c2a40146101105780633505d12f1461012c578063384154f01461015c5780633fa020e91461018c575b600080fd5b61012a60048036038101906101259190612918565b610397565b005b61014660048036038101906101419190612918565b610549565b6040516101539190612954565b60405180910390f35b61017660048036038101906101719190612918565b610561565b6040516101839190612954565b60405180910390f35b6101a660048036038101906101a19190612918565b610579565b6040516101b3919061298a565b60405180910390f35b6101d660048036038101906101d19190612a03565b6105cd565b6040516101e39190612954565b60405180910390f35b61020660048036038101906102019190612a43565b6105fe565b005b610222600480360381019061021d9190612a96565b610922565b60405161022f9190612d8e565b60405180910390f35b610252600480360381019061024d9190612918565b610d62565b005b61026e60048036038101906102699190612918565b611001565b60405161027b9190612dbf565b60405180910390f35b61029e60048036038101906102999190612918565b611041565b6040516102b49a99989796959493929190612de9565b60405180910390f35b6102c5611109565b6040516102d29190612f35565b60405180910390f35b6102f560048036038101906102f09190612918565b61133d565b005b610311600480360381019061030c9190612918565b6114e3565b005b61032d60048036038101906103289190612a96565b611782565b60405161033a9190612f35565b60405180910390f35b61035d60048036038101906103589190612f83565b611c55565b005b61037960048036038101906103749190612918565b6120f7565b005b61039560048036038101906103909190612fea565b61229e565b005b3373ffffffffffffffffffffffffffffffffffffffff166002600083815260200190815260200160002060010160009054906101000a900473ffffffffffffffffffffffffffffffffffffffff1673ffffffffffffffffffffffffffffffffffffffff161461043b576040517f08c379a0000000000000000000000000000000000000000000000000000000008152600401610432906130ad565b60405180910390fd5b6001600581111561044f5761044e612b71565b5b6002600083815260200190815260200160002060020160149054906101000a900460ff16600581111561048557610484612b71565b5b146104c5576040517f08c379a00000000000000000000000000000000000000000000000000000000081526004016104bc9061313f565b60405180910390fd5b60036002600083815260200190815260200160002060020160146101000a81548160ff021916908360058111156104ff576104fe612b71565b5b021790555061050d816125a0565b7f403a6f9792692b3ee502fa20caf6bb8fd6dcf2af50f28f5745b111e6170b0514338260405161053e92919061315f565b60405180910390a150565b60036020528060005260406000206000915090505481565b60056020528060005260406000206000915090505481565b60006001600581111561058f5761058e612b71565b5b6002600084815260200190815260200160002060020160149054906101000a900460ff1660058111156105c5576105c4612b71565b5b149050919050565b600460205281600052604060002081815481106105e957600080fd5b90600052602060002001600091509150505481565b60006002600085815260200190815260200160002060405180610140016040529081600082015481526020016001820160009054906101000a900473ffffffffffffffffffffffffffffffffffffffff1673ffffffffffffffffffffffffffffffffffffffff1673ffffffffffffffffffffffffffffffffffffffff1681526020016002820160009054906101000a900473ffffffffffffffffffffffffffffffffffffffff1673ffffffffffffffffffffffffffffffffffffffff1673ffffffffffffffffffffffffffffffffffffffff1681526020016002820160149054906101000a900460ff1660058111156106fa576106f9612b71565b5b600581111561070c5761070b612b71565b5b815260200160038201548152602001600482015481526020016005820160009054906101000a900460ff16151515158152602001600682015481526020016007820160009054906101000a900460ff161515151581526020016007820160019054906101000a900460ff16151515158152505090506001600581111561079557610794612b71565b5b816060015160058111156107ac576107ab612b71565b5b146107ec576040517f08c379a00000000000000000000000000000000000000000000000000000000081526004016107e39061313f565b60405180910390fd5b8181608001511115610833576040517f08c379a000000000000000000000000000000000000000000000000000000000815260040161082a906131fa565b60405180910390fd5b600280600086815260200190815260200160002060020160146101000a81548160ff0219169083600581111561086c5761086b612b71565b5b0217905550826002600086815260200190815260200160002060020160006101000a81548173ffffffffffffffffffffffffffffffffffffffff021916908373ffffffffffffffffffffffffffffffffffffffff1602179055508160026000868152602001908152602001600020600401819055507f1479338b27bb727a6d6bdbb8f7554b67addade705ff18a6a4e9f52b7c26f8caf8433856040516109149392919061321a565b60405180910390a150505050565b606060008060009054906101000a900473ffffffffffffffffffffffffffffffffffffffff1673ffffffffffffffffffffffffffffffffffffffff166351fe436a846040518263ffffffff1660e01b81526004016109809190612dbf565b602060405180830381865afa15801561099d573d6000803e3d6000fd5b505050506040513d601f19601f820116820180604052508101906109c19190613266565b905060008167ffffffffffffffff8111156109df576109de613293565b5b604051908082528060200260200182016040528015610a1857816020015b610a056127c8565b8152602001906001900390816109fd5790505b50905060005b82811015610d575760008060009054906101000a900473ffffffffffffffffffffffffffffffffffffffff1673ffffffffffffffffffffffffffffffffffffffff1663794cc53387846040518363ffffffff1660e01b8152600401610a8492919061315f565b602060405180830381865afa158015610aa1573d6000803e3d6000fd5b505050506040513d601f19601f82011682018060405250810190610ac59190613266565b905060008060009054906101000a900473ffffffffffffffffffffffffffffffffffffffff1673ffffffffffffffffffffffffffffffffffffffff1663948c0d8e836040518263ffffffff1660e01b8152600401610b239190612954565b608060405180830381865afa158015610b40573d6000803e3d6000fd5b505050506040513d601f19601f82011682018060405250810190610b6491906133c6565b905060006003600084815260200190815260200160002054905060006002600083815260200190815260200160002060405180610140016040529081600082015481526020016001820160009054906101000a900473ffffffffffffffffffffffffffffffffffffffff1673ffffffffffffffffffffffffffffffffffffffff1673ffffffffffffffffffffffffffffffffffffffff1681526020016002820160009054906101000a900473ffffffffffffffffffffffffffffffffffffffff1673ffffffffffffffffffffffffffffffffffffffff1673ffffffffffffffffffffffffffffffffffffffff1681526020016002820160149054906101000a900460ff166005811115610c7a57610c79612b71565b5b6005811115610c8c57610c8b612b71565b5b815260200160038201548152602001600482015481526020016005820160009054906101000a900460ff16151515158152602001600682015481526020016007820160009054906101000a900460ff161515151581526020016007820160019054906101000a900460ff1615151515815250509050604051806080016040528085815260200184815260200183815260200182815250868681518110610d3557610d346133f3565b5b6020026020010181905250505050508080610d4f90613451565b915050610a1e565b508092505050919050565b60016002600083815260200190815260200160002060070160006101000a81548160ff02191690831515021790555060006002600083815260200190815260200160002060405180610140016040529081600082015481526020016001820160009054906101000a900473ffffffffffffffffffffffffffffffffffffffff1673ffffffffffffffffffffffffffffffffffffffff1673ffffffffffffffffffffffffffffffffffffffff1681526020016002820160009054906101000a900473ffffffffffffffffffffffffffffffffffffffff1673ffffffffffffffffffffffffffffffffffffffff1673ffffffffffffffffffffffffffffffffffffffff1681526020016002820160149054906101000a900460ff166005811115610e8d57610e8c612b71565b5b6005811115610e9f57610e9e612b71565b5b815260200160038201548152602001600482015481526020016005820160009054906101000a900460ff16151515158152602001600682015481526020016007820160009054906101000a900460ff161515151581526020016007820160019054906101000a900460ff161515151581525050905080610120015115610ffd5760008054906101000a900473ffffffffffffffffffffffffffffffffffffffff1673ffffffffffffffffffffffffffffffffffffffff166377646798826000015183604001516040518363ffffffff1660e01b8152600401610f82929190613499565b600060405180830381600087803b158015610f9c57600080fd5b505af1158015610fb0573d6000803e3d6000fd5b5050505060046002600084815260200190815260200160002060020160146101000a81548160ff02191690836005811115610fee57610fed612b71565b5b0217905550610ffc826125a0565b5b5050565b60006002600083815260200190815260200160002060010160009054906101000a900473ffffffffffffffffffffffffffffffffffffffff169050919050565b60026020528060005260406000206000915090508060000154908060010160009054906101000a900473ffffffffffffffffffffffffffffffffffffffff16908060020160009054906101000a900473ffffffffffffffffffffffffffffffffffffffff16908060020160149054906101000a900460ff16908060030154908060040154908060050160009054906101000a900460ff16908060060154908060070160009054906101000a900460ff16908060070160019054906101000a900460ff1690508a565b6060600060065467ffffffffffffffff81111561112957611128613293565b5b60405190808252806020026020018201604052801561116257816020015b61114f6127fc565b8152602001906001900390816111475790505b50905060005b60065481101561133557600260006005600084815260200190815260200160002054815260200190815260200160002060405180610140016040529081600082015481526020016001820160009054906101000a900473ffffffffffffffffffffffffffffffffffffffff1673ffffffffffffffffffffffffffffffffffffffff1673ffffffffffffffffffffffffffffffffffffffff1681526020016002820160009054906101000a900473ffffffffffffffffffffffffffffffffffffffff1673ffffffffffffffffffffffffffffffffffffffff1673ffffffffffffffffffffffffffffffffffffffff1681526020016002820160149054906101000a900460ff16600581111561127f5761127e612b71565b5b600581111561129157611290612b71565b5b815260200160038201548152602001600482015481526020016005820160009054906101000a900460ff16151515158152602001600682015481526020016007820160009054906101000a900460ff161515151581526020016007820160019054906101000a900460ff161515151581525050828281518110611317576113166133f3565b5b6020026020010181905250808061132d90613451565b915050611168565b508091505090565b6002600082815260200190815260200160002060010160009054906101000a900473ffffffffffffffffffffffffffffffffffffffff1673ffffffffffffffffffffffffffffffffffffffff163373ffffffffffffffffffffffffffffffffffffffff16146113e1576040517f08c379a00000000000000000000000000000000000000000000000000000000081526004016113d8906130ad565b60405180910390fd5b6005808111156113f4576113f3612b71565b5b6002600083815260200190815260200160002060020160149054906101000a900460ff16600581111561142a57611429612b71565b5b1461146a576040517f08c379a00000000000000000000000000000000000000000000000000000000081526004016114619061350e565b60405180910390fd5b60016002600083815260200190815260200160002060020160146101000a81548160ff021916908360058111156114a4576114a3612b71565b5b02179055507f1943ff8fe66129619ad45b43d7666b90f9f10c041d2d491444879220812d647d816040516114d89190612954565b60405180910390a150565b60016002600083815260200190815260200160002060070160016101000a81548160ff02191690831515021790555060006002600083815260200190815260200160002060405180610140016040529081600082015481526020016001820160009054906101000a900473ffffffffffffffffffffffffffffffffffffffff1673ffffffffffffffffffffffffffffffffffffffff1673ffffffffffffffffffffffffffffffffffffffff1681526020016002820160009054906101000a900473ffffffffffffffffffffffffffffffffffffffff1673ffffffffffffffffffffffffffffffffffffffff1673ffffffffffffffffffffffffffffffffffffffff1681526020016002820160149054906101000a900460ff16600581111561160e5761160d612b71565b5b60058111156116205761161f612b71565b5b815260200160038201548152602001600482015481526020016005820160009054906101000a900460ff16151515158152602001600682015481526020016007820160009054906101000a900460ff161515151581526020016007820160019054906101000a900460ff16151515158152505090508061010001511561177e5760008054906101000a900473ffffffffffffffffffffffffffffffffffffffff1673ffffffffffffffffffffffffffffffffffffffff166377646798826000015183604001516040518363ffffffff1660e01b8152600401611703929190613499565b600060405180830381600087803b15801561171d57600080fd5b505af1158015611731573d6000803e3d6000fd5b5050505060046002600084815260200190815260200160002060020160146101000a81548160ff0219169083600581111561176f5761176e612b71565b5b021790555061177d826125a0565b5b5050565b60606000600460008473ffffffffffffffffffffffffffffffffffffffff1673ffffffffffffffffffffffffffffffffffffffff16815260200190815260200160002080548060200260200160405190810160405280929190818152602001828054801561180f57602002820191906000526020600020905b8154815260200190600101908083116117fb575b505050505090506000815167ffffffffffffffff81111561183357611832613293565b5b60405190808252806020026020018201604052801561186c57816020015b6118596127fc565b8152602001906001900390816118515790505b50905060005b8251811015611c4a57600060026000858481518110611894576118936133f3565b5b6020026020010151815260200190815260200160002060405180610140016040529081600082015481526020016001820160009054906101000a900473ffffffffffffffffffffffffffffffffffffffff1673ffffffffffffffffffffffffffffffffffffffff1673ffffffffffffffffffffffffffffffffffffffff1681526020016002820160009054906101000a900473ffffffffffffffffffffffffffffffffffffffff1673ffffffffffffffffffffffffffffffffffffffff1673ffffffffffffffffffffffffffffffffffffffff1681526020016002820160149054906101000a900460ff16600581111561199157611990612b71565b5b60058111156119a3576119a2612b71565b5b815260200160038201548152602001600482015481526020016005820160009054906101000a900460ff16151515158152602001600682015481526020016007820160009054906101000a900460ff161515151581526020016007820160019054906101000a900460ff161515151581525050905060036005811115611a2c57611a2b612b71565b5b81606001516005811115611a4357611a42612b71565b5b141580611a79575060046005811115611a5f57611a5e612b71565b5b81606001516005811115611a7657611a75612b71565b5b14155b15611c365760026000858481518110611a9557611a946133f3565b5b6020026020010151815260200190815260200160002060405180610140016040529081600082015481526020016001820160009054906101000a900473ffffffffffffffffffffffffffffffffffffffff1673ffffffffffffffffffffffffffffffffffffffff1673ffffffffffffffffffffffffffffffffffffffff1681526020016002820160009054906101000a900473ffffffffffffffffffffffffffffffffffffffff1673ffffffffffffffffffffffffffffffffffffffff1673ffffffffffffffffffffffffffffffffffffffff1681526020016002820160149054906101000a900460ff166005811115611b9257611b91612b71565b5b6005811115611ba457611ba3612b71565b5b815260200160038201548152602001600482015481526020016005820160009054906101000a900460ff16151515158152602001600682015481526020016007820160009054906101000a900460ff161515151581526020016007820160019054906101000a900460ff161515151581525050838381518110611c2a57611c296133f3565b5b60200260200101819052505b508080611c4290613451565b915050611872565b508092505050919050565b60008054906101000a900473ffffffffffffffffffffffffffffffffffffffff1673ffffffffffffffffffffffffffffffffffffffff166389642c5485336040518363ffffffff1660e01b8152600401611cb0929190613499565b602060405180830381865afa158015611ccd573d6000803e3d6000fd5b505050506040513d601f19601f82011682018060405250810190611cf1919061352e565b611d30576040517f08c379a0000000000000000000000000000000000000000000000000000000008152600401611d27906135a7565b60405180910390fd5b6000600360008681526020019081526020016000205414611d86576040517f08c379a0000000000000000000000000000000000000000000000000000000008152600401611d7d90613639565b60405180910390fd5b81831115611dc9576040517f08c379a0000000000000000000000000000000000000000000000000000000008152600401611dc0906131fa565b60405180910390fd5b8015611e0a576040517f08c379a0000000000000000000000000000000000000000000000000000000008152600401611e01906136a5565b60405180910390fd5b600042905060006040518061014001604052808781526020013373ffffffffffffffffffffffffffffffffffffffff168152602001600073ffffffffffffffffffffffffffffffffffffffff16815260200160016005811115611e7057611e6f612b71565b5b81526020018681526020018581526020018415158152602001600654815260200160001515815260200160001515815250905080600260008481526020019081526020016000206000820151816000015560208201518160010160006101000a81548173ffffffffffffffffffffffffffffffffffffffff021916908373ffffffffffffffffffffffffffffffffffffffff16021790555060408201518160020160006101000a81548173ffffffffffffffffffffffffffffffffffffffff021916908373ffffffffffffffffffffffffffffffffffffffff16021790555060608201518160020160146101000a81548160ff02191690836005811115611f7a57611f79612b71565b5b02179055506080820151816003015560a0820151816004015560c08201518160050160006101000a81548160ff02191690831515021790555060e082015181600601556101008201518160070160006101000a81548160ff0219169083151502179055506101208201518160070160016101000a81548160ff02191690831515021790555090505081600360008881526020019081526020016000208190555081600560006006548152602001908152602001600020819055506006600081548092919061204790613451565b9190505550600460003373ffffffffffffffffffffffffffffffffffffffff1673ffffffffffffffffffffffffffffffffffffffff1681526020019081526020016000208290806001815401808255809150506001900390600052602060002001600090919091909150557f932bb8e1964b19f151b100006d1433bdf7b9a6d6368ec8d600028f2b19320703863384876040516120e794939291906136c5565b60405180910390a1505050505050565b6002600082815260200190815260200160002060020160009054906101000a900473ffffffffffffffffffffffffffffffffffffffff1673ffffffffffffffffffffffffffffffffffffffff163373ffffffffffffffffffffffffffffffffffffffff161461219b576040517f08c379a00000000000000000000000000000000000000000000000000000000081526004016121929061377c565b60405180910390fd5b600260058111156121af576121ae612b71565b5b6002600083815260200190815260200160002060020160149054906101000a900460ff1660058111156121e5576121e4612b71565b5b14612225576040517f08c379a000000000000000000000000000000000000000000000000000000000815260040161221c906137e8565b60405180910390fd5b60056002600083815260200190815260200160002060020160146101000a81548160ff0219169083600581111561225f5761225e612b71565b5b02179055507f48ae6fca79163101ea4f5b073efc510017228ac372cd41c1d2b4e8ec683bd822816040516122939190612954565b60405180910390a150565b60006002600084815260200190815260200160002060405180610140016040529081600082015481526020016001820160009054906101000a900473ffffffffffffffffffffffffffffffffffffffff1673ffffffffffffffffffffffffffffffffffffffff1673ffffffffffffffffffffffffffffffffffffffff1681526020016002820160009054906101000a900473ffffffffffffffffffffffffffffffffffffffff1673ffffffffffffffffffffffffffffffffffffffff1673ffffffffffffffffffffffffffffffffffffffff1681526020016002820160149054906101000a900460ff16600581111561239a57612399612b71565b5b60058111156123ac576123ab612b71565b5b815260200160038201548152602001600482015481526020016005820160009054906101000a900460ff16151515158152602001600682015481526020016007820160009054906101000a900460ff161515151581526020016007820160019054906101000a900460ff16151515158152505090503373ffffffffffffffffffffffffffffffffffffffff16816020015173ffffffffffffffffffffffffffffffffffffffff1614612493576040517f08c379a000000000000000000000000000000000000000000000000000000000815260040161248a9061387a565b60405180910390fd5b600160058111156124a7576124a6612b71565b5b816060015160058111156124be576124bd612b71565b5b146124fe576040517f08c379a00000000000000000000000000000000000000000000000000000000081526004016124f59061313f565b60405180910390fd5b8181608001511115612545576040517f08c379a000000000000000000000000000000000000000000000000000000000815260040161253c906131fa565b60405180910390fd5b8160026000858152602001908152602001600020600401819055507f32f2b6309378457b4dd94fe258595c9b095bcde80654521e246cbc06bf6329618383336040516125939392919061389a565b60405180910390a1505050565b60006002600083815260200190815260200160002060405180610140016040529081600082015481526020016001820160009054906101000a900473ffffffffffffffffffffffffffffffffffffffff1673ffffffffffffffffffffffffffffffffffffffff1673ffffffffffffffffffffffffffffffffffffffff1681526020016002820160009054906101000a900473ffffffffffffffffffffffffffffffffffffffff1673ffffffffffffffffffffffffffffffffffffffff1673ffffffffffffffffffffffffffffffffffffffff1681526020016002820160149054906101000a900460ff16600581111561269c5761269b612b71565b5b60058111156126ae576126ad612b71565b5b815260200160038201548152602001600482015481526020016005820160009054906101000a900460ff16151515158152602001600682015481526020016007820160009054906101000a900460ff161515151581526020016007820160019054906101000a900460ff1615151515815250509050600060036000836000015181526020019081526020016000208190555060008160e001519050600060056000600160065461275e91906138d1565b81526020019081526020016000205490508084146127aa578160026000838152602001908152602001600020600601819055508060056000848152602001908152602001600020819055505b600660008154809291906127bd90613905565b919050555050505050565b6040518060800160405280600081526020016127e2612893565b8152602001600081526020016127f66127fc565b81525090565b60405180610140016040528060008152602001600073ffffffffffffffffffffffffffffffffffffffff168152602001600073ffffffffffffffffffffffffffffffffffffffff1681526020016000600581111561285d5761285c612b71565b5b81526020016000815260200160008152602001600015158152602001600081526020016000151581526020016000151581525090565b60405180608001604052806000815260200160008152602001600073ffffffffffffffffffffffffffffffffffffffff1681526020016000151581525090565b6000604051905090565b600080fd5b6000819050919050565b6128f5816128e2565b811461290057600080fd5b50565b600081359050612912816128ec565b92915050565b60006020828403121561292e5761292d6128dd565b5b600061293c84828501612903565b91505092915050565b61294e816128e2565b82525050565b60006020820190506129696000830184612945565b92915050565b60008115159050919050565b6129848161296f565b82525050565b600060208201905061299f600083018461297b565b92915050565b600073ffffffffffffffffffffffffffffffffffffffff82169050919050565b60006129d0826129a5565b9050919050565b6129e0816129c5565b81146129eb57600080fd5b50565b6000813590506129fd816129d7565b92915050565b60008060408385031215612a1a57612a196128dd565b5b6000612a28858286016129ee565b9250506020612a3985828601612903565b9150509250929050565b600080600060608486031215612a5c57612a5b6128dd565b5b6000612a6a86828701612903565b9350506020612a7b868287016129ee565b9250506040612a8c86828701612903565b9150509250925092565b600060208284031215612aac57612aab6128dd565b5b6000612aba848285016129ee565b91505092915050565b600081519050919050565b600082825260208201905092915050565b6000819050602082019050919050565b612af8816128e2565b82525050565b612b07816129c5565b82525050565b612b168161296f565b82525050565b608082016000820151612b326000850182612aef565b506020820151612b456020850182612aef565b506040820151612b586040850182612afe565b506060820151612b6b6060850182612b0d565b50505050565b7f4e487b7100000000000000000000000000000000000000000000000000000000600052602160045260246000fd5b60068110612bb157612bb0612b71565b5b50565b6000819050612bc282612ba0565b919050565b6000612bd282612bb4565b9050919050565b612be281612bc7565b82525050565b61014082016000820151612bff6000850182612aef565b506020820151612c126020850182612afe565b506040820151612c256040850182612afe565b506060820151612c386060850182612bd9565b506080820151612c4b6080850182612aef565b5060a0820151612c5e60a0850182612aef565b5060c0820151612c7160c0850182612b0d565b5060e0820151612c8460e0850182612aef565b50610100820151612c99610100850182612b0d565b50610120820151612cae610120850182612b0d565b50505050565b61020082016000820151612ccb6000850182612aef565b506020820151612cde6020850182612b1c565b506040820151612cf160a0850182612aef565b506060820151612d0460c0850182612be8565b50505050565b6000612d168383612cb4565b6102008301905092915050565b6000602082019050919050565b6000612d3b82612ac3565b612d458185612ace565b9350612d5083612adf565b8060005b83811015612d81578151612d688882612d0a565b9750612d7383612d23565b925050600181019050612d54565b5085935050505092915050565b60006020820190508181036000830152612da88184612d30565b905092915050565b612db9816129c5565b82525050565b6000602082019050612dd46000830184612db0565b92915050565b612de381612bc7565b82525050565b600061014082019050612dff600083018d612945565b612e0c602083018c612db0565b612e19604083018b612db0565b612e26606083018a612dda565b612e336080830189612945565b612e4060a0830188612945565b612e4d60c083018761297b565b612e5a60e0830186612945565b612e6861010083018561297b565b612e7661012083018461297b565b9b9a5050505050505050505050565b600081519050919050565b600082825260208201905092915050565b6000819050602082019050919050565b6000612ebd8383612be8565b6101408301905092915050565b6000602082019050919050565b6000612ee282612e85565b612eec8185612e90565b9350612ef783612ea1565b8060005b83811015612f28578151612f0f8882612eb1565b9750612f1a83612eca565b925050600181019050612efb565b5085935050505092915050565b60006020820190508181036000830152612f4f8184612ed7565b905092915050565b612f608161296f565b8114612f6b57600080fd5b50565b600081359050612f7d81612f57565b92915050565b60008060008060808587031215612f9d57612f9c6128dd565b5b6000612fab87828801612903565b9450506020612fbc87828801612903565b9350506040612fcd87828801612903565b9250506060612fde87828801612f6e565b91505092959194509250565b60008060408385031215613001576130006128dd565b5b600061300f85828601612903565b925050602061302085828601612903565b9150509250929050565b600082825260208201905092915050565b7f42752069736c656d2073616465636520736174696369207461726166696e646160008201527f6e20796170696c69720000000000000000000000000000000000000000000000602082015250565b600061309760298361302a565b91506130a28261303b565b604082019050919050565b600060208201905081810360008301526130c68161308a565b9050919050565b7f53616465636520796179696e6461206f6c616e20696c616e6c6172206963696e60008201527f2062752069736c656d20796170696c6162696c69720000000000000000000000602082015250565b600061312960358361302a565b9150613134826130cd565b604082019050919050565b600060208201905081810360008301526131588161311c565b9050919050565b60006040820190506131746000830185612db0565b6131816020830184612945565b9392505050565b7f536174697320666979617420726179696320626564656c64656e20647573756b60008201527f206f6c616d617a00000000000000000000000000000000000000000000000000602082015250565b60006131e460278361302a565b91506131ef82613188565b604082019050919050565b60006020820190508181036000830152613213816131d7565b9050919050565b600060608201905061322f6000830186612945565b61323c6020830185612db0565b6132496040830184612db0565b949350505050565b600081519050613260816128ec565b92915050565b60006020828403121561327c5761327b6128dd565b5b600061328a84828501613251565b91505092915050565b7f4e487b7100000000000000000000000000000000000000000000000000000000600052604160045260246000fd5b600080fd5b6000601f19601f8301169050919050565b6132e1826132c7565b810181811067ffffffffffffffff82111715613300576132ff613293565b5b80604052505050565b60006133136128d3565b905061331f82826132d8565b919050565b600081519050613333816129d7565b92915050565b60008151905061334881612f57565b92915050565b600060808284031215613364576133636132c2565b5b61336e6080613309565b9050600061337e84828501613251565b600083015250602061339284828501613251565b60208301525060406133a684828501613324565b60408301525060606133ba84828501613339565b60608301525092915050565b6000608082840312156133dc576133db6128dd565b5b60006133ea8482850161334e565b91505092915050565b7f4e487b7100000000000000000000000000000000000000000000000000000000600052603260045260246000fd5b7f4e487b7100000000000000000000000000000000000000000000000000000000600052601160045260246000fd5b600061345c826128e2565b91507fffffffffffffffffffffffffffffffffffffffffffffffffffffffffffffffff820361348e5761348d613422565b5b600182019050919050565b60006040820190506134ae6000830185612945565b6134bb6020830184612db0565b9392505050565b7f6f6e63656c696b6c6520616c696369206b696c6974206b616c6469726d616c69600082015250565b60006134f860208361302a565b9150613503826134c2565b602082019050919050565b60006020820190508181036000830152613527816134eb565b9050919050565b600060208284031215613544576135436128dd565b5b600061355284828501613339565b91505092915050565b7f48697373652073697374656d646520796f6b0000000000000000000000000000600082015250565b600061359160128361302a565b915061359c8261355b565b602082019050919050565b600060208201905081810360008301526135c081613584565b9050919050565b7f6164766572746973656d656e7420666f72207265616c2065737461746520616c60008201527f726561647920657869737420696e207468652073797374656d00000000000000602082015250565b600061362360398361302a565b915061362e826135c7565b604082019050919050565b6000602082019050818103600083015261365281613616565b9050919050565b7f47617972696d656e6b756c756e20766572676920626f726375206f6c6d617a00600082015250565b600061368f601f8361302a565b915061369a82613659565b602082019050919050565b600060208201905081810360008301526136be81613682565b9050919050565b60006080820190506136da6000830187612945565b6136e76020830186612db0565b6136f46040830185612945565b6137016060830184612945565b95945050505050565b7f42752069736c656d2073616465636520616c696369207461726166696e64616e60008201527f20796170696c6972000000000000000000000000000000000000000000000000602082015250565b600061376660288361302a565b91506137718261370a565b604082019050919050565b6000602082019050818103600083015261379581613759565b9050919050565b7f696c616e20616c696369206963696e206b69746c656e6d656d69730000000000600082015250565b60006137d2601b8361302a565b91506137dd8261379c565b602082019050919050565b60006020820190508181036000830152613801816137c5565b9050919050565b7f42752069736c656d692073616465636520736174696369207961706162696c6960008201527f7200000000000000000000000000000000000000000000000000000000000000602082015250565b600061386460218361302a565b915061386f82613808565b604082019050919050565b6000602082019050818103600083015261389381613857565b9050919050565b60006060820190506138af6000830186612945565b6138bc6020830185612945565b6138c96040830184612db0565b949350505050565b60006138dc826128e2565b91506138e7836128e2565b9250828210156138fa576138f9613422565b5b828203905092915050565b6000613910826128e2565b91506000820361392357613922613422565b5b60018203905091905056fea26469706673582212204a29d9b76144c682d59a2669ff98ccd5c0b7d1b5014a3b6ff4b29024275faa1364736f6c634300080e0033",
  "immutableReferences": {},
  "source": "// SPDX-License-Identifier: UNLICENSED\r\npragma solidity ^0.8.0;\r\n\r\nimport \"./Owner.sol\";\r\nimport \"./RealEstateOwnerRelation.sol\";\r\nimport \"./NotaryContractBase.sol\";\r\n\r\ncontract RealEstateSaleAd is NotaryContractBase{\r\n\r\n    RealEstateOwnerRelation realEstateOwnerRelation;\r\n    Owner ownerContract;\r\n\r\n    event ilanOlusturuldu(uint hisseId, address saticiId, uint ilanId, uint fiyat);\r\n    event ilanYayindanKaldirildi(address saticiId, uint ilanId);\r\n    event aliciIcinKilitlendi(uint ilanId, address saticiId, address aliciId);    \r\n    event fiyatDegistir(uint ilanId, uint yeniSatisFiyat, address saticiId);\r\n    event kilitKaldirildiWithAliciOnayi(uint ilanId);\r\n    event kilitKaldirildiWithSaticiOnayi(uint ilanId);\r\n    event alicisistemHesabinaParaAktardi(address alici, uint ilanId, uint miktar);\r\n \r\n    mapping (uint => Advertisement) public adIdMap;\r\n    mapping (uint => uint) public hisseIdAdIdMap;\r\n    mapping (address => uint[]) public ownerAdIdListMap;\r\n    mapping (uint => uint) public adIdLUT;\r\n    uint adIdLUTLength = 0;\r\n\r\n    constructor(address realOwnRelAddress)  {\r\n        //ownerContract=Owner(ownerContractAdd);\r\n        realEstateOwnerRelation=RealEstateOwnerRelation(realOwnRelAddress);\r\n    }\r\n\r\n    function ilanOlustur(uint hisseId, uint256 rayicBedeli, uint256 satisFiyat, bool borcuVarMi) public {\r\n        require(realEstateOwnerRelation.hisseSatisaCikabilirMi(hisseId, msg.sender), \"Hisse sistemde yok\");\r\n        require(hisseIdAdIdMap[hisseId] == 0, \"advertisement for real estate already exist in the system\");\r\n        require(rayicBedeli <= satisFiyat, \"Satis fiyat rayic bedelden dusuk olamaz\");\r\n        require(!borcuVarMi, \"Gayrimenkulun vergi borcu olmaz\");\r\n\r\n        uint ilanId = block.timestamp;\r\n        Advertisement memory ad = Advertisement(hisseId, msg.sender, address(0), State.YAYINDA, rayicBedeli, satisFiyat, borcuVarMi, adIdLUTLength, false, false);\r\n        adIdMap[ilanId] = ad;\r\n        hisseIdAdIdMap[hisseId] = ilanId;\r\n        adIdLUT[adIdLUTLength] = ilanId;\r\n        adIdLUTLength++;\r\n        ownerAdIdListMap[msg.sender].push(ilanId);\r\n        emit ilanOlusturuldu(hisseId, msg.sender, ilanId, satisFiyat);\r\n    }\r\n\r\n    function ilanYayindanKaldir(uint ilanId) public {\r\n        require(adIdMap[ilanId].satici == msg.sender, \"Bu islem sadece satici tarafindan yapilir\");\r\n        require(adIdMap[ilanId].state == State.YAYINDA, \"Sadece yayinda olan ilanlar icin bu islem yapilabilir\");\r\n        adIdMap[ilanId].state = State.YAYINDAN_KALDIRILDI;        \r\n        updateLUT(ilanId);\r\n        emit ilanYayindanKaldirildi(msg.sender, ilanId);\r\n    }\r\n    \r\n    function updateLUT(uint ilanId) private {\r\n        Advertisement memory yayindanKaldirildiAd = adIdMap[ilanId];\r\n        hisseIdAdIdMap[yayindanKaldirildiAd.hisseId] = 0;\r\n        uint yayindanKaldirilanItemIndex = yayindanKaldirildiAd.adIdLUTIndex;\r\n        uint lastAdInLUT = adIdLUT[adIdLUTLength -1];\r\n        if(ilanId != lastAdInLUT){\r\n            adIdMap[lastAdInLUT].adIdLUTIndex = yayindanKaldirilanItemIndex;\r\n            adIdLUT[yayindanKaldirilanItemIndex] = lastAdInLUT;              \r\n        }\r\n        adIdLUTLength--;\r\n    }\r\n\r\n    function aliciIcinKilitle(uint ilanId, address aliciAdd, uint fiyat) public {\r\n        Advertisement memory ad =  adIdMap[ilanId];\r\n        //require(ad.satici == msg.sender, \"Bu islemi sadece satici yapabilir\");\r\n        require(ad.state == State.YAYINDA, \"Sadece yayinda olan ilanlar icin bu islem yapilabilir\");\r\n        require(ad.rayicBedeli <= fiyat, \"Satis fiyat rayic bedelden dusuk olamaz\");\r\n        adIdMap[ilanId].state = State.ALICI_ICIN_KILITLENDI;\r\n        adIdMap[ilanId].alici = aliciAdd;\r\n        adIdMap[ilanId].fiyat = fiyat;\r\n\r\n        emit aliciIcinKilitlendi(ilanId, msg.sender, aliciAdd);    \r\n    }\r\n\r\n    function changeSatisFiyat(uint ilanId, uint newfiyat) public {\r\n        Advertisement memory ad =  adIdMap[ilanId];\r\n        require(ad.satici == msg.sender, \"Bu islemi sadece satici yapabilir\");\r\n        require(ad.state == State.YAYINDA, \"Sadece yayinda olan ilanlar icin bu islem yapilabilir\");\r\n        require(ad.rayicBedeli <= newfiyat, \"Satis fiyat rayic bedelden dusuk olamaz\");\r\n        adIdMap[ilanId].fiyat = newfiyat;\r\n        emit fiyatDegistir(ilanId, newfiyat, msg.sender);\r\n    }\r\n\r\n    function kilitKaldirWithAliciOnayi(uint ilanId) public {\r\n        require(msg.sender == adIdMap[ilanId].alici, \"Bu islem sadece alici tarafindan yapilir\");\r\n        require(adIdMap[ilanId].state == State.ALICI_ICIN_KILITLENDI, \"ilan alici icin kitlenmemis\");\r\n        adIdMap[ilanId].state = State.ALICI_ONAYI_ILE_KILIT_KALDIRMA;\r\n        emit kilitKaldirildiWithAliciOnayi(ilanId);\r\n    }\r\n\r\n    function kilitKaldirWithSaticiOnayi(uint ilanId) public {\r\n        require(msg.sender == adIdMap[ilanId].satici, \"Bu islem sadece satici tarafindan yapilir\");\r\n        require(adIdMap[ilanId].state == State.ALICI_ONAYI_ILE_KILIT_KALDIRMA, \"oncelikle alici kilit kaldirmali\");\r\n        adIdMap[ilanId].state = State.YAYINDA;\r\n        emit kilitKaldirildiWithSaticiOnayi(ilanId);\r\n    }\r\n\r\n    function getAllAds() public view returns(Advertisement [] memory){\r\n        Advertisement [] memory ads = new Advertisement[](adIdLUTLength);\r\n        for(uint i = 0; i< adIdLUTLength; i++){\r\n            ads[i] = adIdMap[adIdLUT[i]];\r\n        }\r\n        return ads;\r\n    }\r\n\r\n    function getUserAds(address ownAdd) public view returns(Advertisement [] memory){\r\n        //sadece kullanici yapabilsin kendi ilanlarini grebilsin\r\n        uint[] memory ownAdIds = ownerAdIdListMap[ownAdd];\r\n        Advertisement [] memory ads = new Advertisement[](ownAdIds.length);        \r\n        for(uint i = 0; i< ownAdIds.length; i++){\r\n            Advertisement memory ad = adIdMap[ownAdIds[i]];\r\n            if(ad.state != State.YAYINDAN_KALDIRILDI || ad.state != State.DEVIR_ISLEMI_TAMAMLANDI){\r\n                ads[i] = adIdMap[ownAdIds[i]];\r\n            }\r\n        }\r\n        return ads;\r\n    }   \r\n\r\n    function ilanaTeklifVerilebilirMi(uint ilanId) public view returns(bool){\r\n        return adIdMap[ilanId].state == State.YAYINDA;\r\n    }\r\n\r\n    function getIlanSatici(uint ilanId) public view returns(address){\r\n        return adIdMap[ilanId].satici;\r\n    }\r\n\r\n    function alicidanParaAlindi(uint ilanId) public {\r\n        //sadece admin yapabilsin\r\n        adIdMap[ilanId].aliciParaTransferi = true;\r\n        Advertisement memory advertisement = adIdMap[ilanId];\r\n        if(advertisement.saticiParaTransferi){\r\n            realEstateOwnerRelation.changeOwnerShip(advertisement.hisseId, advertisement.alici);\r\n            adIdMap[ilanId].state = State.DEVIR_ISLEMI_TAMAMLANDI;\r\n            updateLUT(ilanId);\r\n        }\r\n    }\r\n\r\n    function saticidanTapuHarciAlindi(uint ilanId) public {\r\n        //sadece admin yapabilsin\r\n        adIdMap[ilanId].saticiParaTransferi = true;\r\n        Advertisement memory advertisement = adIdMap[ilanId];\r\n        if(advertisement.aliciParaTransferi){\r\n            realEstateOwnerRelation.changeOwnerShip(advertisement.hisseId, advertisement.alici);\r\n            adIdMap[ilanId].state = State.DEVIR_ISLEMI_TAMAMLANDI;\r\n            updateLUT(ilanId);\r\n        }\r\n    }\r\n\r\n    function getUserAssets(address ownAdd) public view returns(HisseAdData[] memory){\r\n        uint hisseIdsLength = realEstateOwnerRelation.getOwnerHisseLength(ownAdd);\r\n        HisseAdData [] memory result = new HisseAdData[](hisseIdsLength);\r\n        for(uint i = 0; i< hisseIdsLength; i++){\r\n            uint hisseId = realEstateOwnerRelation.getOwnerHisseId(ownAdd, i);\r\n            Hisse memory hisse = realEstateOwnerRelation.getHisse(hisseId);\r\n            uint ilanId = hisseIdAdIdMap[hisseId];\r\n            Advertisement memory advertisement = adIdMap[ilanId];\r\n            result[i] = HisseAdData(hisseId, hisse, ilanId, advertisement);\r\n        }\r\n        return result;\r\n    }\r\n\r\n}\r\n",
  "sourcePath": "D:\\Ethereum Projects\\DAWithEth\\truffle-project\\contracts\\RealEstateSaleAd.sol",
  "compiler": {
    "name": "solc",
    "version": "0.8.14+commit.80d49f37.Emscripten.clang"
  },
  "schemaVersion": "3.4.11",
  "updatedAt": "2023-01-09T18:25:34.982Z",
  "networkType": "ethereum",
  "devdoc": {
    "kind": "dev",
    "methods": {},
    "version": 1
  },
  "userdoc": {
    "kind": "user",
    "methods": {},
    "version": 1
  }
}